:100000000C9486010C94B7010C94B7010C94B701C1
:100010000C94B7010C94B7010C94B7010C94B70180
:100020000C94B7010C94B7010C94B7010C94B70170
:100030000C94B7010C94B7010C94B7010C94B70160
:100040000C94B7010C9405070C94B7010C94B701FC
:100050000C94B7010C94B7010C94B7010C94D10522
:100060000C94B7010C94B7010C94B7010C94B70130
:100070000C94B7010C94B7010C94B7010C94B70120
:100080000C94D7060C94B7010C94B7010C94B701EB
:100090000C9445060C941B060C94B7010C94B70104
:1000A0000C94B7010C94B7010C94A9060C94B701F9
:1000B0000C94B7010C94B7010C94B7010C947B0617
:1000C0000C94B7010C94B7010C94B7010C94B701D0
:1000D0000C94B7010C94B7010C94B7010C94B701C0
:1000E0000C94B70107634236B79BD8A71A396856F4
:1000F00018AEBAAB558C1D3CB7CC5763BD6DEDFD4A
:10010000753EF6177231BF000000803F0800000006
:10011000BE922449123EABAAAA2ABECDCCCC4C3EFC
:1001200000000080BEABAAAAAA3E00000000BF00EB
:100130000000803F0000000000084178D3BB4387E7
:10014000D1133D190E3CC3BD4282AD2B3E68EC82FB
:1001500076BED98FE1A93E4C80EFFFBE01C4FF7F80
:100160003F00000000000C94D30C0C94F2010C949E
:100170004E070C9473030C94500D0C941F0D0C94AB
:10018000F6010C94E9010C9417020C94F8030C94FA
:1001900004020C94D7010C9442030C941C020C949E
:1001A00000020C94FC010C94AB030C9451030C94CE
:1001B00065030C9415030C9418020C9412020C9411
:1001C000E1010C940A020C94DD010C94580C0C947F
:1001D000E5010C940C0D0C94420C0C94E80C0C945E
:1001E000220C0C940E020C94EC010000210024005F
:1001F00027002A002D003000330001010000040117
:1002000007010A0100002200250028002B002E0013
:100210003100340002010000050108010B0100005B
:1002200020002300260029002C002F0032000001AE
:100230000000030106010901050505050705080879
:100240000808020202020A0A080804040404010160
:100250000101010101010303030303030303040775
:1002600007070C0C0C0C0C0C0C0C0202020206060C
:100270000606060606060B0B0B0B0B0B0B0B0102FF
:1002800010202008081020401020408002010201A8
:100290000804020101020408102040808040201060
:1002A00008040201800402018040201008040201B9
:1002B0000804020101020408102040800102040821
:1002C0001020408000000A0B02090C0D0E080703E5
:1002D0000401000000000000000000000000000019
:1002E000000000000000000000000000000000000E
:1002F00012111000000000000000000000000000CB
:10030000000000000000000000004E0711241FBE86
:10031000CFEFD1E2DEBFCDBF00E00CBF12E0A0E026
:10032000B2E0E8E9F2E200E00BBF02C007900D92F4
:10033000AE32B107D9F723E0AEE2B2E001C01D92C0
:10034000A239B207E1F711E0C6E8D1E000E006C04B
:1003500021970109802FFE010E94BA0DC538D107EF
:1003600080E00807A9F70E948E070C944A110C94AC
:1003700000008150823108F05AC0E82FF0E0882751
:10038000EB53FE4F8F4F0C94BA0DE501E901D701F5
:10039000DD01E1011702EC01F201F601FC010002AE
:1003A00004020A020E021702120218021C028091B5
:1003B00080008F77809380000895809180008F7DEA
:1003C000F9CF80918000877FF5CF84B58F7784BD8A
:1003D000089584B58F7DFBCF8091B0008F77809397
:1003E000B00008958091B0008F7DF9CF809190008A
:1003F0008F77809390000895809190008F7DF9CF42
:1004000080919000877FF5CF8091A0008F778093B7
:10041000A00008958091A0008F7DF9CF8091A00069
:10042000877FF5CF809120018F77809320010895F9
:10043000809120018F7DF9CF80912001877FF5CFBA
:10044000CF93DF93E5EFF2E08491EFEAF2E0D4910D
:10045000E9E6F2E0C491CC23A1F081110E94B90138
:10046000EC2FF0E0EE0FFF1FE25EFD4FA591B4917F
:10047000EC91ED2381E090E009F480E0DF91CF91F1
:10048000089580E090E0FACF1F93CF93DF93282F59
:1004900030E0F901EC53FD4F8491F901E258FD4F32
:1004A000D491F901E85CFD4FC491CC23A9F0162F3B
:1004B00081110E94B901EC2FF0E0EE0FFF1FEC5FFD
:1004C000FD4FA591B4918FB7F894EC91111108C02C
:1004D000D095DE23DC938FBFDF91CF911F910895DC
:1004E000DE2BF8CFCF93DF9390E0FC01E258FD4F75
:1004F0002491885C9D4FFC0184918823D1F090E089
:10050000880F991FFC01E651FE4FA591B491FC01A3
:10051000EC5FFD4FC591D49161110EC09FB7F89467
:100520008C91E22FE0958E238C932881E223E8833F
:100530009FBFDF91CF9108958FB7F894EC91E22B94
:10054000EC938FBFF6CF865320917B00982F987F36
:10055000277F922B90937B008770806480937C0030
:1005600080917A00806480937A0080917A0086FD81
:10057000FCCF809178009091790008953FB7F8946E
:100580008091E2029091E302A091E402B091E50231
:1005900026B5A89B05C02F3F19F00196A11DB11DDE
:1005A0003FBFBA2FA92F982F8827BC01CD01620F1A
:1005B000711D811D911D42E0660F771F881F991FD5
:1005C0004A95D1F708958F929F92AF92BF92CF92A2
:1005D000DF92EF92FF924B015C010E94BE026B0121
:1005E0007C010E94BE026C197D098E099F09683E3C
:1005F000734081059105A8F321E0821A9108A108B2
:10060000B10888EEC80E83E0D81EE11CF11C8114ED
:100610009104A104B10429F7FF90EF90DF90CF90EF
:10062000BF90AF909F908F900895AF92BF92CF925E
:10063000DF92EF92FF920F931F93CF93DF936C01A2
:100640007B018B01040F151FEB015E01AE18BF0883
:10065000C017D10759F06991D601ED91FC91019035
:10066000F081E02DC6011995892B79F7C501DF913D
:10067000CF911F910F91FF90EF90DF90CF90BF909F
:10068000AF900895FC01538D448D252F30E0842FC9
:1006900090E0821B930B541710F0CF9608950197AA
:1006A0000895FC01918D828D981761F0A28DAE0F97
:1006B000BF2FB11D5D968C91928D9F5F9F73928F1E
:1006C00090E008958FEF9FEF0895FC01918D828D4A
:1006D000981731F0828DE80FF11D858D90E0089517
:1006E0008FEF9FEF0895FC01918D228D892F90E06F
:1006F000805C9F4F821B91098F739927089586EE26
:1007000092E00E94730321E0892B09F420E0822FFC
:100710000895FC01A48DA80FB92FB11DA35ABF4F96
:100720002C91848D90E001968F739927848FA689F0
:10073000B7892C93A089B1898C91837080648C9344
:10074000938D848D981306C00288F389E02D8081F3
:100750008F7D80830895EF92FF920F931F93CF9325
:10076000DF93EC0181E0888F9B8D8C8D98131AC0EC
:10077000E889F989808185FF15C09FB7F894EE89D3
:10078000FF896083E889F989808183708064808330
:100790009FBF81E090E0DF91CF911F910F91FF907B
:1007A000EF900895F62E0B8D10E00F5F1F4F0F7323
:1007B0001127E02E8C8D8E110CC00FB607FCFACFDE
:1007C000E889F989808185FFF5CFCE010E948903F0
:1007D000F1CFEB8DEC0FFD2FF11DE35AFF4FF082AF
:1007E0009FB7F8940B8FEA89FB8980818062CFCF15
:1007F000CF93DF93EC01888D8823B9F0AA89BB8958
:10080000E889F9898C9185FD03C0808186FD0DC042
:100810000FB607FCF7CF8C9185FFF2CF808185FF63
:10082000EDCFCE010E948903E9CFDF91CF910895EA
:1008300080E090E0892B49F080E090E0892B29F05E
:100840000E94000081110E94000080E090E0892B4E
:1008500029F00E947F0381110E94000080E090E057
:10086000892B49F080E090E0892B29F00E9400005C
:1008700081110E94000080E090E0892B49F080E027
:1008800090E0892B29F00E94000081110C94000057
:100890000895DC01EC91E03390F511968C9111975D
:1008A00028E830E0281B310987FD3395220F331FDC
:1008B000220F331F6217730784F012968C9128E57C
:1008C00032E0281B310987FD3395220F331F220F99
:1008D000331F621773070CF49B0122503109220F5A
:1008E000331F4FB7F8948E2F90E0FC01EE0FFF1FDF
:1008F000E80FF91FED5CFD4F328321834FBF089550
:100900001F93CF93DF93EC01162F8881803308F07B
:100910004EC061E0812F0E9472028881282F30E052
:10092000F901EE0FFF1FE20FF31FED5CFD4F1F7388
:100930006081607C612B608319821A822CE0622FB7
:100940000E94AE0D829FB001112430E020E0AB0187
:10095000420F531FFA01EE0FFF1FE40FF51FED5C6E
:10096000FD4F908196FD16C02F5F3F4F2C30310513
:1009700071F7813009F51092800082E08093810048
:100980001092850010928400B19A80916F0082606D
:1009900080936F00E8818E2F90E0FC01EE0FFF1F27
:1009A000E80FF91FED5CFD4F8081806480838881B2
:1009B000DF91CF911F910895823061F410929000E1
:1009C00080939100109295001092940088BB8093C0
:1009D0007100E0CF833069F41092A00082E0809330
:1009E000A1001092A5001092A40089BB8093720010
:1009F000D1CF8111CFCF1092200182E080932101CD
:100A000010922501109224018ABB80937300C2CFFB
:100A1000AF92BF92CF92DF92EF92FF920F931F930C
:100A2000CF93DF936B017A01EC01C25DDD4F28812A
:100A30003CE0389F8001399F100D1124A0903202B4
:100A4000B12C27FF1FC0FB011182108288818F5FAC
:100A5000888388819801280F311D87FD3A95F6011A
:100A60002A153B051CF488818C30C4F1808191816A
:100A7000049680349C4908F473C0F601808191810A
:100A8000049670C088819801280F311D87FD3A9522
:100A90002A153B05DCF68881A801480F511D87FD0A
:100AA0005A95FA01EE0FFF1FE40FF51FED5CFD4FA5
:100AB000808186FFCBCF8881F801E80FF11D87FD8B
:100AC000FA95CF01EE0FFF1FE80FF91FED5CFD4F08
:100AD000808160E08F730E944402B8CF8081918151
:100AE0002881A801420F511D27FD5A959A01FA014C
:100AF000EE0FFF1FE20FF31FED5CFD4F21813281EE
:100B0000820F931FF7019183808388819801280FBA
:100B1000311D87FD3A95F901EE0FFF1FE20FF31F1C
:100B2000ED5CFD4F808186FF22C08881080F111D7A
:100B300087FD1A95F801EE0FFF1FE00FF11FED5C26
:100B4000FD4F808161E08F73DF91CF911F910F91F5
:100B5000FF90EF90DF90CF90BF90AF900C94440245
:100B600080E49CE9F701918380838FEF8883DF9194
:100B7000CF911F910F91FF90EF90DF90CF90BF909A
:100B8000AF900895FB0101900020E9F73197AF0184
:100B9000461B570BDC01ED91FC910280F381E02DA7
:100BA00019941F920F920FB60F9211242F933F9317
:100BB0008F939F93AF93BF938091DE029091DF025A
:100BC000A091E002B091E1023091DD0223E0230F19
:100BD0002D3758F50196A11DB11D2093DD0280939C
:100BE000DE029093DF02A093E002B093E1028091D5
:100BF000E2029091E302A091E402B091E502019635
:100C0000A11DB11D8093E2029093E302A093E40240
:100C1000B093E502BF91AF919F918F913F912F913A
:100C20000F900FBE0F901F90189526E8230F029685
:100C3000A11DB11DD2CF1F920F920FB60F9211249A
:100C40000BB60F922F933F934F935F936F937F93C6
:100C50008F939F93AF93BF93EF93FF9386EE92E0B2
:100C60000E948903FF91EF91BF91AF919F918F9166
:100C70007F916F915F914F913F912F910F900BBE9C
:100C80000F900FBE0F901F9018951F920F920FB6E6
:100C90000F9211240BB60F922F938F939F93EF9384
:100CA000FF93E091F602F091F7028081E091FC025F
:100CB000F091FD0282FD1DC090818091FF028F5F47
:100CC0008F7320910003821741F0E091FF02F0E062
:100CD000EA51FD4F958F8093FF02FF91EF919F9115
:100CE0008F912F910F900BBE0F900FBE0F901F9002
:100CF00018958081F2CF1F920F920FB60F92112498
:100D00000BB60F922F933F934F935F936F937F9305
:100D10008F939F93AF93BF93EF93FF9348E251E07C
:100D200064E271E090E080E00E940805FF91EF919D
:100D3000BF91AF919F918F917F916F915F914F91F3
:100D40003F912F910F900BBE0F900FBE0F901F90F1
:100D500018951F920F920FB60F9211240BB60F9297
:100D60002F933F934F935F936F937F938F939F93B3
:100D7000AF93BF93EF93FF9348EA50E064EA70E0CB
:100D800083E090E00E940805FF91EF91BF91AF9141
:100D90009F918F917F916F915F914F913F912F9193
:100DA0000F900BBE0F900FBE0F901F9018951F92C3
:100DB0000F920FB60F9211240BB60F922F933F9301
:100DC0004F935F936F937F938F939F93AF93BF9353
:100DD000EF93FF9348E950E064E970E082E090E02F
:100DE0000E940805FF91EF91BF91AF919F918F9164
:100DF0007F916F915F914F913F912F910F900BBE1B
:100E00000F900FBE0F901F9018951F920F920FB664
:100E10000F9211240BB60F922F933F934F935F9332
:100E20006F937F938F939F93AF93BF93EF93FF93B2
:100E300048E850E064E870E081E090E00E94080536
:100E4000FF91EF91BF91AF919F918F917F916F91A2
:100E50005F914F913F912F910F900BBE0F900FBE5E
:100E60000F901F901895FC0190913202903398F4E6
:100E700081E0890F809332029083892F90E0FC01FA
:100E8000EE0FFF1FE80FF91FED5CFD4F88EB9BE0B5
:100E90009283818308958FEF80830895E6EEF2E0D8
:100EA0001382128288EE93E0A0E0B0E08483958301
:100EB000A683B78386E092E0918380838DEC90E0F7
:100EC000958784878CEC90E09787868788EC90E004
:100ED000918B808B89EC90E0938B828B8AEC90E0F5
:100EE000958B848B8EEC90E0978B868B118E128E77
:100EF000138E148E8FE893E00E9433078CE893E002
:100F00000E94330789E893E00E94330786E893E064
:100F10000E94330783E893E00C943307CF93DF9369
:100F2000CDB7DEB7E1970FB6F894DEBF0FBECDBFE9
:100F3000789484B5826084BD84B5816084BD85B5B4
:100F4000826085BD85B5816085BD80916E008160C0
:100F500080936E0010928100809181008260809366
:100F60008100809181008160809381008091800068
:100F70008160809380008091B10084608093B10093
:100F80008091B00081608093B00080919100826078
:100F90008093910080919100816080939100809175
:100FA00090008160809390008091A1008260809386
:100FB000A1008091A10081608093A1008091A00098
:100FC00081608093A0008091210182608093210143
:100FD00080912101816080932101809120018160B5
:100FE0008093200180917A00846080937A008091C0
:100FF0007A00826080937A0080917A008160809389
:101000007A0080917A00806880937A001092C10003
:1010100068E873E180E090E00E94E30286EE92E0EF
:101020009093DC028093DB02E091F602F091F702EC
:1010300082E08083E091F202F091F3021082E0916D
:10104000F402F091F50280E180831092FE02E091BB
:10105000FA02F091FB0286E08083E091F802F091C1
:10106000F902808180618083E091F802F091F902B9
:10107000808188608083E091F802F091F90280819C
:1010800080688083E091F802F091F90280818F7D81
:10109000808360E081E30E94720261E080E30E944D
:1010A000720260E08AE30E94720260E08BE30E94B9
:1010B000720260E08CE30E94720260E08DE30E94A5
:1010C00072026EE270E08FE893E00E9480046FE2AB
:1010D00070E08CE893E00E94800462E370E089E8AD
:1010E00093E00E94800463E370E086E893E00E944E
:1010F00080046BE070E083E893E00E94800460E08D
:1011000085E40E94720204E610E085E40E94A302D6
:1011100065E070E080E090E00E94E3020150110978
:10112000A1F764E172E086EE92E00E94C2056AE1F6
:1011300072E086EE92E00E94C20522242394312CB4
:1011400080910002909101022091C3023091C4026B
:10115000820F931F853F21E092070CF041C09093CE
:101160000102809300021092C4021092C3021092F6
:10117000D8021092D7023092DA022092D90282E489
:101180000E94A3028C0185E40E94A3026C0184E406
:101190000E94A3027C0183E40E94A3029C01201B05
:1011A000310B22553F4F2D35314020F405361105C6
:1011B0000CF0A3C4A5E6CA16D104CCF4853691057B
:1011C000B4F4B5E6EB16F10424F4053611050CF47D
:1011D00094C43092D4022092D302E3E0F0E00DC038
:1011E00044EF51E05093010240930002BCCF309293
:1011F000D4022092D302E2E0F0E0F093D202E09336
:10120000D1021092CC021092CB0227E030E0309352
:10121000CA022093C90204E610E01EA21FA218A66B
:1012200019A6C12CD12C76018DE30E94A302BC012A
:10123000990F880B990B0E94A80E2CE934EC40E81A
:101240005FEB0E94C50F2B013C012AE037ED43EA1A
:101250005BE3C701B6010E94C30D6B017C0120E076
:1012600030E040E85FE30E94C30D9B01AC01C70181
:10127000B6010E94340E4B015C0120E033E445E4EA
:1012800057E4C301B2010E94580F2EA13FA148A507
:1012900059A50E94C20DA50194010E94580F9B01FF
:1012A000AC016EA17FA188A599A50E94C30D6EA374
:1012B0007FA388A799A701501109A5019401C7012F
:1012C000B6010E94580F9B01AC0160E070E080E81D
:1012D0009FE30E94C20D6B017C010115110509F00D
:1012E000A3CF2EA13FA148A559A5CA01B9010E94CB
:1012F0002F0E882341F080E09CE3ACE1B6E48EA39E
:101300009FA3A8A7B9A70CE310E01AA21BA21CA2D6
:101310001DA2C12CD12C76018BE30E94A302BC013B
:10132000990F880B990B0E94A80E23E333E343E542
:101330005FEB0E94C50F2B013C012AE037ED43E231
:101340005CE3C701B6010E94C30D6B017C0120E084
:1013500030E040E85FE30E94C30D9B01AC01C70190
:10136000B6010E94340E4B015C012DEC3CE04EE0D6
:1013700056E4C301B2010E94580F2AA13BA14CA11F
:101380005DA10E94C20DA50194010E94580F9B010E
:10139000AC016AA17BA18CA19DA10E94C30D6AA38F
:1013A0007BA38CA39DA301501109A5019401C70142
:1013B000B6010E94580F9B01AC0160E070E080E82C
:1013C0009FE30E94C20D6B017C010115110509F01C
:1013D000A3CF2AA13BA14CA15DA1CA01B9010E94E2
:1013E0002F0E882341F020E03CE34CE156E42AA391
:1013F0003BA34CA35DA30CE310E0412C512C320124
:10140000730162018AE30E94A302BC01990F880B59
:10141000990B0E94A80E2EEF34ED48E55FEB0E9479
:10142000C50F6AA77BA78CA79DA72AE037ED43E2EB
:101430005CE3C701B6010E94C30D6B017C0120E093
:1014400030E040E85FE30E94C30D9B01AC01C7019F
:10145000B6010E94340E4B015C0120E03CE041E209
:1014600056E46AA57BA58CA59DA50E94580FA301F3
:1014700092010E94C20DA50194010E94580F9B0188
:10148000AC01C301B2010E94C30D2B013C0101500C
:101490001109A5019401C701B6010E94580F9B01D3
:1014A000AC0160E070E080E89FE30E94C20D6B0138
:1014B0007C010115110509F0A5CFA3019201C3011B
:1014C000B2010E942F0E882339F0412C9CE3592E43
:1014D0009CE1692E96E4792E04E610E0812C912C93
:1014E0005401750164018CE30E94A302BC01990FB1
:1014F000880B990B0E94A80E20EA3AE14FE65FEBB9
:101500000E94C50F6EA77FA788AB99AB2AE037ED85
:1015100043E25CE3C701B6010E94C30D6B017C018D
:1015200020E030E040E85FE30E94C30D9B01AC0186
:10153000C701B6010E94340E6AA77BA78CA79DA79E
:1015400020E033E148E257E46EA57FA588A999A978
:101550000E94580FA50194010E94C20D2AA53BA527
:101560004CA55DA50E94580F9B01AC01C501B401BB
:101570000E94C30D4B015C01015011092AA53BA536
:101580004CA55DA5C701B6010E94580F9B01AC0197
:1015900060E070E080E89FE30E94C20D6B017C0177
:1015A0000115110509F09FCF20E030E048E452E436
:1015B000C501B4010E94C20D6B017C01AC019B010D
:1015C0000E942F0E882339F0C12C8CE3D82E8CE199
:1015D000E82E86E4F82E1EA61FA618AA19AA1AA697
:1015E0001BA61CA61DA660E080E30E94440283E0C7
:1015F00090E00197F1F761E080E30E94440283E20A
:1016000090E00197F1F760E080E30E9444020E94BD
:101610002002892B39F40E94BE026AA77BA78CA7FF
:101620009DA7F5CF0E942002019739F40E94BE02C7
:101630006EA77FA788AB99ABF5CF6EA57FA588A9CC
:1016400099A92AA53BA54CA55DA5621B730B840B2C
:10165000950B0E94A80E2AE939E949EB50E40E9453
:10166000340E4B015C018092C5029092C602A0929A
:10167000C702B092C80220E030E0A9010E942F0EFC
:1016800087FDB1CF61E070E080E090E00E94E3026E
:1016900020E030E046E153E46AA17BA18CA19DA14A
:1016A0000E942F0E87FF0DC001E020E03CE34CE1DB
:1016B00056E46AA17BA18CA19DA10E942F0E8111ED
:1016C00001C000E020E030E046E153E46EA17FA1DC
:1016D00088A599A50E942F0E87FF0CC020E03CE34F
:1016E0004CE156E46EA17FA188A599A50E942F0E1A
:1016F000811101E020E030E046E153E4C301B20192
:101700000E942F0E87FF0BC011E020E03CE34CE16C
:1017100056E4C301B2010E942F0E811101C010E0F6
:1017200020E030E046E153E4C701B6010E942F0EED
:1017300087FF0AC020E03CE34CE156E4C701B60154
:101740000E942F0E811111E020E030E04AE753E4BF
:101750006AA17BA18CA19DA10E942F0E87FF0AC0C8
:1017600020E030E04AE753E4C301B2010E942F0EAB
:1017700087FD13C020E030E046E153E4C501B40129
:101780000E942F0E87FD09C00111BCC11111BDC1FE
:101790001092D0021092CF020AC03092D002209252
:1017A000CF0246E050E05093CE024093CD028091AC
:1017B000D9029091DA02019741F48091D702909179
:1017C000D8029093D6028093D5028091D302909153
:1017D000D402019741F48091D1029091D20290936A
:1017E000D6028093D5028091CF029091D0020197CA
:1017F00041F48091CD029091CE029093D6028093D5
:10180000D502E091D502F091D602E830F10508F05A
:101810006DC08827E15FF34F8F4F0C94BA0D220CF7
:10182000420C580CD30CE80C0C0D1F0D500D3092CF
:10183000D0022092CF0285E090E09093CE02809378
:10184000CD02B5CF0091000210910102780194E21F
:10185000E91A9AEFF90AB7018FE893E00E94490468
:10186000B7018CE893E00E9449048CED95E0DC011F
:10187000A01BB10B8D01B80189E893E00E944904D7
:10188000B801C1C000910002109101028CED95E0F9
:101890007C01E01AF10AB7018FE893E00E94490445
:1018A000B7018CE893E00E94490404521A4FE3CF39
:1018B00068E775E08FE893E00E94490468E775E007
:1018C0008CE893E00E94490468E775E089E893E0BA
:1018D0000E94490468E775E086E893E00E944904A5
:1018E00062E370E080E090E00E94E3026DE172E06C
:1018F0008091DB029091DC020E94C205E090DB0245
:10190000F090DC0283E40E94A3028C0182E40E9436
:10191000A302081B190B4801110FAA08BB08B7FE48
:10192000D4C0D701ED91FC910190F081E02D6DE2E2
:10193000C701199522273327A901281939094A090E
:101940005B0919A2FE01B1966F01CA01B9012AE033
:1019500030E040E050E00E948C0D605DD6016E9357
:101960006D01211531054105510579F7C114D104E7
:1019700021F0B601C7010E94C2056AE172E0C70109
:101980000E94C2050091DB021091DC026BE272E062
:10199000C8010E94C2056AE172E0C8010E94C20546
:1019A0000E941804CDCB60E476E08FE893E00E94BB
:1019B000490460E476E08CE893E00E94490460E426
:1019C00076E089E893E00E94490460E476E084CF01
:1019D00000910002109101028CED95E07C01E01A6B
:1019E000F10AB7018FE893E00E94490404521A4FAC
:1019F000B8018CE893E00E944904B80189E893E0BB
:101A00000E944904B70186E893E00E94490466E910
:101A100070E080E090E068CFC0900002D0900102BA
:101A20007601B4E2EB1ABAEFFB0AB7018FE893E054
:101A30000E9449040CED15E00C191D09D9CFE09066
:101A40000002F09001020CED15E00E191F09B8011B
:101A50008FE893E00E944904B8018CE893E00E946B
:101A60004904E4E2EE1AEAEFFE0AB70189E893E0DE
:101A70000E944904B70186E893E00E94490464EF9C
:101A800071E080E090E00E94E302B8018FE893E00B
:101A90000E944904B8018CE893E00E944904EBCE0F
:101AA0006CED75E08FE893E00E9449046CED75E001
:101AB0008CE893E00E9449046CED75E089E893E0BE
:101AC0000E9449046CED75E09ECFA501940119A216
:101AD000FE01B1966F01CA01B9012AE030E040E091
:101AE00050E00E948C0D605DD6016E936D01211552
:101AF00031054105510579F739CF1092D402109282
:101B0000D3027FCB112309F492CE3092D0022092DF
:101B1000CF0284E090E091CEA1E21A2EAA1BBB1B5B
:101B2000FD010DC0AA1FBB1FEE1FFF1FA217B307A9
:101B3000E407F50720F0A21BB30BE40BF50B661FBF
:101B4000771F881F991F1A9469F760957095809583
:101B500090959B01AC01BD01CF010895991B79E0DF
:101B600004C0991F961708F0961B881F7A95C9F72D
:101B700080950895EE0FFF1F881F8BBF0790F69189
:101B8000E02D19945058BB27AA270E94DA0D0C9417
:101B90001E0F0E94100F38F00E94170F20F039F42A
:101BA0009F3F19F426F40C940D0F0EF4E095E7FB1B
:101BB0000C94070FE92F0E942F0F58F3BA176207F2
:101BC00073078407950720F079F4A6F50C94510F5C
:101BD0000EF4E0950B2EBA2FA02D0B01B901900148
:101BE0000C01CA01A0011124FF27591B99F0593F8C
:101BF00050F4503E68F11A16F040A22F232F342FD4
:101C00004427585FF3CF469537952795A795F04021
:101C10005395C9F77EF41F16BA0B620B730B840B36
:101C2000BAF09150A1F0FF0FBB1F661F771F881FEE
:101C3000C2F70EC0BA0F621F731F841F48F4879546
:101C400077956795B795F7959E3F08F0B0CF939538
:101C5000880F08F09927EE0F9795879508950E94B1
:101C6000E30E08F481E008950E94480E0C941E0FC4
:101C70000E94170F58F00E94100F40F029F45F3FA8
:101C800029F00C94070F51110C94520F0C940D0F66
:101C90000E942F0F68F39923B1F3552391F3951BFD
:101CA000550BBB27AA2762177307840738F09F5F7D
:101CB0005F4F220F331F441FAA1FA9F335D00E2EEA
:101CC0003AF0E0E832D091505040E695001CCAF757
:101CD0002BD0FE2F29D0660F771F881FBB1F26171A
:101CE00037074807AB07B0E809F0BB0B802DBF01F1
:101CF000FF2793585F4F3AF09E3F510578F00C94C0
:101D0000070F0C94520F5F3FE4F3983ED4F386958F
:101D100077956795B795F7959F5FC9F7880F911DE0
:101D20009695879597F90895E1E0660F771F881FCC
:101D3000BB1F621773078407BA0720F0621B730B7F
:101D4000840BBA0BEE1F88F7E0950895E89409C05C
:101D500097FB3EF490958095709561957F4F8F4FDE
:101D60009F4F9923A9F0F92F96E9BB279395F695F4
:101D7000879577956795B795F111F8CFFAF4BB0F72
:101D800011F460FF1BC06F5F7F4F8F4F9F4F16C0D6
:101D9000882311F096E911C0772321F09EE8872F60
:101DA000762F05C0662371F096E8862F70E060E01C
:101DB0002AF09A95660F771F881FDAF7880F969595
:101DC000879597F90895990F0008550FAA0BE0E839
:101DD000FEEF16161706E807F907C0F012161306ED
:101DE000E407F50798F0621B730B840B950B39F42D
:101DF0000A2661F0232B242B252B21F408950A2693
:101E000009F4A140A6958FEF811D811D089597F9D2
:101E10009F6780E870E060E008959FEF80EC089590
:101E200000240A94161617061806090608950024B9
:101E30000A9412161306140605060895092E039433
:101E4000000C11F4882352F0BB0F40F4BF2B11F4A7
:101E500060FF04C06F5F7F4F8F4F9F4F089557FD06
:101E60009058440F551F59F05F3F71F04795880F08
:101E700097FB991F61F09F3F79F08795089512169F
:101E800013061406551FF2CF4695F1DF08C016164B
:101E900017061806991FF1CF8695710561050894FC
:101EA0000895E894BB2766277727CB0197F9089513
:101EB0000E946B0F0C941E0F0E94100F38F00E94AE
:101EC000170F20F0952311F00C94070F0C940D0FB1
:101ED00011240C94520F0E942F0F70F3959FC1F3A1
:101EE000950F50E0551F629FF001729FBB27F00DC8
:101EF000B11D639FAA27F00DB11DAA1F649F66271D
:101F0000B00DA11D661F829F2227B00DA11D621F6B
:101F1000739FB00DA11D621F839FA00D611D221F25
:101F2000749F3327A00D611D231F849F600D211D09
:101F3000822F762F6A2F11249F5750409AF0F1F08C
:101F400088234AF0EE0FFF1FBB1F661F771F881FF5
:101F500091505040A9F79E3F510580F00C94070F17
:101F60000C94520F5F3FE4F3983ED4F38695779537
:101F70006795B795F795E7959F5FC1F7FE2B880F9B
:101F8000911D9695879597F90895FA01EE0FFF1F19
:101F9000309621053105A1F16115710561F4803894
:101FA000BFE39B0749F168949038810561F0803860
:101FB000BFEF9B0741F099234AF5FF3FE10531054B
:101FC000210519F1E8940894E795D901AA2329F489
:101FD000AB2FBE2FF85FD0F310C0FF5F70F4A69553
:101FE000E0F7F73950F019F0FF3A38F49F779F93F4
:101FF0000DD00F9007FC9058089546F00C940D0FEB
:1020000060E070E080E89FE308954FE79F775F937B
:102010004F933F932F930E94C0102F913F914F9168
:102020005F910E94580F0C941D1029F416F00C9427
:10203000070F0C94510F0C940D0F0E94370FA8F34B
:102040009638A0F707F80F92E8942BE33AEA48EBAA
:102050005FE70E946E0F0F920F920F924DB75EB71F
:102060000F920E940811E4EEF0E00E944F104F9191
:102070005F91EF91FF91E595EE1FFF1F49F0FE572D
:10208000E0684427EE0F441FFA95E1F74195550BA0
:102090000E9482100F9007FE0C9476100895DF9333
:1020A000CF931F930F93FF92EF92DF927B018C01EE
:1020B000689406C0DA2EEF010E946B0FFE01E894CF
:1020C000A5912591359145915591A6F3EF010E9477
:1020D000DA0DFE019701A801DA9469F7DF90EF901D
:1020E000FF900F911F91CF91DF9108959B01AC015B
:1020F00060E070E080E89FE30C94340E0C94070FCE
:102100000C943C110E94370FD8F39923C9F3940F14
:10211000511DA3F39150504094F059F0882332F0B0
:10212000660F771F881F91505040C1F79E3F5105A1
:102130002CF7880F911D9695879597F908955F3F25
:10214000ACF0983E9CF0BB27869577956795B79540
:1021500008F4B1609395C1F7BB0F58F711F460FF15
:10216000E8CF6F5F7F4F8F4F9F4FE3CF0C94520F9D
:1021700016F00C943C110C940D0F68940C94070FFE
:102180000E94370FA8F39923C1F3AEF3DF93CF93E7
:102190001F930F93FF92C92FDD2788232AF02197E1
:1021A000660F771F881FDAF720E030E040E85FEB2A
:1021B0009FE3883920F0803E38F021968F770E9487
:1021C000C30DECE0F1E004C00E94C30DE9E3F1E0CF
:1021D0000E944F108B01BE01EC01FB2E6F5771095D
:1021E0007595771F880B990B0E94A80E28E132E79E
:1021F00041E35FE30E946B0FAF2D9801AE01FF90AA
:102200000F911F91CF91DF910E94DA0D0C941E0F58
:10221000FA01DC01AA0FBB1F9B01AC01BF5728F4D8
:10222000222733274427507820C0B75190F4AB2F92
:102230000024469537952795011CA395D2F30020DD
:1022400071F0220F331F441FB395DAF30ED00C94B4
:10225000C20D61307105A0E88A07B94630F49B01D0
:10226000AC016627772788279078309621F0208365
:1022700031834283538308959F3F31F0915020F47E
:10228000879577956795B795880F911D9695879552
:0822900097F90895F894FFCFBF
:10229800C80000000000AB0315034203F8037303F2
:1022A800510365035374617274000D0A0064696612
:0E22B800662066726F6E742069733A20000013
:00000001FF
