:100000000C9488010C94B9010C94B9010C94B901B9
:100010000C94B9010C94B9010C94B9010C94B90178
:100020000C94B9010C94B9010C94B9010C94B90168
:100030000C94B9010C94B9010C94B9010C94B90158
:100040000C94B9010C94900C0C94B9010C94B90166
:100050000C94B9010C94B9010C94B9010C945C0B8B
:100060000C94B9010C94B9010C94B9010C94B90128
:100070000C94B9010C94B9010C94B9010C94B90118
:100080000C94620C0C94B9010C94B9010C94B90154
:100090000C94D00B0C94A60B0C94B9010C94B901E0
:1000A0000C94B9010C94B9010C94340C0C94B90162
:1000B0000C94B9010C94B9010C94B9010C94060C80
:1000C0000C94B9010C94B9010C94B9010C94B901C8
:1000D0000C94B9010C94B9010C94B9010C94B901B8
:1000E0000C94B90107634236B79BD8A71A396856F2
:1000F00018AEBAAB558C1D3CB7CC5763BD6DEDFD4A
:10010000753EF6177231BF000000803F0800000006
:10011000BE922449123EABAAAA2ABECDCCCC4C3EFC
:1001200000000080BEABAAAAAA3E00000000BF00EB
:100130000000803F0000000000084178D3BB4387E7
:10014000D1133D190E3CC3BD4282AD2B3E68EC82FB
:1001500076BED98FE1A93E4C80EFFFBE01C4FF7F80
:100160003F00000000000C94D8100C945A030C942B
:1001700014020C947C030C94B4030C941A020C9497
:10018000FE010C943C100C940C020C94B5100C94D1
:10019000F4010C94D9010C94EB010C9419020C9409
:1001A0006F100C94E3010C94D50F0C944B030C943A
:1001B000D90C0C9410020C94F70F0C9483100C942F
:1001C0006E030C94AD0F0C94F8010C94EE010C949A
:1001D000DF010C9401040C941E030C9451100C9438
:1001E00006020C941E020C94E7010C94020200001B
:1001F0002100240027002A002D00300033000101D7
:100200000000040107010A01000022002500280067
:100210002B002E003100340002010000050108010E
:100220000B01000020002300260029002C002F00D5
:100230003200000100000301060109010505050562
:10024000070508080808020202020A0A080804044E
:10025000040401010101010101010303030303037C
:100260000303040707070C0C0C0C0C0C0C0C02020B
:10027000020206060606060606060B0B0B0B0B0B08
:100280000B0B010210202008081020401020408095
:10029000020102010804020101020408102040804A
:1002A00080402010080402018004020180402010D8
:1002B0000804020108040201010204081020408021
:1002C000010204081020408000000A0B02090C0DF6
:1002D0000E080703040100000000000000000000F9
:1002E000000000000000000000000000000000000E
:1002F00000000000121110000000000000000000CB
:100300000000000000000000000000000000D90C08
:1003100011241FBECFEFD1E2DEBFCDBF00E00CBF86
:1003200012E0A0E0B2E0E2E2FCE200E00BBF02C0BB
:1003300007900D92A839B107D9F724E0A8E9B2E0F7
:1003400001C01D92A130B207E1F711E0C8E8D1E089
:1003500000E006C021970109802FFE010E9446128D
:10036000C738D10780E00807A9F70E94190D0C943F
:100370000F160C9400008150823108F05AC0E82F0B
:10038000F0E08827E953FE4F8F4F0C944612E701A7
:10039000EB01D901DF01E3011902EE01F401F801DB
:1003A000FE01020206020C021002190214021A02D5
:1003B0001E02809180008F77809380000895809145
:1003C00080008F7DF9CF80918000877FF5CF84B545
:1003D0008F7784BD089584B58F7DFBCF8091B00069
:1003E0008F778093B00008958091B0008F7DF9CF12
:1003F000809190008F778093900008958091900075
:100400008F7DF9CF80919000877FF5CF8091A000FC
:100410008F778093A00008958091A0008F7DF9CF01
:100420008091A000877FF5CF809120018F77809306
:1004300020010895809120018F7DF9CF80912001C6
:10044000877FF5CFCF93DF93E9EFF2E08491E3EB81
:10045000F2E0D491EDE6F2E0C491CC23A1F0811159
:100460000E94BB01EC2FF0E0EE0FFF1FEE5DFD4F91
:10047000A591B491EC91ED2381E090E009F480E046
:10048000DF91CF91089580E090E0FACF1F93CF9352
:10049000DF93282F30E0F901E853FD4F8491F901F3
:1004A000EE57FD4FD491F901E45CFD4FC491CC238C
:1004B000A9F0162F81110E94BB01EC2FF0E0EE0F86
:1004C000FF1FE85FFD4FA591B4918FB7F894EC91B1
:1004D000111108C0D095DE23DC938FBFDF91CF913F
:1004E0001F910895DE2BF8CFCF93DF9390E0FC01AE
:1004F000EE57FD4F2491845C9D4FFC01849188232D
:10050000D1F090E0880F991FFC01E251FE4FA591B8
:10051000B491FC01E85FFD4FC591D49161110EC00B
:100520009FB7F8948C91E22FE0958E238C932881CD
:10053000E223E8839FBFDF91CF9108958FB7F894AE
:10054000EC91E22BEC938FBFF6CF865320917B008A
:10055000982F987F277F922B90937B0087708064E1
:1005600080937C0080917A00806480937A008091EF
:100570007A0086FDFCCF80917800909179000895F3
:100580003FB7F8948091510390915203A091530387
:10059000B091540326B5A89B05C02F3F19F00196D2
:1005A000A11DB11D3FBFBA2FA92F982F8827BC01CD
:1005B000CD01620F711D811D911D42E0660F771FF5
:1005C000881F991F4A95D1F708958F929F92AF92F5
:1005D000BF92CF92DF92EF92FF924B015C010E949B
:1005E000C0026B017C010E94C0026C197D098E095A
:1005F0009F09683E734081059105A8F321E0821AA6
:100600009108A108B10888EEC80E83E0D81EE11C4D
:10061000F11C81149104A104B10429F7FF90EF901B
:10062000DF90CF90BF90AF909F908F900895DC01A6
:10063000ED91FC910190F081E02D1994AF92BF9261
:10064000CF92DF92EF92FF920F931F93CF93DF939E
:100650006C017B018B01040F151FEB015E01AE18CD
:10066000BF08C017D10759F06991D601ED91FC91EF
:100670000190F081E02DC6011995892B79F7C5010C
:10068000DF91CF911F910F91FF90EF90DF90CF906E
:10069000BF90AF900895FC01538D448D252F30E01D
:1006A000842F90E0821B930B541710F0CF9608957F
:1006B00001970895FC01918D828D981761F0A28DAC
:1006C000AE0FBF2FB11D5D968C91928D9F5F9F7372
:1006D000928F90E008958FEF9FEF0895FC01918D28
:1006E000828D981731F0828DE80FF11D858D90E095
:1006F00008958FEF9FEF0895FC01918D228D892F32
:1007000090E0805C9F4F821B91098F739927089519
:1007100085E593E00E947C0321E0892B09F420E029
:10072000822F0895FC01A48DA80FB92FB11DA35AE3
:10073000BF4F2C91848D90E001968F739927848F01
:10074000A689B7892C93A089B1898C918370806424
:100750008C93938D848D981306C00288F389E02DC5
:1007600080818F7D80830895EF92FF920F931F9376
:10077000CF93DF93EC0181E0888F9B8D8C8D981354
:100780001AC0E889F989808185FF15C09FB7F89460
:10079000EE89FF896083E889F989808183708064AC
:1007A00080839FBF81E090E0DF91CF911F910F91F7
:1007B000FF90EF900895F62E0B8D10E00F5F1F4F06
:1007C0000F731127E02E8C8D8E110CC00FB607FC15
:1007D000FACFE889F989808185FFF5CFCE010E94A3
:1007E0009203F1CFEB8DEC0FFD2FF11DE35AFF4F7C
:1007F000F0829FB7F8940B8FEA89FB898081806231
:10080000CFCFCF93DF93EC01888D8823B9F0AA89ED
:10081000BB89E889F9898C9185FD03C0808186FDBB
:100820000DC00FB607FCF7CF8C9185FFF2CF80810A
:1008300085FFEDCFCE010E949203E9CFDF91CF91EA
:10084000089580E090E0892B49F080E090E0892BCA
:1008500029F00E94000081110E94000080E090E0D9
:10086000892B29F00E94880381110E94000080E0FA
:1008700090E0892B49F080E090E0892B29F00E94DC
:10088000000081110E94000080E090E0892B49F077
:1008900080E090E0892B29F00E94000081110C94E7
:1008A00000000895DC01EC91E03390F511968C91F5
:1008B000119728E830E0281B310987FD3395220F76
:1008C000331F220F331F6217730784F012968C9127
:1008D00028E532E0281B310987FD3395220F331FAD
:1008E000220F331F621773070CF49B01225031094A
:1008F000220F331F4FB7F8948E2F90E0FC01EE0FBC
:10090000FF1FE80FF91FE854FD4F328321834FBFCB
:100910000895CF92DF92EF92FF92E2EFF3E0218110
:1009200038E8C32ED12CC21AD10827FDD394CC0CA1
:10093000DD1CCC0CDD1C0D2C000CEE08FF084281E8
:1009400028E532E0241B310947FD3395220F331F80
:10095000220F331F032E000C440B550B2C193D099D
:100960004E095F09DC010E94011224EB30E040E0F7
:1009700050E00E94D711CA01B9016C0D7D1D8E1D7A
:100980009F1D82EF93E0FF90EF90DF90CF900C944B
:1009900052041F93CF93DF93EC01162F888180338D
:1009A00008F04EC061E0812F0E9474028881282FD8
:1009B00030E0F901EE0FFF1FE20FF31FE854FD4F87
:1009C0001F736081607C612B608319821A822CE026
:1009D000622F0E943A12829FB001112430E020E081
:1009E000AB01420F531FFA01EE0FFF1FE40FF51F7B
:1009F000E854FD4F908196FD16C02F5F3F4F2C307D
:100A0000310571F7813009F51092800082E0809302
:100A100081001092850010928400B19A80916F003D
:100A2000826080936F00E8818E2F90E0FC01EE0FD2
:100A3000FF1FE80FF91FE854FD4F80818064808319
:100A40008881DF91CF911F910895823061F41092D7
:100A5000900080939100109295001092940088BBB2
:100A600080937100E0CF833069F41092A00082E09F
:100A70008093A1001092A5001092A40089BB8093DE
:100A80007200D1CF8111CFCF1092200182E08093EC
:100A9000210110922501109224018ABB80937300DA
:100AA000C2CFAF92BF92CF92DF92EF92FF920F939D
:100AB0001F93CF93DF936B017A01EC01C456DD4F96
:100AC00028813CE0389F8001399F100D1124A090AF
:100AD000A002B12C27FF1FC0FB0111821082888168
:100AE0008F5F888388819801280F311D87FD3A9593
:100AF000F6012A153B051CF488818C30C4F18081F5
:100B00009181049680349C4908F473C0F601808179
:100B10009181049670C088819801280F311D87FD4E
:100B20003A952A153B05DCF68881A801480F511D2E
:100B300087FD5A95FA01EE0FFF1FE40FF51FE854E9
:100B4000FD4F808186FFCBCF8881F801E80FF11D32
:100B500087FDFA95CF01EE0FFF1FE80FF91FE8544C
:100B6000FD4F808160E08F730E944602B8CF808184
:100B700091812881A801420F511D27FD5A959A01A4
:100B8000FA01EE0FFF1FE20FF31FE854FD4F218122
:100B90003281820F931FF7019183808388819801AE
:100BA000280F311D87FD3A95F901EE0FFF1FE20F67
:100BB000F31FE854FD4F808186FF22C08881080F13
:100BC000111D87FD1A95F801EE0FFF1FE00FF11FB1
:100BD000E854FD4F808161E08F73DF91CF911F91C9
:100BE0000F91FF90EF90DF90CF90BF90AF900C945B
:100BF000460280E49CE9F701918380838FEF88832C
:100C0000DF91CF911F910F91FF90EF90DF90CF90E8
:100C1000BF90AF9008954F925F926F927F928F92A4
:100C20009F92AF92BF92CF92DF92EF92FF920F937B
:100C30001F93CF93DF93412C512C3201812C912CA7
:100C4000540103E010E0C3E2D0E060E080E30E94E2
:100C50004602C8010197F1F761E080E30E94460275
:100C6000CE010197F1F760E080E30E9446020E9406
:100C70002202892B29F40E94C0024B015C01F7CFAC
:100C80000E942202019729F40E94C0022B013C011C
:100C9000F7CFC301B201681979098A099B090E943B
:100CA00063132AE939E949EB50E40E94C0126B0151
:100CB0007C01C0929802D0929902E0929A02F0923E
:100CC0009B0220E030E0A9010E94BB1287FDBDCF4E
:100CD00061E070E080E090E00E94E502C701B601AB
:100CE000DF91CF911F910F91FF90EF90DF90CF9008
:100CF000BF90AF909F908F907F906F905F904F903C
:100D00000895CF92DF92EF92FF920F931F93CF93AC
:100D1000DF9384E40E94A5026C0182E40E94A50294
:100D2000EC0183E40E94A5028C0185E40E94A502E7
:100D30007C010E940B0623EEC21623E0D20644F08B
:100D400020E030E04CED52E40E94BB1287FD36C03B
:100D5000CC16DD065CF0C016D106DCF183E090E035
:100D6000CE14DF046CF5CC15DD05BCF1C017D1073E
:100D70004CF0CE15DF05FCF40C151D0544F00C17E6
:100D80001D072CF081E090E00E151F05CCF4EC144B
:100D9000FD0444F0EC16FD062CF084E090E0E01633
:100DA000F10674F4C01BD10BCD59DF4F90E080E009
:100DB000C73CD10528F482E090E002C085E090E0D5
:100DC000DF91CF911F910F91FF90EF90DF90CF9027
:100DD0000895CC15DD059CF2C9CF0C151D05D4F284
:100DE000CECFFB0101900020E9F73197AF01461B00
:100DF000570BDC01ED91FC910280F381E02D1994F9
:100E00008F929F92AF92BF92EF92FF920F931F9398
:100E1000CF93DF93CDB7DEB7A1970FB6F894DEBFBF
:100E20000FBECDBF7C01FA01CB0119A2223008F41C
:100E30002AE08E010F5D1F4F822E912CB12CA12C28
:100E4000BF01A50194010E940912F901CA016A308B
:100E50000CF5605DD8016E938D01232B242B252B7F
:100E600079F790E080E0109721F0BD01C7010E9462
:100E7000F106A1960FB6F894DEBF0FBECDBFDF918D
:100E8000CF911F910F91FF90EF90BF90AF909F90E7
:100E90008F900895695CDECF4F925F926F927F9240
:100EA0008F929F92AF92BF92CF92DF92EF92FF927A
:100EB000CF93DF93EC016A017B01AB019601CB017B
:100EC000B6010E94D51464E172E081111AC0460196
:100ED0005701E894B7F82FEF3FEF4FE75FE7C50101
:100EE000B4010E94D514811126C02FEF3FEF4FE7C8
:100EF0005FE7C501B4010E94BB121816E4F468E173
:100F000072E0CE010E94F1067C0160E272E0CE0147
:100F10000E94F1068E0D9F1DDF91CF91FF90EF9003
:100F2000DF90CF90BF90AF909F908F907F906F9009
:100F30005F904F9008952FEF3FEF4FE75FE4C701B9
:100F4000B6010E94131418161CF46CE172E0D9CF9C
:100F50002FEF3FEF4FE75FECC701B6010E94BB12D6
:100F600087FDF3CF20E030E0A901C701B6010E9460
:100F7000BB12B12CA12C87FF09C06DE2CE010E94EB
:100F800017035C01F7FAF094F7F8F0942AE037EDD4
:100F900043EA5BE3C701B6010E944F122B013C01FB
:100FA0000E9432136B017C010E9461139B01AC0112
:100FB000C301B2010E944E122B013C012AE0B7018D
:100FC000A601CE010E9400077C01EA0CFB1C6EE228
:100FD000CE010E941703E80EF91E20E030E040E247
:100FE00051E4C301B2010E9418142B013C010E947C
:100FF00032134B01B12CA12C2AE0B501A401CE0182
:101000000E940007E80EF91EC501B4010E94611399
:101010009B01AC01C301B2010E944E1220E030E0FE
:1010200040E251E40E9418140E943213AB0170E0B8
:1010300060E02AE0CE010E940007E80EF91E65CFAD
:101040000F931F93CF93DF93EC010E94F1068C0165
:1010500060E272E0CE010E94F106800F911FDF91E5
:10106000CF911F910F9108954F925F926F927F924F
:101070008F929F92AF92BF92CF92DF92EF92FF92A8
:10108000CF93DF9300D000D0CDB7DEB78CE390E0F4
:101090009E838D83812C912C5401750164018BE317
:1010A0000E94A502BC01990F880B990B0E94631343
:1010B00023E333E343E55FEB0E94851469837A837E
:1010C0008B839C832AE037ED43E25CE3C501B401E6
:1010D0000E944F124B015C0120E030E040E85FE3EA
:1010E0000E944F129B01AC01C501B4010E94C012C5
:1010F0002B013C012DEC3CE04EE056E469817A8105
:101100008B819C810E941814A70196010E944E12A7
:10111000A30192010E9418149B01AC01C701B60102
:101120000E944F126B017C018D819E8101979E83ED
:101130008D83A3019201C501B4010E9418149B0183
:10114000AC0160E070E080E89FE30E944E124B012A
:101150005C018D819E81892B09F0A1CFA7019601A9
:10116000C701B6010E94BB12882339F0C12C8CE361
:10117000D82E8CE1E82E86E4F82EC701B60126961B
:101180000FB6F894DEBF0FBECDBFDF91CF91FF90B9
:10119000EF90DF90CF90BF90AF909F908F907F9017
:1011A0006F905F904F9008954F925F926F927F92F1
:1011B0008F929F92AF92BF92CF92DF92EF92FF9267
:1011C000CF93DF9300D000D0CDB7DEB78CE390E0B3
:1011D0009E838D83812C912C5401750164018AE3D7
:1011E0000E94A502BC01990F880B990B0E94631302
:1011F0002EEF34ED48E55FEB0E94851469837A8316
:101200008B839C832AE037ED43E25CE3C501B401A4
:101210000E944F124B015C0120E030E040E85FE3A8
:101220000E944F129B01AC01C501B4010E94C01283
:101230002B013C0120E03CE041E256E469817A81E7
:101240008B819C810E941814A70196010E944E1266
:10125000A30192010E9418149B01AC01C701B601C1
:101260000E944F126B017C018D819E8101979E83AC
:101270008D83A3019201C501B4010E9418149B0142
:10128000AC0160E070E080E89FE30E944E124B01E9
:101290005C018D819E81892B09F0A1CFA701960168
:1012A000C701B6010E94BB12882339F0C12C8CE320
:1012B000D82E8CE1E82E86E4F82EC701B6012696DA
:1012C0000FB6F894DEBF0FBECDBFDF91CF91FF9078
:1012D000EF90DF90CF90BF90AF909F908F907F90D6
:1012E0006F905F904F9008952F923F924F925F9230
:1012F0006F927F928F929F92AF92BF92CF92DF9226
:10130000EF92FF920F931F93CF93DF93CDB7DEB78A
:1013100062970FB6F894DEBF0FBECDBF84E690E0B3
:101320009E838D83812C912C5401750164018DE382
:101330000E94A502BC01990F880B990B0E946313B0
:101340002CE934EC40E85FEB0E94851469837A83D2
:101350008B839C832AE037ED43EA5BE3C701B60148
:101360000E944F126B017C0120E030E040E85FE317
:101370000E944F129B01AC01C701B6010E94C0122E
:101380002B013C0120E033E445E457E469817A8194
:101390008B819C810E941814A50194010E944E1219
:1013A000A30192010E9418149B01AC01C501B40174
:1013B0000E944F124B015C018D819E8101979E839B
:1013C0008D83A3019201C701B6010E9418149B01ED
:1013D000AC0160E070E080E89FE30E944E126B0178
:1013E0007C018D819E81892B09F0A1CFA5019401FB
:1013F000C501B4010E94BB12882339F0812C9CE303
:10140000992E9CE1A92E96E4B92E0E943408698396
:101410007A838B839C830E94D4086D837E838F8321
:10142000988784E690E09A8B898B412C512C32016D
:10143000730162018CE30E94A502BC01990F880B25
:10144000990B0E94631320EA3AE14FE65FEB0E949A
:1014500085146D877E878F87988B2AE037ED43E26E
:101460005CE3C701B6010E944F126B017C0120E0D2
:1014700030E040E85FE30E944F129B01AC01C701DE
:10148000B6010E94C01269877A878B879C8720E00B
:1014900033E148E257E46D857E858F8598890E9407
:1014A0001814A30192010E944E1229853A854B859A
:1014B0005C850E9418149B01AC01C301B2010E941B
:1014C0004F122B013C0189899A8901979A8B898B4C
:1014D00029853A854B855C85C701B6010E941814A1
:1014E0009B01AC0160E070E080E89FE30E944E1237
:1014F0006B017C0189899A89892B09F09BCF20E0B7
:1015000030E048E452E4C301B2010E944E126B0184
:101510007C01AC019B010E94BB12882339F0C12CD5
:101520008CE3D82E8CE1E82E86E4F82E0E940B0680
:101530001B012C0184E40E94A5023C0120E030E064
:1015400044EB52E469817A818B819C810E94BB12B9
:1015500087FF0EC091E09D8720E03CE34CE156E41C
:1015600069817A818B819C810E94BB12811101C0AB
:101570001D8620E030E044EB52E4C501B4010E9436
:10158000BB1287FF0CC020E03CE34CE156E4C501F0
:10159000B4010E94BB12882311F081E08D8720E006
:1015A00030E044EB52E46D817E818F8198850E940A
:1015B000BB1287FF0EC091E0998720E03CE34CE12D
:1015C00056E46D817E818F8198850E94BB128111C6
:1015D00001C0198620E030E044EB52E4C701B601B7
:1015E0000E94BB1287FF0CC020E03CE34CE156E4B4
:1015F000C701B6010E94BB12882311F081E08987E0
:1016000020E030E048EC52E469817A818B819C8152
:101610000E94BB1287FF0CC020E030E048EC52E48F
:101620006D817E818F8198850E94BB1287FD17C0D6
:1016300020E030E040EF52E4C201B1010E94BB1251
:1016400087FD0DC09D8502E010E0911102C010E001
:1016500000E09985992329F003E010E002C004E03E
:1016600010E083EE681683E0780664F020E030E056
:101670004CED52E4C201B1010E94BB1287FF02C0CF
:1016800007E010E0C80162960FB6F894DEBF0FBE07
:10169000CDBFDF91CF911F910F91FF90EF90DF9021
:1016A000CF90BF90AF909F908F907F906F905F9002
:1016B0004F903F902F9008951F920F920FB60F9268
:1016C00011242F933F938F939F93AF93BF93809158
:1016D0004D0390914E03A0914F03B0915003309170
:1016E0004C0323E0230F2D3758F50196A11DB11DA2
:1016F00020934C0380934D0390934E03A0934F038C
:10170000B09350038091510390915203A0915303E1
:10171000B09154030196A11DB11D80935103909384
:101720005203A0935303B0935403BF91AF919F9181
:101730008F913F912F910F900FBE0F901F90189592
:1017400026E8230F0296A11DB11DD2CF1F920F9242
:101750000FB60F9211240BB60F922F933F934F9316
:101760005F936F937F938F939F93AF93BF93EF9309
:10177000FF9385E593E00E949203FF91EF91BF9163
:10178000AF919F918F917F916F915F914F913F9119
:101790002F910F900BBE0F900FBE0F901F901895BA
:1017A0001F920F920FB60F9211240BB60F922F9328
:1017B0008F939F93EF93FF93E0916503F0916603FE
:1017C0008081E0916B03F0916C0382FD1DC09081DC
:1017D00080916E038F5F8F7320916F03821741F0AA
:1017E000E0916E03F0E0EB5AFC4F958F80936E030F
:1017F000FF91EF919F918F912F910F900BBE0F90C2
:101800000FBE0F901F9018958081F2CF1F920F92FC
:101810000FB60F9211240BB60F922F933F934F9355
:101820005F936F937F938F939F93AF93BF93EF9348
:10183000FF9348E251E064E271E090E080E00E94B2
:101840005105FF91EF91BF91AF919F918F917F9142
:101850006F915F914F913F912F910F900BBE0F9021
:101860000FBE0F901F9018951F920F920FB60F92F8
:1018700011240BB60F922F933F934F935F936F9367
:101880007F938F939F93AF93BF93EF93FF9348EA18
:1018900050E064EA70E083E090E00E945105FF911F
:1018A000EF91BF91AF919F918F917F916F915F91D8
:1018B0004F913F912F910F900BBE0F900FBE0F9045
:1018C0001F9018951F920F920FB60F9211240BB60E
:1018D0000F922F933F934F935F936F937F938F93C9
:1018E0009F93AF93BF93EF93FF9348E950E064E970
:1018F00070E082E090E00E945105FF91EF91BF916E
:10190000AF919F918F917F916F915F914F913F9197
:101910002F910F900BBE0F900FBE0F901F90189538
:101920001F920F920FB60F9211240BB60F922F93A6
:101930003F934F935F936F937F938F939F93AF9357
:10194000BF93EF93FF9348E850E064E870E081E0D4
:1019500090E00E945105FF91EF91BF91AF919F914F
:101960008F917F916F915F914F913F912F910F9048
:101970000BBE0F900FBE0F901F901895FC01909119
:10198000A002903398F481E0890F8093A0029083A5
:10199000892F90E0FC01EE0FFF1FE80FF91FE854BC
:1019A000FD4F88EB9BE09283818308958FEF8083C6
:1019B0000895E5E5F3E01382128288EE93E0A0E05B
:1019C000B0E084839583A683B78386E092E0918319
:1019D00080838DEC90E0958784878CEC90E09787EE
:1019E000868788EC90E0918B808B89EC90E0938BDC
:1019F000828B8AEC90E0958B848B8EEC90E0978BB9
:101A0000868B118E128E138E148E8EEF93E00E94B1
:101A1000BE0C8BEF93E00E94BE0C88EF93E00E9417
:101A2000BE0C85EF93E00E94BE0C82EF93E00C9415
:101A3000BE0C789484B5826084BD84B5816084BD19
:101A400085B5826085BD85B5816085BD80916E005C
:101A5000816080936E00109281008091810082608D
:101A600080938100809181008160809381008091CA
:101A700080008160809380008091B10084608093B9
:101A8000B1008091B00081608093B000809191009E
:101A90008260809391008091910081608093910099
:101AA000809190008160809390008091A10082607D
:101AB0008093A1008091A10081608093A10080911A
:101AC000A00081608093A0008091210182608093BA
:101AD0002101809121018160809321018091200169
:101AE00081608093200180917A00846080937A00E5
:101AF00080917A00826080937A0080917A00816080
:101B000080937A0080917A00806880937A001092A6
:101B1000C10061E08DE20E94740261E08DE20E94EA
:101B2000460268EE73E080E090E00E94E50260E02B
:101B30008DE20E94460285E593E090934B038093EB
:101B40004A03E0916503F091660382E08083E091AF
:101B50006103F09162031082E0916303F0916403EA
:101B600080E1808310926D03E0916903F0916A0334
:101B700086E08083E0916703F09168038081806153
:101B80008083E0916703F09168038081886080839F
:101B9000E0916703F0916803808180688083E09121
:101BA0006703F091680380818F7D808360E081E32B
:101BB0000E94740261E080E30E94740260E08AE3A4
:101BC0000E94740260E08BE30E94740260E08CE388
:101BD0000E94740260E08DE30E9474026EE270E085
:101BE0008EEF93E00E94C9046FE270E08BEF93E008
:101BF0000E94C90462E370E088EF93E00E94C90488
:101C000063E370E085EF93E00E94C9046BE070E04D
:101C100082EF93E00E94C90460E085E40E947402B0
:101C2000C4E6D0E085E40E94A50265E070E080E0B3
:101C300090E00E94E5022197A9F763E272E085E552
:101C400093E00E942008A2E02A2E312CC1E0D0E0CF
:101C500008E010E00E9474090E94810682E40E945C
:101C6000A50284E40E94A50285E40E94A50283E403
:101C70000E94A5020E940B064B015C010E943408E1
:101C80002B013C010E94D4086B017C0169E272E0E7
:101C900080914A0390914B030E9420086EE472E009
:101CA00080914A0390914B030E94F106B501A40173
:101CB00080914A0390914B030E944C076EE572E0BD
:101CC00080914A0390914B030E94F106B301A20157
:101CD00080914A0390914B030E944C0762E772E0A7
:101CE00080914A0390914B030E94F106B701A6012F
:101CF00080914A0390914B030E944C0767E872E081
:101D000080914A0390914B030E94F106E0904A03B0
:101D1000F0904B038090B5029090B602092C000C15
:101D2000AA08BB082AE0B501A401B7FE0CC06DE209
:101D3000C7010E94170344275527BA0148195909BA
:101D40006A097B092AE0C7010E94000760E272E08D
:101D5000C7010E94F10666E972E080914A03909102
:101D60004B030E942008C0904803D090490321E013
:101D7000C216D10431F140F082E0C816D10409F452
:101D80002FC20E94210466CF6EE270E08EEF93E0D6
:101D90000E94C9046FE270E08BEF93E00E94C904D7
:101DA00062E370E088EF93E00E94C90463E370E0AF
:101DB00085EF93E00E94C904D0934903C093480380
:101DC000E0CF80910002909101022091A102309118
:101DD000A202820F931F853F21E092070CF04AC0B8
:101DE00090930102809300021092A2021092A1022D
:101DF0003092B2022092B102D093B402C093B302E7
:101E00000E94810681309105C1F59093AE028093C6
:101E1000AD023092AC022092AB020E9481067C019E
:101E200084E40E94A5024C0182E40E94A5025C01A8
:101E300083E40E94A5028A149B0444F08816990644
:101E40000CF017C2A814B9040CF443C0A816B906C4
:101E50000CF48FC285E0E816F10409F043C0D0937A
:101E6000A602C093A5021093A4020093A3028CE3E0
:101E700090E00EC284EF91E0B3CF8230910559F427
:101E8000D093AE02C093AD0223E030E03093AC02B9
:101E90002093AB02C2CF8330910549F4D093AE02B8
:101EA000C093AD021092AC021092AB02B6CF049771
:101EB00059F4D093AE02C093AD0287E090E09093C6
:101EC000AC028093AB02A9CF1092AE021092AD0289
:101ED000A4CF8A159B050CF45CC295E0E916F104C9
:101EE00009F44CC21092A6021092A50260E0D3C180
:101EF0008330910559F4D093AA02C093A90284E0DB
:101F000090E09093A8028093A702D8C181309105F8
:101F100029F49093AA028093A902F3CF843091050B
:101F200049F4D093AA02C093A9023092A802209249
:101F3000A702C4C1079749F4D093AA02C093A9028B
:101F40001093A8020093A702B9C11092AA0210929E
:101F5000A902B4C1B12CA12CC2C1E0900002F09042
:101F60000102470124E2821A2AEF920AB4018EEF9D
:101F700093E00E945204B4018BEF93E00E9452045C
:101F80008CED95E09C012E193F097901B90188EF8C
:101F900093E00E945204B70185EF93E00E9452043F
:101FA0006AE070E080E090E03EC0E0900002F090D7
:101FB00001028CED95E04C018E189F08B4018EEF64
:101FC00093E00E945204B4018BEF93E00E9452040C
:101FD00034E2E31A3AEFF30AB70188EF93E00E9484
:101FE0005204B70185EF93E00E945204DCC067E819
:101FF00075E08EEF93E00E94520467E875E08BEF86
:1020000093E00E94520467E875E088EF93E00E9435
:10201000520467E875E085EF93E00E94520469E19D
:1020200070E080E090E00E94E5028091B70234E029
:10203000A316B10409F0D1C091E09093B70290913A
:10204000B70291110BC0882349F08091B50290919D
:10205000B60201969093B6028093B5028091B502C4
:102060009091B602029719F462E0C62ED12CD0925C
:102070004903C092480385CE61E376E08EEF93E09A
:102080000E94520461E376E08BEF93E00E945204D9
:1020900061E376E088EF93E00E94520461E376E02A
:1020A000BACFE0900002F09001028CED95E04C0177
:1020B0008E189F08B4018EEF93E00E94520484E2D0
:1020C000E81A8AEFF80AB7018BEF93E00E945204F6
:1020D000B70188EF93E00E945204B4015DCF609095
:1020E000000270900102430194E2891A9AEF990A62
:1020F000B4018EEF93E00E9452048CED95E07C01D8
:10210000E618F708E0CF80900002909001028CED75
:1021100095E07C01E818F908B7018EEF93E00E9482
:102120005204B7018BEF93E00E94520424E2821A1A
:102130002AEF920AB40188EF93E00E945204B4019E
:1021400085EF93E00E94520464E670E080E090E046
:102150000E94E502B7018EEF93E00E945204B7019E
:102160008BEF93E00E94520437CF6DE275E08EEF63
:1021700093E00E9452046DE275E08BEF93E00E94C1
:1021800052046DE275E088EF93E00E9452046DE224
:1021900075E085EF93E00E94520464EC79E080E002
:1021A00090E00E94E50262E370E080E090E03BCFC7
:1021B0006CED75E08EEF93E00E9452046CED75E0DB
:1021C0008BEF93E00E9452046CED75E088EF93E092
:1021D0000E9452046CED75E005CF1092B7022FCF2C
:1021E000E091FE038E2F90E0FC01EE0FFF1FE80F41
:1021F000F91FE854FD4F80818F7B8083E091FB03C2
:102200008E2F90E0FC01EE0FFF1FE80FF91FE8543E
:10221000FD4F80818F7B8083E091F8038E2F90E0CB
:10222000FC01EE0FFF1FE80FF91FE854FD4F8081FE
:102230008F7B8083E091F5038E2F90E0FC01EE0F01
:10224000FF1FE80FF91FE854FD4F80818F7B8083CB
:1022500060E08EE20E94740260E08FE20E947402ED
:1022600060E082E30E94740260E083E30E947402F3
:10227000FECE25E0E216F10409F034CED093A6029A
:10228000C093A5021093A4020093A3028AE590E0F4
:102290000E94890461E08DE20E9446020E94740956
:1022A0008230910509F024CED093AA02C093A902EE
:1022B00025E030E03093A8022093A702A090B3025B
:1022C000B090B40291E0A916B10409F043CE809118
:1022D000B1029091B2029093B0028093AF028091CC
:1022E000AD029091AE02019759F48091AB029091AA
:1022F000AC029093B0028093AF02F2E0AF2EB12C0B
:102300008091A9029091AA02019759F48091A702A5
:102310009091A8029093B0028093AF02E3E0AE2EBA
:10232000B12C8091A5029091A602019759F4809159
:10233000A3029091A4029093B0028093AF0274E044
:10234000A72EB12CE091AF02F091B002E930F10577
:1023500008F06BCE8827E055FE4E8F4F0C94461246
:10236000AD0FD50FF70F3C1051106F108310B51043
:10237000D81035E0E316F10409F0B4CDD093A602ED
:10238000C093A5021093A4020093A30288E790E0F3
:102390007FCF25E0E216F10409F0A4CDD093A60288
:1023A000C093A5021093A4020093A30273CF052E3D
:1023B00097FB1EF400940E94EE1157FD07D00E9477
:1023C000091207FC03D04EF40C94EE115095409581
:1023D000309521953F4F4F4F5F4F089590958095D1
:1023E000709561957F4F8F4F9F4F08950E942B12DC
:1023F000A59F900DB49F900DA49F800D911D112459
:102400000895B7FF0C94F6110E94F611821B930BEE
:102410000895A1E21A2EAA1BBB1BFD010DC0AA1F25
:10242000BB1FEE1FFF1FA217B307E407F50720F03D
:10243000A21BB30BE40BF50B661F771F881F991FB8
:102440001A9469F760957095809590959B01AC0101
:10245000BD01CF010895A29FB001B39FC001A39F0A
:10246000700D811D1124911DB29F700D811D1124CD
:10247000911D0895991B79E004C0991F961708F0E3
:10248000961B881F7A95C9F780950895EE0FFF1F58
:10249000881F8BBF0790F691E02D19945058BB27E9
:1024A000AA270E9466120C94D9130E94CB1338F00D
:1024B0000E94D21320F039F49F3F19F426F40C94B3
:1024C000C8130EF4E095E7FB0C94C213E92F0E94A9
:1024D000EA1358F3BA17620773078407950720F0C9
:1024E00079F4A6F50C940C140EF4E0950B2EBA2F8B
:1024F000A02D0B01B90190010C01CA01A00111240A
:10250000FF27591B99F0593F50F4503E68F11A16B5
:10251000F040A22F232F342F4427585FF3CF469546
:1025200037952795A795F0405395C9F77EF41F1668
:10253000BA0B620B730B840BBAF09150A1F0FF0F32
:10254000BB1F661F771F881FC2F70EC0BA0F621F1E
:10255000731F841F48F4879577956795B795F7950E
:102560009E3F08F0B0CF9395880F08F09927EE0FA3
:102570009795879508950E949E1308F481E0089529
:102580000E94D4120C94D9130E94D21358F00E94C6
:10259000CB1340F029F45F3F29F00C94C213511182
:1025A0000C940D140C94C8130E94EA1368F3992339
:1025B000B1F3552391F3951B550BBB27AA2762173F
:1025C0007307840738F09F5F5F4F220F331F441F4C
:1025D000AA1FA9F335D00E2E3AF0E0E832D0915080
:1025E0005040E695001CCAF72BD0FE2F29D0660F6D
:1025F000771F881FBB1F261737074807AB07B0E8B0
:1026000009F0BB0B802DBF01FF2793585F4F3AF0B5
:102610009E3F510578F00C94C2130C940D145F3F4B
:10262000E4F3983ED4F3869577956795B795F7953B
:102630009F5FC9F7880F911D9695879597F9089523
:10264000E1E0660F771F881FBB1F621773078407BF
:10265000BA0720F0621B730B840BBA0BEE1F88F7CE
:10266000E09508950E94F21388F09F5798F0B92FD3
:102670009927B751B0F0E1F0660F771F881F991FB7
:102680001AF0BA95C9F714C0B13091F00E940C1439
:10269000B1E008950C940C14672F782F8827B85F49
:1026A00039F0B93FCCF3869577956795B395D9F70F
:1026B0003EF490958095709561957F4F8F4F9F4F19
:1026C0000895E89409C097FB3EF490958095709525
:1026D00061957F4F8F4F9F4F9923A9F0F92F96E96E
:1026E000BB279395F695879577956795B795F111E3
:1026F000F8CFFAF4BB0F11F460FF1BC06F5F7F4F80
:102700008F4F9F4F16C0882311F096E911C0772391
:1027100021F09EE8872F762F05C0662371F096E89A
:10272000862F70E060E02AF09A95660F771F881F69
:10273000DAF7880F9695879597F90895990F00080D
:10274000550FAA0BE0E8FEEF16161706E807F90783
:10275000C0F012161306E407F50798F0621B730B1E
:10276000840B950B39F40A2661F0232B242B252B9F
:1027700021F408950A2609F4A140A6958FEF811D42
:10278000811D089597F99F6780E870E060E00895E3
:102790009FEF80EC089500240A9416161706180679
:1027A0000906089500240A94121613061406050655
:1027B0000895092E0394000C11F4882352F0BB0FE6
:1027C00040F4BF2B11F460FF04C06F5F7F4F8F4F49
:1027D0009F4F089557FD9058440F551F59F05F3F84
:1027E00071F04795880F97FB991F61F09F3F79F033
:1027F00087950895121613061406551FF2CF4695B5
:10280000F1DF08C0161617061806991FF1CF869536
:102810007105610508940895E894BB27662777271A
:10282000CB0197F908950E949E1308F48FEF089545
:102830000E942B140C94D9130E94CB1338F00E94E1
:10284000D21320F0952311F00C94C2130C94C813EA
:1028500011240C940D140E94EA1370F3959FC1F398
:10286000950F50E0551F629FF001729FBB27F00D3E
:10287000B11D639FAA27F00DB11DAA1F649F662793
:10288000B00DA11D661F829F2227B00DA11D621FE2
:10289000739FB00DA11D621F839FA00D611D221F9C
:1028A000749F3327A00D611D231F849F600D211D80
:1028B000822F762F6A2F11249F5750409AF0F1F003
:1028C00088234AF0EE0FFF1FBB1F661F771F881F6C
:1028D00091505040A9F79E3F510580F00C94C213CF
:1028E0000C940D145F3FE4F3983ED4F386957795EE
:1028F0006795B795F795E7959F5FC1F7FE2B880F12
:10290000911D9695879597F90895FA01EE0FFF1F8F
:10291000309621053105A1F16115710561F480380A
:10292000BFE39B0749F168949038810561F08038D6
:10293000BFEF9B0741F099234AF5FF3FE1053105C1
:10294000210519F1E8940894E795D901AA2329F4FF
:10295000AB2FBE2FF85FD0F310C0FF5F70F4A695C9
:10296000E0F7F73950F019F0FF3A38F49F779F936A
:102970000DD00F9007FC9058089546F00C94C813A2
:1029800060E070E080E89FE308954FE79F775F93F2
:102990004F933F932F930E9485152F913F914F9115
:1029A0005F910E9418140C94E2140E949E13880BED
:1029B000990B089529F416F00C94C2130C940C147E
:1029C0000C94C8130E94F213A8F39638A0F707F8E6
:1029D0000F92E8942BE33AEA48EB5FE70E942E144B
:1029E0000F920F920F924DB75EB70F920E94CD15C6
:1029F000E4EEF0E00E9414154F915F91EF91FF918A
:102A0000E595EE1FFF1F49F0FE57E0684427EE0FE3
:102A1000441FFA95E1F74195550B0E9447150F9019
:102A200007FE0C943B150895DF93CF931F930F93EC
:102A3000FF92EF92DF927B018C01689406C0DA2E40
:102A4000EF010E942B14FE01E894A5912591359188
:102A500045915591A6F3EF010E946612FE01970180
:102A6000A801DA9469F7DF90EF90FF900F911F9122
:102A7000CF91DF9108959B01AC0160E070E080E8A8
:102A80009FE30C94C0120C94C2130C9401160E9484
:102A9000F213D8F39923C9F3940F511DA3F3915066
:102AA000504094F059F0882332F0660F771F881F4A
:102AB00091505040C1F79E3F51052CF7880F911D52
:102AC0009695879597F908955F3FACF0983E9CF0F6
:102AD000BB27869577956795B79508F4B160939570
:102AE000C1F7BB0F58F711F460FFE8CF6F5F7F4F5E
:102AF0008F4F9F4FE3CF0C940D1416F00C940116DA
:102B00000C94C81368940C94C2130E94F213A8F397
:102B10009923C1F3AEF3DF93CF931F930F93FF92EB
:102B2000C92FDD2788232AF02197660F771F881F7A
:102B3000DAF720E030E040E85FEB9FE3883920F0EF
:102B4000803E38F021968F770E944F12ECE0F1E042
:102B500004C00E944F12E9E3F1E00E9414158B01BA
:102B6000BE01EC01FB2E6F5771097595771F880B1D
:102B7000990B0E94631328E132E741E35FE30E946F
:102B80002B14AF2D9801AE01FF900F911F91CF91A3
:102B9000DF910E9466120C94D913FA01DC01AA0F8E
:102BA000BB1F9B01AC01BF5728F4222733274427C2
:102BB000507820C0B75190F4AB2F0024469537953C
:102BC0002795011CA395D2F3002071F0220F331F2B
:102BD000441FB395DAF30ED00C944E126130710598
:102BE000A0E88A07B94630F49B01AC016627772735
:102BF00088279078309621F0208331834283538355
:102C000008959F3F31F0915020F48795779567950F
:102C1000B795880F911D9695879597F90895F89423
:022C2000FFCFE4
:102C22008C0000000000B4031E034B0301047C036C
:102C32005A036E036E616E00696E66006F766600FF
:102C42000D0A005374617274002D2D2D2D2D2D2D22
:102C52002D2D2D2D2D2D2D2D2D2D2D2D2D2D2D2DA2
:102C62002D2D2D2D2D2D2D2D2D2D2D2D2D00667241
:102C72006F6E7420646973742069733A20006C6506
:102C82006674206469616720646973742069733AA9
:102C920020007269676874206469616720646973DF
:102CA200742069733A20004669726520436F756E1D
:082CB20074732069733A2000DD
:00000001FF
