:100000000C9428010C9459010C9459010C94590139
:100010000C9459010C9459010C9459010C945901F8
:100020000C9459010C9459010C9459010C945901E8
:100030000C9459010C9459010C9459010C945901D8
:100040000C9459010C94F6050C9459010C94590127
:100050000C9459010C9459010C9459010C94C2044C
:100060000C9459010C9459010C9459010C945901A8
:100070000C9459010C9459010C9459010C94590198
:100080000C94C8050C9459010C9459010C94590115
:100090000C9436050C940C050C9459010C945901E0
:1000A0000C9459010C9459010C949A050C94590123
:1000B0000C9459010C9459010C9459010C946C0541
:1000C0000C9459010C9459010C9459010C94590148
:1000D0000C9459010C9459010C9459010C94590138
:1000E0000C9459010C94B7010C94C9010C94DD01D6
:1000F0000C94BB010C94CF010C949B020C94200334
:100100000C94AA010C94A2010C9490010C94B101DE
:100110000C943F060C943D020C94C5010C94D7013D
:100120000C948D020C94C1010C94E1010C948B0190
:100130000C94D3020C94D3010C9479020C946A02AF
:100140000C94A6010C94AE010000210024002700AD
:100150002A002D00300033000101000004010701D6
:100160000A0100002200250028002B002E0031008B
:10017000340002010000050108010B010505050519
:10018000070508080808020202020A0A080804040F
:10019000040401010101010101010303030303033D
:1001A0000303040707070C0C0C0C0C0C0C0C0202CC
:1001B000020206060606060606060B0B0B0B0B0BC9
:1001C0000B0B010210202008081020401020408056
:1001D000020102010804020101020408102040800B
:1001E0008040201008040201800402018040201099
:1001F00008040201080402010102040810204080E2
:10020000010204081020408000000A0B02090C0DB6
:100210000E080703040100000000000000000000B9
:1002200000000000000000000000000000000000CE
:10023000000000001211100000000000000000008B
:1002400000000000000000000000000000003F0669
:1002500011241FBECFEFD1E2DEBFCDBF00E00CBF47
:1002600012E0A0E0B2E0ECEAFFE000E00BBF02C069
:1002700007900D92AC32B107D9F723E0ACE2B2E0BF
:1002800001C01D92A837B207E1F711E0C8E2D1E042
:1002900000E006C021970109802FFE010E94CC07D3
:1002A000C732D10780E00807A9F70E947F060C94A7
:1002B000D4070C940000282F30E0F901E85FFD4FCF
:1002C0009491F901EE53FE4F449124583E4FF901A9
:1002D0002491222309F435C0992311F191509231D0
:1002E000F8F4E92FF0E08827E758FE4F8F4F0C9481
:1002F000CC07AA01AE018B01A201A6019001B101B8
:10030000B701BB01C101C501C901CF01D3019001F2
:10031000D701DD01E101809180008F77809380001B
:10032000E22FF0E0EE0FFF1FEE59FE4FA591B491C2
:100330008FB7F894EC91611148C040954E234C93CF
:100340008FBF0895809180008F7DE8CF80918000DD
:10035000877FE4CF84B58F7784BDE2CF84B58F7D6E
:10036000FBCF8091B0008F778093B000D9CF809180
:10037000B0008F7DF9CF809190008F7780939000AF
:10038000CFCF809190008F7DF9CF80919000877FB3
:10039000F5CF8091A0008F778093A000C1CF80918E
:1003A000A0008F7DF9CF8091A000877FF5CF80914D
:1003B00020018F7780932001B3CF809120018F7D22
:1003C000F9CF80912001877FF5CF4E2BB8CFCF9307
:1003D000DF9390E0FC01EE53FE4F249184589E4F32
:1003E000FC0184918823D1F090E0880F991FFC01D3
:1003F000E85BFE4FA591B491FC01EE59FE4FC5910B
:10040000D49161110EC09FB7F8948C91E22FE095C2
:100410008E238C932881E223E8839FBFDF91CF91C5
:1004200008958FB7F894EC91E22BEC938FBFF6CF41
:100430003FB7F8948091C8029091C902A091CA0276
:10044000B091CB0226B5A89B05C02F3F19F00196AD
:10045000A11DB11D3FBFBA2FA92F982F8827BC011E
:10046000CD01620F711D811D911D42E0660F771F46
:10047000881F991F4A95D1F70895AF92BF92CF92E6
:10048000DF92EF92FF920F931F93CF93DF936C0154
:100490007B018B01040F151FEB015E01AE18BF0835
:1004A000C017D10759F06991D601ED91FC910190E7
:1004B000F081E02DC6011995892B79F7C501DF91EF
:1004C000CF911F910F91FF90EF90DF90CF90BF9051
:1004D000AF900895FC01538D448D252F30E0842F7B
:1004E00090E0821B930B541710F0CF96089501975C
:1004F0000895FC01918D828D981761F0A28DAE0F49
:10050000BF2FB11D5D968C91928D9F5F9F73928FCF
:1005100090E008958FEF9FEF0895FC01918D828DFB
:10052000981731F0828DE80FF11D858D90E00895C8
:100530008FEF9FEF0895FC01918D228D892F90E020
:10054000805C9F4F821B91098F73992708958CECD3
:1005500092E00E949B0221E0892B09F420E0822F87
:100560000895FC01A48DA80FB92FB11DA35ABF4F48
:100570002C91848D90E001968F739927848FA689A2
:10058000B7892C93A089B1898C91837080648C93F6
:10059000938D848D981306C00288F389E02D8081A5
:1005A0008F7D80830895EF92FF920F931F93CF93D7
:1005B000DF93EC0181E0888F9B8D8C8D98131AC09E
:1005C000E889F989808185FF15C09FB7F894EE8985
:1005D000FF896083E889F9898081837080648083E2
:1005E0009FBF81E090E0DF91CF911F910F91FF902D
:1005F000EF900895F62E0B8D10E00F5F1F4F0F73D5
:100600001127E02E8C8D8E110CC00FB607FCFACF8F
:10061000E889F989808185FFF5CFCE010E94B1027A
:10062000F1CFEB8DEC0FFD2FF11DE35AFF4FF08260
:100630009FB7F8940B8FEA89FB8980818062CFCFC6
:10064000CF93DF93EC01888D8823B9F0AA89BB8909
:10065000E889F9898C9185FD03C0808186FD0DC0F4
:100660000FB607FCF7CF8C9185FFF2CF808185FF15
:10067000EDCFCE010E94B102E9CFDF91CF91089575
:1006800080E090E0892B49F080E090E0892B29F010
:100690000E94000081110E94000080E090E0892B00
:1006A00029F00E94A70281110E94000080E090E0E2
:1006B000892B49F080E090E0892B29F00E9400000E
:1006C00081110E94000080E090E0892B49F080E0D9
:1006D00090E0892B29F00E94000081110C94000009
:1006E00008951F93CF93DF93EC01162F88818033F9
:1006F00008F04EC061E0812F0E94E7018881282F19
:1007000030E0F901EE0FFF1FE20FF31FEF5CFD4F2A
:100710001F736081607C612B608319821A822CE0D8
:10072000622F0E94C007829FB001112430E020E0B8
:10073000AB01420F531FFA01EE0FFF1FE40FF51F2D
:10074000EF5CFD4F908196FD16C02F5F3F4F2C3020
:10075000310571F7813009F51092800082E08093B5
:1007600081001092850010928400B19A80916F00F0
:10077000826080936F00E8818E2F90E0FC01EE0F85
:10078000FF1FE80FF91FEF5CFD4F808180648083BD
:100790008881DF91CF911F910895823061F410928A
:1007A000900080939100109295001092940088BB65
:1007B00080937100E0CF833069F41092A00082E052
:1007C0008093A1001092A5001092A40089BB809391
:1007D0007200D1CF8111CFCF1092200182E080939F
:1007E000210110922501109224018ABB809373008D
:1007F000C2CFAF92BF92CF92DF92EF92FF920F9350
:100800001F93CF93DF936B017A01EC01C45DDD4F41
:1008100028813CE0389F8001399F100D1124A09061
:100820003002B12C27FF1FC0FB011182108288818A
:100830008F5F888388819801280F311D87FD3A9545
:10084000F6012A153B051CF488818C30C4F18081A7
:100850009181049680349C4908F473C0F60180812C
:100860009181049670C088819801280F311D87FD01
:100870003A952A153B05DCF68881A801480F511DE1
:1008800087FD5A95FA01EE0FFF1FE40FF51FEF5C8D
:10089000FD4F808186FFCBCF8881F801E80FF11DE5
:1008A00087FDFA95CF01EE0FFF1FE80FF91FEF5CF0
:1008B000FD4F808160E08F730E945B01B8CF808123
:1008C00091812881A801420F511D27FD5A959A0157
:1008D000FA01EE0FFF1FE20FF31FEF5CFD4F2181C6
:1008E0003281820F931FF701918380838881980161
:1008F000280F311D87FD3A95F901EE0FFF1FE20F1A
:10090000F31FEF5CFD4F808186FF22C08881080FB6
:10091000111D87FD1A95F801EE0FFF1FE00FF11F63
:10092000EF5CFD4F808161E08F73DF91CF911F916C
:100930000F91FF90EF90DF90CF90BF90AF900C940D
:100940005B0180E49CE9F701918380838FEF8883CA
:10095000DF91CF911F910F91FF90EF90DF90CF909B
:10096000BF90AF900895FB0101900020E9F7319707
:10097000AF01461B570BDC01ED91FC910280F38126
:10098000E02D19941F920F920FB60F9211242F93FE
:100990003F938F939F93AF93BF938091C4029091A5
:1009A000C502A091C602B091C7023091C30223E0F4
:1009B000230F2D3758F50196A11DB11D2093C302B9
:1009C0008093C4029093C502A093C602B093C7025D
:1009D0008091C8029091C902A091CA02B091CB0245
:1009E0000196A11DB11D8093C8029093C902A093E6
:1009F000CA02B093CB02BF91AF919F918F913F916B
:100A00002F910F900FBE0F901F90189526E8230F7F
:100A10000296A11DB11DD2CF1F920F920FB60F9259
:100A200011240BB60F922F933F934F935F936F93C5
:100A30007F938F939F93AF93BF93EF93FF938CEC30
:100A400092E00E94B102FF91EF91BF91AF919F910F
:100A50008F917F916F915F914F913F912F910F9067
:100A60000BBE0F900FBE0F901F9018951F920F9204
:100A70000FB60F9211240BB60F922F938F939F9363
:100A8000EF93FF93E091DC02F091DD028081E09131
:100A9000E202F091E30282FD1DC090818091E502A7
:100AA0008F5F8F732091E602821741F0E091E5029B
:100AB000F0E0E453FD4F958F8093E502FF91EF91B5
:100AC0009F918F912F910F900BBE0F900FBE0F90A3
:100AD0001F9018958081F2CF1F920F920FB60F9240
:100AE00011240BB60F922F933F934F935F936F9305
:100AF0007F938F939F93AF93BF93EF93FF9348E2BE
:100B000051E064E271E090E080E00E94F903FF911F
:100B1000EF91BF91AF919F918F917F916F915F9175
:100B20004F913F912F910F900BBE0F900FBE0F90E2
:100B30001F9018951F920F920FB60F9211240BB6AB
:100B40000F922F933F934F935F936F937F938F9366
:100B50009F93AF93BF93EF93FF9348EA50E064EA0B
:100B600070E083E090E00E94F903FF91EF91BF9164
:100B7000AF919F918F917F916F915F914F913F9135
:100B80002F910F900BBE0F900FBE0F901F901895D6
:100B90001F920F920FB60F9211240BB60F922F9344
:100BA0003F934F935F936F937F938F939F93AF93F5
:100BB000BF93EF93FF9348E950E064E970E082E06F
:100BC00090E00E94F903FF91EF91BF91AF919F9147
:100BD0008F917F916F915F914F913F912F910F90E6
:100BE0000BBE0F900FBE0F901F9018951F920F9283
:100BF0000FB60F9211240BB60F922F933F934F9382
:100C00005F936F937F938F939F93AF93BF93EF9374
:100C1000FF9348E850E064E870E081E090E00E94D3
:100C2000F903FF91EF91BF91AF919F918F917F91C8
:100C30006F915F914F913F912F910F900BBE0F904D
:100C40000FBE0F901F901895FC01909130029033C9
:100C500098F481E0890F809330029083892F90E08F
:100C6000FC01EE0FFF1FE80FF91FEF5CFD4F88EB53
:100C70009BE09283818308958FEF80830895ECEC4D
:100C8000F2E01382128288EE93E0A0E0B0E0848369
:100C90009583A683B78384E092E0918380838DEC73
:100CA00090E0958784878CEC90E09787868788EC26
:100CB00090E0918B808B89EC90E0938B828B8AEC17
:100CC00090E0958B848B8EEC90E0978B868B118EC9
:100CD000128E138E148E85E793E00E94240682E71D
:100CE00093E00E9424068FE693E00E9424068CE69F
:100CF00093E00E94240689E693E00C9424067894FD
:100D000084B5826084BD84B5816084BD85B5826010
:100D100085BD85B5816085BD80916E0081608093C1
:100D20006E0010928100809181008260809381002A
:100D3000809181008160809381008091800081603A
:100D4000809380008091B10084608093B100809195
:100D5000B00081608093B0008091910082608093A8
:100D6000910080919100816080939100809190002A
:100D70008160809390008091A10082608093A100A7
:100D80008091A10081608093A1008091A00081608A
:100D90008093A00080912101826080932101809145
:100DA00021018160809321018091200181608093E5
:100DB000200180917A00846080937A0080917A008B
:100DC000826080937A0080917A00816080937A00BB
:100DD00080917A00806880937A001092C1008CEC38
:100DE00092E09093C2028093C102E091DC02F09104
:100DF000DD0282E08083E091D802F091D902108276
:100E0000E091DA02F091DB0280E180831092E4024B
:100E1000E091E002F091E10286E08083E091DE0261
:100E2000F091DF02808180618083E091DE02F091A9
:100E3000DF02808188608083E091DE02F091DF0232
:100E4000808180688083E091DE02F091DF02808102
:100E50008F7D808360E081E30E94E70161E080E3B1
:100E60000E94E70160E08AE30E94E70160E08BE313
:100E70000E94E70160E08CE30E94E70160E08DE3FF
:100E80000E94E7016EE270E085E793E00E94710343
:100E90006FE270E082E793E00E94710362E370E02A
:100EA0008FE693E00E94710363E370E08CE693E0C9
:100EB0000E9471036BE070E089E693E00E94710389
:100EC00060E085E40E94E701C4E6D0E017E4809189
:100ED0007B00886080937B0010937C0080917A0077
:100EE000806480937A0080917A0086FDFCCF8091A7
:100EF0007800909179000E9418024B015C0185E016
:100F0000C82ED12CE12CF12C0E9418026819790905
:100F10008A099B09683E734081059105A8F321E089
:100F2000C21AD108E108F10888EE880E83E0981E05
:100F3000A11CB11CC114D104E104F10429F72197CB
:100F400031F6C091C102D091C20262E172E0CE01DD
:100F50000E94B30468E172E0CE010E94B304C09124
:100F6000C102D091C2026BE172E0CE010E94B304D3
:100F700068E172E0CE010E94B3040E944003EFCF0B
:100F8000991B79E004C0991F961708F0961B881FDB
:100F90007A95C9F780950895EE0FFF1F881F8BBFC4
:0C0FA0000790F691E02D1994F894FFCF13
:100FAC0000000000D3023D026A0220039B0279027A
:100FBC008D025374617274000D0A00594F752061D3
:0C0FCC007265205052494E54494E4700B7
:00000001FF
