:100000000C9488010C94B9010C94B9010C94B901B9
:100010000C94B9010C94B9010C94B9010C94B90178
:100020000C94B9010C94B9010C94B9010C94B90168
:100030000C94B9010C94B9010C94B9010C94B90158
:100040000C94B9010C94BF0C0C94B9010C94B90137
:100050000C94B9010C94B9010C94B9010C948B0B5C
:100060000C94B9010C94B9010C94B9010C94B90128
:100070000C94B9010C94B9010C94B9010C94B90118
:100080000C94910C0C94B9010C94B9010C94B90125
:100090000C94FF0B0C94D50B0C94B9010C94B90182
:1000A0000C94B9010C94B9010C94630C0C94B90133
:1000B0000C94B9010C94B9010C94B9010C94350C51
:1000C0000C94B9010C94B9010C94B9010C94B901C8
:1000D0000C94B9010C94B9010C94B9010C94B901B8
:1000E0000C94B90107634236B79BD8A71A396856F2
:1000F00018AEBAAB558C1D3CB7CC5763BD6DEDFD4A
:10010000753EF6177231BF000000803F0800000006
:10011000BE922449123EABAAAA2ABECDCCCC4C3EFC
:1001200000000080BEABAAAAAA3E00000000BF00EB
:100130000000803F0000000000084178D3BB4387E7
:10014000D1133D190E3CC3BD4282AD2B3E68EC82FB
:1001500076BED98FE1A93E4C80EFFFBE01C4FF7F80
:100160003F00000000000C94B4030C943A100C946F
:1001700014020C94E7010C941A020C94B2100C9423
:10018000D9010C945F100C946E030C942C110C94F8
:100190000C020C94400F0C9489100C941E030C94C8
:1001A00074100C945A030C944B030C94080D0C948B
:1001B00002020C94F4010C94C8100C9406020C94E6
:1001C0007C030C9410020C94EE010C9400110C941E
:1001D00001040C94F8010C9419020C941E020C9466
:1001E000FE010C94E3010C94EB010C94DF01000080
:1001F0002100240027002A002D00300033000101D7
:100200000000040107010A01000022002500280067
:100210002B002E003100340002010000050108010E
:100220000B01000020002300260029002C002F00D5
:100230003200000100000301060109010505050562
:10024000070508080808020202020A0A080804044E
:10025000040401010101010101010303030303037C
:100260000303040707070C0C0C0C0C0C0C0C02020B
:10027000020206060606060606060B0B0B0B0B0B08
:100280000B0B010210202008081020401020408095
:10029000020102010804020101020408102040804A
:1002A00080402010080402018004020180402010D8
:1002B0000804020108040201010204081020408021
:1002C000010204081020408000000A0B02090C0DF6
:1002D0000E080703040100000000000000000000F9
:1002E000000000000000000000000000000000000E
:1002F00000000000121110000000000000000000CB
:100300000000000000000000000000000000080DD8
:1003100011241FBECFEFD1E2DEBFCDBF00E00CBF86
:1003200012E0A0E0B2E0EEEFFBE200E00BBF02C0A3
:1003300007900D92A43BB107D9F724E0A4EBB2E0FB
:1003400001C01D92A831B207E1F711E0C8E8D1E081
:1003500000E006C021970109802FFE010E9434129F
:10036000C738D10780E00807A9F70E94480D0C9410
:10037000FD150C9400008150823108F05AC0E82F1E
:10038000F0E08827E953FE4F8F4F0C943412E701B9
:10039000EB01D901DF01E3011902EE01F401F801DB
:1003A000FE01020206020C021002190214021A02D5
:1003B0001E02809180008F77809380000895809145
:1003C00080008F7DF9CF80918000877FF5CF84B545
:1003D0008F7784BD089584B58F7DFBCF8091B00069
:1003E0008F778093B00008958091B0008F7DF9CF12
:1003F000809190008F778093900008958091900075
:100400008F7DF9CF80919000877FF5CF8091A000FC
:100410008F778093A00008958091A0008F7DF9CF01
:100420008091A000877FF5CF809120018F77809306
:1004300020010895809120018F7DF9CF80912001C6
:10044000877FF5CFCF93DF93E9EFF2E08491E3EB81
:10045000F2E0D491EDE6F2E0C491CC23A1F0811159
:100460000E94BB01EC2FF0E0EE0FFF1FEE5DFD4F91
:10047000A591B491EC91ED2381E090E009F480E046
:10048000DF91CF91089580E090E0FACF1F93CF9352
:10049000DF93282F30E0F901E853FD4F8491F901F3
:1004A000EE57FD4FD491F901E45CFD4FC491CC238C
:1004B000A9F0162F81110E94BB01EC2FF0E0EE0F86
:1004C000FF1FE85FFD4FA591B4918FB7F894EC91B1
:1004D000111108C0D095DE23DC938FBFDF91CF913F
:1004E0001F910895DE2BF8CFCF93DF9390E0FC01AE
:1004F000EE57FD4F2491845C9D4FFC01849188232D
:10050000D1F090E0880F991FFC01E251FE4FA591B8
:10051000B491FC01E85FFD4FC591D49161110EC00B
:100520009FB7F8948C91E22FE0958E238C932881CD
:10053000E223E8839FBFDF91CF9108958FB7F894AE
:10054000EC91E22BEC938FBFF6CF865320917B008A
:10055000982F987F277F922B90937B0087708064E1
:1005600080937C0080917A00806480937A008091EF
:100570007A0086FDFCCF80917800909179000895F3
:100580003FB7F8948091680390916903A0916A0342
:10059000B0916B0326B5A89B05C02F3F19F00196BB
:1005A000A11DB11D3FBFBA2FA92F982F8827BC01CD
:1005B000CD01620F711D811D911D42E0660F771FF5
:1005C000881F991F4A95D1F708958F929F92AF92F5
:1005D000BF92CF92DF92EF92FF924B015C010E949B
:1005E000C0026B017C010E94C0026C197D098E095A
:1005F0009F09683E734081059105A8F321E0821AA6
:100600009108A108B10888EEC80E83E0D81EE11C4D
:10061000F11C81149104A104B10429F7FF90EF901B
:10062000DF90CF90BF90AF909F908F900895DC01A6
:10063000ED91FC910190F081E02D1994AF92BF9261
:10064000CF92DF92EF92FF920F931F93CF93DF939E
:100650006C017B018B01040F151FEB015E01AE18CD
:10066000BF08C017D10759F06991D601ED91FC91EF
:100670000190F081E02DC6011995892B79F7C5010C
:10068000DF91CF911F910F91FF90EF90DF90CF906E
:10069000BF90AF900895FC01538D448D252F30E01D
:1006A000842F90E0821B930B541710F0CF9608957F
:1006B00001970895FC01918D828D981761F0A28DAC
:1006C000AE0FBF2FB11D5D968C91928D9F5F9F7372
:1006D000928F90E008958FEF9FEF0895FC01918D28
:1006E000828D981731F0828DE80FF11D858D90E095
:1006F00008958FEF9FEF0895FC01918D228D892F32
:1007000090E0805C9F4F821B91098F739927089519
:100710008CE693E00E947C0321E0892B09F420E021
:10072000822F0895FC01A48DA80FB92FB11DA35AE3
:10073000BF4F2C91848D90E001968F739927848F01
:10074000A689B7892C93A089B1898C918370806424
:100750008C93938D848D981306C00288F389E02DC5
:1007600080818F7D80830895EF92FF920F931F9376
:10077000CF93DF93EC0181E0888F9B8D8C8D981354
:100780001AC0E889F989808185FF15C09FB7F89460
:10079000EE89FF896083E889F989808183708064AC
:1007A00080839FBF81E090E0DF91CF911F910F91F7
:1007B000FF90EF900895F62E0B8D10E00F5F1F4F06
:1007C0000F731127E02E8C8D8E110CC00FB607FC15
:1007D000FACFE889F989808185FFF5CFCE010E94A3
:1007E0009203F1CFEB8DEC0FFD2FF11DE35AFF4F7C
:1007F000F0829FB7F8940B8FEA89FB898081806231
:10080000CFCFCF93DF93EC01888D8823B9F0AA89ED
:10081000BB89E889F9898C9185FD03C0808186FDBB
:100820000DC00FB607FCF7CF8C9185FFF2CF80810A
:1008300085FFEDCFCE010E949203E9CFDF91CF91EA
:10084000089580E090E0892B49F080E090E0892BCA
:1008500029F00E94000081110E94000080E090E0D9
:10086000892B29F00E94880381110E94000080E0FA
:1008700090E0892B49F080E090E0892B29F00E94DC
:10088000000081110E94000080E090E0892B49F077
:1008900080E090E0892B29F00E94000081110C94E7
:1008A00000000895DC01EC91E03390F511968C91F5
:1008B000119728E830E0281B310987FD3395220F76
:1008C000331F220F331F6217730784F012968C9127
:1008D00028E532E0281B310987FD3395220F331FAD
:1008E000220F331F621773070CF49B01225031094A
:1008F000220F331F4FB7F8948E2F90E0FC01EE0FBC
:10090000FF1FE80FF91FE354FD4F328321834FBFD0
:100910000895CF92DF92EF92FF92E9E0F4E0218117
:1009200038E8C32ED12CC21AD10827FDD394CC0CA1
:10093000DD1CCC0CDD1C0D2C000CEE08FF084281E8
:1009400028E532E0241B310947FD3395220F331F80
:10095000220F331F032E000C440B550B2C193D099D
:100960004E095F09DC010E94EF1124EB30E040E00A
:1009700050E00E94C511CA01B9016C0D7D1D8E1D8C
:100980009F1D89E094E0FF90EF90DF90CF900C9452
:1009900052041F93CF93DF93EC01162F888180338D
:1009A00008F04EC061E0812F0E9474028881282FD8
:1009B00030E0F901EE0FFF1FE20FF31FE354FD4F8C
:1009C0001F736081607C612B608319821A822CE026
:1009D000622F0E942812829FB001112430E020E093
:1009E000AB01420F531FFA01EE0FFF1FE40FF51F7B
:1009F000E354FD4F908196FD16C02F5F3F4F2C3082
:100A0000310571F7813009F51092800082E0809302
:100A100081001092850010928400B19A80916F003D
:100A2000826080936F00E8818E2F90E0FC01EE0FD2
:100A3000FF1FE80FF91FE354FD4F8081806480831E
:100A40008881DF91CF911F910895823061F41092D7
:100A5000900080939100109295001092940088BBB2
:100A600080937100E0CF833069F41092A00082E09F
:100A70008093A1001092A5001092A40089BB8093DE
:100A80007200D1CF8111CFCF1092200182E08093EC
:100A9000210110922501109224018ABB80937300DA
:100AA000C2CFAF92BF92CF92DF92EF92FF920F939D
:100AB0001F93CF93DF936B017A01EC01C854DD4F94
:100AC00028813CE0389F8001399F100D1124A090AF
:100AD000BC02B12C27FF1FC0FB011182108288814C
:100AE0008F5F888388819801280F311D87FD3A9593
:100AF000F6012A153B051CF488818C30C4F18081F5
:100B00009181049680349C4908F473C0F601808179
:100B10009181049670C088819801280F311D87FD4E
:100B20003A952A153B05DCF68881A801480F511D2E
:100B300087FD5A95FA01EE0FFF1FE40FF51FE354EE
:100B4000FD4F808186FFCBCF8881F801E80FF11D32
:100B500087FDFA95CF01EE0FFF1FE80FF91FE35451
:100B6000FD4F808160E08F730E944602B8CF808184
:100B700091812881A801420F511D27FD5A959A01A4
:100B8000FA01EE0FFF1FE20FF31FE354FD4F218127
:100B90003281820F931FF7019183808388819801AE
:100BA000280F311D87FD3A95F901EE0FFF1FE20F67
:100BB000F31FE354FD4F808186FF22C08881080F18
:100BC000111D87FD1A95F801EE0FFF1FE00FF11FB1
:100BD000E354FD4F808161E08F73DF91CF911F91CE
:100BE0000F91FF90EF90DF90CF90BF90AF900C945B
:100BF000460280E49CE9F701918380838FEF88832C
:100C0000DF91CF911F910F91FF90EF90DF90CF90E8
:100C1000BF90AF9008954F925F926F927F928F92A4
:100C20009F92AF92BF92CF92DF92EF92FF920F937B
:100C30001F93CF93DF93412C512C3201812C912CA7
:100C4000540103E010E0C3E2D0E060E080E30E94E2
:100C50004602C8010197F1F761E080E30E94460275
:100C6000CE010197F1F760E080E30E9446020E9406
:100C70002202892B29F40E94C0024B015C01F7CFAC
:100C80000E942202019729F40E94C0022B013C011C
:100C9000F7CFC301B201681979098A099B090E943B
:100CA00051132AE939E949EB50E40E94AE126B0175
:100CB0007C01C092B402D092B502E092B602F092EA
:100CC000B70220E030E0A9010E94A91287FDBDCF44
:100CD00061E070E080E090E00E94E502C701B601AB
:100CE000DF91CF911F910F91FF90EF90DF90CF9008
:100CF000BF90AF909F908F907F906F905F904F903C
:100D00000895CF92DF92EF92FF920F931F93CF93AC
:100D1000DF9384E40E94A502EC0182E40E94A50214
:100D20007C0183E40E94A5028C0185E40E94A50257
:100D30006C010E940B06C83E23E0D20744F020E07D
:100D400030E046E153E40E94A91287FD2FC0CE1582
:100D5000DF055CF0C017D107A4F183E090E0CC156B
:100D6000DD0534F5EC16FD0684F1E016F1065CF0C5
:100D700082E090E0EC14FD04DCF40C171D0744F055
:100D80000E151F052CF081E090E00C151D0584F474
:100D9000CC16DD0644F0CE14DF042CF084E090E0A5
:100DA000C016D1062CF490E080E002C085E090E00F
:100DB000DF91CF911F910F91FF90EF90DF90CF9037
:100DC0000895EC16FD06E4F2D0CF0C171D071CF3B6
:100DD000D7CFFB0101900020E9F73197AF01461B07
:100DE000570BDC01ED91FC910280F381E02D199409
:100DF0008F929F92AF92BF92EF92FF920F931F93A9
:100E0000CF93DF93CDB7DEB7A1970FB6F894DEBFCF
:100E10000FBECDBF7C01FA01CB0119A2223008F42C
:100E20002AE08E010F5D1F4F822E912CB12CA12C38
:100E3000BF01A50194010E94F711F901CA016A30AE
:100E40000CF5605DD8016E938D01232B242B252B8F
:100E500079F790E080E0109721F0BD01C7010E9472
:100E6000E906A1960FB6F894DEBF0FBECDBFDF91A5
:100E7000CF911F910F91FF90EF90BF90AF909F90F7
:100E80008F900895695CDECF4F925F926F927F9250
:100E90008F929F92AF92BF92CF92DF92EF92FF928A
:100EA000CF93DF93EC016A017B01AB019601CB018B
:100EB000B6010E94C31464E172E081111AC04601B8
:100EC0005701E894B7F82FEF3FEF4FE75FE7C50111
:100ED000B4010E94C314811126C02FEF3FEF4FE7EA
:100EE0005FE7C501B4010E94A9121816E4F468E195
:100EF00072E0CE010E94E9067C0160E272E0CE0160
:100F00000E94E9068E0D9F1DDF91CF91FF90EF901B
:100F1000DF90CF90BF90AF909F908F907F906F9019
:100F20005F904F9008952FEF3FEF4FE75FE4C701C9
:100F3000B6010E94011418161CF46CE172E0D9CFBE
:100F40002FEF3FEF4FE75FECC701B6010E94A912F8
:100F500087FDF3CF20E030E0A901C701B6010E9470
:100F6000A912B12CA12C87FF09C06DE2CE010E940D
:100F700017035C01F7FAF094F7F8F0942AE037EDE4
:100F800043EA5BE3C701B6010E943D122B013C011D
:100F90000E9420136B017C010E944F139B01AC0146
:100FA000C301B2010E943C122B013C012AE0B701AF
:100FB000A601CE010E94F8067C01EA0CFB1C6EE241
:100FC000CE010E941703E80EF91E20E030E040E257
:100FD00051E4C301B2010E9406142B013C010E949E
:100FE00020134B01B12CA12C2AE0B501A401CE01A4
:100FF0000E94F806E80EF91EC501B4010E944F13C5
:101000009B01AC01C301B2010E943C1220E030E020
:1010100040E251E40E9406140E942013AB0170E0EC
:1010200060E02AE0CE010E94F806E80EF91E65CFC6
:10103000CF92DF92EF92FF920F931F93CF93DF93A4
:101040008C016B01770FEE08FF08F7FE21C06DE2FF
:101050000E941703EC0144275527BA014C195D097A
:101060006E097F092AE0C8010E94F806C80FD91F3F
:1010700060E272E0C8010E94E9068C0F9D1FDF91BB
:10108000CF911F910F91FF90EF90DF90CF90089537
:101090002AE0B701A6010E94F806EC01E9CF0F9300
:1010A0001F93CF93DF93EC010E94E9068C0160E26D
:1010B00072E0CE010E94E906800F911FDF91CF916F
:1010C0001F910F9108954F925F926F927F928F922E
:1010D0009F92AF92BF92CF92DF92EF92FF92CF9307
:1010E000DF9300D000D0CDB7DEB78CE390E09E83D5
:1010F0008D83812C912C5401750164018BE30E9436
:10110000A502BC01990F880B990B0E94511323E390
:1011100033E343E55FEB0E94731469837A838B8327
:101120009C832AE037ED43E25CE3C501B4010E94F1
:101130003D124B015C0120E030E040E85FE30E949B
:101140003D129B01AC01C501B4010E94AE122B01FE
:101150003C012DEC3CE04EE056E469817A818B81C4
:101160009C810E940614A70196010E943C12A301D3
:1011700092010E9406149B01AC01C701B6010E94B6
:101180003D126B017C018D819E8101979E838D8331
:10119000A3019201C501B4010E9406149B01AC0198
:1011A00060E070E080E89FE30E943C124B015C012C
:1011B0008D819E81892B09F0A1CFA7019601C701DE
:1011C000B6010E94A912882339F0C12C8CE3D82ED5
:1011D0008CE1E82E86E4F82EC701B60126960FB6FC
:1011E000F894DEBF0FBECDBFDF91CF91FF90EF909F
:1011F000DF90CF90BF90AF909F908F907F906F9037
:101200005F904F9008954F925F926F927F928F926E
:101210009F92AF92BF92CF92DF92EF92FF92CF93C5
:10122000DF9300D000D0CDB7DEB78CE390E09E8393
:101230008D83812C912C5401750164018AE30E94F5
:10124000A502BC01990F880B990B0E9451132EEF38
:1012500034ED48E55FEB0E94731469837A838B83D6
:101260009C832AE037ED43E25CE3C501B4010E94B0
:101270003D124B015C0120E030E040E85FE30E945A
:101280003D129B01AC01C501B4010E94AE122B01BD
:101290003C0120E03CE041E256E469817A818B81A7
:1012A0009C810E940614A70196010E943C12A30192
:1012B00092010E9406149B01AC01C701B6010E9475
:1012C0003D126B017C018D819E8101979E838D83F0
:1012D000A3019201C501B4010E9406149B01AC0157
:1012E00060E070E080E89FE30E943C124B015C01EB
:1012F0008D819E81892B09F0A1CFA7019601C7019D
:10130000B6010E94A912882339F0C12C8CE3D82E93
:101310008CE1E82E86E4F82EC701B60126960FB6BA
:10132000F894DEBF0FBECDBFDF91CF91FF90EF905D
:10133000DF90CF90BF90AF909F908F907F906F90F5
:101340005F904F9008952F923F924F925F926F92CD
:101350007F928F929F92AF92BF92CF92DF92EF9245
:10136000FF920F931F93CF93DF93CDB7DEB76297B2
:101370000FB6F894DEBF0FBECDBF84E690E09E832B
:101380008D83812C912C5401750164018DE30E94A1
:10139000A502BC01990F880B990B0E9451132CE9EF
:1013A00034EC40E85FEB0E94731469837A838B838B
:1013B0009C832AE037ED43EA5BE3C701B6010E9454
:1013C0003D126B017C0120E030E040E85FE30E94C9
:1013D0003D129B01AC01C701B6010E94AE122B0168
:1013E0003C0120E033E445E457E469817A818B8154
:1013F0009C810E940614A50194010E943C12A30145
:1014000092010E9406149B01AC01C501B4010E9427
:101410003D124B015C018D819E8101979E838D83DE
:10142000A3019201C701B6010E9406149B01AC0101
:1014300060E070E080E89FE30E943C126B017C0159
:101440008D819E81892B09F0A1CFA5019401C50151
:10145000B4010E94A912882339F0812C9CE3992EB3
:101460009CE1A92E96E4B92E0E94630869837A83D1
:101470008B839C830E9403096D837E838F8398876F
:1014800084E690E09A8B898B412C512C32017301B8
:1014900062018CE30E94A502BC01990F880B990B95
:1014A0000E94511320EA3AE14FE65FEB0E94731469
:1014B0006D877E878F87988B2AE037ED43E25CE368
:1014C000C701B6010E943D126B017C0120E030E0B3
:1014D00040E85FE30E943D129B01AC01C701B601E9
:1014E0000E94AE1269877A878B879C8720E033E160
:1014F00048E257E46D857E858F8598890E940614A1
:10150000A30192010E943C1229853A854B855C8596
:101510000E9406149B01AC01C301B2010E943D125E
:101520002B013C0189899A8901979A8B898B29859E
:101530003A854B855C85C701B6010E9406149B0164
:10154000AC0160E070E080E89FE30E943C126B0118
:101550007C0189899A89892B09F09BCF20E030E0B2
:1015600048E452E4C301B2010E943C126B017C01C9
:10157000AC019B010E94A912882339F0C12C8CE395
:10158000D82E8CE1E82E86E4F82E0E940B061B0173
:101590002C0184E40E94A5023C0120E030E046E9F1
:1015A00052E469817A818B819C810E94A91287FF14
:1015B0000EC091E09D8720E03CE34CE156E4698158
:1015C0007A818B819C810E94A912811101C01D86A4
:1015D00020E030E046E952E4C501B4010E94A912BE
:1015E00087FF0CC020E03CE34CE156E4C501B401A8
:1015F0000E94A912882311F081E08D8720E030E05D
:1016000046E952E46D817E818F8198850E94A912FE
:1016100087FF0EC091E0998720E03CE34CE156E45F
:101620006D817E818F8198850E94A912811101C0F0
:10163000198620E030E046E952E4C701B6010E9475
:10164000A91287FF0CC020E03CE34CE156E4C7013F
:10165000B6010E94A912882311F081E0898720E059
:1016600030E048EC52E469817A818B819C810E9450
:10167000A91287FF0CC020E030E048EC52E46D81F5
:101680007E818F8198850E94A91287FD17C020E076
:1016900030E048EC52E4C201B1010E94A91287FD7A
:1016A0000DC09D8502E010E0911102C010E000E045
:1016B0009985992329F003E010E002C004E010E0CE
:1016C00088EE681683E0780664F020E030E046E1BA
:1016D00053E4C201B1010E94A91287FF02C007E0D2
:1016E00010E0C80162960FB6F894DEBF0FBECDBF02
:1016F000DF91CF911F910F91FF90EF90DF90CF90EE
:10170000BF90AF909F908F907F906F905F904F9021
:101710003F902F9008951F920F920FB60F921124B1
:101720002F933F938F939F93AF93BF9380916403C5
:1017300090916503A0916603B091670330916303B4
:1017400023E0230F2D3758F50196A11DB11D2093DD
:1017500063038093640390936503A0936603B0933F
:1017600067038091680390916903A0916A03B09127
:101770006B030196A11DB11D8093680390936903CB
:10178000A0936A03B0936B03BF91AF919F918F9128
:101790003F912F910F900FBE0F901F90189526E844
:1017A000230F0296A11DB11DD2CF1F920F920FB62B
:1017B0000F9211240BB60F922F933F934F935F9389
:1017C0006F937F938F939F93AF93BF93EF93FF9309
:1017D0008CE693E00E949203FF91EF91BF91AF914D
:1017E0009F918F917F916F915F914F913F912F9139
:1017F0000F900BBE0F900FBE0F901F9018951F9269
:101800000F920FB60F9211240BB60F922F938F9356
:101810009F93EF93FF93E0917C03F0917D03808190
:10182000E0918203F091830382FD1DC0908180913D
:1018300085038F5F8F7320918603821741F0E091BB
:101840008503F0E0E459FC4F958F80938503FF9169
:10185000EF919F918F912F910F900BBE0F900FBE24
:101860000F901F9018958081F2CF1F920F920FB6A4
:101870000F9211240BB60F922F933F934F935F93C8
:101880006F937F938F939F93AF93BF93EF93FF9348
:1018900048E251E064E271E090E080E00E9451058E
:1018A000FF91EF91BF91AF919F918F917F916F9138
:1018B0005F914F913F912F910F900BBE0F900FBEF4
:1018C0000F901F9018951F920F920FB60F92112430
:1018D0000BB60F922F933F934F935F936F937F932A
:1018E0008F939F93AF93BF93EF93FF9348EA50E09A
:1018F00064EA70E083E090E00E945105FF91EF916F
:10190000BF91AF919F918F917F916F915F914F9117
:101910003F912F910F900BBE0F900FBE0F901F9015
:1019200018951F920F920FB60F9211240BB60F92BB
:101930002F933F934F935F936F937F938F939F93D7
:10194000AF93BF93EF93FF9348E950E064E970E0F1
:1019500082E090E00E945105FF91EF91BF91AF911D
:101960009F918F917F916F915F914F913F912F91B7
:101970000F900BBE0F900FBE0F901F9018951F92E7
:101980000F920FB60F9211240BB60F922F933F9325
:101990004F935F936F937F938F939F93AF93BF9377
:1019A000EF93FF9348E850E064E870E081E090E056
:1019B0000E945105FF91EF91BF91AF919F918F913F
:1019C0007F916F915F914F913F912F910F900BBE3F
:1019D0000F900FBE0F901F901895FC019091BC02C4
:1019E000903398F481E0890F8093BC029083892F13
:1019F00090E0FC01EE0FFF1FE80FF91FE354FD4FCD
:101A000088EB9BE09283818308958FEF8083089514
:101A1000ECE6F3E01382128288EE93E0A0E0B0E0FF
:101A200084839583A683B78386E092E09183808345
:101A30008DEC90E0958784878CEC90E09787868783
:101A400088EC90E0918B808B89EC90E0938B828B7B
:101A50008AEC90E0958B848B8EEC90E0978B868B54
:101A6000118E128E138E148E85E194E00E94ED0C7F
:101A700082E194E00E94ED0C8FE094E00E94ED0C76
:101A80008CE094E00E94ED0C89E094E00C94ED0C65
:101A9000CF93DF93CDB7DEB72C970FB6F894DEBFA8
:101AA0000FBECDBF789484B5826084BD84B581605B
:101AB00084BD85B5826085BD85B5816085BD809119
:101AC0006E00816080936E00109281008091810091
:101AD0008260809381008091810081608093810089
:101AE000809180008160809380008091B10084604B
:101AF0008093B1008091B00081608093B0008091AC
:101B00009100826080939100809191008160809328
:101B10009100809190008160809390008091A1005D
:101B200082608093A1008091A10081608093A100D8
:101B30008091A00081608093A0008091210182604B
:101B40008093210180912101816080932101809106
:101B5000200181608093200180917A0084608093CD
:101B60007A0080917A00826080937A0080917A0076
:101B7000816080937A0080917A00806880937A00F7
:101B80001092C10061E08DE20E94740260E08DE27B
:101B90000E94460268E873E180E090E00E94E5025E
:101BA0008CE693E09093620380936103E0917C0361
:101BB000F0917D0382E08083E0917803F0917903D6
:101BC0001082E0917A03F0917B0380E18083109290
:101BD0008403E0918003F091810386E08083E091AB
:101BE0007E03F0917F03808180618083E0917E039A
:101BF000F0917F03808188608083E0917E03F09183
:101C00007F03808180688083E0917E03F0917F0371
:101C100080818F7D808360E081E30E94740261E0B7
:101C200080E30E94740260E08AE30E94740260E034
:101C30008BE30E94740260E08CE30E94740260E017
:101C40008DE30E9474026EE270E085E194E00E94F0
:101C5000C9046FE270E082E194E00E94C90462E38B
:101C600070E08FE094E00E94C90463E370E08CE0D0
:101C700094E00E94C9046BE070E089E094E00E9467
:101C8000C90460E085E40E94740224E630E03A83EF
:101C9000298385E40E94A50265E070E080E090E081
:101CA0000E94E50249815A81415051095A83498372
:101CB000452B79F763E272E08CE693E00E944F08CF
:101CC00001E010E088E0282E312C809100029091F4
:101CD000010220914D0330914E03820F931F853FE7
:101CE00051E095070CF050C09093010280930002E0
:101CF00010924E0310924D0322E030E030935E03C9
:101D000020935D031093600300935F030E9481069C
:101D100081309105E1F590935A038093590342E095
:101D200050E050935803409357030E9481069A83D2
:101D3000898384E40E94A5026C0182E40E94A502CA
:101D40007C0183E40E94A502CE14DF0444F0C8168F
:101D5000D9060CF096C2EC14FD040CF444C0E8164D
:101D6000F9060CF444C049815A814530510509F007
:101D70004DC01093520300935103309250032092B0
:101D80004F038CE390E08DC284EF91E0ADCF8230C1
:101D9000910559F410935A030093590383E090E09E
:101DA0009093580380935703C0CF8330910549F433
:101DB00010935A030093590310925803109257033B
:101DC000B4CF049759F410935A030093590327E0B2
:101DD00030E03093580320935703A7CF10925A0353
:101DE00010925903A2CF8E159F050CF4BFC28981B2
:101DF0009A81059759F4109352030093510330923E
:101E0000500320924F0388E790E04BC21092520398
:101E10001092510360E048C28330910559F4109349
:101E200056030093550384E090E09093540380930D
:101E300053034DC28130910529F49093560380934A
:101E40005503F3CF8430910559F410935603009352
:101E5000550322E030E0309354032093530337C2FC
:101E6000079749F410935603009355033092540397
:101E7000209253032CC2109256031092550327C28E
:101E800040910002509101025A8349837A0154E241
:101E9000E51A5AEFF50AB70185E194E00E94520471
:101EA000B70182E194E00E9452048CED95E09C0120
:101EB00049815A81241B350B3A832983B9018FE06C
:101EC00094E00E94520469817A818CE094E00E943F
:101ED000520469E170E080E090E00E94E5020E9417
:101EE000A3099C878B870E9481069A83898382E459
:101EF0000E94A5029A87898784E40E94A502988798
:101F00008F8385E40E94A5029E838D8383E40E94D3
:101F1000A5029C838B830E940B062B013C010E942F
:101F200063084B015C010E9403096B017C0169E2BB
:101F300072E080916103909162030E94E9066B85D3
:101F40007C8580916103909162030E94180864E38C
:101F500072E080916103909162030E94E9066981B9
:101F60007A8180916103909162030E94180862E374
:101F700072E080916103909162030E944F086FE3C9
:101F800072E080916103909162030E94E906698585
:101F90007A8580916103909162030E94180863E53D
:101FA00072E080916103909162030E94E9066B8167
:101FB0007C8180916103909162030E94180866E61B
:101FC00072E080916103909162030E94E9066D8145
:101FD0007E8180916103909162030E94180860E7FE
:101FE00072E080916103909162030E94E9066F8123
:101FF000788580916103909162030E9418086BE7D5
:1020000072E080916103909162030E94E906B3013E
:10201000A20180916103909162030E9444076BE8E2
:1020200072E080916103909162030E94E906B5011C
:10203000A40180916103909162030E9444076FE9BB
:1020400072E080916103909162030E94E906B701FA
:10205000A60180916103909162030E94440762E3AC
:1020600072E080916103909162030E944F080E9488
:1020700021042BCE80910002909101029A838983E2
:102080008CED95E07C0129813A81E21AF30AB701CF
:1020900085E194E00E945204B70182E194E00E943D
:1020A000520449815A8144525A4F5A834983BA0192
:1020B0008FE094E00E94520469817A814EC067E803
:1020C00075E085E194E00E94520467E875E082E1E2
:1020D00094E00E94520467E875E08FE094E00E946B
:1020E000520467E875E0F1CE61E376E085E194E0C3
:1020F0000E94520461E376E082E194E00E9452047F
:1021000061E376E08FE094E00E94520461E376E0C0
:10211000DCCE80910002909101029A8389838CED3C
:1021200095E07C0129813A81E21AF30AB70185E141
:1021300094E00E94520449815A8144525A4F5A8372
:102140004983BA0182E194E00E94520469817A8154
:102150008FE094E00E945204B7018CE094E00E946A
:10216000520475C0C0900002D0900102760154E282
:10217000E51A5AEFF50AB70185E194E00E9452048E
:102180008CED95E08C199D099A838983BC01DACF87
:10219000E0900002F09001022CED35E02E193F098D
:1021A0003A832983B90185E194E00E945204698150
:1021B0007A8182E194E00E94520434E2E31A3AEF19
:1021C000F30AB7018FE094E00E945204B7018CE05B
:1021D00094E00E94520464E670E080E090E00E9487
:1021E000E50269817A8185E194E00E945204698167
:1021F0007A8182E194E00E94520469817A8158CF09
:1022000080910002909101024CED55E0481B590B62
:102210005A834983BA0185E194E00E94520469819E
:102220007A8182E194E00E94520469817A818FE090
:1022300094E00E94520469817A818CE094E00E94CB
:10224000520464EC79E080E090E00E94E50262E3F1
:1022500070E080E090E041CE6CED75E085E194E0C7
:102260000E9452046CED75E082E194E00E945204F9
:102270006CED75E08FE094E00E9452046CED75E027
:102280006CCF29813A812530310509F0BFCD1093FB
:102290005203009351033092500320924F038AE57A
:1022A00090E00E94890461E08DE20E9446020E9453
:1022B000A3098230910509F0AFCD10935603009326
:1022C000550345E050E050935403409353038091ED
:1022D0005F0390916003019741F480915D039091B9
:1022E0005E0390935C0380935B038091590390910C
:1022F0005A03019741F480915703909158039093AA
:102300005C0380935B038091550390915603019782
:1023100041F4809153039091540390935C03809314
:102320005B038091510390915203019741F4809196
:102330004F039091500390935C0380935B03E09173
:102340005B03F0915C03E930F10508F0C8CD882704
:10235000E355FE4E8F4F0C943412400F3A105F102D
:1023600074108910B210C81000112C1129813A8103
:102370002530310509F04ACD1093520300935103E3
:102380003092500320924F038ECF052E97FB1EF400
:1023900000940E94DC1157FD07D00E94F71107FC42
:1023A00003D04EF40C94DC11509540953095219556
:1023B0003F4F4F4F5F4F0895909580957095619571
:1023C0007F4F8F4F9F4F08950E941912A59F900D28
:1023D000B49F900DA49F800D911D11240895B7FF07
:1023E0000C94E4110E94E411821B930B0895A1E266
:1023F0001A2EAA1BBB1BFD010DC0AA1FBB1FEE1F7F
:10240000FF1FA217B307E407F50720F0A21BB30BC9
:10241000E40BF50B661F771F881F991F1A9469F745
:1024200060957095809590959B01AC01BD01CF01A1
:102430000895A29FB001B39FC001A39F700D811D9D
:102440001124911DB29F700D811D1124911D0895BD
:10245000991B79E004C0991F961708F0961B881FF6
:102460007A95C9F780950895EE0FFF1F881F8BBFDF
:102470000790F691E02D19945058BB27AA270E9487
:1024800054120C94C7130E94B91338F00E94C01361
:1024900020F039F49F3F19F426F40C94B6130EF48F
:1024A000E095E7FB0C94B013E92F0E94D81358F382
:1024B000BA17620773078407950720F079F4A6F529
:1024C0000C94FA130EF4E0950B2EBA2FA02D0B01ED
:1024D000B90190010C01CA01A0011124FF27591B69
:1024E00099F0593F50F4503E68F11A16F040A22F6F
:1024F000232F342F4427585FF3CF469537952795E0
:10250000A795F0405395C9F77EF41F16BA0B620BDE
:10251000730B840BBAF09150A1F0FF0FBB1F661F25
:10252000771F881FC2F70EC0BA0F621F731F841F68
:1025300048F4879577956795B795F7959E3F08F08E
:10254000B0CF9395880F08F09927EE0F9795879550
:1025500008950E948C1308F481E008950E94C2122D
:102560000C94C7130E94C01358F00E94B91340F096
:1025700029F45F3F29F00C94B01351110C94FB1314
:102580000C94B6130E94D81368F39923B1F3552322
:1025900091F3951B550BBB27AA2762177307840776
:1025A00038F09F5F5F4F220F331F441FAA1FA9F30C
:1025B00035D00E2E3AF0E0E832D091505040E695FA
:1025C000001CCAF72BD0FE2F29D0660F771F881F5B
:1025D000BB1F261737074807AB07B0E809F0BB0B4E
:1025E000802DBF01FF2793585F4F3AF09E3F510562
:1025F00078F00C94B0130C94FB135F3FE4F3983E17
:10260000D4F3869577956795B795F7959F5FC9F74A
:10261000880F911D9695879597F90895E1E0660FCB
:10262000771F881FBB1F621773078407BA0720F044
:10263000621B730B840BBA0BEE1F88F7E0950895AD
:102640000E94E01388F09F5798F0B92F9927B7514F
:10265000B0F0E1F0660F771F881F991F1AF0BA9546
:10266000C9F714C0B13091F00E94FA13B1E0089597
:102670000C94FA13672F782F8827B85F39F0B93F89
:10268000CCF3869577956795B395D9F73EF49095F9
:102690008095709561957F4F8F4F9F4F0895E89477
:1026A00009C097FB3EF490958095709561957F4F9A
:1026B0008F4F9F4F9923A9F0F92F96E9BB27939548
:1026C000F695879577956795B795F111F8CFFAF458
:1026D000BB0F11F460FF1BC06F5F7F4F8F4F9F4F89
:1026E00016C0882311F096E911C0772321F09EE8E7
:1026F000872F762F05C0662371F096E8862F70E04D
:1027000060E02AF09A95660F771F881FDAF7880F26
:102710009695879597F90895990F0008550FAA0B7C
:10272000E0E8FEEF16161706E807F907C0F01216E4
:102730001306E407F50798F0621B730B840B950BE7
:1027400039F40A2661F0232B242B252B21F408953C
:102750000A2609F4A140A6958FEF811D811D0895D9
:1027600097F99F6780E870E060E008959FEF80EC44
:10277000089500240A9416161706180609060895E7
:1027800000240A9412161306140605060895092E4D
:102790000394000C11F4882352F0BB0F40F4BF2BBC
:1027A00011F460FF04C06F5F7F4F8F4F9F4F0895FC
:1027B00057FD9058440F551F59F05F3F71F04795F2
:1027C000880F97FB991F61F09F3F79F087950895D7
:1027D000121613061406551FF2CF4695F1DF08C0F6
:1027E000161617061806991FF1CF86957105610513
:1027F00008940895E894BB2766277727CB0197F9BB
:1028000008950E948C1308F48FEF08950E94191404
:102810000C94C7130E94B91338F00E94C01320F023
:10282000952311F00C94B0130C94B61311240C944E
:10283000FB130E94D81370F3959FC1F3950F50E0DE
:10284000551F629FF001729FBB27F00DB11D639F62
:10285000AA27F00DB11DAA1F649F6627B00DA11D08
:10286000661F829F2227B00DA11D621F739FB00DAE
:10287000A11D621F839FA00D611D221F749F33271E
:10288000A00D611D231F849F600D211D822F762FB7
:102890006A2F11249F5750409AF0F1F088234AF094
:1028A000EE0FFF1FBB1F661F771F881F9150504000
:1028B000A9F79E3F510580F00C94B0130C94FB13C4
:1028C0005F3FE4F3983ED4F3869577956795B79587
:1028D000F795E7959F5FC1F7FE2B880F911D9695A1
:1028E000879597F90895FA01EE0FFF1F309621059D
:1028F0003105A1F16115710561F48038BFE39B07D3
:1029000049F168949038810561F08038BFEF9B07EA
:1029100041F099234AF5FF3FE1053105210519F101
:10292000E8940894E795D901AA2329F4AB2FBE2F88
:10293000F85FD0F310C0FF5F70F4A695E0F7F739A9
:1029400050F019F0FF3A38F49F779F930DD00F9015
:1029500007FC9058089546F00C94B61360E070E0C0
:1029600080E89FE308954FE79F775F934F933F93EE
:102970002F930E9473152F913F914F915F910E9469
:1029800006140C94D0140E948C13880B990B089594
:1029900029F416F00C94B0130C94FA130C94B6139B
:1029A0000E94E013A8F39638A0F707F80F92E89476
:1029B0002BE33AEA48EB5FE70E941C140F920F9258
:1029C0000F924DB75EB70F920E94BB15E4EEF0E098
:1029D0000E9402154F915F91EF91FF91E595EE1FD7
:1029E000FF1F49F0FE57E0684427EE0F441FFA9599
:1029F000E1F74195550B0E9435150F9007FE0C9499
:102A000029150895DF93CF931F930F93FF92EF92B1
:102A1000DF927B018C01689406C0DA2EEF010E94E0
:102A20001914FE01E894A591259135914591559190
:102A3000A6F3EF010E945412FE019701A801DA9457
:102A400069F7DF90EF90FF900F911F91CF91DF9189
:102A500008959B01AC0160E070E080E89FE30C9476
:102A6000AE120C94B0130C94EF150E94E013D8F33F
:102A70009923C9F3940F511DA3F39150504094F042
:102A800059F0882332F0660F771F881F915050400D
:102A9000C1F79E3F51052CF7880F911D969587959C
:102AA00097F908955F3FACF0983E9CF0BB27869560
:102AB00077956795B79508F4B1609395C1F7BB0F0B
:102AC00058F711F460FFE8CF6F5F7F4F8F4F9F4F34
:102AD000E3CF0C94FB1316F00C94EF150C94B61383
:102AE00068940C94B0130E94E013A8F39923C1F3E7
:102AF000AEF3DF93CF931F930F93FF92C92FDD2780
:102B000088232AF02197660F771F881FDAF720E0C5
:102B100030E040E85FEB9FE3883920F0803E38F0FA
:102B200021968F770E943D12ECE0F1E004C00E94F4
:102B30003D12E9E3F1E00E9402158B01BE01EC01B8
:102B4000FB2E6F5771097595771F880B990B0E94A3
:102B5000511328E132E741E35FE30E941914AF2DDE
:102B60009801AE01FF900F911F91CF91DF910E94CC
:102B700054120C94C713FA01DC01AA0FBB1F9B016E
:102B8000AC01BF5728F4222733274427507820C0B0
:102B9000B75190F4AB2F0024469537952795011C2B
:102BA000A395D2F3002071F0220F331F441FB39579
:102BB000DAF30ED00C943C1261307105A0E88A075C
:102BC000B94630F49B01AC016627772788279078B7
:102BD000309621F0208331834283538308959F3FB1
:102BE00031F0915020F4879577956795B795880FC8
:0E2BF000911D9695879597F90895F894FFCF5B
:102BFE00AF0000000000B4031E034B0301047C036E
:102C0E005A036E036E616E00696E66006F76660023
:102C1E000D0A005374617274004F62737461636CB9
:102C2E00653A200046696E64466972653A20007204
:102C3E00696768745F66726F6E745F505420697353
:102C4E003A20006C6566745F66726F6E745F5054E6
:102C5E002069733A20006261636B2069733A200029
:102C6E0066726F6E742069733A200066726F6E74AE
:102C7E0020646973742069733A20006C6566742051
:102C8E006469616720646973742069733A20007205
:102C9E006967687420646961672064697374206968
:042CAE00733A200055
:00000001FF
