:100000000C9486010C94B7010C94B7010C94B701C1
:100010000C94B7010C94B7010C94B7010C94B70180
:100020000C94B7010C94B7010C94B7010C94B70170
:100030000C94B7010C94B7010C94B7010C94B70160
:100040000C94B7010C942B0B0C94B7010C94B701D2
:100050000C94B7010C94B7010C94B7010C94F709F8
:100060000C94B7010C94B7010C94B7010C94B70130
:100070000C94B7010C94B7010C94B7010C94B70120
:100080000C94FD0A0C94B7010C94B7010C94B701C1
:100090000C946B0A0C94410A0C94B7010C94B701B0
:1000A0000C94B7010C94B7010C94CF0A0C94B701CF
:1000B0000C94B7010C94B7010C94B7010C94A10AED
:1000C0000C94B7010C94B7010C94B7010C94B701D0
:1000D0000C94B7010C94B7010C94B7010C94B701C0
:1000E0000C94B70107634236B79BD8A71A396856F4
:1000F00018AEBAAB558C1D3CB7CC5763BD6DEDFD4A
:10010000753EF6177231BF000000803F0800000006
:10011000BE922449123EABAAAA2ABECDCCCC4C3EFC
:1001200000000080BEABAAAAAA3E00000000BF00EB
:100130000000803F0000000000084178D3BB4387E7
:10014000D1133D190E3CC3BD4282AD2B3E68EC82FB
:1001500076BED98FE1A93E4C80EFFFBE01C4FF7F80
:100160003F00000000000C94F2010C94740B0C94FE
:1001700073030C94EA0E0C94F6010C94E9010C94B0
:1001800017020C94F8030C9404020C94D7010C94FD
:1001900042030C941C020C9400020C94FC010C947D
:1001A000AB030C94D40E0C9451030C9465030C9483
:1001B00015030C9418020C9412020C94F40D0C9478
:1001C000E1010C940A020C94DD010C94E5010C94FD
:1001D000CE0D0C940E020C94160F0C94350E0C944C
:1001E000130E0C942B0E0C94EC0100002100240043
:1001F00027002A002D003000330001010000040117
:1002000007010A0100002200250028002B002E0013
:100210003100340002010000050108010B0100005B
:1002200020002300260029002C002F0032000001AE
:100230000000030106010901050505050705080879
:100240000808020202020A0A080804040404010160
:100250000101010101010303030303030303040775
:1002600007070C0C0C0C0C0C0C0C0202020206060C
:100270000606060606060B0B0B0B0B0B0B0B0102FF
:1002800010202008081020401020408002010201A8
:100290000804020101020408102040808040201060
:1002A00008040201800402018040201008040201B9
:1002B0000804020101020408102040800102040821
:1002C0001020408000000A0B02090C0D0E080703E5
:1002D0000401000000000000000000000000000019
:1002E000000000000000000000000000000000000E
:1002F00012111000000000000000000000000000CB
:1003000000000000000000000000740B11241FBE5C
:10031000CFEFD1E2DEBFCDBF00E00CBF12E0A0E026
:10032000B2E0E8ECF6E200E00BBF02C007900D92ED
:10033000A836B107D9F723E0A8E6B2E001C01D92C4
:10034000AC3CB207E1F711E0C6E8D1E000E006C03E
:1003500021970109802FFE010E94990FC538D1070E
:1003600080E00807A9F70E94B40B0C9462130C9468
:1003700000008150823108F05AC0E82FF0E0882751
:10038000EB53FE4F8F4F0C94990FE501E901D70114
:10039000DD01E1011702EC01F201F601FC010002AE
:1003A00004020A020E021702120218021C028091B5
:1003B00080008F77809380000895809180008F7DEA
:1003C000F9CF80918000877FF5CF84B58F7784BD8A
:1003D000089584B58F7DFBCF8091B0008F77809397
:1003E000B00008958091B0008F7DF9CF809190008A
:1003F0008F77809390000895809190008F7DF9CF42
:1004000080919000877FF5CF8091A0008F778093B7
:10041000A00008958091A0008F7DF9CF8091A00069
:10042000877FF5CF809120018F77809320010895F9
:10043000809120018F7DF9CF80912001877FF5CFBA
:10044000CF93DF93E5EFF2E08491EFEAF2E0D4910D
:10045000E9E6F2E0C491CC23A1F081110E94B90138
:10046000EC2FF0E0EE0FFF1FE25EFD4FA591B4917F
:10047000EC91ED2381E090E009F480E0DF91CF91F1
:10048000089580E090E0FACF1F93CF93DF93282F59
:1004900030E0F901EC53FD4F8491F901E258FD4F32
:1004A000D491F901E85CFD4FC491CC23A9F0162F3B
:1004B00081110E94B901EC2FF0E0EE0FFF1FEC5FFD
:1004C000FD4FA591B4918FB7F894EC91111108C02C
:1004D000D095DE23DC938FBFDF91CF911F910895DC
:1004E000DE2BF8CFCF93DF9390E0FC01E258FD4F75
:1004F0002491885C9D4FFC0184918823D1F090E089
:10050000880F991FFC01E651FE4FA591B491FC01A3
:10051000EC5FFD4FC591D49161110EC09FB7F89467
:100520008C91E22FE0958E238C932881E223E8833F
:100530009FBFDF91CF9108958FB7F894EC91E22B94
:10054000EC938FBFF6CF865320917B00982F987F36
:10055000277F922B90937B008770806480937C0030
:1005600080917A00806480937A0080917A0086FD81
:10057000FCCF809178009091790008953FB7F8946E
:1005800080911C0390911D03A0911E03B0911F0345
:1005900026B5A89B05C02F3F19F00196A11DB11DDE
:1005A0003FBFBA2FA92F982F8827BC01CD01620F1A
:1005B000711D811D911D42E0660F771F881F991FD5
:1005C0004A95D1F708958F929F92AF92BF92CF92A2
:1005D000DF92EF92FF924B015C010E94BE026B0121
:1005E0007C010E94BE026C197D098E099F09683E3C
:1005F000734081059105A8F321E0821A9108A108B2
:10060000B10888EEC80E83E0D81EE11CF11C8114ED
:100610009104A104B10429F7FF90EF90DF90CF90EF
:10062000BF90AF909F908F900895AF92BF92CF925E
:10063000DF92EF92FF920F931F93CF93DF936C01A2
:100640007B018B01040F151FEB015E01AE18BF0883
:10065000C017D10759F06991D601ED91FC91019035
:10066000F081E02DC6011995892B79F7C501DF913D
:10067000CF911F910F91FF90EF90DF90CF90BF909F
:10068000AF900895FC01538D448D252F30E0842FC9
:1006900090E0821B930B541710F0CF9608950197AA
:1006A0000895FC01918D828D981761F0A28DAE0F97
:1006B000BF2FB11D5D968C91928D9F5F9F73928F1E
:1006C00090E008958FEF9FEF0895FC01918D828D4A
:1006D000981731F0828DE80FF11D858D90E0089517
:1006E0008FEF9FEF0895FC01918D228D892F90E06F
:1006F000805C9F4F821B91098F739927089580E238
:1007000093E00E94730321E0892B09F420E0822FFB
:100710000895FC01A48DA80FB92FB11DA35ABF4F96
:100720002C91848D90E001968F739927848FA689F0
:10073000B7892C93A089B1898C91837080648C9344
:10074000938D848D981306C00288F389E02D8081F3
:100750008F7D80830895EF92FF920F931F93CF9325
:10076000DF93EC0181E0888F9B8D8C8D98131AC0EC
:10077000E889F989808185FF15C09FB7F894EE89D3
:10078000FF896083E889F989808183708064808330
:100790009FBF81E090E0DF91CF911F910F91FF907B
:1007A000EF900895F62E0B8D10E00F5F1F4F0F7323
:1007B0001127E02E8C8D8E110CC00FB607FCFACFDE
:1007C000E889F989808185FFF5CFCE010E948903F0
:1007D000F1CFEB8DEC0FFD2FF11DE35AFF4FF082AF
:1007E0009FB7F8940B8FEA89FB8980818062CFCF15
:1007F000CF93DF93EC01888D8823B9F0AA89BB8958
:10080000E889F9898C9185FD03C0808186FD0DC042
:100810000FB607FCF7CF8C9185FFF2CF808185FF63
:10082000EDCFCE010E948903E9CFDF91CF910895EA
:1008300080E090E0892B49F080E090E0892B29F05E
:100840000E94000081110E94000080E090E0892B4E
:1008500029F00E947F0381110E94000080E090E057
:10086000892B49F080E090E0892B29F00E9400005C
:1008700081110E94000080E090E0892B49F080E027
:1008800090E0892B29F00E94000081110C94000057
:100890000895DC01EC91E03390F511968C9111975D
:1008A00028E830E0281B310987FD3395220F331FDC
:1008B000220F331F6217730784F012968C9128E57C
:1008C00032E0281B310987FD3395220F331F220F99
:1008D000331F621773070CF49B0122503109220F5A
:1008E000331F4FB7F8948E2F90E0FC01EE0FFF1FDF
:1008F000E80FF91FEF58FD4F328321834FBF089552
:100900001F93CF93DF93EC01162F8881803308F07B
:100910004EC061E0812F0E9472028881282F30E052
:10092000F901EE0FFF1FE20FF31FEF58FD4F1F738A
:100930006081607C612B608319821A822CE0622FB7
:100940000E948D0F829FB001112430E020E0AB01A6
:10095000420F531FFA01EE0FFF1FE40FF51FEF5870
:10096000FD4F908196FD16C02F5F3F4F2C30310513
:1009700071F7813009F51092800082E08093810048
:100980001092850010928400B19A80916F0082606D
:1009900080936F00E8818E2F90E0FC01EE0FFF1F27
:1009A000E80FF91FEF58FD4F8081806480838881B4
:1009B000DF91CF911F910895823061F410929000E1
:1009C00080939100109295001092940088BB8093C0
:1009D0007100E0CF833069F41092A00082E0809330
:1009E000A1001092A5001092A40089BB8093720010
:1009F000D1CF8111CFCF1092200182E080932101CD
:100A000010922501109224018ABB80937300C2CFFB
:100A1000AF92BF92CF92DF92EF92FF920F931F930C
:100A2000CF93DF936B017A01EC01C459DD4F28812C
:100A30003CE0389F8001399F100D1124A090700276
:100A4000B12C27FF1FC0FB011182108288818F5FAC
:100A5000888388819801280F311D87FD3A95F6011A
:100A60002A153B051CF488818C30C4F1808191816A
:100A7000049680349C4908F473C0F601808191810A
:100A8000049670C088819801280F311D87FD3A9522
:100A90002A153B05DCF68881A801480F511D87FD0A
:100AA0005A95FA01EE0FFF1FE40FF51FEF58FD4FA7
:100AB000808186FFCBCF8881F801E80FF11D87FD8B
:100AC000FA95CF01EE0FFF1FE80FF91FEF58FD4F0A
:100AD000808160E08F730E944402B8CF8081918151
:100AE0002881A801420F511D27FD5A959A01FA014C
:100AF000EE0FFF1FE20FF31FEF58FD4F21813281F0
:100B0000820F931FF7019183808388819801280FBA
:100B1000311D87FD3A95F901EE0FFF1FE20FF31F1C
:100B2000EF58FD4F808186FF22C08881080F111D7C
:100B300087FD1A95F801EE0FFF1FE00FF11FEF5828
:100B4000FD4F808161E08F73DF91CF911F910F91F5
:100B5000FF90EF90DF90CF90BF90AF900C94440245
:100B600080E49CE9F701918380838FEF8883DF9194
:100B7000CF911F910F91FF90EF90DF90CF90BF909A
:100B8000AF9008954F925F926F927F928F929F9253
:100B9000AF92BF92CF92DF92EF92FF920F931F938B
:100BA000CF93DF93412C512C3201812C912C540195
:100BB00003E010E0C3E2D0E060E080E30E94440282
:100BC000C8010197F1F761E080E30E944402CE0181
:100BD0000197F1F760E080E30E9444020E94200246
:100BE000892B29F40E94BE024B015C01F7CF0E94C1
:100BF0002002019729F40E94BE022B013C01F7CF8D
:100C0000C301B201681979098A099B090E94B610CB
:100C10002AE939E949EB50E40E9413106B017C0189
:100C2000C0926802D0926902E0926A02F0926B026E
:100C300020E030E0A9010E940E1087FDBDCF61E0E9
:100C400070E080E090E00E94E302C701B601DF910E
:100C5000CF911F910F91FF90EF90DF90CF90BF90B9
:100C6000AF909F908F907F906F905F904F9008957E
:100C7000FB0101900020E9F73197AF01461B570BAC
:100C8000DC01ED91FC910280F381E02D19948F92AB
:100C90009F92AF92BF92EF92FF920F931F93CF93C9
:100CA000DF93CDB7DEB7A1970FB6F894DEBF0FBEC6
:100CB000CDBF7C01FA01CB0119A2223008F42AE051
:100CC0008E010F5D1F4F822E912CB12CA12CBF01E4
:100CD000A50194010E946B0FF901CA016A300CF55D
:100CE000605DD8016E938D01232B242B252B79F782
:100CF00090E080E0109721F0BD01C7010E94380606
:100D0000A1960FB6F894DEBF0FBECDBFDF91CF9195
:100D10001F910F91FF90EF90BF90AF909F908F9099
:100D20000895695CDECF4F925F926F927F928F92AF
:100D30009F92AF92BF92CF92DF92EF92FF92CF93AA
:100D4000DF93EC016A017B01AB019601CB01B60197
:100D50000E94281264E172E081111AC04601570115
:100D6000E894B7F82FEF3FEF4FE75FE7C501B40115
:100D70000E942812811126C02FEF3FEF4FE75FE757
:100D8000C501B4010E940E101816E4F468E172E087
:100D9000CE010E9438067C0160E272E0CE010E9422
:100DA00038068E0D9F1DDF91CF91FF90EF90DF9061
:100DB000CF90BF90AF909F908F907F906F905F90FB
:100DC0004F9008952FEF3FEF4FE75FE4C701B60163
:100DD0000E94661118161CF46CE172E0D9CF2FEF57
:100DE0003FEF4FE75FECC701B6010E940E1087FD91
:100DF000F3CF20E030E0A901C701B6010E940E1038
:100E0000B12CA12C87FF0DC0E881F9810190F08100
:100E1000E02D6DE2CE0119955C01F7FAF094F7F838
:100E2000F0942AE037ED43EA5BE3C701B6010E9484
:100E3000A20F2B013C010E9485106B017C010E94D6
:100E4000B4109B01AC01C301B2010E94A10F2B01A0
:100E50003C012AE0B701A601CE010E9447067C01B1
:100E6000EA0CFB1CE881F9810190F081E02D6EE233
:100E7000CE011995E80EF91E20E030E040E251E481
:100E8000C301B2010E946B112B013C010E9485102D
:100E90004B01B12CA12C2AE0B501A401CE010E9486
:100EA0004706E80EF91EC501B4010E94B4109B016B
:100EB000AC01C301B2010E94A10F20E030E040E28A
:100EC00051E40E946B110E948510AB0170E060E05C
:100ED0002AE0CE010E944706E80EF91E5DCF4F9230
:100EE0005F926F927F928F929F92AF92BF92CF92BA
:100EF000DF92EF92FF92CF93DF9300D000D0CDB777
:100F0000DEB784E690E09E838D83812C912C540182
:100F1000750164018DE30E94A302BC01990F880B47
:100F2000990B0E94B6102CE934EC40E85FEB0E946C
:100F3000D81169837A838B839C832AE037ED43EA57
:100F40005BE3C501B4010E94A20F4B015C0120E0EC
:100F500030E040E85FE30E94A20F9B01AC01C501B5
:100F6000B4010E9413102B013C0120E033E445E45E
:100F700057E469817A818B819C810E946B11A70162
:100F800096010E94A10FA30192010E946B119B0187
:100F9000AC01C701B6010E94A20F6B017C018D81DB
:100FA0009E8101979E838D83A3019201C501B401A7
:100FB0000E946B119B01AC0160E070E080E89FE350
:100FC0000E94A10F4B015C018D819E81892B09F04C
:100FD000A1CFA7019601C701B6010E940E10882378
:100FE00039F0C12C8CE3D82E8CE1E82E86E4F82E63
:100FF000C701B60126960FB6F894DEBF0FBECDBF6F
:10100000DF91CF91FF90EF90DF90CF90BF90AF90A6
:101010009F908F907F906F905F904F9008954F9228
:101020005F926F927F928F929F92AF92BF92CF9278
:10103000DF92EF92FF92CF93DF9300D000D0CDB735
:10104000DEB784E690E09E838D83812C912C540141
:10105000750164018CE30E94A302BC01990F880B07
:10106000990B0E94B61020EA3AE14FE65FEB0E942E
:10107000D81169837A838B839C832AE037ED43E21E
:101080005CE3C501B4010E94A20F4B015C0120E0AA
:1010900030E040E85FE30E94A20F9B01AC01C50174
:1010A000B4010E9413102B013C0120E033E148E21F
:1010B00057E469817A818B819C810E946B11A70121
:1010C00096010E94A10FA30192010E946B119B0146
:1010D000AC01C701B6010E94A20F6B017C018D819A
:1010E0009E8101979E838D83A3019201C501B40166
:1010F0000E946B119B01AC0160E070E080E89FE30F
:101100000E94A10F4B015C018D819E81892B09F00A
:10111000A1CF20E030E048E452E4C701B6010E94CC
:10112000A10F6B017C01AC019B010E940E10882372
:1011300039F0C12C8CE3D82E8CE1E82E86E4F82E11
:10114000C701B60126960FB6F894DEBF0FBECDBF1D
:10115000DF91CF91FF90EF90DF90CF90BF90AF9055
:101160009F908F907F906F905F904F9008954F92D7
:101170005F926F927F928F929F92AF92BF92CF9227
:10118000DF92EF92FF92CF93DF9300D000D0CDB7E4
:10119000DEB78CE390E09E838D83812C912C5401EB
:1011A000750164018BE30E94A302BC01990F880BB7
:1011B000990B0E94B61023E333E343E55FEB0E94F3
:1011C000D81169837A838B839C832AE037ED43E2CD
:1011D0005CE3C501B4010E94A20F4B015C0120E059
:1011E00030E040E85FE30E94A20F9B01AC01C50123
:1011F000B4010E9413102B013C012DEC3CE04EE0A9
:1012000056E469817A818B819C810E946B11A701D0
:1012100096010E94A10FA30192010E946B119B01F4
:10122000AC01C701B6010E94A20F6B017C018D8148
:101230009E8101979E838D83A3019201C501B40114
:101240000E946B119B01AC0160E070E080E89FE3BD
:101250000E94A10F4B015C018D819E81892B09F0B9
:10126000A1CFA7019601C701B6010E940E108823E5
:1012700039F0C12C8CE3D82E8CE1E82E86E4F82ED0
:10128000C701B60126960FB6F894DEBF0FBECDBFDC
:10129000DF91CF91FF90EF90DF90CF90BF90AF9014
:1012A0009F908F907F906F905F904F9008954F9296
:1012B0005F926F927F928F929F92AF92BF92CF92E6
:1012C000DF92EF92FF92CF93DF9300D000D0CDB7A3
:1012D000DEB78CE390E09E838D83812C912C5401AA
:1012E000750164018AE30E94A302BC01990F880B77
:1012F000990B0E94B6102EEF34ED48E55FEB0E948B
:10130000D81169837A838B839C832AE037ED43E28B
:101310005CE3C501B4010E94A20F4B015C0120E017
:1013200030E040E85FE30E94A20F9B01AC01C501E1
:10133000B4010E9413102B013C0120E03CE041E28B
:1013400056E469817A818B819C810E946B11A7018F
:1013500096010E94A10FA30192010E946B119B01B3
:10136000AC01C701B6010E94A20F6B017C018D8107
:101370009E8101979E838D83A3019201C501B401D3
:101380000E946B119B01AC0160E070E080E89FE37C
:101390000E94A10F4B015C018D819E81892B09F078
:1013A000A1CFA7019601C701B6010E940E108823A4
:1013B00039F0C12C8CE3D82E8CE1E82E86E4F82E8F
:1013C000C701B60126960FB6F894DEBF0FBECDBF9B
:1013D000DF91CF91FF90EF90DF90CF90BF90AF90D3
:1013E0009F908F907F906F905F904F9008951F9285
:1013F0000F920FB60F9211242F933F938F939F93C9
:10140000AF93BF938091180390911903A0911A0391
:10141000B0911B033091170323E0230F2D3758F5AC
:101420000196A11DB11D209317038093180390937B
:101430001903A0931A03B0931B0380911C0390918E
:101440001D03A0911E03B0911F030196A11DB11DA4
:1014500080931C0390931D03A0931E03B0931F035E
:10146000BF91AF919F918F913F912F910F900FBEA0
:101470000F901F90189526E8230F0296A11DB11D0D
:10148000D2CF1F920F920FB60F9211240BB60F926C
:101490002F933F934F935F936F937F938F939F937C
:1014A000AF93BF93EF93FF9380E293E00E94890391
:1014B000FF91EF91BF91AF919F918F917F916F912C
:1014C0005F914F913F912F910F900BBE0F900FBEE8
:1014D0000F901F9018951F920F920FB60F92112424
:1014E0000BB60F922F938F939F93EF93FF93E091FF
:1014F0003003F09131038081E0913603F09137039E
:1015000082FD1DC09081809139038F5F8F73209180
:101510003A03821741F0E0913903F0E0E05EFC4FBE
:10152000958F80933903FF91EF919F918F912F9128
:101530000F900BBE0F900FBE0F901F9018958081DB
:10154000F2CF1F920F920FB60F9211240BB60F928B
:101550002F933F934F935F936F937F938F939F93BB
:10156000AF93BF93EF93FF9348E251E064E271E0E1
:1015700090E080E00E940805FF91EF91BF91AF914C
:101580009F918F917F916F915F914F913F912F919B
:101590000F900BBE0F900FBE0F901F9018951F92CB
:1015A0000F920FB60F9211240BB60F922F933F9309
:1015B0004F935F936F937F938F939F93AF93BF935B
:1015C000EF93FF9348EA50E064EA70E083E090E034
:1015D0000E940805FF91EF91BF91AF919F918F916C
:1015E0007F916F915F914F913F912F910F900BBE23
:1015F0000F900FBE0F901F9018951F920F920FB66D
:101600000F9211240BB60F922F933F934F935F933A
:101610006F937F938F939F93AF93BF93EF93FF93BA
:1016200048E950E064E970E082E090E00E9408053B
:10163000FF91EF91BF91AF919F918F917F916F91AA
:101640005F914F913F912F910F900BBE0F900FBE66
:101650000F901F9018951F920F920FB60F921124A2
:101660000BB60F922F933F934F935F936F937F939C
:101670008F939F93AF93BF93EF93FF9348E850E00E
:1016800064E870E081E090E00E940805FF91EF912E
:10169000BF91AF919F918F917F916F915F914F918A
:1016A0003F912F910F900BBE0F900FBE0F901F9088
:1016B0001895FC0190917002903398F481E0890FA5
:1016C000809370029083892F90E0FC01EE0FFF1F42
:1016D000E80FF91FEF58FD4F88EB9BE09283818361
:1016E00008958FEF80830895E0E2F3E01382128281
:1016F00088EE93E0A0E0B0E084839583A683B7836F
:1017000086E092E0918380838DEC90E095878487DA
:101710008CEC90E09787868788EC90E0918B808BAB
:1017200089EC90E0938B828B8AEC90E0958B848B94
:101730008EEC90E0978B868B118E128E138E148E0A
:1017400089EC93E00E94590B86EC93E00E94590BC0
:1017500083EC93E00E94590B80EC93E00E94590BBC
:101760008DEB93E00C94590BCF93DF9300D000D016
:1017700000D01F92CDB7DEB7789484B5826084BD67
:1017800084B5816084BD85B5826085BD85B5816085
:1017900085BD80916E00816080936E001092810003
:1017A00080918100826080938100809181008160BE
:1017B000809381008091800081608093800080917F
:1017C000B10084608093B1008091B000816080930B
:1017D000B00080919100826080939100809191008F
:1017E000816080939100809190008160809390004F
:1017F0008091A10082608093A1008091A10081600E
:101800008093A1008091A00081608093A0008091CE
:101810002101826080932101809121018160809368
:1018200021018091200181608093200180917A00C4
:10183000846080937A0080917A00826080937A003D
:1018400080917A00816080937A0080917A0080682C
:1018500080937A001092C10080E293E09093140389
:1018600080931303E0913003F091310382E0808391
:10187000E0912C03F0912D031082E0912E03F09162
:101880002F0380E1808310923803E0913403F091BC
:10189000350386E08083E0913203F0913303808149
:1018A00080618083E0913203F0913303808188600E
:1018B0008083E0913203F0913303808180688083DC
:1018C000E0913203F091330380818F7D808360E06B
:1018D00081E30E94720261E080E30E94720260E094
:1018E0008AE30E94720260E08BE30E94720260E071
:1018F0008CE30E94720260E08DE30E9472026EE24D
:1019000070E089EC93E00E9480046FE270E086EC66
:1019100093E00E94800462E370E083EC93E00E9415
:10192000800463E370E080EC93E00E9480046BE04D
:1019300070E08DEB93E00E94800460E085E40E94FB
:10194000720224E630E03A83298385E40E94A302F0
:1019500065E070E080E090E00E94E30249815A81F6
:10196000415051095A834983452B79F763E272E06C
:1019700080E293E00E94380660E272E080E293E049
:101980000E94380601E010E084EF282E33243394BF
:101990008091150390911603009729F0019701F1AA
:1019A0000E941804F5CF6EE270E089EC93E00E948B
:1019B00080046FE270E086EC93E00E94800462E3B2
:1019C00070E083EC93E00E94800463E370E080ECBD
:1019D00093E00E9480041093160300931503E0CF58
:1019E0008091000290910102209101033091020345
:1019F000820F931F853F51E095070CF0BFC0909375
:101A000001028093000210920203109201031092CF
:101A1000100310920F0310931203009311031092FE
:101A20000C0310920B03109206031092050387E03B
:101A300090E090930403809303030E946F072B01AF
:101A40003C010E94B7084B015C010E9457096B01E1
:101A50007C010E940F0869837A838B839C830E9498
:101A6000C2056D837E838F83988720E030E046E156
:101A700053E4C501B4010E940E1087FF0CC091E031
:101A80009A8720E03CE34CE156E4C501B4010E9492
:101A90000E10811101C01A8620E030E046E153E4C7
:101AA000C301B2010E940E1087FF0CC020E03CE38E
:101AB0004CE156E4C301B2010E940E10882311F0DC
:101AC00021E02A8720E030E046E153E4C701B60177
:101AD0000E940E1087FF0CC031E0398720E03CE304
:101AE0004CE156E4C701B6010E940E10811101C0FD
:101AF000198620E030E046E153E469817A818B81E8
:101B00009C810E940E1087FF0EC020E03CE34CE158
:101B100056E469817A818B819C810E940E10882312
:101B200011F041E0498720E030E04AE753E4C50185
:101B3000B4010E940E1087FF0AC020E030E04AE79F
:101B400053E4C701B6010E940E1087FD1CC020E0BF
:101B500030E046E153E46D817E818F8198850E945B
:101B60000E1087FD10C05A8551117CC14985411165
:101B70007CC110920A031092090381C130920102C4
:101B80002092000240CF10930A030093090386E0DD
:101B900090E0909308038093070371C14091000285
:101BA000509101025A8349837A0154E2E51A5AEFAF
:101BB000F50AB70189EC93E00E944904B70186EC6D
:101BC00093E00E9449048CED95E09C0149815A8183
:101BD000241B350B3A832983B90183EC93E00E94DF
:101BE000490469817A8165C0809100029091010267
:101BF0009A8389838CED95E07C0129813A81E21AF0
:101C0000F30AB70189EC93E00E944904B70186EC1E
:101C100093E00E94490449815A8144525A4F5A83A1
:101C20004983BA01DACF80910002909101022CED34
:101C300035E0281B390B3A832983B90189EC93E0FD
:101C40000E94490469817A8186EC93E00E944904EC
:101C500069817A81C2CF40910002509101024452C1
:101C60005A4F5A834983BA01E9CF8091000290917B
:101C700001029A8389838CED95E07C0129813A8168
:101C8000E21AF30AB70189EC93E00E944904498102
:101C90005A8144525A4F5A834983BA0186EC93E0E1
:101CA0000E94490469817A8183EC93E00E9449048F
:101CB000B70180EC93E00E94490466E970E080E09F
:101CC00090E00E94E30210931603009315030E9414
:101CD0006F072B013C010E94B7084B015C010E9479
:101CE000570969837A838B839C830E940F086D83D5
:101CF0007E838F8398870E94C2056B017C0169E215
:101D000072E080911303909114030E943806B3018E
:101D1000A20180911303909114030E94930663E340
:101D200072E080911303909114030E943806B5016C
:101D3000A40180911303909114030E94930662E41E
:101D400072E080911303909114030E943806498138
:101D50005A816B817C8180911303909114030E94BE
:101D6000930662E572E080911303909114030E9440
:101D700038064D815E816F81788580911303909143
:101D800014030E9493066DE572E080911303909115
:101D900014030E943806B701A601809113039091A5
:101DA00014030E949306FCCDC0900002D090010263
:101DB000760154E2E51A5AEFF50AB70189EC93E08F
:101DC0000E9449048CED95E08C199D099A838983C2
:101DD000BC0164CFE0900002F09001022CED35E0F0
:101DE0002E193F093A832983B90189EC93E00E94B7
:101DF000490469817A8186EC93E00E94490434E2C7
:101E0000E31A3AEFF30AB70183EC93E00E94490426
:101E1000B70180EC93E00E94490464EF71E080E038
:101E200090E00E94E30269817A8108CF6CED75E051
:101E300089EC93E00E9449046CED75E086EC93E038
:101E40000E9449046CED75E083EC93E00E94490424
:101E50006CED75E02ECF10930A030093090385E023
:101E600090E097CE99859923B1F310930A030093DC
:101E7000090324E030E030930803209307038091A6
:101E80000F039091100390930E0380930D038091A4
:101E9000090390910A03019741F4809107039091FF
:101EA000080390930E0380930D03E0910D03F091CE
:101EB0000E03E830F10508F006CF8827ED59F04F02
:101EC0008F4F0C94990FCE0DF40D130E2B0E350E73
:101ED000D40EEA0E160FA1E21A2EAA1BBB1BFD019F
:101EE0000DC0AA1FBB1FEE1FFF1FA217B307E407F9
:101EF000F50720F0A21BB30BE40BF50B661F771F51
:101F0000881F991F1A9469F7609570958095909530
:101F10009B01AC01BD01CF010895991B79E004C07C
:101F2000991F961708F0961B881F7A95C9F7809518
:101F30000895EE0FFF1F881F8BBF0790F691E02DCD
:101F400019945058BB27AA270E94B90F0C942C1142
:101F50000E941E1138F00E94251120F039F49F3F95
:101F600019F426F40C941B110EF4E095E7FB0C9485
:101F70001511E92F0E943D1158F3BA176207730734
:101F80008407950720F079F4A6F50C945F110EF400
:101F9000E0950B2EBA2FA02D0B01B90190010C0179
:101FA000CA01A0011124FF27591B99F0593F50F491
:101FB000503E68F11A16F040A22F232F342F4427E9
:101FC000585FF3CF469537952795A795F0405395E1
:101FD000C9F77EF41F16BA0B620B730B840BBAF0B1
:101FE0009150A1F0FF0FBB1F661F771F881FC2F71C
:101FF0000EC0BA0F621F731F841F48F48795779530
:102000006795B795F7959E3F08F0B0CF9395880FE9
:1020100008F09927EE0F9795879508950E94F11083
:1020200008F481E008950E9427100C942C110E945E
:10203000251158F00E941E1140F029F45F3F29F04D
:102040000C94151151110C9460110C941B110E94E9
:102050003D1168F39923B1F3552391F3951B550B6B
:10206000BB27AA2762177307840738F09F5F5F4F6B
:10207000220F331F441FAA1FA9F335D00E2E3AF0AA
:10208000E0E832D091505040E695001CCAF72BD0C2
:10209000FE2F29D0660F771F881FBB1F2617370713
:1020A0004807AB07B0E809F0BB0B802DBF01FF2745
:1020B00093585F4F3AF09E3F510578F00C941511FC
:1020C0000C9460115F3FE4F3983ED4F386957795C6
:1020D0006795B795F7959F5FC9F7880F911D9695FE
:1020E000879597F90895E1E0660F771F881FBB1F5A
:1020F000621773078407BA0720F0621B730B840B07
:10210000BA0BEE1F88F7E09508950E94451188F0FC
:102110009F5798F0B92F9927B751B0F0E1F0660FAB
:10212000771F881F991F1AF0BA95C9F714C0B130EC
:1021300091F00E945F11B1E008950C945F11672F38
:10214000782F8827B85F39F0B93FCCF3869577951B
:102150006795B395D9F73EF4909580957095619504
:102160007F4F8F4F9F4F0895E89409C097FB3EF42F
:1021700090958095709561957F4F8F4F9F4F9923D4
:10218000A9F0F92F96E9BB279395F6958795779552
:102190006795B795F111F8CFFAF4BB0F11F460FF12
:1021A0001BC06F5F7F4F8F4F9F4F16C0882311F06A
:1021B00096E911C0772321F09EE8872F762F05C07E
:1021C000662371F096E8862F70E060E02AF09A9519
:1021D000660F771F881FDAF7880F9695879597F90E
:1021E0000895990F0008550FAA0BE0E8FEEF1616A8
:1021F0001706E807F907C0F012161306E407F507FB
:1022000098F0621B730B840B950B39F40A2661F06E
:10221000232B242B252B21F408950A2609F4A14011
:10222000A6958FEF811D811D089597F99F6780E81E
:1022300070E060E008959FEF80EC089500240A9418
:102240001616170618060906089500240A94121691
:102250001306140605060895092E0394000C11F4C4
:10226000882352F0BB0F40F4BF2B11F460FF04C071
:102270006F5F7F4F8F4F9F4F089557FD9058440FCA
:10228000551F59F05F3F71F04795880F97FB991FD5
:1022900061F09F3F79F08795089512161306140692
:1022A000551FF2CF4695F1DF08C01616170618061F
:1022B000991FF1CF86957105610508940895E894FA
:1022C000BB2766277727CB0197F908950E94F11065
:1022D00008F48FEF08950E947E110C942C110E9437
:1022E0001E1138F00E94251120F0952311F00C9456
:1022F00015110C941B1111240C9460110E943D11B6
:1023000070F3959FC1F3950F50E0551F629FF00148
:10231000729FBB27F00DB11D639FAA27F00DB11D61
:10232000AA1F649F6627B00DA11D661F829F2227EA
:10233000B00DA11D621F739FB00DA11D621F839F71
:10234000A00D611D221F749F3327A00D611D231F47
:10235000849F600D211D822F762F6A2F11249F5795
:1023600050409AF0F1F088234AF0EE0FFF1FBB1F98
:10237000661F771F881F91505040A9F79E3F510557
:1023800080F00C9415110C9460115F3FE4F3983EBB
:10239000D4F3869577956795B795F795E7959F5F01
:1023A000C1F7FE2B880F911D9695879597F9089593
:1023B000FA01EE0FFF1F309621053105A1F16115DD
:1023C000710561F48038BFE39B0749F16894903848
:1023D000810561F08038BFEF9B0741F099234AF5F2
:1023E000FF3FE1053105210519F1E8940894E795CF
:1023F000D901AA2329F4AB2FBE2FF85FD0F310C068
:10240000FF5F70F4A695E0F7F73950F019F0FF3A46
:1024100038F49F779F930DD00F9007FC9058089544
:1024200046F00C941B1160E070E080E89FE3089593
:102430004FE79F775F934F933F932F930E94D8125C
:102440002F913F914F915F910E946B110C94351227
:102450000E94F110880B990B089529F416F00C9442
:1024600015110C945F110C941B110E944511A8F3D7
:102470009638A0F707F80F92E8942BE33AEA48EB76
:102480005FE70E9481110F920F920F924DB75EB7D6
:102490000F920E942013E4EEF0E00E9467124F9129
:1024A0005F91EF91FF91E595EE1FFF1F49F0FE57F9
:1024B000E0684427EE0F441FFA95E1F74195550B6C
:1024C0000E949A120F9007FE0C948E120895DF93CB
:1024D000CF931F930F93FF92EF92DF927B018C01BA
:1024E000689406C0DA2EEF010E947E11FE01E89486
:1024F000A5912591359145915591A6F3EF010E9443
:10250000B90FFE019701A801DA9469F7DF90EF9007
:10251000FF900F911F91CF91DF9108959B01AC0126
:1025200060E070E080E89FE30C9413100C941511A8
:102530000C9454130E944511D8F39923C9F3940FB6
:10254000511DA3F39150504094F059F0882332F07C
:10255000660F771F881F91505040C1F79E3F51056D
:102560002CF7880F911D9695879597F908955F3FF1
:10257000ACF0983E9CF0BB27869577956795B7950C
:1025800008F4B1609395C1F7BB0F58F711F460FFE1
:10259000E8CF6F5F7F4F8F4F9F4FE3CF0C94601159
:1025A00016F00C9454130C941B1168940C94151190
:1025B0000E944511A8F39923C1F3AEF3DF93CF93A3
:1025C0001F930F93FF92C92FDD2788232AF02197AD
:1025D000660F771F881FDAF720E030E040E85FEBF6
:1025E0009FE3883920F0803E38F021968F770E9453
:1025F000A20FECE0F1E004C00E94A20FE9E3F1E0D9
:102600000E9467128B01BE01EC01FB2E6F5771090E
:102610007595771F880B990B0E94B61028E132E759
:1026200041E35FE30E947E11AF2D9801AE01FF9060
:102630000F911F91CF91DF910E94B90F0C942C1133
:10264000FA01DC01AA0FBB1F9B01AC01BF5728F4A4
:10265000222733274427507820C0B75190F4AB2F5E
:102660000024469537952795011CA395D2F30020A9
:1026700071F0220F331F441FB395DAF30ED00C9480
:10268000A10F61307105A0E88A07B94630F49B01BB
:10269000AC016627772788279078309621F0208331
:1026A00031834283538308959F3F31F0915020F44A
:1026B000879577956795B795880F911D969587951E
:0826C00097F90895F894FFCF8B
:1026C800FA0000000000AB0315034203F80373038C
:1026D800510365036E616E00696E66006F76660071
:1026E8000D0A005374617274004C65667420697336
:1026F8003A20004C65667420446961672069733A22
:102708002000526967687420446961672069733AD8
:10271800200052696768742069733A200046726F16
:082728006E742069733A200071
:00000001FF
