:100000000C9486010C94B7010C94B7010C94B701C1
:100010000C94B7010C94B7010C94B7010C94B70180
:100020000C94B7010C94B7010C94B7010C94B70170
:100030000C94B7010C94B7010C94B7010C94B70160
:100040000C94B7010C9483080C94B7010C94B7017D
:100050000C94B7010C94B7010C94B7010C944F07A2
:100060000C94B7010C94B7010C94B7010C94B70130
:100070000C94B7010C94B7010C94B7010C94B70120
:100080000C9455080C94B7010C94B7010C94B7016B
:100090000C94C3070C9499070C94B7010C94B70106
:1000A0000C94B7010C94B7010C9427080C94B70179
:1000B0000C94B7010C94B7010C94B7010C94F90798
:1000C0000C94B7010C94B7010C94B7010C94B701D0
:1000D0000C94B7010C94B7010C94B7010C94B701C0
:1000E0000C94B70107634236B79BD8A71A396856F4
:1000F00018AEBAAB558C1D3CB7CC5763BD6DEDFD4A
:10010000753EF6177231BF000000803F0800000006
:10011000BE922449123EABAAAA2ABECDCCCC4C3EFC
:1001200000000080BEABAAAAAA3E00000000BF00EB
:100130000000803F0000000000084178D3BB4387E7
:10014000D1133D190E3CC3BD4282AD2B3E68EC82FB
:1001500076BED98FE1A93E4C80EFFFBE01C4FF7F80
:100160003F00000000000C9417020C9404020C9451
:1001700012020C948B0E0C94750E0C9442030C948A
:10018000AB030C9451030C94E1010C94D7010C9433
:10019000EC010C9473030C9465030C94E5010C942E
:1001A000F2010C940E020C94620D0C94F8030C9462
:1001B000CC080C94E9010C94DD010C940A020C9417
:1001C000330E0C94C30E0C94880D0C941C020C94EA
:1001D00000020C94F6010C94A20D0C94FC010C94FA
:1001E00015030C94480E0C94180200002100240002
:1001F00027002A002D003000330001010000040117
:1002000007010A0100002200250028002B002E0013
:100210003100340002010000050108010B0100005B
:1002200020002300260029002C002F0032000001AE
:100230000000030106010901050505050705080879
:100240000808020202020A0A080804040404010160
:100250000101010101010303030303030303040775
:1002600007070C0C0C0C0C0C0C0C0202020206060C
:100270000606060606060B0B0B0B0B0B0B0B0102FF
:1002800010202008081020401020408002010201A8
:100290000804020101020408102040808040201060
:1002A00008040201800402018040201008040201B9
:1002B0000804020101020408102040800102040821
:1002C0001020408000000A0B02090C0D0E080703E5
:1002D0000401000000000000000000000000000019
:1002E000000000000000000000000000000000000E
:1002F00012111000000000000000000000000000CB
:1003000000000000000000000000CC0811241FBE07
:10031000CFEFD1E2DEBFCDBF00E00CBF12E0A0E026
:10032000B2E0EEE5F5E200E00BBF02C007900D92EF
:10033000A036B107D9F723E0A0E6B2E001C01D92D4
:10034000A43CB207E1F711E0C6E8D1E000E006C046
:1003500021970109802FFE010E941D0FC538D1078A
:1003600080E00807A9F70E940C090C94AD120C94C8
:1003700000008150823108F05AC0E82FF0E0882751
:10038000EB53FE4F8F4F0C941D0FE501E901D70190
:10039000DD01E1011702EC01F201F601FC010002AE
:1003A00004020A020E021702120218021C028091B5
:1003B00080008F77809380000895809180008F7DEA
:1003C000F9CF80918000877FF5CF84B58F7784BD8A
:1003D000089584B58F7DFBCF8091B0008F77809397
:1003E000B00008958091B0008F7DF9CF809190008A
:1003F0008F77809390000895809190008F7DF9CF42
:1004000080919000877FF5CF8091A0008F778093B7
:10041000A00008958091A0008F7DF9CF8091A00069
:10042000877FF5CF809120018F77809320010895F9
:10043000809120018F7DF9CF80912001877FF5CFBA
:10044000CF93DF93E5EFF2E08491EFEAF2E0D4910D
:10045000E9E6F2E0C491CC23A1F081110E94B90138
:10046000EC2FF0E0EE0FFF1FE25EFD4FA591B4917F
:10047000EC91ED2381E090E009F480E0DF91CF91F1
:10048000089580E090E0FACF1F93CF93DF93282F59
:1004900030E0F901EC53FD4F8491F901E258FD4F32
:1004A000D491F901E85CFD4FC491CC23A9F0162F3B
:1004B00081110E94B901EC2FF0E0EE0FFF1FEC5FFD
:1004C000FD4FA591B4918FB7F894EC91111108C02C
:1004D000D095DE23DC938FBFDF91CF911F910895DC
:1004E000DE2BF8CFCF93DF9390E0FC01E258FD4F75
:1004F0002491885C9D4FFC0184918823D1F090E089
:10050000880F991FFC01E651FE4FA591B491FC01A3
:10051000EC5FFD4FC591D49161110EC09FB7F89467
:100520008C91E22FE0958E238C932881E223E8833F
:100530009FBFDF91CF9108958FB7F894EC91E22B94
:10054000EC938FBFF6CF865320917B00982F987F36
:10055000277F922B90937B008770806480937C0030
:1005600080917A00806480937A0080917A0086FD81
:10057000FCCF809178009091790008953FB7F8946E
:100580008091140390911503A0911603B091170365
:1005900026B5A89B05C02F3F19F00196A11DB11DDE
:1005A0003FBFBA2FA92F982F8827BC01CD01620F1A
:1005B000711D811D911D42E0660F771F881F991FD5
:1005C0004A95D1F708958F929F92AF92BF92CF92A2
:1005D000DF92EF92FF924B015C010E94BE026B0121
:1005E0007C010E94BE026C197D098E099F09683E3C
:1005F000734081059105A8F321E0821A9108A108B2
:10060000B10888EEC80E83E0D81EE11CF11C8114ED
:100610009104A104B10429F7FF90EF90DF90CF90EF
:10062000BF90AF909F908F900895AF92BF92CF925E
:10063000DF92EF92FF920F931F93CF93DF936C01A2
:100640007B018B01040F151FEB015E01AE18BF0883
:10065000C017D10759F06991D601ED91FC91019035
:10066000F081E02DC6011995892B79F7C501DF913D
:10067000CF911F910F91FF90EF90DF90CF90BF909F
:10068000AF900895FC01538D448D252F30E0842FC9
:1006900090E0821B930B541710F0CF9608950197AA
:1006A0000895FC01918D828D981761F0A28DAE0F97
:1006B000BF2FB11D5D968C91928D9F5F9F73928F1E
:1006C00090E008958FEF9FEF0895FC01918D828D4A
:1006D000981731F0828DE80FF11D858D90E0089517
:1006E0008FEF9FEF0895FC01918D228D892F90E06F
:1006F000805C9F4F821B91098F739927089588E131
:1007000093E00E94730321E0892B09F420E0822FFB
:100710000895FC01A48DA80FB92FB11DA35ABF4F96
:100720002C91848D90E001968F739927848FA689F0
:10073000B7892C93A089B1898C91837080648C9344
:10074000938D848D981306C00288F389E02D8081F3
:100750008F7D80830895EF92FF920F931F93CF9325
:10076000DF93EC0181E0888F9B8D8C8D98131AC0EC
:10077000E889F989808185FF15C09FB7F894EE89D3
:10078000FF896083E889F989808183708064808330
:100790009FBF81E090E0DF91CF911F910F91FF907B
:1007A000EF900895F62E0B8D10E00F5F1F4F0F7323
:1007B0001127E02E8C8D8E110CC00FB607FCFACFDE
:1007C000E889F989808185FFF5CFCE010E948903F0
:1007D000F1CFEB8DEC0FFD2FF11DE35AFF4FF082AF
:1007E0009FB7F8940B8FEA89FB8980818062CFCF15
:1007F000CF93DF93EC01888D8823B9F0AA89BB8958
:10080000E889F9898C9185FD03C0808186FD0DC042
:100810000FB607FCF7CF8C9185FFF2CF808185FF63
:10082000EDCFCE010E948903E9CFDF91CF910895EA
:1008300080E090E0892B49F080E090E0892B29F05E
:100840000E94000081110E94000080E090E0892B4E
:1008500029F00E947F0381110E94000080E090E057
:10086000892B49F080E090E0892B29F00E9400005C
:1008700081110E94000080E090E0892B49F080E027
:1008800090E0892B29F00E94000081110C94000057
:100890000895DC01EC91E03390F511968C9111975D
:1008A00028E830E0281B310987FD3395220F331FDC
:1008B000220F331F6217730784F012968C9128E57C
:1008C00032E0281B310987FD3395220F331F220F99
:1008D000331F621773070CF49B0122503109220F5A
:1008E000331F4FB7F8948E2F90E0FC01EE0FFF1FDF
:1008F000E80FF91FE759FD4F328321834FBF089559
:100900001F93CF93DF93EC01162F8881803308F07B
:100910004EC061E0812F0E9472028881282F30E052
:10092000F901EE0FFF1FE20FF31FE759FD4F1F7391
:100930006081607C612B608319821A822CE0622FB7
:100940000E94110F829FB001112430E020E0AB0122
:10095000420F531FFA01EE0FFF1FE40FF51FE75977
:10096000FD4F908196FD16C02F5F3F4F2C30310513
:1009700071F7813009F51092800082E08093810048
:100980001092850010928400B19A80916F0082606D
:1009900080936F00E8818E2F90E0FC01EE0FFF1F27
:1009A000E80FF91FE759FD4F8081806480838881BB
:1009B000DF91CF911F910895823061F410929000E1
:1009C00080939100109295001092940088BB8093C0
:1009D0007100E0CF833069F41092A00082E0809330
:1009E000A1001092A5001092A40089BB8093720010
:1009F000D1CF8111CFCF1092200182E080932101CD
:100A000010922501109224018ABB80937300C2CFFB
:100A1000AF92BF92CF92DF92EF92FF920F931F930C
:100A2000CF93DF936B017A01EC01CC59DD4F288124
:100A30003CE0389F8001399F100D1124A09068027E
:100A4000B12C27FF1FC0FB011182108288818F5FAC
:100A5000888388819801280F311D87FD3A95F6011A
:100A60002A153B051CF488818C30C4F1808191816A
:100A7000049680349C4908F473C0F601808191810A
:100A8000049670C088819801280F311D87FD3A9522
:100A90002A153B05DCF68881A801480F511D87FD0A
:100AA0005A95FA01EE0FFF1FE40FF51FE759FD4FAE
:100AB000808186FFCBCF8881F801E80FF11D87FD8B
:100AC000FA95CF01EE0FFF1FE80FF91FE759FD4F11
:100AD000808160E08F730E944402B8CF8081918151
:100AE0002881A801420F511D27FD5A959A01FA014C
:100AF000EE0FFF1FE20FF31FE759FD4F21813281F7
:100B0000820F931FF7019183808388819801280FBA
:100B1000311D87FD3A95F901EE0FFF1FE20FF31F1C
:100B2000E759FD4F808186FF22C08881080F111D83
:100B300087FD1A95F801EE0FFF1FE00FF11FE7592F
:100B4000FD4F808161E08F73DF91CF911F910F91F5
:100B5000FF90EF90DF90CF90BF90AF900C94440245
:100B600080E49CE9F701918380838FEF8883DF9194
:100B7000CF911F910F91FF90EF90DF90CF90BF909A
:100B8000AF9008954F925F926F927F928F929F9253
:100B9000AF92BF92CF92DF92EF92FF920F931F938B
:100BA000CF93DF93412C512C3201812C912C540195
:100BB00003E010E0C3E2D0E060E080E30E94440282
:100BC000C8010197F1F761E080E30E944402CE0181
:100BD0000197F1F760E080E30E9444020E94200246
:100BE000892B29F40E94BE024B015C01F7CF0E94C1
:100BF0002002019729F40E94BE022B013C01F7CF8D
:100C0000C301B201681979098A099B090E940B1076
:100C10002AE939E949EB50E40E94970F6B017C0106
:100C2000C0926002D0926102E0926202F09263028E
:100C300020E030E0A9010E94920F87FDBDCF61E066
:100C400070E080E090E00E94E302C701B601DF910E
:100C5000CF911F910F91FF90EF90DF90CF90BF90B9
:100C6000AF909F908F907F906F905F904F9008957E
:100C7000CF92DF92EF92FF920F931F93CF93DF9368
:100C800082E40E94A3028C0185E40E94A302EC018D
:100C900084E40E94A3026C0183E40E94A3027C010D
:100CA0000E94C205CB3FD1050CF040C0D1E0C0E0AE
:100CB0002BEFE216F1040CF4D0E04BEFC416D10494
:100CC0001CF40B3F110514F0D2E0C0E09701201B8B
:100CD000310B21573E4F2F31334058F4053F21E06F
:100CE00012072CF445EFE41641E0F40614F0D3E0CB
:100CF000C0E020E030E046E153E40E94920F87FF1D
:100D00000AC081E9E81681E0F8061CF401391140B7
:100D100014F0D4E0C0E08D2F9C2FDF91CF911F9174
:100D20000F91FF90EF90DF90CF900895D1E0C0E059
:100D3000C4CFFB0101900020E9F73197AF01461BBA
:100D4000570BDC01ED91FC910280F381E02D1994A9
:100D50004F925F926F927F928F929F92AF92BF92CB
:100D6000CF92DF92EF92FF920F931F93CF93DF9377
:100D7000CDB7DEB7A1970FB6F894DEBF0FBECDBFDB
:100D80008C016B01770FEE08FF08F7FE50C0DC0105
:100D9000ED91FC910190F081E02D6DE219955C01DF
:100DA00022273327A9012C193D094E095F0919A2F1
:100DB000FE01B1967F019AE0492E512C612C712CD5
:100DC000CA01B901A30192010E94EF0E605DD70133
:100DD0006E937D01211531054105510589F790E09C
:100DE00080E0109721F0BD01C8010E949906A80E6D
:100DF000B91E64E172E0C8010E9499068A0D9B1D2C
:100E0000A1960FB6F894DEBF0FBECDBFDF91CF9194
:100E10001F910F91FF90EF90DF90CF90BF90AF9018
:100E20009F908F907F906F905F904F900895A70153
:100E3000960119A2FE01B1967F018AE0882E912CBD
:100E4000A12CB12CCA01B901A50194010E94EF0E99
:100E5000605DD7016E937D01211531054105510576
:100E600089F7B12CA12C109721F2BD01C8010E9475
:100E700099065C01BECF0F931F93CF93DF93EC01D4
:100E80000E9499068C0164E172E0CE010E949906ED
:100E9000800F911FDF91CF911F910F9108951F92A5
:100EA0000F920FB60F9211242F933F938F939F931E
:100EB000AF93BF938091100390911103A0911203FF
:100EC000B091130330910F0323E0230F2D3758F512
:100ED0000196A11DB11D20930F03809310039093E1
:100EE0001103A0931203B093130380911403909104
:100EF0001503A0911603B09117030196A11DB11D12
:100F00008093140390931503A0931603B0931703D3
:100F1000BF91AF919F918F913F912F910F900FBEF5
:100F20000F901F90189526E8230F0296A11DB11D62
:100F3000D2CF1F920F920FB60F9211240BB60F92C1
:100F40002F933F934F935F936F937F938F939F93D1
:100F5000AF93BF93EF93FF9388E193E00E948903DF
:100F6000FF91EF91BF91AF919F918F917F916F9181
:100F70005F914F913F912F910F900BBE0F900FBE3D
:100F80000F901F9018951F920F920FB60F92112479
:100F90000BB60F922F938F939F93EF93FF93E09154
:100FA0002803F09129038081E0912E03F0912F0313
:100FB00082FD1DC09081809131038F5F8F732091DE
:100FC0003203821741F0E0913103F0E0E85EFC4F1C
:100FD000958F80933103FF91EF919F918F912F9186
:100FE0000F900BBE0F900FBE0F901F901895808131
:100FF000F2CF1F920F920FB60F9211240BB60F92E1
:101000002F933F934F935F936F937F938F939F9310
:10101000AF93BF93EF93FF9348E251E064E271E036
:1010200090E080E00E940805FF91EF91BF91AF91A1
:101030009F918F917F916F915F914F913F912F91F0
:101040000F900BBE0F900FBE0F901F9018951F9220
:101050000F920FB60F9211240BB60F922F933F935E
:101060004F935F936F937F938F939F93AF93BF93B0
:10107000EF93FF9348EA50E064EA70E083E090E089
:101080000E940805FF91EF91BF91AF919F918F91C1
:101090007F916F915F914F913F912F910F900BBE78
:1010A0000F900FBE0F901F9018951F920F920FB6C2
:1010B0000F9211240BB60F922F933F934F935F9390
:1010C0006F937F938F939F93AF93BF93EF93FF9310
:1010D00048E950E064E970E082E090E00E94080591
:1010E000FF91EF91BF91AF919F918F917F916F9100
:1010F0005F914F913F912F910F900BBE0F900FBEBC
:101100000F901F9018951F920F920FB60F921124F7
:101110000BB60F922F933F934F935F936F937F93F1
:101120008F939F93AF93BF93EF93FF9348E850E063
:1011300064E870E081E090E00E940805FF91EF9183
:10114000BF91AF919F918F917F916F915F914F91DF
:101150003F912F910F900BBE0F900FBE0F901F90DD
:101160001895FC0190916802903398F481E0890F02
:10117000809368029083892F90E0FC01EE0FFF1F9F
:10118000E80FF91FE759FD4F88EB9BE092838183BD
:1011900008958FEF80830895E8E1F3E013821282CF
:1011A00088EE93E0A0E0B0E084839583A683B783C4
:1011B00086E092E0918380838DEC90E09587848730
:1011C0008CEC90E09787868788EC90E0918B808B01
:1011D00089EC90E0938B828B8AEC90E0958B848BEA
:1011E0008EEC90E0978B868B118E128E138E148E60
:1011F00081EC93E00E94B1088EEB93E00E94B1086D
:101200008BEB93E00E94B10888EB93E00E94B10859
:1012100085EB93E00C94B108CF93DF93CDB7DEB7A5
:1012200062970FB6F894DEBF0FBECDBF789484B539
:10123000826084BD84B5816084BD85B5826085BDD2
:1012400085B5816085BD80916E00816080936E0060
:101250001092810080918100826080938100809152
:101260008100816080938100809180008160809303
:1012700080008091B10084608093B1008091B000C3
:1012800081608093B0008091910082608093910092
:1012900080919100816080939100809190008160A5
:1012A000809390008091A10082608093A100809142
:1012B000A10081608093A1008091A0008160809353
:1012C000A000809121018260809321018091210101
:1012D00081608093210180912001816080932001B1
:1012E00080917A00846080937A0080917A00826095
:1012F00080937A0080917A00816080937A00809157
:101300007A00806880937A001092C10068E873E1E7
:1013100080E090E00E94E30288E193E090930E0366
:1013200080930D03E0912803F091290382E08083EC
:10133000E0912403F09125031082E0912603F091BF
:10134000270380E1808310923003E0912C03F09119
:101350002D0386E08083E0912A03F0912B038081A6
:1013600080618083E0912A03F0912B038081886063
:101370008083E0912A03F0912B0380818068808331
:10138000E0912A03F0912B0380818F7D808360E0C0
:1013900081E30E94720261E080E30E94720260E0D9
:1013A0008AE30E94720260E08BE30E94720260E0B6
:1013B0008CE30E94720260E08DE30E9472026EE292
:1013C00070E081EC93E00E9480046FE270E08EEBAD
:1013D00093E00E94800462E370E08BEB93E00E9454
:1013E000800463E370E088EB93E00E9480046BE08C
:1013F00070E085EB93E00E94800460E085E40E9449
:10140000720224E630E03A83298385E40E94A30235
:1014100065E070E080E090E00E94E30249815A813B
:10142000415051095A834983452B79F767E172E0AE
:1014300088E193E00E943B0701E010E024E0222EC7
:10144000312C80910002909101022091F90230919B
:10145000FA02820F931F853F51E095070CF0B9C245
:1014600090930102809300021092FA021092F90206
:1014700010920A031092090310930C0300930B03BC
:101480000E9438068130910509F0A6C290930603A8
:1014900080930503A2E0B0E0B0930403A09303039C
:1014A0000E943806049751F41093FE020093FD0247
:1014B00047E050E05093FC024093FB0284E690E04A
:1014C0009A8389831D821E821F821886C12CD12C8B
:1014D00076018DE30E94A302BC01990F880B990B42
:1014E0000E940B102CE934EC40E85FEB0E942811BD
:1014F0002B013C012AE037ED43EA5BE3C701B6016B
:101500000E94260F6B017C0120E030E040E85FE3A1
:101510000E94260F9B01AC01C701B6010E94970FE4
:101520004B015C0120E033E445E457E4C301B20120
:101530000E94BB102D813E814F8158850E94250F4E
:10154000A50194010E94BB109B01AC016D817E81BD
:101550008F8198850E94260F6D837E838F83988765
:10156000A981BA811197BA83A983A5019401C70102
:10157000B6010E94BB109B01AC0160E070E080E806
:101580009FE30E94250F6B017C0129813A81232B67
:1015900009F09FCF2D813E814F815885CA01B90145
:1015A0000E94920F882341F080E09CE3ACE1B6E416
:1015B0008D839E83AF83B887ACE3B0E0BA87A987F9
:1015C00019821A821B821C82C12CD12C76018BE3DA
:1015D0000E94A302BC01990F880B990B0E940B106B
:1015E00023E333E343E55FEB0E9428112B013C0129
:1015F0002AE037ED43E25CE3C701B6010E94260F03
:101600006B017C0120E030E040E85FE30E94260FA0
:101610009B01AC01C701B6010E94970F4B015C0111
:101620002DEC3CE04EE056E4C301B2010E94BB1039
:1016300029813A814B815C810E94250FA50194018B
:101640000E94BB109B01AC0169817A818B819C81D6
:101650000E94260F69837A838B839C8329853A8530
:10166000215031093A872987A5019401C701B601A4
:101670000E94BB109B01AC0160E070E080E89FE33A
:101680000E94250F6B017C0149855A85452B09F085
:101690009ECF29813A814B815C81CA01B9010E94A8
:1016A000920F882341F080E09CE3ACE1B6E48983AB
:1016B0009A83AB83BC83ACE3B0E0BE87AD87412C9B
:1016C000512C3201730162018AE30E94A302BC0122
:1016D000990F880B990B0E940B102EEF34ED48E503
:1016E0005FEB0E94281169877A878B879C872AE0A5
:1016F00037ED43E25CE3C701B6010E94260F6B01A0
:101700007C0120E030E040E85FE30E94260F9B016F
:10171000AC01C701B6010E94970F4B015C0120E0AC
:101720003CE041E256E469857A858B859C850E9480
:10173000BB10A30192010E94250FA50194010E94F4
:10174000BB109B01AC01C301B2010E94260F2B010B
:101750003C012D853E85215031093E872D87A5010D
:101760009401C701B6010E94BB109B01AC0160E06F
:1017700070E080E89FE30E94250F6B017C014D859E
:101780005E85452B09F0A0CFA3019201C301B201F0
:101790000E94920F882339F0412C9CE3592E9CE142
:1017A000692E96E4792E84E690E09A8B898B812CC1
:1017B000912C5401750164018CE30E94A302BC01C9
:1017C000990F880B990B0E940B1020EA3AE14FE623
:1017D0005FEB0E9428116D877E878F87988B2AE0A8
:1017E00037ED43E25CE3C701B6010E94260F6B01AF
:1017F0007C0120E030E040E85FE30E94260F9B017F
:10180000AC01C701B6010E94970F69877A878B8761
:101810009C8720E033E148E257E46D857E858F8523
:1018200098890E94BB10A50194010E94250F29856B
:101830003A854B855C850E94BB109B01AC01C501BC
:10184000B4010E94260F4B015C01A989BA89119746
:10185000BA8BA98B29853A854B855C85C701B60172
:101860000E94BB109B01AC0160E070E080E89FE348
:101870000E94250F6B017C0129893A89232B09F0ED
:101880009BCF20E030E048E452E4C501B4010E945F
:10189000250F6B017C01AC019B010E94920F8823F4
:1018A00039F0C12C8CE3D82E8CE1E82E86E4F82E9A
:1018B0000E94C2054B015C0120E030E04CED52E497
:1018C00069817A818B819C810E94920F87FF0EC073
:1018D00031E0398720E03CE34CE156E469817A81CC
:1018E0008B819C810E94920F811101C0198620E09A
:1018F00030E04CED52E46D817E818F8198850E94AD
:10190000920F87FF0EC020E03CE34CE156E46D816E
:101910007E818F8198850E94920F882311F041E08B
:10192000498720E030E04CED52E4C301B2010E944F
:10193000920F87FF0CC051E05D8320E03CE34CE157
:1019400056E4C301B2010E94920F811101C01D82B1
:1019500020E030E04CED52E4C701B6010E94920F46
:1019600087FF0CC020E03CE34CE156E4C701B60120
:101970000E94920F882311F081E08D8320E030E0F7
:101980004AE753E469817A818B819C810E94920F9E
:1019900087FF0AC020E030E04AE753E4C301B20108
:1019A0000E94920F87FD36C020E030E04CED52E4FB
:1019B000C501B4010E94920F87FD2CC09985911139
:1019C00002C2AD81A11102C2109202031092010362
:1019D0002BC084EF91E044CD8230910559F41093EF
:1019E00006030093050323E030E0309304032093C3
:1019F000030356CD039749F41093060300930503A0
:101A000010920403109203034BCD10920603109220
:101A1000050346CD1093020300930103A6E0B0E056
:101A2000B0930003A093FF0280910B0390910C03ED
:101A3000019741F48091090390910A039093080360
:101A4000809307038091050390910603019741F469
:101A500080910303909104039093080380930703FC
:101A60008091010390910203019741F48091FF025C
:101A70009091000390930803809307038091FD02E7
:101A80009091FE02019741F48091FB029091FC023B
:101A90009093080380930703E0910703F0910803F4
:101AA000E830F10508F06CC08827E65AF24F8F4FF6
:101AB0000C941D0F620D880DA20D330E480E750E8D
:101AC0008B0EC30E20910002309101023A832983CC
:101AD000790134E2E31A3AEFF30AB70181EC93E0BB
:101AE0000E944904B7018EEB93E00E9449048CEDFB
:101AF00095E0AC01A981BA814A1B5B0B5A834983EB
:101B0000BA018BEB93E00E94490469817A81E4C0B9
:101B100020910002309101023A8329838CED95E0F7
:101B20007C01E21AF30AB70181EC93E00E944904B8
:101B3000B7018EEB93E00E94490449815A814452D7
:101B40005A4FDCCF68E775E081EC93E00E944904CE
:101B500068E775E08EEB93E00E94490468E775E062
:101B60008BEB93E00E94490468E775E088EB93E013
:101B70000E94490462E370E080E090E00E94E3028A
:101B80000E9438064C0182E40E94A3025C0185E4B5
:101B90000E94A3029A83898384E40E94A3026C01B9
:101BA00083E40E94A3027C016DE172E080910D0349
:101BB00090910E030E949906B40180910D039091BB
:101BC0000E030E94A80661E272E080910D039091DD
:101BD0000E030E943B0763E272E080910D03909137
:101BE0000E030E949906B50180910D0390910E039A
:101BF0000E94A80667E372E080910D0390910E03A6
:101C00000E949906B60180910D0390910E030E94E7
:101C1000A80662E472E080910D0390910E030E9489
:101C20009906B70180910D0390910E030E94A806BA
:101C300065E572E080910D0390910E030E94990674
:101C400069817A8180910D0390910E030E94A8060C
:101C500061E272E080910D0390910E030E943B07B8
:101C60000E941804EECB60E476E081EC93E00E94E1
:101C7000490460E476E08EEB93E00E94490460E45E
:101C800076E08BEB93E00E94490460E476E06ECF4F
:101C900080910002909101029A8389838CED95E0F6
:101CA0007C01A981BA81EA1AFB0AB70181EC93E0B1
:101CB0000E94490429813A8124523A4F3A83298368
:101CC000B9018EEB93E00E94490469817A818BEB24
:101CD00093E00E944904B70188EB93E00E94490415
:101CE00066E970E080E090E049CFC0900002D090BB
:101CF0000102760134E2E31A3AEFF30AB70181EC0C
:101D000093E00E9449044CED55E04C195D095A835B
:101D10004983BA01D6CFE0900002F09001028CED29
:101D200095E08E199F099A838983BC0181EC93E029
:101D30000E94490469817A818EEB93E00E944904F4
:101D400094E2E91A9AEFF90AB7018BEB93E00E944B
:101D50004904B70188EB93E00E94490464EF71E005
:101D600080E090E00E94E30269817A8181EC93E057
:101D70000E94490469817A818EEB93E00E944904B4
:101D800069817A81BECE6CED75E081EC93E00E94B2
:101D900049046CED75E08EEB93E00E9449046CED14
:101DA00075E08BEB93E00E9449046CED75E094CFF5
:101DB000109302030093010325E030E03093000309
:101DC0002093FF0231CE3D81332391F31093020320
:101DD00000930103309200032092FF0225CEA1E27E
:101DE0001A2EAA1BBB1BFD010DC0AA1FBB1FEE1F95
:101DF000FF1FA217B307E407F50720F0A21BB30BE0
:101E0000E40BF50B661F771F881F991F1A9469F75B
:101E100060957095809590959B01AC01BD01CF01B7
:101E20000895991B79E004C0991F961708F0961B36
:101E3000881F7A95C9F780950895EE0FFF1F881FB8
:101E40008BBF0790F691E02D19945058BB27AA2715
:101E50000E943D0F0C9481100E94731038F00E9474
:101E60007A1020F039F49F3F19F426F40C94701086
:101E70000EF4E095E7FB0C946A10E92F0E94921093
:101E800058F3BA17620773078407950720F079F4AF
:101E9000A6F50C94B4100EF4E0950B2EBA2FA02DDD
:101EA0000B01B90190010C01CA01A0011124FF2707
:101EB000591B99F0593F50F4503E68F11A16F04002
:101EC000A22F232F342F4427585FF3CF4695379501
:101ED0002795A795F0405395C9F77EF41F16BA0BC6
:101EE000620B730B840BBAF09150A1F0FF0FBB1F74
:101EF000661F771F881FC2F70EC0BA0F621F731FBD
:101F0000841F48F4879577956795B795F7959E3F19
:101F100008F0B0CF9395880F08F09927EE0F9795AA
:101F2000879508950E94461008F481E008950E9464
:101F3000AB0F0C9481100E947A1058F00E9473101D
:101F400040F029F45F3F29F00C946A1051110C9471
:101F5000B5100C9470100E94921068F39923B1F39D
:101F6000552391F3951B550BBB27AA2762177307BF
:101F7000840738F09F5F5F4F220F331F441FAA1F53
:101F8000A9F335D00E2E3AF0E0E832D0915050400F
:101F9000E695001CCAF72BD0FE2F29D0660F771FBD
:101FA000881FBB1F261737074807AB07B0E809F0A3
:101FB000BB0B802DBF01FF2793585F4F3AF09E3F28
:101FC000510578F00C946A100C94B5105F3FE4F35F
:101FD000983ED4F3869577956795B795F7959F5F6B
:101FE000C9F7880F911D9695879597F90895E1E0B7
:101FF000660F771F881FBB1F621773078407BA0716
:1020000020F0621B730B840BBA0BEE1F88F7E09570
:102010000895E89409C097FB3EF4909580957095DB
:1020200061957F4F8F4F9F4F9923A9F0F92F96E924
:10203000BB279395F695879577956795B795F11199
:10204000F8CFFAF4BB0F11F460FF1BC06F5F7F4F36
:102050008F4F9F4F16C0882311F096E911C0772348
:1020600021F09EE8872F762F05C0662371F096E851
:10207000862F70E060E02AF09A95660F771F881F20
:10208000DAF7880F9695879597F90895990F0008C4
:10209000550FAA0BE0E8FEEF16161706E807F9073A
:1020A000C0F012161306E407F50798F0621B730BD5
:1020B000840B950B39F40A2661F0232B242B252B56
:1020C00021F408950A2609F4A140A6958FEF811DF9
:1020D000811D089597F99F6780E870E060E008959A
:1020E0009FEF80EC089500240A9416161706180630
:1020F0000906089500240A9412161306140605060C
:102100000895092E0394000C11F4882352F0BB0F9C
:1021100040F4BF2B11F460FF04C06F5F7F4F8F4FFF
:102120009F4F089557FD9058440F551F59F05F3F3A
:1021300071F04795880F97FB991F61F09F3F79F0E9
:1021400087950895121613061406551FF2CF46956B
:10215000F1DF08C0161617061806991FF1CF8695ED
:102160007105610508940895E894BB2766277727D1
:10217000CB0197F908950E94CE100C9481100E9413
:10218000731038F00E947A1020F0952311F00C940F
:102190006A100C94701011240C94B5100E949210C7
:1021A00070F3959FC1F3950F50E0551F629FF001AA
:1021B000729FBB27F00DB11D639FAA27F00DB11DC3
:1021C000AA1F649F6627B00DA11D661F829F22274C
:1021D000B00DA11D621F739FB00DA11D621F839FD3
:1021E000A00D611D221F749F3327A00D611D231FA9
:1021F000849F600D211D822F762F6A2F11249F57F7
:1022000050409AF0F1F088234AF0EE0FFF1FBB1FF9
:10221000661F771F881F91505040A9F79E3F5105B8
:1022200080F00C946A100C94B5105F3FE4F3983E74
:10223000D4F3869577956795B795F795E7959F5F62
:10224000C1F7FE2B880F911D9695879597F90895F4
:10225000FA01EE0FFF1F309621053105A1F161153E
:10226000710561F48038BFE39B0749F168949038A9
:10227000810561F08038BFEF9B0741F099234AF553
:10228000FF3FE1053105210519F1E8940894E79530
:10229000D901AA2329F4AB2FBE2FF85FD0F310C0C9
:1022A000FF5F70F4A695E0F7F73950F019F0FF3AA8
:1022B00038F49F779F930DD00F9007FC90580895A6
:1022C00046F00C94701060E070E080E89FE30895A1
:1022D0004FE79F775F934F933F932F930E94231273
:1022E0002F913F914F915F910E94BB100C948011F0
:1022F00029F416F00C946A100C94B4100C9470101D
:102300000E949A10A8F39638A0F707F80F92E89465
:102310002BE33AEA48EB5FE70E94D1100F920F924D
:102320000F924DB75EB70F920E946B12E4EEF0E091
:102330000E94B2114F915F91EF91FF91E595EE1FD1
:10234000FF1F49F0FE57E0684427EE0F441FFA953F
:10235000E1F74195550B0E94E5110F9007FE0C9493
:10236000D9110895DF93CF931F930F93FF92EF92AC
:10237000DF927B018C01689406C0DA2EEF010E9487
:10238000CE10FE01E894A591259135914591559186
:10239000A6F3EF010E943D0FFE019701A801DA9418
:1023A00069F7DF90EF90FF900F911F91CF91DF9130
:1023B00008959B01AC0160E070E080E89FE30C941D
:1023C000970F0C946A100C949F120E949A10D8F3E5
:1023D0009923C9F3940F511DA3F39150504094F0E9
:1023E00059F0882332F0660F771F881F91505040B4
:1023F000C1F79E3F51052CF7880F911D9695879543
:1024000097F908955F3FACF0983E9CF0BB27869506
:1024100077956795B79508F4B1609395C1F7BB0FB1
:1024200058F711F460FFE8CF6F5F7F4F8F4F9F4FDA
:10243000E3CF0C94B51016F00C949F120C9470100E
:1024400068940C946A100E949A10A8F39923C1F31F
:10245000AEF3DF93CF931F930F93FF92C92FDD2726
:1024600088232AF02197660F771F881FDAF720E06C
:1024700030E040E85FEB9FE3883920F0803E38F0A1
:1024800021968F770E94260FECE0F1E004C00E94B5
:10249000260FE9E3F1E00E94B2118B01BE01EC01CD
:1024A000FB2E6F5771097595771F880B990B0E944A
:1024B0000B1028E132E741E35FE30E94CE10AF2D1D
:1024C0009801AE01FF900F911F91CF91DF910E9473
:1024D0003D0F0C948110FA01DC01AA0FBB1F9B0178
:1024E000AC01BF5728F4222733274427507820C057
:1024F000B75190F4AB2F0024469537952795011CD2
:10250000A395D2F3002071F0220F331F441FB3951F
:10251000DAF30ED00C94250F61307105A0E88A071C
:10252000B94630F49B01AC0166277727882790785D
:10253000309621F0208331834283538308959F3F57
:1025400031F0915020F4879577956795B795880F6E
:0E255000911D9695879597F90895F894FFCF01
:10255E00C80000000000AB0315034203F803730329
:10256E00510365030D0A0053746172740056616C59
:10257E003A200072696768745F66726F6E745F509E
:10258E00542069733A200072696768742069733A3F
:10259E0020006C6566745F66726F6E745F505420B7
:1025AE0069733A20006C6566742069733A200000E6
:00000001FF
