:100000000C9488010C94B9010C94B9010C94B901B9
:100010000C94B9010C94B9010C94B9010C94B90178
:100020000C94B9010C94B9010C94B9010C94B90168
:100030000C94B9010C94B9010C94B9010C94B90158
:100040000C94B9010C94CA0C0C94B9010C94B9012C
:100050000C94B9010C94B9010C94B9010C94960B51
:100060000C94B9010C94B9010C94B9010C94B90128
:100070000C94B9010C94B9010C94B9010C94B90118
:100080000C949C0C0C94B9010C94B9010C94B9011A
:100090000C940A0C0C94E00B0C94B9010C94B9016B
:1000A0000C94B9010C94B9010C946E0C0C94B90128
:1000B0000C94B9010C94B9010C94B9010C94400C46
:1000C0000C94B9010C94B9010C94B9010C94B901C8
:1000D0000C94B9010C94B9010C94B9010C94B901B8
:1000E0000C94B90107634236B79BD8A71A396856F2
:1000F00018AEBAAB558C1D3CB7CC5763BD6DEDFD4A
:10010000753EF6177231BF000000803F0800000006
:10011000BE922449123EABAAAA2ABECDCCCC4C3EFC
:1001200000000080BEABAAAAAA3E00000000BF00EB
:100130000000803F0000000000084178D3BB4387E7
:10014000D1133D190E3CC3BD4282AD2B3E68EC82FB
:1001500076BED98FE1A93E4C80EFFFBE01C4FF7F80
:100160003F00000000000C945A030C94AF100C9454
:10017000FD100C9461110C9414020C947C030C94EB
:10018000B4030C941A020C94FE010C940C020C940F
:10019000E8100C94F4010C94D9010C94EB010C942C
:1001A00019020C94E3010C944B030C94130D0C9462
:1001B0001D110C9410020C94CB100C946E030C9433
:1001C000F8010C94EE010C94DF010C9430110C94A6
:1001D00001040C941E030C9406020C945F100C9402
:1001E0001E020C94E7010C9488110C94020200008A
:1001F0002100240027002A002D00300033000101D7
:100200000000040107010A01000022002500280067
:100210002B002E003100340002010000050108010E
:100220000B01000020002300260029002C002F00D5
:100230003200000100000301060109010505050562
:10024000070508080808020202020A0A080804044E
:10025000040401010101010101010303030303037C
:100260000303040707070C0C0C0C0C0C0C0C02020B
:10027000020206060606060606060B0B0B0B0B0B08
:100280000B0B010210202008081020401020408095
:10029000020102010804020101020408102040804A
:1002A00080402010080402018004020180402010D8
:1002B0000804020108040201010204081020408021
:1002C000010204081020408000000A0B02090C0DF6
:1002D0000E080703040100000000000000000000F9
:1002E000000000000000000000000000000000000E
:1002F00000000000121110000000000000000000CB
:100300000000000000000000000000000000130DCD
:1003100011241FBECFEFD1E2DEBFCDBF00E00CBF86
:1003200012E0A0E0B2E0EAE6FDE200E00BBF02C0AE
:1003300007900D92AA3EB107D9F724E0AAEEB2E0E9
:1003400001C01D92A335B207E1F711E0C8E8D1E082
:1003500000E006C021970109802FFE010E94EA12E9
:10036000C738D10780E00807A9F70E94530D0C9405
:10037000B3160C9400008150823108F05AC0E82F67
:10038000F0E08827E953FE4F8F4F0C94EA12E70103
:10039000EB01D901DF01E3011902EE01F401F801DB
:1003A000FE01020206020C021002190214021A02D5
:1003B0001E02809180008F77809380000895809145
:1003C00080008F7DF9CF80918000877FF5CF84B545
:1003D0008F7784BD089584B58F7DFBCF8091B00069
:1003E0008F778093B00008958091B0008F7DF9CF12
:1003F000809190008F778093900008958091900075
:100400008F7DF9CF80919000877FF5CF8091A000FC
:100410008F778093A00008958091A0008F7DF9CF01
:100420008091A000877FF5CF809120018F77809306
:1004300020010895809120018F7DF9CF80912001C6
:10044000877FF5CFCF93DF93E9EFF2E08491E3EB81
:10045000F2E0D491EDE6F2E0C491CC23A1F0811159
:100460000E94BB01EC2FF0E0EE0FFF1FEE5DFD4F91
:10047000A591B491EC91ED2381E090E009F480E046
:10048000DF91CF91089580E090E0FACF1F93CF9352
:10049000DF93282F30E0F901E853FD4F8491F901F3
:1004A000EE57FD4FD491F901E45CFD4FC491CC238C
:1004B000A9F0162F81110E94BB01EC2FF0E0EE0F86
:1004C000FF1FE85FFD4FA591B4918FB7F894EC91B1
:1004D000111108C0D095DE23DC938FBFDF91CF913F
:1004E0001F910895DE2BF8CFCF93DF9390E0FC01AE
:1004F000EE57FD4F2491845C9D4FFC01849188232D
:10050000D1F090E0880F991FFC01E251FE4FA591B8
:10051000B491FC01E85FFD4FC591D49161110EC00B
:100520009FB7F8948C91E22FE0958E238C932881CD
:10053000E223E8839FBFDF91CF9108958FB7F894AE
:10054000EC91E22BEC938FBFF6CF865320917B008A
:10055000982F987F277F922B90937B0087708064E1
:1005600080937C0080917A00806480937A008091EF
:100570007A0086FDFCCF80917800909179000895F3
:100580003FB7F8948091A3039091A403A091A50391
:10059000B091A60326B5A89B05C02F3F19F0019680
:1005A000A11DB11D3FBFBA2FA92F982F8827BC01CD
:1005B000CD01620F711D811D911D42E0660F771FF5
:1005C000881F991F4A95D1F708958F929F92AF92F5
:1005D000BF92CF92DF92EF92FF924B015C010E949B
:1005E000C0026B017C010E94C0026C197D098E095A
:1005F0009F09683E734081059105A8F321E0821AA6
:100600009108A108B10888EEC80E83E0D81EE11C4D
:10061000F11C81149104A104B10429F7FF90EF901B
:10062000DF90CF90BF90AF909F908F900895DC01A6
:10063000ED91FC910190F081E02D1994AF92BF9261
:10064000CF92DF92EF92FF920F931F93CF93DF939E
:100650006C017B018B01040F151FEB015E01AE18CD
:10066000BF08C017D10759F06991D601ED91FC91EF
:100670000190F081E02DC6011995892B79F7C5010C
:10068000DF91CF911F910F91FF90EF90DF90CF906E
:10069000BF90AF900895FC01538D448D252F30E01D
:1006A000842F90E0821B930B541710F0CF9608957F
:1006B00001970895FC01918D828D981761F0A28DAC
:1006C000AE0FBF2FB11D5D968C91928D9F5F9F7372
:1006D000928F90E008958FEF9FEF0895FC01918D28
:1006E000828D981731F0828DE80FF11D858D90E095
:1006F00008958FEF9FEF0895FC01918D228D892F32
:1007000090E0805C9F4F821B91098F739927089519
:1007100087EA93E00E947C0321E0892B09F420E022
:10072000822F0895FC01A48DA80FB92FB11DA35AE3
:10073000BF4F2C91848D90E001968F739927848F01
:10074000A689B7892C93A089B1898C918370806424
:100750008C93938D848D981306C00288F389E02DC5
:1007600080818F7D80830895EF92FF920F931F9376
:10077000CF93DF93EC0181E0888F9B8D8C8D981354
:100780001AC0E889F989808185FF15C09FB7F89460
:10079000EE89FF896083E889F989808183708064AC
:1007A00080839FBF81E090E0DF91CF911F910F91F7
:1007B000FF90EF900895F62E0B8D10E00F5F1F4F06
:1007C0000F731127E02E8C8D8E110CC00FB607FC15
:1007D000FACFE889F989808185FFF5CFCE010E94A3
:1007E0009203F1CFEB8DEC0FFD2FF11DE35AFF4F7C
:1007F000F0829FB7F8940B8FEA89FB898081806231
:10080000CFCFCF93DF93EC01888D8823B9F0AA89ED
:10081000BB89E889F9898C9185FD03C0808186FDBB
:100820000DC00FB607FCF7CF8C9185FFF2CF80810A
:1008300085FFEDCFCE010E949203E9CFDF91CF91EA
:10084000089580E090E0892B49F080E090E0892BCA
:1008500029F00E94000081110E94000080E090E0D9
:10086000892B29F00E94880381110E94000080E0FA
:1008700090E0892B49F080E090E0892B29F00E94DC
:10088000000081110E94000080E090E0892B49F077
:1008900080E090E0892B29F00E94000081110C94E7
:1008A00000000895DC01EC91E03390F511968C91F5
:1008B000119728E830E0281B310987FD3395220F76
:1008C000331F220F331F6217730784F012968C9127
:1008D00028E532E0281B310987FD3395220F331FAD
:1008E000220F331F621773070CF49B01225031094A
:1008F000220F331F4FB7F8948E2F90E0FC01EE0FBC
:10090000FF1FE80FF91FE65FFC4F328321834FBFC3
:100910000895CF92DF92EF92FF92E4E4F4E0218118
:1009200038E8C32ED12CC21AD10827FDD394CC0CA1
:10093000DD1CCC0CDD1C0D2C000CEE08FF084281E8
:1009400028E532E0241B310947FD3395220F331F80
:10095000220F331F032E000C440B550B2C193D099D
:100960004E095F09DC010E94A51224EB30E040E053
:1009700050E00E947B12CA01B9016C0D7D1D8E1DD5
:100980009F1D84E494E0FF90EF90DF90CF900C9453
:1009900052041F93CF93DF93EC01162F888180338D
:1009A00008F04EC061E0812F0E9474028881282FD8
:1009B00030E0F901EE0FFF1FE20FF31FE65FFC4F7F
:1009C0001F736081607C612B608319821A822CE026
:1009D000622F0E94DE12829FB001112430E020E0DD
:1009E000AB01420F531FFA01EE0FFF1FE40FF51F7B
:1009F000E65FFC4F908196FD16C02F5F3F4F2C3075
:100A0000310571F7813009F51092800082E0809302
:100A100081001092850010928400B19A80916F003D
:100A2000826080936F00E8818E2F90E0FC01EE0FD2
:100A3000FF1FE80FF91FE65FFC4F80818064808311
:100A40008881DF91CF911F910895823061F41092D7
:100A5000900080939100109295001092940088BBB2
:100A600080937100E0CF833069F41092A00082E09F
:100A70008093A1001092A5001092A40089BB8093DE
:100A80007200D1CF8111CFCF1092200182E08093EC
:100A9000210110922501109224018ABB80937300DA
:100AA000C2CFAF92BF92CF92DF92EF92FF920F939D
:100AB0001F93CF93DF936B017A01EC01C251DD4F9D
:100AC00028813CE0389F8001399F100D1124A090AF
:100AD000F202B12C27FF1FC0FB0111821082888116
:100AE0008F5F888388819801280F311D87FD3A9593
:100AF000F6012A153B051CF488818C30C4F18081F5
:100B00009181049680349C4908F473C0F601808179
:100B10009181049670C088819801280F311D87FD4E
:100B20003A952A153B05DCF68881A801480F511D2E
:100B300087FD5A95FA01EE0FFF1FE40FF51FE65FE0
:100B4000FC4F808186FFCBCF8881F801E80FF11D33
:100B500087FDFA95CF01EE0FFF1FE80FF91FE65F43
:100B6000FC4F808160E08F730E944602B8CF808185
:100B700091812881A801420F511D27FD5A959A01A4
:100B8000FA01EE0FFF1FE20FF31FE65FFC4F21811A
:100B90003281820F931FF7019183808388819801AE
:100BA000280F311D87FD3A95F901EE0FFF1FE20F67
:100BB000F31FE65FFC4F808186FF22C08881080F0B
:100BC000111D87FD1A95F801EE0FFF1FE00FF11FB1
:100BD000E65FFC4F808161E08F73DF91CF911F91C1
:100BE0000F91FF90EF90DF90CF90BF90AF900C945B
:100BF000460280E49CE9F701918380838FEF88832C
:100C0000DF91CF911F910F91FF90EF90DF90CF90E8
:100C1000BF90AF9008954F925F926F927F928F92A4
:100C20009F92AF92BF92CF92DF92EF92FF920F937B
:100C30001F93CF93DF93412C512C3201812C912CA7
:100C4000540103E010E0C3E2D0E060E080E30E94E2
:100C50004602C8010197F1F761E080E30E94460275
:100C6000CE010197F1F760E080E30E9446020E9406
:100C70002202892B29F40E94C0024B015C01F7CFAC
:100C80000E942202019729F40E94C0022B013C011C
:100C9000F7CFC301B201681979098A099B090E943B
:100CA00007142AE939E949EB50E40E9464136B0107
:100CB0007C01C092EA02D092EB02E092EC02F09248
:100CC000ED0220E030E0A9010E945F1387FDBDCF57
:100CD00061E070E080E090E00E94E502C701B601AB
:100CE000DF91CF911F910F91FF90EF90DF90CF9008
:100CF000BF90AF909F908F907F906F905F904F903C
:100D00000895CF92DF92EF92FF920F931F93CF93AC
:100D1000DF9384E40E94A5026C0182E40E94A50294
:100D2000EC0183E40E94A5028C0185E40E94A502E7
:100D30007C010E940B0623EEC21623E0D20644F08B
:100D400020E030E04CED52E40E945F1387FD3CC090
:100D5000CC16DD065CF0C016D106E4F183E090E02D
:100D6000CE14DF0444F5CC15DD05C4F1C017D1075E
:100D70005CF082E090E0CE15DF05ECF40C151D056B
:100D800044F00C171D072CF081E090E00E151F05B4
:100D900094F4EC14FD0434F0EC16FD061CF0E0169F
:100DA000F106ACF4C01BD10BC55DDE4FC735D24098
:100DB00070F090E080E0DF91CF911F910F91FF9054
:100DC000EF90DF90CF90089585E090E0F4CF84E03D
:100DD00090E0F1CFCC15DD05A4F2C8CF0C151D05B0
:100DE000DCF2CFCFFB0101900020E9F73197AF0192
:100DF000461B570BDC01ED91FC910280F381E02D45
:100E000019948F929F92AF92BF92EF92FF920F939D
:100E10001F93CF93DF93CDB7DEB7A1970FB6F894AA
:100E2000DEBF0FBECDBF7C01FA01CB0119A222307B
:100E300008F42AE08E010F5D1F4F822E912CB12CF9
:100E4000A12CBF01A50194010E94AD12F901CA01B4
:100E50006A300CF5605DD8016E938D01232B242B35
:100E6000252B79F790E080E0109721F0BD01C701B4
:100E70000E94F206A1960FB6F894DEBF0FBECDBF5A
:100E8000DF91CF911F910F91FF90EF90BF90AF90A6
:100E90009F908F900895695CDECFCF92DF92EF92A2
:100EA000FF920F931F93CF93DF938C016B01770F0A
:100EB000EE08FF08F7FE21C06DE20E941703EC0167
:100EC00044275527BA014C195D096E097F092AE0AC
:100ED000C8010E940107C80FD91F64E172E0C80170
:100EE0000E94F2068C0F9D1FDF91CF911F910F91F1
:100EF000FF90EF90DF90CF9008952AE0B701A60110
:100F00000E940107EC01E9CF4F925F926F927F92AE
:100F10008F929F92AF92BF92CF92DF92EF92FF9209
:100F2000CF93DF93EC016A017B01AB019601CB010A
:100F3000B6010E94791567E172E081111AC046017D
:100F40005701E894B7F82FEF3FEF4FE75FE7C50190
:100F5000B4010E947915811126C02FEF3FEF4FE7B2
:100F60005FE7C501B4010E945F131816E4F46BE15A
:100F700072E0CE010E94F2067C0164E172E0CE01D3
:100F80000E94F2068E0D9F1DDF91CF91FF90EF9092
:100F9000DF90CF90BF90AF909F908F907F906F9099
:100FA0005F904F9008952FEF3FEF4FE75FE4C70149
:100FB000B6010E94B71418161CF46FE172E0D9CF85
:100FC0002FEF3FEF4FE75FECC701B6010E945F13C1
:100FD00087FDF3CF20E030E0A901C701B6010E94F0
:100FE0005F13B12CA12C87FF09C06DE2CE010E94D6
:100FF00017035C01F7FAF094F7F8F0942AE037ED64
:1010000043EA5BE3C701B6010E94F3122B013C01E6
:101010000E94D6136B017C010E9405149B01AC0158
:10102000C301B2010E94F2122B013C012AE0B70178
:10103000A601CE010E9401077C01EA0CFB1C6EE2B6
:10104000CE010E941703E80EF91E20E030E040E2D6
:1010500051E4C301B2010E94BC142B013C010E9467
:10106000D6134B01B12CA12C2AE0B501A401CE016D
:101070000E940107E80EF91EC501B4010E94051483
:101080009B01AC01C301B2010E94F21220E030E0EA
:1010900040E251E40E94BC140E94D613AB0170E000
:1010A00060E02AE0CE010E940107E80EF91E65CF3C
:1010B0000F931F93CF93DF93EC010E94F2068C01F4
:1010C00064E172E0CE010E94F206800F911FDF9171
:1010D000CF911F910F9108950C94F2064F925F9259
:1010E0006F927F928F929F92AF92BF92CF92DF9238
:1010F000EF92FF92CF93DF9300D000D0CDB7DEB751
:101100008CE390E09E838D83812C912C540175019A
:1011100064018BE30E94A502BC01990F880B990B17
:101120000E94071423E333E343E55FEB0E94291594
:1011300069837A838B839C832AE037ED43E25CE307
:10114000C501B4010E94F3124B015C0120E030E0C4
:1011500040E85FE30E94F3129B01AC01C501B401BA
:101160000E9464132B013C012DEC3CE04EE056E460
:1011700069817A818B819C810E94BC14A7019601B0
:101180000E94F212A30192010E94BC149B01AC01C7
:10119000C701B6010E94F3126B017C018D819E8113
:1011A00001979E838D83A3019201C501B4010E9422
:1011B000BC149B01AC0160E070E080E89FE30E94FA
:1011C000F2124B015C018D819E81892B09F0A1CF28
:1011D000A7019601C701B6010E945F13882339F069
:1011E000C12C8CE3D82E8CE1E82E86E4F82EC701C2
:1011F000B60126960FB6F894DEBF0FBECDBFDF91C5
:10120000CF91FF90EF90DF90CF90BF90AF909F90E5
:101210008F907F906F905F904F9008954F925F9264
:101220006F927F928F929F92AF92BF92CF92DF92F6
:10123000EF92FF92CF93DF9300D000D0CDB7DEB70F
:101240008CE390E09E838D83812C912C5401750159
:1012500064018AE30E94A502BC01990F880B990BD7
:101260000E9407142EEF34ED48E55FEB0E9429152C
:1012700069837A838B839C832AE037ED43E25CE3C6
:10128000C501B4010E94F3124B015C0120E030E083
:1012900040E85FE30E94F3129B01AC01C501B40179
:1012A0000E9464132B013C0120E03CE041E256E443
:1012B00069817A818B819C810E94BC14A70196016F
:1012C0000E94F212A30192010E94BC149B01AC0186
:1012D000C701B6010E94F3126B017C018D819E81D2
:1012E00001979E838D83A3019201C501B4010E94E1
:1012F000BC149B01AC0160E070E080E89FE30E94B9
:10130000F2124B015C018D819E81892B09F0A1CFE6
:10131000A7019601C701B6010E945F13882339F027
:10132000C12C8CE3D82E8CE1E82E86E4F82EC70180
:10133000B60126960FB6F894DEBF0FBECDBFDF9183
:10134000CF91FF90EF90DF90CF90BF90AF909F90A4
:101350008F907F906F905F904F9008952F923F9263
:101360004F925F926F927F928F929F92AF92BF92B5
:10137000CF92DF92EF92FF920F931F93CF93DF9361
:10138000CDB7DEB762970FB6F894DEBF0FBECDBF04
:1013900084E690E09E838D83812C912C540175010D
:1013A00064018DE30E94A502BC01990F880B990B83
:1013B0000E9407142CE934EC40E85FEB0E942915E9
:1013C00069837A838B839C832AE037ED43EA5BE36E
:1013D000C701B6010E94F3126B017C0120E030E0EE
:1013E00040E85FE30E94F3129B01AC01C701B60124
:1013F0000E9464132B013C0120E033E445E457E4F0
:1014000069817A818B819C810E94BC14A501940121
:101410000E94F212A30192010E94BC149B01AC0134
:10142000C501B4010E94F3124B015C018D819E81C4
:1014300001979E838D83A3019201C701B6010E948B
:10144000BC149B01AC0160E070E080E89FE30E9467
:10145000F2126B017C018D819E81892B09F0A1CF55
:10146000A5019401C501B4010E945F13882339F0DE
:10147000812C9CE3992E9CE1A92E96E4B92E0E9422
:101480006E0869837A838B839C830E940E096D8327
:101490007E838F83988784E690E09A8B898B412C9A
:1014A000512C3201730162018CE30E94A502BC0140
:1014B000990F880B990B0E94071420EA3AE14FE636
:1014C0005FEB0E9429156D877E878F87988B2AE0B6
:1014D00037ED43E25CE3C701B6010E94F3126B01F2
:1014E0007C0120E030E040E85FE30E94F3129B01C2
:1014F000AC01C701B6010E94641369877A878B87A4
:101500009C8720E033E148E257E46D857E858F8536
:1015100098890E94BC14A30192010E94F2122985AD
:101520003A854B855C850E94BC149B01AC01C301CC
:10153000B2010E94F3122B013C0189899A8901971B
:101540009A8B898B29853A854B855C85C701B601C5
:101550000E94BC149B01AC0160E070E080E89FE356
:101560000E94F2126B017C0189899A89892B09F00A
:101570009BCF20E030E048E452E4C301B2010E9476
:10158000F2126B017C01AC019B010E945F13882366
:1015900039F0C12C8CE3D82E8CE1E82E86E4F82EAD
:1015A0000E940B061B012C0184E40E94A5023C0151
:1015B00020E030E04AEF52E469817A818B819C819E
:1015C0000E945F1387FF0EC091E09D8720E03CE3FF
:1015D0004CE156E469817A818B819C810E945F1382
:1015E000811101C01D8620E030E044EB52E4C501CA
:1015F000B4010E945F1387FF0CC020E03CE34CE184
:1016000056E4C501B4010E945F13882311F081E004
:101610008D8720E030E04AEF52E46D817E818F813A
:1016200098850E945F1387FF0EC091E0998720E0A4
:101630003CE34CE156E46D817E818F8198850E9468
:101640005F13811101C0198620E030E044EB52E4C1
:10165000C701B6010E945F1387FF0CC020E03CE386
:101660004CE156E4C701B6010E945F13882311F0D4
:1016700081E0898720E030E048EC52E469817A819A
:101680008B819C810E945F1387FF0CC020E030E0BB
:1016900048EC52E46D817E818F8198850E945F13B2
:1016A00087FD17C020E030E040EF52E4C201B101F5
:1016B0000E945F1387FD0DC09D8502E010E091112F
:1016C00002C010E000E09985992329F003E010E0C2
:1016D00002C004E010E083EE681683E0780664F050
:1016E00020E030E04CED52E4C201B1010E945F13F2
:1016F00087FF02C007E010E0C80162960FB6F894B9
:10170000DEBF0FBECDBFDF91CF911F910F91FF9034
:10171000EF90DF90CF90BF90AF909F908F907F9091
:101720006F905F904F903F902F9008951F920F926F
:101730000FB60F9211242F933F938F939F93AF93E4
:10174000BF9380919F039091A003A091A103B091BA
:10175000A20330919E0323E0230F2D3758F5019605
:10176000A11DB11D20939E0380939F039093A0031E
:10177000A093A103B093A2038091A3039091A4032B
:10178000A091A503B091A6030196A11DB11D809360
:10179000A3039093A403A093A503B093A603BF91C2
:1017A000AF919F918F913F912F910F900FBE0F900E
:1017B0001F90189526E8230F0296A11DB11DD2CFC8
:1017C0001F920F920FB60F9211240BB60F922F9308
:1017D0003F934F935F936F937F938F939F93AF93B9
:1017E000BF93EF93FF9387EA93E00E949203FF91E8
:1017F000EF91BF91AF919F918F917F916F915F9189
:101800004F913F912F910F900BBE0F900FBE0F90F5
:101810001F9018951F920F920FB60F9211240BB6BE
:101820000F922F938F939F93EF93FF93E091B703C2
:10183000F091B8038081E091BD03F091BE0382FD79
:101840001DC090818091C0038F5F8F732091C10371
:10185000821741F0E091C003F0E0E955FC4F958F0D
:101860008093C003FF91EF919F918F912F910F90E3
:101870000BBE0F900FBE0F901F9018958081F2CF76
:101880001F920F920FB60F9211240BB60F922F9347
:101890003F934F935F936F937F938F939F93AF93F8
:1018A000BF93EF93FF9348E251E064E271E090E070
:1018B00080E00E945105FF91EF91BF91AF919F9100
:1018C0008F917F916F915F914F913F912F910F90E9
:1018D0000BBE0F900FBE0F901F9018951F920F9286
:1018E0000FB60F9211240BB60F922F933F934F9385
:1018F0005F936F937F938F939F93AF93BF93EF9378
:10190000FF9348EA50E064EA70E083E090E00E94D0
:101910005105FF91EF91BF91AF919F918F917F9171
:101920006F915F914F913F912F910F900BBE0F9050
:101930000FBE0F901F9018951F920F920FB60F9227
:1019400011240BB60F922F933F934F935F936F9396
:101950007F938F939F93AF93BF93EF93FF9348E948
:1019600050E064E970E082E090E00E945105FF9150
:10197000EF91BF91AF919F918F917F916F915F9107
:101980004F913F912F910F900BBE0F900FBE0F9074
:101990001F9018951F920F920FB60F9211240BB63D
:1019A0000F922F933F934F935F936F937F938F93F8
:1019B0009F93AF93BF93EF93FF9348E850E064E8A1
:1019C00070E081E090E00E945105FF91EF91BF919E
:1019D000AF919F918F917F916F915F914F913F91C7
:1019E0002F910F900BBE0F900FBE0F901F90189568
:1019F000FC019091F202903398F481E0890F80937A
:101A0000F2029083892F90E0FC01EE0FFF1FE80F98
:101A1000F91FE65FFC4F88EB9BE09283818308957A
:101A20008FEF80830895E7EAF3E01382128288EE55
:101A300093E0A0E0B0E084839583A683B78386E03B
:101A400092E0918380838DEC90E0958784878CEC85
:101A500090E09787868788EC90E0918B808B89EC6B
:101A600090E0938B828B8AEC90E0958B848B8EEC4C
:101A700090E0978B868B118E128E138E148E80E5DC
:101A800094E00E94F80C8DE494E00E94F80C8AE443
:101A900094E00E94F80C87E494E00E94F80C84E43F
:101AA00094E00C94F80CCF93DF9300D000D000D0DA
:101AB0001F92CDB7DEB7789484B5826084BD84B5BB
:101AC000816084BD85B5826085BD85B5816085BD39
:101AD00080916E00816080936E00109281008091F1
:101AE0008100826080938100809181008160809379
:101AF0008100809180008160809380008091B1009E
:101B000084608093B1008091B00081608093B000C8
:101B1000809191008260809391008091910081601A
:101B200080939100809190008160809390008091DB
:101B3000A10082608093A1008091A10081608093C8
:101B4000A1008091A00081608093A000809121017C
:101B50008260809321018091210181608093210125
:101B60008091200181608093200180917A008460BF
:101B700080937A0080917A00826080937A008091CD
:101B80007A00816080937A0080917A0080688093E7
:101B90007A001092C10061E08DE20E94740261E05F
:101BA0008DE20E94460268EB7BE080E090E00E94BC
:101BB000E50260E08DE20E94460287EA93E090939E
:101BC0009D0380939C03E091B703F091B80382E0FA
:101BD0008083E091B303F091B4031082E091B503E8
:101BE000F091B60380E180831092BF03E091BB03C4
:101BF000F091BC0386E08083E091B903F091BA03D1
:101C0000808180618083E091B903F091BA03808183
:101C100088608083E091B903F091BA038081806885
:101C20008083E091B903F091BA0380818F7D808336
:101C300060E081E30E94740261E080E30E9474022C
:101C400060E08AE30E94740260E08BE30E94740209
:101C500060E08CE30E94740260E08DE30E947402F5
:101C60006EE270E080E594E00E94C9046FE270E0EB
:101C70008DE494E00E94C90462E370E08AE494E099
:101C80000E94C90463E370E087E494E00E94C90401
:101C90006BE070E084E494E00E94C90460E085E4B5
:101CA0000E94740224E630E03A83298385E40E948E
:101CB000A50265E070E080E090E00E94E502898185
:101CC0009A8101979A838983892B81F763E272E075
:101CD00087EA93E00E945808A8E02A2E312C0E943F
:101CE000AE098C010E9481069A83898382E40E9456
:101CF000A5029A87898784E40E94A50298878F832A
:101D000085E40E94A5029E838D8383E40E94A50240
:101D10009C838B830E940B064B015C010E946E0822
:101D20002B013C010E940E096B017C0169E272E00B
:101D300080919C0390919D030E9458086EE472E08C
:101D400080919C0390919D030E946C08B801809142
:101D50009C0390919D030E944D0769E572E080917C
:101D60009C0390919D030E946C0869817A81809107
:101D70009C0390919D030E944D0767E572E080915E
:101D80009C0390919D030E94580864E672E0809144
:101D90009C0390919D030E946C0869857A858091CF
:101DA0009C0390919D030E944D0768E772E080912B
:101DB0009C0390919D030E946C086B817C818091B3
:101DC0009C0390919D030E944D076BE872E0809107
:101DD0009C0390919D030E946C086D817E8180918F
:101DE0009C0390919D030E944D0765E972E08091EC
:101DF0009C0390919D030E946C086F81788580916F
:101E00009C0390919D030E944D0760EA72E08091CF
:101E10009C0390919D030E946C08B501A4018091E0
:101E20009C0390919D030E94840760EB72E0809177
:101E30009C0390919D030E946C08B301A2018091C4
:101E40009C0390919D030E94840764EC72E0809152
:101E50009C0390919D030E946C08B701A60180919C
:101E60009C0390919D030E94840769ED72E080912C
:101E70009C0390919D030E946C08609107037091F0
:101E8000080380919C0390919D030E944D0767E594
:101E900072E080919C0390919D030E945808E0900D
:101EA0009A03F0909B0391E0E916F10441F140F0B0
:101EB00032E0E316F10409F443C20E9421040FCF7B
:101EC0006EE270E080E594E00E94C9046FE270E089
:101ED0008DE494E00E94C90462E370E08AE494E037
:101EE0000E94C90463E370E087E494E00E94C9049F
:101EF00081E090E090939B0380939A03DECF8091E2
:101F00000002909101022091F3023091F402820FBD
:101F1000931F853F21E092070CF051C0909301027E
:101F2000809300021092F4021092F30222E030E05B
:101F3000309304032093030381E090E09093060321
:101F4000809305030E94810681309105D9F5909315
:101F500000038093FF0222E030E03093FE022093E2
:101F6000FD020E9481068C0184E40E94A5025C01AE
:101F700082E40E94A5026C0183E40E94A502AC14D5
:101F8000BD0444F0A816B9060CF023C2CA14DB0441
:101F90000CF446C0C816D9060CF446C0053011052D
:101FA00009F052C081E090E09093F8028093F7022C
:101FB0003092F6022092F5028CE390E01AC284EF90
:101FC00091E0ACCF8230910549F481E090E09093AC
:101FD00000038093FF0223E030E0BFCF8330910500
:101FE00059F481E090E0909300038093FF021092F7
:101FF000FE021092FD02B5CF049769F421E030E0B3
:10200000309300032093FF0287E090E09093FE025C
:102010008093FD02A6CF109200031092FF02A1CF81
:102020008C159D050CF458C20530110569F421E0AA
:1020300030E03093F8022093F7023092F6022092BB
:10204000F50288E790E0D5C11092F8021092F702ED
:1020500060E0D2C18330910549F421E030E0309353
:10206000FC022093FB0284E090E0D7C1813091050F
:1020700029F49093FC028093FB02CFC18430910538
:1020800049F421E030E03093FC022093FB0282E02F
:1020900090E0C3C1079759F421E030E03093FC028F
:1020A0002093FB023092FA022092F902BAC11092F8
:1020B000FC021092FB02B5C1D12CC12CC3C100910E
:1020C000000210910102580184E2A81A8AEFB80AAE
:1020D000B50180E594E00E945204B5018DE494E0DE
:1020E0000E9452048CED95E09C01201B310B89016C
:1020F000B9018AE494E00E945204B80187E494E0B4
:102100000E9452046AE070E080E090E00E94E502E4
:102110008091090394E0C916D10409F00EC121E0B1
:10212000209309039091090391110BC0882349F072
:102130008091070390910803019690930803809380
:1021400007038091070390910803029719F462E056
:10215000E62EF12CF0929B03E0929A03AECE009112
:102160000002109101028CED95E05C01A01AB10A09
:10217000B50180E594E00E945204B5018DE494E03D
:102180000E94520404521A4FB8018AE494E00E945B
:102190005204B8014DC067E875E080E594E00E9404
:1021A000520467E875E08DE494E00E94520467E809
:1021B00075E08AE494E00E94520467E875E087E4E1
:1021C00094E00E94520469E170E080E090E09ECFCC
:1021D00061E376E080E594E00E94520461E376E0FA
:1021E0008DE494E00E94520461E376E08AE494E096
:1021F0000E94520461E376E0E2CF00910002109168
:1022000001028CED95E05C01A01AB10AB50180E5F0
:1022100094E00E94520404521A4FB8018DE494E0F5
:102220000E945204B8018AE494E00E945204B5016D
:1022300087E494E00E94520466C08090000290906F
:102240000102540134E2A31A3AEFB30AB50180E562
:1022500094E00E9452040CED15E008191909DDCF35
:10226000A0900002B09001020CED15E00A191B09C4
:10227000B80180E594E00E945204B8018DE494E036
:102280000E94520484E2A81A8AEFB80AB5018AE4CF
:1022900094E00E945204B50187E494E00E94520445
:1022A00064E670E080E090E00E94E502B80180E51D
:1022B00094E00E945204B8018DE494E00E9452041C
:1022C00063CF80910002909101020CED15E0081B94
:1022D000190BB80180E594E00E945204B8018DE426
:1022E00094E00E945204B8018AE494E00E945204EF
:1022F000B80187E494E00E94520464EC79E080E045
:1023000090E00E94E50262E370E080E090E0FECEA3
:102310006CED75E080E594E00E9452046CED75E090
:102320008DE494E00E9452046CED75E08AE494E040
:102330000E9452046CED75E07BCF10920903F2CE3F
:10234000E09150048E2F90E0FC01EE0FFF1FE80F8C
:10235000F91FE65FFC4F80818F7B8083E0914D0405
:102360008E2F90E0FC01EE0FFF1FE80FF91FE65FD4
:10237000FC4F80818F7B8083E0914A048E2F90E018
:10238000FC01EE0FFF1FE80FF91FE65FFC4F808195
:102390008F7B8083E09147048E2F90E0FC01EE0F4D
:1023A000FF1FE80FF91FE65FFC4F80818F7B808362
:1023B00060E08EE20E94740260E08FE20E9474028C
:1023C00060E082E30E94740260E083E30E94740292
:1023D000C1CE0530110509F037CE81E090E0909331
:1023E000F8028093F7023092F6022092F5028AE515
:1023F00090E00E94890461E08DE20E9446020E9402
:10240000AE098230910509F025CE21E030E030930D
:10241000FC022093FB0285E090E09093FA02809307
:10242000F902C0900503D090060331E0C316D10431
:1024300009F042CE8091030390910403909302032C
:10244000809301038091FF0290910003019759F45A
:102450008091FD029091FE0290930203809301030C
:10246000F2E0CF2ED12C8091FB029091FC020197DB
:1024700059F48091F9029091FA02909302038093AB
:102480000103E3E0CE2ED12C8091F7029091F80267
:10249000019759F48091F5029091F602909302030E
:1024A0008093010374E0C72ED12CE0910103F091D9
:1024B0000203E930F10508F02BCE8827ED59FD4ED7
:1024C0008F4F0C94EA125F10AF10CB10E810FD1084
:1024D0001D113011611188110530110509F0B4CDBD
:1024E00081E090E09093F8028093F7023092F60238
:1024F0002092F50280CF052E97FB1EF400940E94D7
:10250000921257FD07D00E94AD1207FC03D04EF483
:102510000C94921250954095309521953F4F4F4F16
:102520005F4F089590958095709561957F4F8F4F7F
:102530009F4F08950E94CF12A59F900DB49F900DBC
:10254000A49F800D911D11240895B7FF0C949A1239
:102550000E949A12821B930B0895A1E21A2EAA1BC5
:10256000BB1BFD010DC0AA1FBB1FEE1FFF1FA21743
:10257000B307E407F50720F0A21BB30BE40BF50B40
:10258000661F771F881F991F1A9469F760957095C9
:10259000809590959B01AC01BD01CF010895A29F4C
:1025A000B001B39FC001A39F700D811D1124911D27
:1025B000B29F700D811D1124911D0895991B79E022
:1025C00004C0991F961708F0961B881F7A95C9F7C3
:1025D00080950895EE0FFF1F881F8BBF0790F6911F
:1025E000E02D19945058BB27AA270E940A130C9477
:1025F0007D140E946F1438F00E94761420F039F494
:102600009F3F19F426F40C946C140EF4E095E7FB4C
:102610000C946614E92F0E948E1458F3BA176207BF
:1026200073078407950720F079F4A6F50C94B0148D
:102630000EF4E0950B2EBA2FA02D0B01B9019001DD
:102640000C01CA01A0011124FF27591B99F0593F21
:1026500050F4503E68F11A16F040A22F232F342F69
:102660004427585FF3CF469537952795A795F040B7
:102670005395C9F77EF41F16BA0B620B730B840BCC
:10268000BAF09150A1F0FF0FBB1F661F771F881F84
:10269000C2F70EC0BA0F621F731F841F48F48795DC
:1026A00077956795B795F7959E3F08F0B0CF9395CE
:1026B000880F08F09927EE0F9795879508950E9447
:1026C000421408F481E008950E9478130C947D145C
:1026D0000E94761458F00E946F1440F029F45F3F76
:1026E00029F00C94661451110C94B1140C946C14D0
:1026F0000E948E1468F39923B1F3552391F3951B2F
:10270000550BBB27AA2762177307840738F09F5F12
:102710005F4F220F331F441FAA1FA9F335D00E2E7F
:102720003AF0E0E832D091505040E695001CCAF7EC
:102730002BD0FE2F29D0660F771F881FBB1F2617AF
:1027400037074807AB07B0E809F0BB0B802DBF0186
:10275000FF2793585F4F3AF09E3F510578F00C9455
:1027600066140C94B1145F3FE4F3983ED4F386955D
:1027700077956795B795F7959F5FC9F7880F911D76
:102780009695879597F90895E1E0660F771F881F62
:10279000BB1F621773078407BA0720F0621B730B15
:1027A000840BBA0BEE1F88F7E09508950E949614EB
:1027B00088F09F5798F0B92F9927B751B0F0E1F002
:1027C000660F771F881F991F1AF0BA95C9F714C0B2
:1027D000B13091F00E94B014B1E008950C94B0149F
:1027E000672F782F8827B85F39F0B93FCCF38695EB
:1027F00077956795B395D9F73EF490958095709548
:1028000061957F4F8F4F9F4F0895E89409C097FBC4
:102810003EF490958095709561957F4F8F4F9F4FB7
:102820009923A9F0F92F96E9BB279395F6958795FB
:1028300077956795B795F111F8CFFAF4BB0F11F4BE
:1028400060FF1BC06F5F7F4F8F4F9F4F16C0882365
:1028500011F096E911C0772321F09EE8872F762F9B
:1028600005C0662371F096E8862F70E060E02AF0DC
:102870009A95660F771F881FDAF7880F96958795C8
:1028800097F90895990F0008550FAA0BE0E8FEEF9D
:1028900016161706E807F907C0F012161306E40724
:1028A000F50798F0621B730B840B950B39F40A261D
:1028B00061F0232B242B252B21F408950A2609F4FB
:1028C000A140A6958FEF811D811D089597F99F67FF
:1028D00080E870E060E008959FEF80EC08950024A8
:1028E0000A941616170618060906089500240A9475
:1028F00012161306140605060895092E0394000CFB
:1029000011F4882352F0BB0F40F4BF2B11F460FF89
:1029100004C06F5F7F4F8F4F9F4F089557FD9058B2
:10292000440F551F59F05F3F71F04795880F97FB93
:10293000991F61F09F3F79F087950895121613064D
:102940001406551FF2CF4695F1DF08C0161617067C
:102950001806991FF1CF86957105610508940895B1
:10296000E894BB2766277727CB0197F908950E9443
:10297000421408F48FEF08950E94CF140C947D1434
:102980000E946F1438F00E94761420F0952311F005
:102990000C9466140C946C1411240C94B1140E94C1
:1029A0008E1470F3959FC1F3950F50E0551F629FF1
:1029B000F001729FBB27F00DB11D639FAA27F00D98
:1029C000B11DAA1F649F6627B00DA11D661F829FBF
:1029D0002227B00DA11D621F739FB00DA11D621FA4
:1029E000839FA00D611D221F749F3327A00D611DC1
:1029F000231F849F600D211D822F762F6A2F1124A3
:102A00009F5750409AF0F1F088234AF0EE0FFF1FD5
:102A1000BB1F661F771F881F91505040A9F79E3F2C
:102A2000510580F00C9466140C94B1145F3FE4F3EC
:102A3000983ED4F3869577956795B795F795E79582
:102A40009F5FC1F7FE2B880F911D9695879597F98B
:102A50000895FA01EE0FFF1F309621053105A1F10F
:102A60006115710561F48038BFE39B0749F16894F3
:102A70009038810561F08038BFEF9B0741F09923C2
:102A80004AF5FF3FE1053105210519F1E894089465
:102A9000E795D901AA2329F4AB2FBE2FF85FD0F315
:102AA00010C0FF5F70F4A695E0F7F73950F019F009
:102AB000FF3A38F49F779F930DD00F9007FC905802
:102AC000089546F00C946C1460E070E080E89FE399
:102AD00008954FE79F775F934F933F932F930E9403
:102AE00029162F913F914F915F910E94BC140C9435
:102AF00086150E944214880B990B089529F416F04C
:102B00000C9466140C94B0140C946C140E949614DB
:102B1000A8F39638A0F707F80F92E8942BE33AEA67
:102B200048EB5FE70E94D2140F920F920F924DB7BD
:102B30005EB70F920E947116E4EEF0E00E94B815A5
:102B40004F915F91EF91FF91E595EE1FFF1F49F0C7
:102B5000FE57E0684427EE0F441FFA95E1F74195D0
:102B6000550B0E94EB150F9007FE0C94DF1508958E
:102B7000DF93CF931F930F93FF92EF92DF927B012E
:102B80008C01689406C0DA2EEF010E94CF14FE017A
:102B9000E894A5912591359145915591A6F3EF01C2
:102BA0000E940A13FE019701A801DA9469F7DF90E9
:102BB000EF90FF900F911F91CF91DF9108959B01AE
:102BC000AC0160E070E080E89FE30C9464130C9427
:102BD00066140C94A5160E949614D8F39923C9F391
:102BE000940F511DA3F39150504094F059F0882355
:102BF00032F0660F771F881F91505040C1F79E3FFB
:102C000051052CF7880F911D9695879597F9089592
:102C10005F3FACF0983E9CF0BB2786957795679513
:102C2000B79508F4B1609395C1F7BB0F58F711F44D
:102C300060FFE8CF6F5F7F4F8F4F9F4FE3CF0C94C4
:102C4000B11416F00C94A5160C946C1468940C94A2
:102C500066140E949614A8F39923C1F3AEF3DF9390
:102C6000CF931F930F93FF92C92FDD2788232AF05C
:102C70002197660F771F881FDAF720E030E040E8E1
:102C80005FEB9FE3883920F0803E38F021968F7704
:102C90000E94F312ECE0F1E004C00E94F312E9E3B9
:102CA000F1E00E94B8158B01BE01EC01FB2E6F57BD
:102CB00071097595771F880B990B0E94071428E1FD
:102CC00032E741E35FE30E94CF14AF2D9801AE01DC
:102CD000FF900F911F91CF91DF910E940A130C94E6
:102CE0007D14FA01DC01AA0FBB1F9B01AC01BF5789
:102CF00028F4222733274427507820C0B75190F476
:102D0000AB2F0024469537952795011CA395D2F348
:102D1000002071F0220F331F441FB395DAF30ED059
:102D20000C94F21261307105A0E88A07B94630F4BC
:102D30009B01AC016627772788279078309621F091
:102D4000208331834283538308959F3F31F0915014
:102D500020F4879577956795B795880F911D96957F
:0A2D6000879597F90895F894FFCFC6
:102D6A00AF0000000000B4031E034B0301047C0300
:102D7A005A036E030D0A006E616E00696E66006F7B
:102D8A007666005374617274002D2D2D2D2D2D2D14
:102D9A002D2D2D2D2D2D2D2D2D2D2D2D2D2D2D2D59
:102DAA002D2D2D2D2D2D2D2D2D2D2D2D2D004F621F
:102DBA00737461636C653A200046696E6446697291
:102DCA00653A200072696768745F66726F6E745F35
:102DDA0050542069733A20006C6566745F66726F9E
:102DEA006E745F50542069733A20006261636B20ED
:102DFA0069733A200066726F6E742069733A200014
:102E0A0066726F6E7420646973742069733A200065
:102E1A006C656674206469616720646973742069EB
:102E2A00733A200072696768742064696167206474
:102E3A006973742069733A20004669726520436F8A
:0A2E4A00756E74732069733A20005E
:00000001FF
