:100000000C9488010C94B9010C94B9010C94B901B9
:100010000C94B9010C94B9010C94B9010C94B90178
:100020000C94B9010C94B9010C94B9010C94B90168
:100030000C94B9010C94B9010C94B9010C94B90158
:100040000C94B9010C9467080C94B9010C94B90193
:100050000C94B9010C94B9010C94B9010C943307B8
:100060000C94B9010C94B9010C94B9010C94B90128
:100070000C94B9010C94B9010C94B9010C94B90118
:100080000C9439080C94B9010C94B9010C94B90181
:100090000C94A7070C947D070C94B9010C94B9013A
:1000A0000C94B9010C94B9010C940B080C94B9018F
:1000B0000C94B9010C94B9010C94B9010C94DD07AE
:1000C0000C94B9010C94B9010C94B9010C94B901C8
:1000D0000C94B9010C94B9010C94B9010C94B901B8
:1000E0000C94B90107634236B79BD8A71A396856F2
:1000F00018AEBAAB558C1D3CB7CC5763BD6DEDFD4A
:10010000753EF6177231BF000000803F0800000006
:10011000BE922449123EABAAAA2ABECDCCCC4C3EFC
:1001200000000080BEABAAAAAA3E00000000BF00EB
:100130000000803F0000000000084178D3BB4387E7
:10014000D1133D190E3CC3BD4282AD2B3E68EC82FB
:1001500076BED98FE1A93E4C80EFFFBE01C4FF7F80
:100160003F00000000000C941A020C94AD0E0C9499
:100170001E020C9453030C9406020C9402020C947D
:10018000FE010C94EE010C944D0E0C9414020C9490
:10019000DF010C94380E0C94D40E0C94AD030C9427
:1001A000690E0C94E7010C9467030C94D10D0C9428
:1001B000EB010C94F4010C94970D0C9475030C94C2
:1001C00010020C94B0080C9444030C94D9010C94C4
:1001D000BB0D0C9417030C9419020C94E3010C94BE
:1001E000FA030C94F8010C947C0E0C940C020000A1
:1001F0002100240027002A002D00300033000101D7
:100200000000040107010A01000022002500280067
:100210002B002E003100340002010000050108010E
:100220000B01000020002300260029002C002F00D5
:100230003200000100000301060109010505050562
:10024000070508080808020202020A0A080804044E
:10025000040401010101010101010303030303037C
:100260000303040707070C0C0C0C0C0C0C0C02020B
:10027000020206060606060606060B0B0B0B0B0B08
:100280000B0B010210202008081020401020408095
:10029000020102010804020101020408102040804A
:1002A00080402010080402018004020180402010D8
:1002B0000804020108040201010204081020408021
:1002C000010204081020408000000A0B02090C0DF6
:1002D0000E080703040100000000000000000000F9
:1002E000000000000000000000000000000000000E
:1002F00000000000121110000000000000000000CB
:100300000000000000000000000000000000B00835
:1003100011241FBECFEFD1E2DEBFCDBF00E00CBF86
:1003200012E0A0E0B2E0E0E2F6E200E00BBF02C0C3
:1003300007900D92A432B107D9F723E0A4E2B2E00E
:1003400001C01D92A838B207E1F711E0C8E8D1E07A
:1003500000E006C021970109802FFE010E947E0F58
:10036000C738D10780E00807A9F70E94F0080C946D
:100370000E130C9400008150823108F05AC0E82F0F
:10038000F0E08827E953FE4F8F4F0C947E0FE70172
:10039000EB01D901DF01E3011902EE01F401F801DB
:1003A000FE01020206020C021002190214021A02D5
:1003B0001E02809180008F77809380000895809145
:1003C00080008F7DF9CF80918000877FF5CF84B545
:1003D0008F7784BD089584B58F7DFBCF8091B00069
:1003E0008F778093B00008958091B0008F7DF9CF12
:1003F000809190008F778093900008958091900075
:100400008F7DF9CF80919000877FF5CF8091A000FC
:100410008F778093A00008958091A0008F7DF9CF01
:100420008091A000877FF5CF809120018F77809306
:1004300020010895809120018F7DF9CF80912001C6
:10044000877FF5CFCF93DF93E9EFF2E08491E3EB81
:10045000F2E0D491EDE6F2E0C491CC23A1F0811159
:100460000E94BB01EC2FF0E0EE0FFF1FEE5DFD4F91
:10047000A591B491EC91ED2381E090E009F480E046
:10048000DF91CF91089580E090E0FACF1F93CF9352
:10049000DF93282F30E0F901E853FD4F8491F901F3
:1004A000EE57FD4FD491F901E45CFD4FC491CC238C
:1004B000A9F0162F81110E94BB01EC2FF0E0EE0F86
:1004C000FF1FE85FFD4FA591B4918FB7F894EC91B1
:1004D000111108C0D095DE23DC938FBFDF91CF913F
:1004E0001F910895DE2BF8CFCF93DF9390E0FC01AE
:1004F000EE57FD4F2491845C9D4FFC01849188232D
:10050000D1F090E0880F991FFC01E251FE4FA591B8
:10051000B491FC01E85FFD4FC591D49161110EC00B
:100520009FB7F8948C91E22FE0958E238C932881CD
:10053000E223E8839FBFDF91CF9108958FB7F894AE
:10054000EC91E22BEC938FBFF6CF865320917B008A
:10055000982F987F277F922B90937B0087708064E1
:1005600080937C0080917A00806480937A008091EF
:100570007A0086FDFCCF80917800909179000895F3
:100580003FB7F8948091D8029091D902A091DA02F5
:10059000B091DB0226B5A89B05C02F3F19F001964C
:1005A000A11DB11D3FBFBA2FA92F982F8827BC01CD
:1005B000CD01620F711D811D911D42E0660F771FF5
:1005C000881F991F4A95D1F708958F929F92AF92F5
:1005D000BF92CF92DF92EF92FF924B015C010E949B
:1005E000C0026B017C010E94C0026C197D098E095A
:1005F0009F09683E734081059105A8F321E0821AA6
:100600009108A108B10888EEC80E83E0D81EE11C4D
:10061000F11C81149104A104B10429F7FF90EF901B
:10062000DF90CF90BF90AF909F908F900895AF9242
:10063000BF92CF92DF92EF92FF920F931F93CF93CF
:10064000DF936C017B018B01040F151FEB015E0131
:10065000AE18BF08C017D10759F06991D601ED91C6
:10066000FC910190F081E02DC6011995892B79F755
:10067000C501DF91CF911F910F91FF90EF90DF9017
:10068000CF90BF90AF900895FC01538D448D252FDE
:1006900030E0842F90E0821B930B541710F0CF961C
:1006A000089501970895FC01918D828D981761F04E
:1006B000A28DAE0FBF2FB11D5D968C91928D9F5F65
:1006C0009F73928F90E008958FEF9FEF0895FC0144
:1006D000918D828D981731F0828DE80FF11D858DF7
:1006E00090E008958FEF9FEF0895FC01918D228D8A
:1006F000892F90E0805C9F4F821B91098F7399270F
:1007000008958CED92E00E94750321E0892B09F495
:1007100020E0822F0895FC01A48DA80FB92FB11DF0
:10072000A35ABF4F2C91848D90E001968F73992727
:10073000848FA689B7892C93A089B1898C91837005
:1007400080648C93938D848D981306C00288F389FE
:10075000E02D80818F7D80830895EF92FF920F932B
:100760001F93CF93DF93EC0181E0888F9B8D8C8D5D
:1007700098131AC0E889F989808185FF15C09FB751
:10078000F894EE89FF896083E889F9898081837014
:10079000806480839FBF81E090E0DF91CF911F91C3
:1007A0000F91FF90EF900895F62E0B8D10E00F5FE4
:1007B0001F4F0F731127E02E8C8D8E110CC00FB6BA
:1007C00007FCFACFE889F989808185FFF5CFCE0152
:1007D0000E948B03F1CFEB8DEC0FFD2FF11DE35A3F
:1007E000FF4FF0829FB7F8940B8FEA89FB898081D5
:1007F0008062CFCFCF93DF93EC01888D8823B9F04F
:10080000AA89BB89E889F9898C9185FD03C080811B
:1008100086FD0DC00FB607FCF7CF8C9185FFF2CF98
:10082000808185FFEDCFCE010E948B03E9CFDF9160
:10083000CF91089580E090E0892B49F080E090E02E
:10084000892B29F00E94000081110E94000080E0A5
:1008500090E0892B29F00E94810381110E94000001
:1008600080E090E0892B49F080E090E0892B29F02E
:100870000E94000081110E94000080E090E0892B1E
:1008800049F080E090E0892B29F00E94000081115E
:100890000C9400000895DC01EC91E03390F5119682
:1008A0008C91119728E830E0281B310987FD33959A
:1008B000220F331F220F331F6217730784F0129623
:1008C0008C9128E532E0281B310987FD3395220FF2
:1008D000331F220F331F621773070CF49B01225042
:1008E0003109220F331F4FB7F8948E2F90E0FC018F
:1008F000EE0FFF1FE80FF91FE35DFD4F32832183E9
:100900004FBF0895CF92DF92EF92FF92E9E7F3E0B5
:10091000218138E8C32ED12CC21AD10827FDD394E7
:10092000CC0CDD1CCC0CDD1C0D2C000CEE08FF08E3
:10093000428128E532E0241B310947FD3395220F1F
:10094000331F220F331F032E000C440B550B2C19A1
:100950003D094E095F09DC010E94390F24EB30E0AC
:1009600040E050E00E940F0FCA01B9016C0D7D1DDF
:100970008E1D9F1D89E793E0FF90EF90DF90CF9051
:100980000C944B041F93CF93DF93EC01162F8881B7
:10099000803308F04EC061E0812F0E94740288818C
:1009A000282F30E0F901EE0FFF1FE20FF31FE35D88
:1009B000FD4F1F736081607C612B608319821A82F6
:1009C0002CE0622F0E94720F829FB001112430E050
:1009D00020E0AB01420F531FFA01EE0FFF1FE40F9F
:1009E000F51FE35DFD4F908196FD16C02F5F3F4FD1
:1009F0002C30310571F7813009F51092800082E0CA
:100A0000809381001092850010928400B19A8091A9
:100A10006F00826080936F00E8818E2F90E0FC0170
:100A2000EE0FFF1FE80FF91FE35DFD4F808180642B
:100A300080838881DF91CF911F910895823061F486
:100A40001092900080939100109295001092940063
:100A500088BB80937100E0CF833069F41092A000CE
:100A600082E08093A1001092A5001092A40089BB9F
:100A700080937200D1CF8111CFCF1092200182E0FC
:100A80008093210110922501109224018ABB80934A
:100A90007300C2CFAF92BF92CF92DF92EF92FF92DC
:100AA0000F931F93CF93DF936B017A01EC01C85D25
:100AB000DD4F28813CE0389F8001399F100D1124C3
:100AC000A0902C02B12C27FF1FC0FB0111821082C5
:100AD00088818F5F888388819801280F311D87FD69
:100AE0003A95F6012A153B051CF488818C30C4F137
:100AF00080819181049680349C4908F473C0F6018A
:100B000080819181049670C088819801280F311DE1
:100B100087FD3A952A153B05DCF68881A801480F28
:100B2000511D87FD5A95FA01EE0FFF1FE40FF51FC7
:100B3000E35DFD4F808186FFCBCF8881F801E80F10
:100B4000F11D87FDFA95CF01EE0FFF1FE80FF91F8A
:100B5000E35DFD4F808160E08F730E944602B8CF55
:100B6000808191812881A801420F511D27FD5A954E
:100B70009A01FA01EE0FFF1FE20FF31FE35DFD4F35
:100B800021813281820F931FF701918380838881B5
:100B90009801280F311D87FD3A95F901EE0FFF1FCF
:100BA000E20FF31FE35DFD4F808186FF22C0888145
:100BB000080F111D87FD1A95F801EE0FFF1FE00FBA
:100BC000F11FE35DFD4F808161E08F73DF91CF9175
:100BD0001F910F91FF90EF90DF90CF90BF90AF905B
:100BE0000C94460280E49CE9F701918380838FEFA7
:100BF0008883DF91CF911F910F91FF90EF90DF904D
:100C0000CF90BF90AF9008954F925F926F927F9276
:100C10008F929F92AF92BF92CF92DF92EF92FF920C
:100C20000F931F93CF93DF93412C512C3201812CD2
:100C3000912C540103E010E0C3E2D0E060E080E3D7
:100C40000E944602C8010197F1F761E080E30E942B
:100C50004602CE010197F1F760E080E30E94460270
:100C60000E942202892B29F40E94C0024B015C01E0
:100C7000F7CF0E942202019729F40E94C0022B01A3
:100C80003C01F7CFC301B201681979098A099B09B0
:100C90000E946C102AE939E949EB50E40E94F80FF0
:100CA0006B017C01C0922402D0922502E0922602C0
:100CB000F092270220E030E0A9010E94F30F87FDA7
:100CC000BDCF61E070E080E090E00E94E502C701E6
:100CD000B601DF91CF911F910F91FF90EF90DF90C0
:100CE000CF90BF90AF909F908F907F906F905F90CC
:100CF0004F9008954F925F926F927F92AF92BF9202
:100D0000CF92DF92EF92FF920F931F93CF93DF93D7
:100D100084E40E94A5026C0182E40E94A5027C0189
:100D200083E40E94A5028C0185E40E94A5025C0177
:100D30000E9404062B013C0188EEC81683E0D80609
:100D400054F020E030E048EC52E4C301B2010E94CC
:100D5000F30F87FD63C088EEE81683E0F80654F0D1
:100D600020E030E048EC52E4C301B2010E94F30FEE
:100D700087FD5CC0D0E0C0E0083E83E0180754F077
:100D800020E030E048EC52E4C301B2010E94F30FCE
:100D900087FD53C0CE14DF0454F0C016D106D4F141
:100DA000CA14DB0474F5EC14FD040CF449C0E0161D
:100DB000F1064CF0EA14FB043CF50C151D0534F06B
:100DC0000E151F051CF00A151B050CF5AC14BD040F
:100DD00044F0AE14BF042CF0A016B10614F0C4E029
:100DE000D0E0CE01DF91CF911F910F91FF90EF9056
:100DF000DF90CF90BF90AF907F906F905F904F90BB
:100E00000895C3E0D0E0EDCFC2E0D0E0EACFC1E08A
:100E1000D0E0E7CFEC14FD049CF2C9CFC5E0D0E0F0
:100E200088EEE81683E0F8060CF4A6CFC6E0D0E022
:100E3000083E83E018070CF4ADCFC7E0D0E0D1CF77
:100E40000C151D0534F2BCCFFB0101900020E9F721
:100E50003197AF01461B570BDC01ED91FC910280ED
:100E6000F381E02D19941F920F920FB60F92112467
:100E70002F933F938F939F93AF93BF938091D4020F
:100E80009091D502A091D602B091D7023091D302B1
:100E900023E0230F2D3758F50196A11DB11D209396
:100EA000D3028093D4029093D502A093D602B0933C
:100EB000D7028091D8029091D902A091DA02B09124
:100EC000DB020196A11DB11D8093D8029093D90237
:100ED000A093DA02B093DB02BF91AF919F918F9103
:100EE0003F912F910F900FBE0F901F90189526E8FD
:100EF000230F0296A11DB11DD2CF1F920F920FB6E4
:100F00000F9211240BB60F922F933F934F935F9341
:100F10006F937F938F939F93AF93BF93EF93FF93C1
:100F20008CED92E00E948B03FF91EF91BF91AF9106
:100F30009F918F917F916F915F914F913F912F91F1
:100F40000F900BBE0F900FBE0F901F9018951F9221
:100F50000F920FB60F9211240BB60F922F938F930F
:100F60009F93EF93FF93E091EC02F091ED0280816B
:100F7000E091F202F091F30282FD1DC09081809118
:100F8000F5028F5F8F732091F602821741F0E09196
:100F9000F502F0E0E452FD4F958F8093F502FF914A
:100FA000EF919F918F912F910F900BBE0F900FBEDD
:100FB0000F901F9018958081F2CF1F920F920FB65D
:100FC0000F9211240BB60F922F933F934F935F9381
:100FD0006F937F938F939F93AF93BF93EF93FF9301
:100FE00048E251E064E271E090E080E00E944A054E
:100FF000FF91EF91BF91AF919F918F917F916F91F1
:101000005F914F913F912F910F900BBE0F900FBEAC
:101010000F901F9018951F920F920FB60F921124E8
:101020000BB60F922F933F934F935F936F937F93E2
:101030008F939F93AF93BF93EF93FF9348EA50E052
:1010400064EA70E083E090E00E944A05FF91EF912E
:10105000BF91AF919F918F917F916F915F914F91D0
:101060003F912F910F900BBE0F900FBE0F901F90CE
:1010700018951F920F920FB60F9211240BB60F9274
:101080002F933F934F935F936F937F938F939F9390
:10109000AF93BF93EF93FF9348E950E064E970E0AA
:1010A00082E090E00E944A05FF91EF91BF91AF91DD
:1010B0009F918F917F916F915F914F913F912F9170
:1010C0000F900BBE0F900FBE0F901F9018951F92A0
:1010D0000F920FB60F9211240BB60F922F933F93DE
:1010E0004F935F936F937F938F939F93AF93BF9330
:1010F000EF93FF9348E850E064E870E081E090E00F
:101100000E944A05FF91EF91BF91AF919F918F91FE
:101110007F916F915F914F913F912F910F900BBEF7
:101120000F900FBE0F901F901895FC0190912C020C
:10113000903398F481E0890F80932C029083892F5B
:1011400090E0FC01EE0FFF1FE80FF91FE35DFD4F7C
:1011500088EB9BE09283818308958FEF80830895CD
:10116000ECEDF2E01382128288EE93E0A0E0B0E0B2
:1011700084839583A683B78386E092E091838083FE
:101180008DEC90E0958784878CEC90E0978786873C
:1011900088EC90E0918B808B89EC90E0938B828B34
:1011A0008AEC90E0958B848B8EEC90E0978B868B0D
:1011B000118E128E138E148E85E893E00E9495088E
:1011C00082E893E00E9495088FE793E00E949508DB
:1011D0008CE793E00E94950889E793E00C949508CA
:1011E000CF93DF93CDB7DEB7E1970FB6F894DEBFAC
:1011F0000FBECDBF789484B5826084BD84B5816014
:1012000084BD85B5826085BD85B5816085BD8091D1
:101210006E00816080936E00109281008091810049
:101220008260809381008091810081608093810041
:10123000809180008160809380008091B100846003
:101240008093B1008091B00081608093B000809164
:1012500091008260809391008091910081608093E1
:101260009100809190008160809390008091A10016
:1012700082608093A1008091A10081608093A10091
:101280008091A00081608093A00080912101826004
:1012900080932101809121018160809321018091BF
:1012A000200181608093200180917A008460809386
:1012B0007A0080917A00826080937A0080917A002F
:1012C000816080937A0080917A00806880937A00B0
:1012D0001092C10068E873E180E090E00E94E502AE
:1012E0008CED92E09093D2028093D102E091EC02D7
:1012F000F091ED0282E08083E091E802F091E90252
:101300001082E091EA02F091EB0280E1808310927A
:10131000F402E091F002F091F10286E08083E09126
:10132000EE02F091EF02808180618083E091EE0215
:10133000F091EF02808188608083E091EE02F0916D
:10134000EF02808180688083E091EE02F091EF02ED
:1013500080818F7D808360E081E30E94740261E080
:1013600080E30E94740260E08AE30E94740260E0FD
:101370008BE30E94740260E08CE30E94740260E0E0
:101380008DE30E9474026EE270E085E893E00E94B3
:10139000C2046FE270E082E893E00E94C20462E35C
:1013A00070E08FE793E00E94C20463E370E08CE793
:1013B00093E00E94C2046BE070E089E793E00E9432
:1013C000C20460E085E40E94740204E610E085E453
:1013D0000E94A50265E070E080E090E00E94E502D6
:1013E00001501109A1F764E172E08CED92E00E94D6
:1013F00024076AE172E08CED92E00E942407222427
:101400002394312C80910002909101022091BD0221
:101410003091BE02820F931F853F21E092070CF0AE
:1014200050C090930102809300021092BE0210926D
:10143000BD02A2E0B0E0B093CE02A093CD02309204
:10144000D0022092CF020E947A0681309105E1F508
:101450009093CA028093C902E2E0F0E0F093C802E0
:10146000E093C7020E947A067C0184E40E94A502F0
:101470006C0182E40E94A5028C0183E40E94A50213
:10148000C016D10644F0C816D9060CF04FC00C1592
:101490001D050CF445C0081719070CF44AC082E07A
:1014A00090E0A6E0EA16F10409F046C0E3E0F0E0BF
:1014B000F093C002E093BF021092C2021092C102E8
:1014C0005DC084EF91E0ADCF8230910559F4309248
:1014D000CA022092C90223E030E03093C802209370
:1014E000C702C0CF8330910549F43092CA022092DE
:1014F000C9021092C8021092C702B4CF049759F4DF
:101500003092CA022092C90287E090E09093C8020C
:101510008093C702A7CF1092CA021092C902A2CF2D
:101520008017910734F490E080E0BBCF81E090E039
:10153000B8CF83E090E0B5CFF7E0EF16F10439F4CF
:1015400022E030E03093C0022093BF02B5CF35E0F7
:10155000E316F10409F0B0CF3092C2022092C1022A
:10156000A8E0B0E0B093C002A093BF028130910523
:1015700009F06DC28AE590E00E94820404E610E062
:101580001EA21FA218A619A6C12CD12C76018DE38C
:101590000E94A502BC01990F880B990B0E946C1048
:1015A0002CE934EC40E85FEB0E9489112B013C01EF
:1015B0002AE037ED43EA5BE3C701B6010E94870FDB
:1015C0006B017C0120E030E040E85FE30E94870F80
:1015D0009B01AC01C701B6010E94F80F4B015C01F1
:1015E00020E033E445E457E4C301B2010E941C113A
:1015F0002EA13FA148A559A50E94860FA5019401DF
:101600000E941C119B01AC016EA17FA188A599A528
:101610000E94870F6EA37FA388A799A70150110985
:10162000A5019401C701B6010E941C119B01AC01E8
:1016300060E070E080E89FE30E94860F6B017C0110
:101640000115110509F0A3CF2EA13FA148A559A569
:10165000CA01B9010E94F30F882341F080E09CE3A6
:10166000ACE1B6E48EA39FA3A8A7B9A70CE310E052
:101670001AA21BA21CA21DA2C12CD12C76018BE3A5
:101680000E94A502BC01990F880B990B0E946C1057
:1016900023E333E343E55FEB0E9489112B013C0117
:1016A0002AE037ED43E25CE3C701B6010E94870FF1
:1016B0006B017C0120E030E040E85FE30E94870F8F
:1016C0009B01AC01C701B6010E94F80F4B015C0100
:1016D0002DEC3CE04EE056E4C301B2010E941C1127
:1016E0002AA13BA14CA15DA10E94860FA5019401F6
:1016F0000E941C119B01AC016AA17BA18CA19DA140
:101700000E94870F6AA37BA38CA39DA3015011099C
:10171000A5019401C701B6010E941C119B01AC01F7
:1017200060E070E080E89FE30E94860F6B017C011F
:101730000115110509F0A3CF2AA13BA14CA15DA180
:10174000CA01B9010E94F30F882341F080E09CE3B5
:10175000ACE1B6E48AA39BA3ACA3BDA30CE310E069
:10176000412C512C3201730162018AE30E94A502CF
:10177000BC01990F880B990B0E946C102EEF34ED71
:1017800048E55FEB0E9489116AA77BA78CA79DA7FC
:101790002AE037ED43E25CE3C701B6010E94870F00
:1017A0006B017C0120E030E040E85FE30E94870F9E
:1017B0009B01AC01C701B6010E94F80F4B015C010F
:1017C00020E03CE041E256E46AA57BA58CA59DA5FE
:1017D0000E941C11A30192010E94860FA501940191
:1017E0000E941C119B01AC01C301B2010E94870F32
:1017F0002B013C0101501109A5019401C701B6015B
:101800000E941C119B01AC0160E070E080E89FE346
:101810000E94860F6B017C010115110509F0A5CF0F
:10182000A3019201C301B2010E94F30F882339F092
:10183000412C9CE3592E9CE1692E96E4792E04E616
:1018400010E0812C912C5401750164018CE30E94FD
:10185000A502BC01990F880B990B0E946C1020EA1D
:101860003AE14FE65FEB0E9489116EA77FA788AB34
:1018700099AB2AE037ED43E25CE3C701B6010E9471
:10188000870F6B017C0120E030E040E85FE30E94BD
:10189000870F9B01AC01C701B6010E94F80F6AA730
:1018A0007BA78CA79DA720E033E148E257E46EA513
:1018B0007FA588A999A90E941C11A50194010E94E5
:1018C000860F2AA53BA54CA55DA50E941C119B0176
:1018D000AC01C501B4010E94870F4B015C010150AE
:1018E00011092AA53BA54CA55DA5C701B6010E941B
:1018F0001C119B01AC0160E070E080E89FE30E9456
:10190000860F6B017C010115110509F09FCF20E0C6
:1019100030E048E452E4C501B4010E94860F6B0137
:101920007C01AC019B010E94F30F882339F0C12C8C
:101930008CE3D82E8CE1E82E86E4F82E0E94040673
:101940004B015C0120E030E048EC52E46AA17BA14D
:101950008CA19DA10E94F30F87FF0DC001E020E044
:101960003CE34CE156E46AA17BA18CA19DA10E94BD
:10197000F30F811101C000E020E030E048EC52E4B8
:101980006EA17FA188A599A50E94F30F87FF0CC0C7
:1019900020E03CE34CE156E46EA17FA188A599A527
:1019A0000E94F30F811101E020E030E048EC52E4A6
:1019B000C301B2010E94F30F87FF0BC011E020E0CA
:1019C0003CE34CE156E4C301B2010E94F30F8111E4
:1019D00001C010E020E030E048EC52E4C701B6015D
:1019E0000E94F30F87FF0AC020E03CE34CE156E47D
:1019F000C701B6010E94F30F811111E020E030E031
:101A000046E153E46AA17BA18CA19DA10E94F30F42
:101A100087FF0AC020E030E046E153E4C301B20191
:101A20000E94F30F87FD1FC020E030E048EC52E435
:101A3000C501B4010E94F30F87FD15C00111E1C17A
:101A40001111E2C11092C6021092C50216C0823076
:101A5000910519F48CE390E08FCD039709F08ECDBA
:101A600088E790E089CD3092C6022092C502A2E0BC
:101A7000B0E0B093C402A093C3028091CF029091D2
:101A8000D002019741F48091CD029091CE029093C3
:101A9000CC028093CB028091C9029091CA02019737
:101AA00041F48091C7029091C8029093CC02809338
:101AB000CB028091C5029091C602019741F48091BA
:101AC000C3029091C4029093CC028093CB02809188
:101AD000C1029091C202019741F48091BF0290919E
:101AE000C0029093CC028093CB02E091CB02F091A4
:101AF000CC02E930F10508F072C08827ED57F24FAB
:101B00008F4F0C947E0F970DBB0DD10D380E4D0EDF
:101B1000690E7C0EAD0ED40E3092C6022092C50224
:101B2000E5E0F0E0F093C402E093C302A6CF009199
:101B3000000210910102780134E2E31A3AEFF30A4D
:101B4000B70185E893E00E944B04B70182E893E077
:101B50000E944B048CED95E0DC01A01BB10B8D01C4
:101B6000B8018FE793E00E944B04B8018CE793E043
:101B70000E944B0414C100910002109101028CEDEF
:101B800095E07C01E01AF10AB70185E893E00E9434
:101B90004B04B70182E893E00E944B0404521A4FB1
:101BA000DFCF61E975E085E893E00E944B0461E9CD
:101BB00075E082E893E00E944B0461E975E08FE7ED
:101BC00093E00E944B0461E975E08CE793E00E948A
:101BD0004B0469E170E080E090E00E94E5020E9421
:101BE0007A064C016DE172E08091D1029091D202AF
:101BF0000E942407E090D102F090D202092C000C40
:101C0000AA08BB08B7FEE5C0D701ED91FC91019091
:101C1000F081E02D6DE2C701199522273327A90134
:101C2000281939094A095B0919A2FE01B1966F0109
:101C3000CA01B9012AE030E040E050E00E94410FC3
:101C4000605DD6016E936D01211531054105510589
:101C500079F7C114D10421F0B601C7010E9424070D
:101C60006AE172E0C7010E9424070E941A04CACBED
:101C700067E276E085E893E00E944B0467E276E055
:101C800082E893E00E944B0467E276E08FE793E0FE
:101C90000E944B0467E276E098CF00910002109119
:101CA00001028CED95E07C01E01AF10AB70185E8AC
:101CB00093E00E944B0404521A4FB80182E893E06B
:101CC0000E944B04B8018FE793E00E944B04B701D8
:101CD0004DCFC0900002D09001027601B4E2EB1A21
:101CE000BAEFFB0AB70185E893E00E944B040CEDC4
:101CF00015E00C191D09E1CFE0900002F0900102FF
:101D00000CED15E00E191F09B80185E893E00E945B
:101D10004B04B80182E893E00E944B04E4E2EE1A1F
:101D2000EAEFFE0AB7018FE793E00E944B04B70188
:101D30008CE793E00E944B0464E670E080E090E062
:101D40000E94E502B80185E893E00E944B04B801C7
:101D500082E893E00E944B0403CF809100029091AF
:101D600001020CED15E0081B190BB80185E893E0A2
:101D70000E944B04B80182E893E00E944B04B80132
:101D80008FE793E00E944B04B8018CE793E00E9438
:101D90004B0464EC79E080E090E00E94E50262E3AD
:101DA00070E080E090E019CF6CED75E085E893E09D
:101DB0000E944B046CED75E082E893E00E944B04B6
:101DC0006CED75E08FE793E00E944B046CED75E0DD
:101DD000CDCEA501940119A2FE01B1966F01CA01F1
:101DE000B9012AE030E040E050E00E94410F605D20
:101DF000D6016E936D01211531054105510579F725
:101E000028CF112309F488CE3092C6022092C50251
:101E100024E030E03093C4022093C3022ECE052E7E
:101E200097FB1EF400940E94260F57FD07D00E94D6
:101E3000410F07FC03D04EF40C94260F50954095AB
:101E4000309521953F4F4F4F5F4F08959095809566
:101E5000709561957F4F8F4F9F4F08950E94630F3C
:101E6000A59F900DB49F900DA49F800D911D1124EE
:101E70000895B7FF0C942E0F0E942E0F821B930B18
:101E80000895A1E21A2EAA1BBB1BFD010DC0AA1FBB
:101E9000BB1FEE1FFF1FA217B307E407F50720F0D3
:101EA000A21BB30BE40BF50B661F771F881F991F4E
:101EB0001A9469F760957095809590959B01AC0197
:101EC000BD01CF010895A29FB001B39FC001A39FA0
:101ED000700D811D1124911DB29F700D811D112463
:101EE000911D0895991B79E004C0991F961708F079
:101EF000961B881F7A95C9F780950895EE0FFF1FEE
:101F0000881F8BBF0790F691E02D19945058BB277E
:101F1000AA270E949E0F0C94E2100E94D41038F061
:101F20000E94DB1020F039F49F3F19F426F40C9442
:101F3000D1100EF4E095E7FB0C94CB10E92F0E9432
:101F4000F31058F3BA17620773078407950720F058
:101F500079F4A6F50C9415110EF4E0950B2EBA2F1A
:101F6000A02D0B01B90190010C01CA01A00111249F
:101F7000FF27591B99F0593F50F4503E68F11A164B
:101F8000F040A22F232F342F4427585FF3CF4695DC
:101F900037952795A795F0405395C9F77EF41F16FE
:101FA000BA0B620B730B840BBAF09150A1F0FF0FC8
:101FB000BB1F661F771F881FC2F70EC0BA0F621FB4
:101FC000731F841F48F4879577956795B795F795A4
:101FD0009E3F08F0B0CF9395880F08F09927EE0F39
:101FE0009795879508950E94A71008F481E00895B9
:101FF0000E940C100C94E2100E94DB1058F00E941A
:10200000D41040F029F45F3F29F00C94CB1051110B
:102010000C9416110C94D1100E94F31068F39923BC
:10202000B1F3552391F3951B550BBB27AA276217D4
:102030007307840738F09F5F5F4F220F331F441FE1
:10204000AA1FA9F335D00E2E3AF0E0E832D0915015
:102050005040E695001CCAF72BD0FE2F29D0660F02
:10206000771F881FBB1F261737074807AB07B0E845
:1020700009F0BB0B802DBF01FF2793585F4F3AF04B
:102080009E3F510578F00C94CB100C9416115F3FD5
:10209000E4F3983ED4F3869577956795B795F795D1
:1020A0009F5FC9F7880F911D9695879597F90895B9
:1020B000E1E0660F771F881FBB1F62177307840755
:1020C000BA0720F0621B730B840BBA0BEE1F88F764
:1020D000E0950895E89409C097FB3EF490958095AB
:1020E000709561957F4F8F4F9F4F9923A9F0F92FDE
:1020F00096E9BB279395F695879577956795B7955C
:10210000F111F8CFFAF4BB0F11F460FF1BC06F5F41
:102110007F4F8F4F9F4F16C0882311F096E911C053
:10212000772321F09EE8872F762F05C0662371F074
:1021300096E8862F70E060E02AF09A95660F771F88
:10214000881FDAF7880F9695879597F90895990F64
:102150000008550FAA0BE0E8FEEF16161706E80771
:10216000F907C0F012161306E407F50798F0621B92
:10217000730B840B950B39F40A2661F0232B242B67
:10218000252B21F408950A2609F4A140A6958FEF86
:10219000811D811D089597F99F6780E870E060E0D8
:1021A00008959FEF80EC089500240A9416161706F0
:1021B00018060906089500240A9412161306140638
:1021C00005060895092E0394000C11F4882352F09B
:1021D000BB0F40F4BF2B11F460FF04C06F5F7F4F53
:1021E0008F4F9F4F089557FD9058440F551F59F03A
:1021F0005F3F71F04795880F97FB991F61F09F3FF4
:1022000079F087950895121613061406551FF2CF1C
:102210004695F1DF08C0161617061806991FF1CF6C
:1022200086957105610508940895E894BB27662793
:102230007727CB0197F908950E942F110C94E21093
:102240000E94D41038F00E94DB1020F0952311F08A
:102250000C94CB100C94D11011240C9416110E94E4
:10226000F31070F3959FC1F3950F50E0551F629FD7
:10227000F001729FBB27F00DB11D639FAA27F00DDF
:10228000B11DAA1F649F6627B00DA11D661F829F06
:102290002227B00DA11D621F739FB00DA11D621FEB
:1022A000839FA00D611D221F749F3327A00D611D08
:1022B000231F849F600D211D822F762F6A2F1124EA
:1022C0009F5750409AF0F1F088234AF0EE0FFF1F1D
:1022D000BB1F661F771F881F91505040A9F79E3F74
:1022E000510580F00C94CB100C9416115F3FE4F371
:1022F000983ED4F3869577956795B795F795E795CA
:102300009F5FC1F7FE2B880F911D9695879597F9D2
:102310000895FA01EE0FFF1F309621053105A1F156
:102320006115710561F48038BFE39B0749F168943A
:102330009038810561F08038BFEF9B0741F0992309
:102340004AF5FF3FE1053105210519F1E8940894AC
:10235000E795D901AA2329F4AB2FBE2FF85FD0F35C
:1023600010C0FF5F70F4A695E0F7F73950F019F050
:10237000FF3A38F49F779F930DD00F9007FC905849
:10238000089546F00C94D11060E070E080E89FE37F
:1023900008954FE79F775F934F933F932F930E944A
:1023A00084122F913F914F915F910E941C110C94C8
:1023B000E11129F416F00C94CB100C9415110C9427
:1023C000D1100E94FB10A8F39638A0F707F80F92DF
:1023D000E8942BE33AEA48EB5FE70E9432110F9250
:1023E0000F920F924DB75EB70F920E94CC12E4EE9F
:1023F000F0E00E9413124F915F91EF91FF91E595EC
:10240000EE1FFF1F49F0FE57E0684427EE0F441F00
:10241000FA95E1F74195550B0E9446120F9007FE81
:102420000C943A120895DF93CF931F930F93FF926A
:10243000EF92DF927B018C01689406C0DA2EEF01E7
:102440000E942F11FE01E894A591259135914591A7
:102450005591A6F3EF010E949E0FFE019701A8017E
:10246000DA9469F7DF90EF90FF900F911F91CF9171
:10247000DF9108959B01AC0160E070E080E89FE38C
:102480000C94F80F0C94CB100C9400130E94FB10CA
:10249000D8F39923C9F3940F511DA3F391505040E1
:1024A00094F059F0882332F0660F771F881F9150FF
:1024B0005040C1F79E3F51052CF7880F911D96950E
:1024C000879597F908955F3FACF0983E9CF0BB2745
:1024D000869577956795B79508F4B1609395C1F7A0
:1024E000BB0F58F711F460FFE8CF6F5F7F4F8F4F3E
:1024F0009F4FE3CF0C94161116F00C9400130C941C
:10250000D11068940C94CB100E94FB10A8F399236F
:10251000C1F3AEF3DF93CF931F930F93FF92C92FB5
:10252000DD2788232AF02197660F771F881FDAF7A7
:1025300020E030E040E85FEB9FE3883920F0803E08
:1025400038F021968F770E94870FECE0F1E004C00D
:102550000E94870FE9E3F1E00E9413128B01BE0194
:10256000EC01FB2E6F5771097595771F880B990B3E
:102570000E946C1028E132E741E35FE30E942F11D3
:10258000AF2D9801AE01FF900F911F91CF91DF9178
:102590000E949E0F0C94E210FA01DC01AA0FBB1FEF
:1025A0009B01AC01BF5728F42227332744275078DA
:1025B00020C0B75190F4AB2F00244695379527954E
:1025C000011CA395D2F3002071F0220F331F441F8A
:1025D000B395DAF30ED00C94860F61307105A0E844
:1025E0008A07B94630F49B01AC0166277727882714
:1025F0009078309621F0208331834283538308956D
:102600009F3F31F0915020F4879577956795B79566
:10261000880F911D9695879597F90895F894FFCFA7
:10262000AF0000000000AD0317034403FA03750375
:10263000530367035374617274000D0A0056616C92
:042640003A2000003C
:00000001FF
