:100000000C9488010C94B9010C94B9010C94B901B9
:100010000C94B9010C94B9010C94B9010C94B90178
:100020000C94B9010C94B9010C94B9010C94B90168
:100030000C94B9010C94B9010C94B9010C94B90158
:100040000C94B9010C94FC0B0C94B9010C94B901FB
:100050000C94B9010C94B9010C94B9010C94C80A20
:100060000C94B9010C94B9010C94B9010C94B90128
:100070000C94B9010C94B9010C94B9010C94B90118
:100080000C94CE0B0C94B9010C94B9010C94B901E9
:100090000C943C0B0C94120B0C94B9010C94B90108
:1000A0000C94B9010C94B9010C94A00B0C94B901F7
:1000B0000C94B9010C94B9010C94B9010C94720B15
:1000C0000C94B9010C94B9010C94B9010C94B901C8
:1000D0000C94B9010C94B9010C94B9010C94B901B8
:1000E0000C94B90107634236B79BD8A71A396856F2
:1000F00018AEBAAB558C1D3CB7CC5763BD6DEDFD4A
:10010000753EF6177231BF000000803F0800000006
:10011000BE922449123EABAAAA2ABECDCCCC4C3EFC
:1001200000000080BEABAAAAAA3E00000000BF00EB
:100130000000803F0000000000084178D3BB4387E7
:10014000D1133D190E3CC3BD4282AD2B3E68EC82FB
:1001500076BED98FE1A93E4C80EFFFBE01C4FF7F80
:100160003F00000000000C94650F0C940F0F0C94DE
:1001700014020C94D40F0C941A020C94A30F0C9438
:1001800041100C94FE010C940C020C94E70F0C949B
:10019000FA030C941E100C94F4010C94D9010C94E5
:1001A000EB010C9419020C94E3010C94450C0C9493
:1001B00044030C9410020C9453030C9417030C94F6
:1001C000F8010C94EE010C94DF010C94860F0C9452
:1001D00067030C94AD030C94B80F0C9406020C94B6
:1001E0001E020C94E7010C9475030C9402020000AB
:1001F0002100240027002A002D00300033000101D7
:100200000000040107010A01000022002500280067
:100210002B002E003100340002010000050108010E
:100220000B01000020002300260029002C002F00D5
:100230003200000100000301060109010505050562
:10024000070508080808020202020A0A080804044E
:10025000040401010101010101010303030303037C
:100260000303040707070C0C0C0C0C0C0C0C02020B
:10027000020206060606060606060B0B0B0B0B0B08
:100280000B0B010210202008081020401020408095
:10029000020102010804020101020408102040804A
:1002A00080402010080402018004020180402010D8
:1002B0000804020108040201010204081020408021
:1002C000010204081020408000000A0B02090C0DF6
:1002D0000E080703040100000000000000000000F9
:1002E000000000000000000000000000000000000E
:1002F00000000000121110000000000000000000CB
:100300000000000000000000000000000000450C9C
:1003100011241FBECFEFD1E2DEBFCDBF00E00CBF86
:1003200012E0A0E0B2E0EEE5FAE200E00BBF02C0AE
:1003300007900D92A039B107D9F723E0A0E9B2E008
:1003400001C01D92AA3FB207E1F711E0C8E8D1E071
:1003500000E006C021970109802FFE010E949D1137
:10036000C738D10780E00807A9F70E94850C0C94D4
:100370002D150C9400008150823108F05AC0E82FEE
:10038000F0E08827E953FE4F8F4F0C949D11E70151
:10039000EB01D901DF01E3011902EE01F401F801DB
:1003A000FE01020206020C021002190214021A02D5
:1003B0001E02809180008F77809380000895809145
:1003C00080008F7DF9CF80918000877FF5CF84B545
:1003D0008F7784BD089584B58F7DFBCF8091B00069
:1003E0008F778093B00008958091B0008F7DF9CF12
:1003F000809190008F778093900008958091900075
:100400008F7DF9CF80919000877FF5CF8091A000FC
:100410008F778093A00008958091A0008F7DF9CF01
:100420008091A000877FF5CF809120018F77809306
:1004300020010895809120018F7DF9CF80912001C6
:10044000877FF5CFCF93DF93E9EFF2E08491E3EB81
:10045000F2E0D491EDE6F2E0C491CC23A1F0811159
:100460000E94BB01EC2FF0E0EE0FFF1FEE5DFD4F91
:10047000A591B491EC91ED2381E090E009F480E046
:10048000DF91CF91089580E090E0FACF1F93CF9352
:10049000DF93282F30E0F901E853FD4F8491F901F3
:1004A000EE57FD4FD491F901E45CFD4FC491CC238C
:1004B000A9F0162F81110E94BB01EC2FF0E0EE0F86
:1004C000FF1FE85FFD4FA591B4918FB7F894EC91B1
:1004D000111108C0D095DE23DC938FBFDF91CF913F
:1004E0001F910895DE2BF8CFCF93DF9390E0FC01AE
:1004F000EE57FD4F2491845C9D4FFC01849188232D
:10050000D1F090E0880F991FFC01E251FE4FA591B8
:10051000B491FC01E85FFD4FC591D49161110EC00B
:100520009FB7F8948C91E22FE0958E238C932881CD
:10053000E223E8839FBFDF91CF9108958FB7F894AE
:10054000EC91E22BEC938FBFF6CF865320917B008A
:10055000982F987F277F922B90937B0087708064E1
:1005600080937C0080917A00806480937A008091EF
:100570007A0086FDFCCF80917800909179000895F3
:100580003FB7F89480914A0390914B03A0914C039C
:10059000B0914D0326B5A89B05C02F3F19F00196D9
:1005A000A11DB11D3FBFBA2FA92F982F8827BC01CD
:1005B000CD01620F711D811D911D42E0660F771FF5
:1005C000881F991F4A95D1F708958F929F92AF92F5
:1005D000BF92CF92DF92EF92FF924B015C010E949B
:1005E000C0026B017C010E94C0026C197D098E095A
:1005F0009F09683E734081059105A8F321E0821AA6
:100600009108A108B10888EEC80E83E0D81EE11C4D
:10061000F11C81149104A104B10429F7FF90EF901B
:10062000DF90CF90BF90AF909F908F900895AF9242
:10063000BF92CF92DF92EF92FF920F931F93CF93CF
:10064000DF936C017B018B01040F151FEB015E0131
:10065000AE18BF08C017D10759F06991D601ED91C6
:10066000FC910190F081E02DC6011995892B79F755
:10067000C501DF91CF911F910F91FF90EF90DF9017
:10068000CF90BF90AF900895FC01538D448D252FDE
:1006900030E0842F90E0821B930B541710F0CF961C
:1006A000089501970895FC01918D828D981761F04E
:1006B000A28DAE0FBF2FB11D5D968C91928D9F5F65
:1006C0009F73928F90E008958FEF9FEF0895FC0144
:1006D000918D828D981731F0828DE80FF11D858DF7
:1006E00090E008958FEF9FEF0895FC01918D228D8A
:1006F000892F90E0805C9F4F821B91098F7399270F
:1007000008958EE493E00E94750321E0892B09F49B
:1007100020E0822F0895FC01A48DA80FB92FB11DF0
:10072000A35ABF4F2C91848D90E001968F73992727
:10073000848FA689B7892C93A089B1898C91837005
:1007400080648C93938D848D981306C00288F389FE
:10075000E02D80818F7D80830895EF92FF920F932B
:100760001F93CF93DF93EC0181E0888F9B8D8C8D5D
:1007700098131AC0E889F989808185FF15C09FB751
:10078000F894EE89FF896083E889F9898081837014
:10079000806480839FBF81E090E0DF91CF911F91C3
:1007A0000F91FF90EF900895F62E0B8D10E00F5FE4
:1007B0001F4F0F731127E02E8C8D8E110CC00FB6BA
:1007C00007FCFACFE889F989808185FFF5CFCE0152
:1007D0000E948B03F1CFEB8DEC0FFD2FF11DE35A3F
:1007E000FF4FF0829FB7F8940B8FEA89FB898081D5
:1007F0008062CFCFCF93DF93EC01888D8823B9F04F
:10080000AA89BB89E889F9898C9185FD03C080811B
:1008100086FD0DC00FB607FCF7CF8C9185FFF2CF98
:10082000808185FFEDCFCE010E948B03E9CFDF9160
:10083000CF91089580E090E0892B49F080E090E02E
:10084000892B29F00E94000081110E94000080E0A5
:1008500090E0892B29F00E94810381110E94000001
:1008600080E090E0892B49F080E090E0892B29F02E
:100870000E94000081110E94000080E090E0892B1E
:1008800049F080E090E0892B29F00E94000081115E
:100890000C9400000895DC01EC91E03390F5119682
:1008A0008C91119728E830E0281B310987FD33959A
:1008B000220F331F220F331F6217730784F0129623
:1008C0008C9128E532E0281B310987FD3395220FF2
:1008D000331F220F331F621773070CF49B01225042
:1008E0003109220F331F4FB7F8948E2F90E0FC018F
:1008F000EE0FFF1FE80FF91FEF54FD4F32832183E6
:100900004FBF0895CF92DF92EF92FF92EBEEF3E0AC
:10091000218138E8C32ED12CC21AD10827FDD394E7
:10092000CC0CDD1CCC0CDD1C0D2C000CEE08FF08E3
:10093000428128E532E0241B310947FD3395220F1F
:10094000331F220F331F032E000C440B550B2C19A1
:100950003D094E095F09DC010E94581124EB30E08B
:1009600040E050E00E942E11CA01B9016C0D7D1DBE
:100970008E1D9F1D8BEE93E0FF90EF90DF90CF9048
:100980000C944B041F93CF93DF93EC01162F8881B7
:10099000803308F04EC061E0812F0E94740288818C
:1009A000282F30E0F901EE0FFF1FE20FF31FEF5485
:1009B000FD4F1F736081607C612B608319821A82F6
:1009C0002CE0622F0E949111829FB001112430E02F
:1009D00020E0AB01420F531FFA01EE0FFF1FE40F9F
:1009E000F51FEF54FD4F908196FD16C02F5F3F4FCE
:1009F0002C30310571F7813009F51092800082E0CA
:100A0000809381001092850010928400B19A8091A9
:100A10006F00826080936F00E8818E2F90E0FC0170
:100A2000EE0FFF1FE80FF91FEF54FD4F8081806428
:100A300080838881DF91CF911F910895823061F486
:100A40001092900080939100109295001092940063
:100A500088BB80937100E0CF833069F41092A000CE
:100A600082E08093A1001092A5001092A40089BB9F
:100A700080937200D1CF8111CFCF1092200182E0FC
:100A80008093210110922501109224018ABB80934A
:100A90007300C2CFAF92BF92CF92DF92EF92FF92DC
:100AA0000F931F93CF93DF936B017A01EC01CC5628
:100AB000DD4F28813CE0389F8001399F100D1124C3
:100AC000A0909802B12C27FF1FC0FB011182108259
:100AD00088818F5F888388819801280F311D87FD69
:100AE0003A95F6012A153B051CF488818C30C4F137
:100AF00080819181049680349C4908F473C0F6018A
:100B000080819181049670C088819801280F311DE1
:100B100087FD3A952A153B05DCF68881A801480F28
:100B2000511D87FD5A95FA01EE0FFF1FE40FF51FC7
:100B3000EF54FD4F808186FFCBCF8881F801E80F0D
:100B4000F11D87FDFA95CF01EE0FFF1FE80FF91F8A
:100B5000EF54FD4F808160E08F730E944602B8CF52
:100B6000808191812881A801420F511D27FD5A954E
:100B70009A01FA01EE0FFF1FE20FF31FEF54FD4F32
:100B800021813281820F931FF701918380838881B5
:100B90009801280F311D87FD3A95F901EE0FFF1FCF
:100BA000E20FF31FEF54FD4F808186FF22C0888142
:100BB000080F111D87FD1A95F801EE0FFF1FE00FBA
:100BC000F11FEF54FD4F808161E08F73DF91CF9172
:100BD0001F910F91FF90EF90DF90CF90BF90AF905B
:100BE0000C94460280E49CE9F701918380838FEFA7
:100BF0008883DF91CF911F910F91FF90EF90DF904D
:100C0000CF90BF90AF9008954F925F926F927F9276
:100C10008F929F92AF92BF92CF92DF92EF92FF920C
:100C20000F931F93CF93DF93412C512C3201812CD2
:100C3000912C540103E010E0C3E2D0E060E080E3D7
:100C40000E944602C8010197F1F761E080E30E942B
:100C50004602CE010197F1F760E080E30E94460270
:100C60000E942202892B29F40E94C0024B015C01E0
:100C7000F7CF0E942202019729F40E94C0022B01A3
:100C80003C01F7CFC301B201681979098A099B09B0
:100C90000E948B122AE939E949EB50E40E941712AD
:100CA0006B017C01C0929002D0929102E09292027C
:100CB000F092930220E030E0A9010E94121287FD19
:100CC000BDCF61E070E080E090E00E94E502C701E6
:100CD000B601DF91CF911F910F91FF90EF90DF90C0
:100CE000CF90BF90AF909F908F907F906F905F90CC
:100CF0004F900895CF92DF92EF92FF920F931F9340
:100D0000CF93DF9384E40E94A5026C0182E40E94E9
:100D1000A502EC0183E40E94A5028C0185E40E94F7
:100D2000A5027C010E9404062EEDC21623E0D20625
:100D300044F020E030E048EC52E40E94121287FDBB
:100D400036C0CC16DD065CF0C016D106DCF183E0BF
:100D500090E0CE14DF046CF5CC15DD05BCF1C017B6
:100D6000D1074CF0CE15DF05FCF40C151D0544F041
:100D70000C171D072CF081E090E00E151F05CCF438
:100D8000EC14FD0444F0EC16FD062CF084E090E039
:100D9000E016F10674F4C01BD10BCD59DF4F90E083
:100DA00080E0C73CD10528F482E090E002C085E0F5
:100DB00090E0DF91CF911F910F91FF90EF90DF9026
:100DC000CF900895CC15DD059CF2C9CF0C151D05FB
:100DD000D4F2CECFFB0101900020E9F73197AF01AB
:100DE000461B570BDC01ED91FC910280F381E02D55
:100DF00019944F925F926F927F928F929F92AF92CF
:100E0000BF92CF92DF92EF92FF920F931F93CF93F7
:100E1000DF93CDB7DEB7A1970FB6F894DEBF0FBE54
:100E2000CDBF8C016B01770FEE08FF08F7FE50C0B5
:100E3000DC01ED91FC910190F081E02D6DE21995BE
:100E40005C0122273327A9012C193D094E095F09AE
:100E500019A2FE01B1967F019AE0492E512C612C16
:100E6000712CCA01B901A30192010E946011605D59
:100E7000D7016E937D01211531054105510589F793
:100E800090E080E0109721F0BD01C8010E94EA06C1
:100E9000A80EB91E64E172E0C8010E94EA068A0D3C
:100EA0009B1DA1960FB6F894DEBF0FBECDBFDF919C
:100EB000CF911F910F91FF90EF90DF90CF90BF9057
:100EC000AF909F908F907F906F905F904F9008951C
:100ED000A701960119A2FE01B1967F018AE0882E32
:100EE000912CA12CB12CCA01B901A50194010E9439
:100EF0006011605DD7016E937D01211531054105BB
:100F0000510589F7B12CA12C109721F2BD01C80120
:100F10000E94EA065C01BECF0F931F93CF93DF932D
:100F2000EC010E94EA068C0164E172E0CE010E94AD
:100F3000EA06800F911FDF91CF911F910F910895C5
:100F40004F925F926F927F928F929F92AF92BF92D9
:100F5000CF92DF92EF92FF92CF93DF9300D000D039
:100F6000CDB7DEB78CE390E09E838D83812C912CEE
:100F70005401750164018BE30E94A502BC01990F25
:100F8000880B990B0E948B1223E333E343E55FEB5D
:100F90000E94A81369837A838B839C832AE037EDB0
:100FA00043E25CE3C501B4010E94A6114B015C0160
:100FB00020E030E040E85FE30E94A6119B01AC0115
:100FC000C501B4010E9417122B013C012DEC3CE03D
:100FD0004EE056E469817A818B819C810E943B13AB
:100FE000A70196010E94A511A30192010E943B1343
:100FF0009B01AC01C701B6010E94A6116B017C01E7
:101000008D819E8101979E838D83A3019201C501ED
:10101000B4010E943B139B01AC0160E070E080E8EA
:101020009FE30E94A5114B015C018D819E81892B5C
:1010300009F0A1CFA7019601C701B6010E941212C3
:10104000882339F0C12C8CE3D82E8CE1E82E86E47D
:10105000F82EC701B60126960FB6F894DEBF0FBE74
:10106000CDBFDF91CF91FF90EF90DF90CF90BF90F9
:10107000AF909F908F907F906F905F904F9008956A
:101080004F925F926F927F928F929F92AF92BF9298
:10109000CF92DF92EF92FF92CF93DF9300D000D0F8
:1010A000CDB7DEB78CE390E09E838D83812C912CAD
:1010B0005401750164018AE30E94A502BC01990FE5
:1010C000880B990B0E948B122EEF34ED48E55FEBF5
:1010D0000E94A81369837A838B839C832AE037ED6F
:1010E00043E25CE3C501B4010E94A6114B015C011F
:1010F00020E030E040E85FE30E94A6119B01AC01D4
:10110000C501B4010E9417122B013C0120E03CE014
:1011100041E256E469817A818B819C810E943B1374
:10112000A70196010E94A511A30192010E943B1301
:101130009B01AC01C701B6010E94A6116B017C01A5
:101140008D819E8101979E838D83A3019201C501AC
:10115000B4010E943B139B01AC0160E070E080E8A9
:101160009FE30E94A5114B015C018D819E81892B1B
:1011700009F0A1CFA7019601C701B6010E94121282
:10118000882339F0C12C8CE3D82E8CE1E82E86E43C
:10119000F82EC701B60126960FB6F894DEBF0FBE33
:1011A000CDBFDF91CF91FF90EF90DF90CF90BF90B8
:1011B000AF909F908F907F906F905F904F90089529
:1011C0002F923F924F925F926F927F928F929F9257
:1011D000AF92BF92CF92DF92EF92FF920F931F9345
:1011E000CF93DF93CDB7DEB762970FB6F894DEBF2B
:1011F0000FBECDBF84E690E09E838D83812C912C21
:101200005401750164018DE30E94A502BC01990F90
:10121000880B990B0E948B122CE934EC40E85FEBB1
:101220000E94A81369837A838B839C832AE037ED1D
:1012300043EA5BE3C701B6010E94A6116B017C0182
:1012400020E030E040E85FE30E94A6119B01AC0182
:10125000C701B6010E9417122B013C0120E033E4C4
:1012600045E457E469817A818B819C810E943B131C
:10127000A50194010E94A511A30192010E943B13B4
:101280009B01AC01C501B4010E94A6114B015C0198
:101290008D819E8101979E838D83A3019201C70159
:1012A000B6010E943B139B01AC0160E070E080E856
:1012B0009FE30E94A5116B017C018D819E81892B8A
:1012C00009F0A1CFA5019401C501B4010E94121239
:1012D000882339F0812C9CE3992E9CE1A92E96E479
:1012E000B92E0E94A00769837A838B839C830E9416
:1012F00040086D837E838F83988784E690E09A8B85
:10130000898B412C512C3201730162018CE30E94C4
:10131000A502BC01990F880B990B0E948B1220EA41
:101320003AE14FE65FEB0E94A8136D877E878F87B7
:10133000988B2AE037ED43E25CE3C701B6010E94D7
:10134000A6116B017C0120E030E040E85FE30E94E1
:10135000A6119B01AC01C701B6010E941712698753
:101360007A878B879C8720E033E148E257E46D85DC
:101370007E858F8598890E943B13A30192010E946C
:10138000A51129853A854B855C850E943B139B01FD
:10139000AC01C301B2010E94A6112B013C01898955
:1013A0009A8901979A8B898B29853A854B855C852B
:1013B000C701B6010E943B139B01AC0160E070E0E5
:1013C00080E89FE30E94A5116B017C0189899A89BD
:1013D000892B09F09BCF20E030E048E452E4C301C0
:1013E000B2010E94A5116B017C01AC019B010E941E
:1013F0001212882339F0C12C8CE3D82E8CE1E82E10
:1014000086E4F82E0E9404061B012C0184E40E944D
:10141000A5023C0120E030E042ED52E469817A818E
:101420008B819C810E94121287FF0EC091E09D87E4
:1014300020E03CE34CE156E469817A818B819C8118
:101440000E941212811101C01D8620E030E04CE89C
:1014500052E4C501B4010E94121287FF0CC020E0C3
:101460003CE34CE156E4C501B4010E94121288230A
:1014700011F081E08D8720E030E042ED52E46D8193
:101480007E818F8198850E94121287FF0EC091E0A5
:10149000998720E03CE34CE156E46D817E818F81A9
:1014A00098850E941212811101C0198620E030E057
:1014B0004CE852E4C701B6010E94121287FF0CC02B
:1014C00020E03CE34CE156E4C701B6010E94121251
:1014D000882311F081E0898720E030E048EC52E475
:1014E00069817A818B819C810E94121287FF0CC0D6
:1014F00020E030E048EC52E46D817E818F81988558
:101500000E94121287FD17C020E030E040EF52E445
:10151000C201B1010E94121287FD0DC09D8502E03B
:1015200010E0911102C010E000E09985992329F0A4
:1015300003E010E002C004E010E08EED681683E0E6
:10154000780664F020E030E048EC52E4C201B101DA
:101550000E94121287FF02C007E010E0C8016296E5
:101560000FB6F894DEBF0FBECDBFDF91CF911F91B4
:101570000F91FF90EF90DF90CF90BF90AF909F9032
:101580008F907F906F905F904F903F902F90089535
:101590001F920F920FB60F9211242F933F938F93A8
:1015A0009F93AF93BF938091460390914703A0917F
:1015B0004803B09149033091450323E0230F2D37B1
:1015C00058F50196A11DB11D209345038093460354
:1015D00090934703A0934803B093490380914A0333
:1015E00090914B03A0914C03B0914D030196A11D26
:1015F000B11D80934A0390934B03A0934C03B09387
:101600004D03BF91AF919F918F913F912F910F907B
:101610000FBE0F901F90189526E8230F0296A11D6C
:10162000B11DD2CF1F920F920FB60F9211240BB69D
:101630000F922F933F934F935F936F937F938F936B
:101640009F93AF93BF93EF93FF938EE493E00E9439
:101650008B03FF91EF91BF91AF919F918F917F91FC
:101660006F915F914F913F912F910F900BBE0F9013
:101670000FBE0F901F9018951F920F920FB60F92EA
:1016800011240BB60F922F938F939F93EF93FF9399
:10169000E0915E03F0915F038081E0916403F0913B
:1016A000650382FD1DC09081809167038F5F8F73FA
:1016B00020916803821741F0E0916703F0E0E25B5C
:1016C000FC4F958F80936703FF91EF919F918F91CE
:1016D0002F910F900BBE0F900FBE0F901F9018957B
:1016E0008081F2CF1F920F920FB60F9211240BB68A
:1016F0000F922F933F934F935F936F937F938F93AB
:101700009F93AF93BF93EF93FF9348E251E064E25E
:1017100071E090E080E00E944A05FF91EF91BF9157
:10172000AF919F918F917F916F915F914F913F9179
:101730002F910F900BBE0F900FBE0F901F9018951A
:101740001F920F920FB60F9211240BB60F922F9388
:101750003F934F935F936F937F938F939F93AF9339
:10176000BF93EF93FF9348EA50E064EA70E083E0B0
:1017700090E00E944A05FF91EF91BF91AF919F9138
:101780008F917F916F915F914F913F912F910F902A
:101790000BBE0F900FBE0F901F9018951F920F92C7
:1017A0000FB60F9211240BB60F922F933F934F93C6
:1017B0005F936F937F938F939F93AF93BF93EF93B9
:1017C000FF9348E950E064E970E082E090E00E9415
:1017D0004A05FF91EF91BF91AF919F918F917F91BA
:1017E0006F915F914F913F912F910F900BBE0F9092
:1017F0000FBE0F901F9018951F920F920FB60F9269
:1018000011240BB60F922F933F934F935F936F93D7
:101810007F938F939F93AF93BF93EF93FF9348E88A
:1018200050E064E870E081E090E00E944A05FF919A
:10183000EF91BF91AF919F918F917F916F915F9148
:101840004F913F912F910F900BBE0F900FBE0F90B5
:101850001F901895FC0190919802903398F481E0C4
:10186000890F809398029083892F90E0FC01EE0FFE
:10187000FF1FE80FF91FEF54FD4F88EB9BE09283A9
:10188000818308958FEF80830895EEE4F3E013825F
:10189000128288EE93E0A0E0B0E084839583A68373
:1018A000B78386E092E0918380838DEC90E095870A
:1018B00084878CEC90E09787868788EC90E0918B0A
:1018C000808B89EC90E0938B828B8AEC90E0958BF7
:1018D000848B8EEC90E0978B868B118E128E138EFC
:1018E000148E87EF93E00E942A0C84EF93E00E940D
:1018F0002A0C81EF93E00E942A0C8EEE93E00E9466
:101900002A0C8BEE93E00C942A0C789484B58260B8
:1019100084BD84B5816084BD85B5826085BD85B593
:10192000816085BD80916E00816080936E00109211
:10193000810080918100826080938100809181008C
:10194000816080938100809180008160809380001D
:101950008091B10084608093B1008091B00081607B
:101960008093B0008091910082608093910080917B
:1019700091008160809391008091900081608093BC
:1019800090008091A10082608093A1008091A100CD
:1019900081608093A1008091A00081608093A0006D
:1019A00080912101826080932101809121018160D9
:1019B000809321018091200181608093200180919A
:1019C0007A00846080937A0080917A0082608093AC
:1019D0007A0080917A00816080937A0080917A0009
:1019E000806880937A001092C10061E08DE20E94CD
:1019F000740261E08DE20E94460268EE73E080E0CE
:101A000090E00E94E50260E08DE20E9446028EE4D2
:101A100093E09093440380934303E0915E03F0913D
:101A20005F0382E08083E0915A03F0915B031082B0
:101A3000E0915C03F0915D0380E180831092660386
:101A4000E0916203F091630386E08083E09160039C
:101A5000F0916103808180618083E0916003F09167
:101A60006103808188608083E0916003F09161036D
:101A7000808180688083E0916003F09161038081C0
:101A80008F7D808360E081E30E94740261E080E3E7
:101A90000E94740260E08AE30E94740260E08BE3BB
:101AA0000E94740260E08CE30E94740260E08DE3A7
:101AB0000E9474026EE270E087EF93E00E94C2041D
:101AC0006FE270E084EF93E00E94C20462E370E092
:101AD00081EF93E00E94C20463E370E08EEE93E036
:101AE0000E94C2046BE070E08BEE93E00E94C2049F
:101AF00060E085E40E947402C4E6D0E085E40E94C0
:101B0000A50265E070E080E090E00E94E502219788
:101B1000A9F767E172E08EE493E00E948C07A2E0EF
:101B20004A2E512CC1E0D0E0B8E0CB2ED12C14EFDE
:101B3000212E332433940E94E0080E947A0682E426
:101B40000E94A5027C0184E40E94A5024C0185E468
:101B50000E94A5025C0183E40E94A5028C010E9400
:101B600004060E94A0070E9440086DE172E0809187
:101B70004303909144030E948C0762E472E08091D9
:101B80004303909144030E94EA06B7018091430306
:101B9000909144030E94F90666E572E08091430348
:101BA000909144030E94EA06B8018091430390910A
:101BB00044030E94F90669E672E080914303909124
:101BC00044030E94EA06B5018091430390914403C7
:101BD0000E94F90663E772E0809143039091440309
:101BE0000E94EA06B40180914303909144030E944D
:101BF000F9066EE772E080914303909144030E94DE
:101C0000EA066091AD027091AE028091430390911B
:101C100044030E94F90667E672E0809143039091C5
:101C200044030E948C07E0904103F090420321E0BE
:101C3000E216F10431F140F092E0E916F10409F402
:101C400038C20E941A0477CF6EE270E087EF93E00B
:101C50000E94C2046FE270E084EF93E00E94C2042D
:101C600062E370E081EF93E00E94C20463E370E0FE
:101C70008EEE93E00E94C204D0934203C0934103CE
:101C8000E0CF809100029091010220919902309161
:101C90009A02820F931F853F21E092070CF049C002
:101CA000909301028093000210929A02109299027E
:101CB0005092AA024092A902D093AC02C093AB0208
:101CC0000E947A0681309105C9F59093A60280930F
:101CD000A5025092A4024092A3020E947A068C01AF
:101CE00084E40E94A5024C0182E40E94A5025C01EA
:101CF00083E40E94A5028A149B0444F08816990686
:101D00000CF020C2A814B9040CF440C0A816B906FF
:101D10000CF440C00530110509F04AC0D0939E0272
:101D2000C0939D02D0929C02C0929B028CE390E0F3
:101D300017C23092010220920002B6CF8230910584
:101D400059F4D093A602C093A50283E090E090934B
:101D5000A4028093A302C1CF8330910549F4D093AC
:101D6000A602C093A5021092A4021092A302B5CFBE
:101D7000049739F4D093A602C093A50287E090E0BF
:101D8000E6CF1092A6021092A502A7CF8A159B0556
:101D90000CF457C20530110559F4D0939E02C0933C
:101DA0009D02D0929C02C0929B0288E790E0D8C12D
:101DB00010929E0210929D0260E0D5C18330910581
:101DC00039F4D093A202C093A10284E090E0DAC17A
:101DD0008130910529F49093A2028093A102D2C18F
:101DE0008430910549F4D093A202C093A10250928D
:101DF000A00240929F02CAC1079749F4D093A20261
:101E0000C093A102D092A002C0929F02BFC11092C3
:101E1000A2021092A102BAC1B12CA12CC8C180901B
:101E2000000290900102840104521A4FB80187EF1A
:101E300093E00E944B04B80184EF93E00E944B04AE
:101E40000CED15E008191909B80181EF93E00E9423
:101E50004B04B8018EEE93E00E944B046AE070E000
:101E600080E090E00E94E5028091B0028093AF0292
:101E700024E0A216B10409F019C181E08093B002F8
:101E800062E370E080E090E00E94E5028091B002A1
:101E900081110DC08091AF02882349F08091AD027D
:101EA0009091AE0201969093AE028093AD02809124
:101EB000AD029091AE02029719F462E0E62EF12C89
:101EC000F0924203E0924103BCCE809000029090D9
:101ED00001020CED15E008191909B80187EF93E02C
:101EE0000E944B04B80184EF93E00E944B0424E26B
:101EF000821A2AEF920AB40181EF93E00E944B0408
:101F0000B4018EEE93E00E944B04B6C06DE775E01D
:101F100087EF93E00E944B046DE775E084EF93E058
:101F20000E944B046DE775E081EF93E00E944B0443
:101F30006DE775E08EEE93E00E944B0469E170E07E
:101F400080E090E08FCF6BE376E087EF93E00E9434
:101F50004B046BE376E084EF93E00E944B046BE369
:101F600076E081EF93E00E944B046BE376E0E2CFF2
:101F700000910002109101028CED95E04C01801A55
:101F8000910AB40187EF93E00E944B0404521A4F68
:101F9000B80184EF93E00E944B04B80181EF93E015
:101FA0000E944B04B401C6CF609000027090010201
:101FB000430184E2881A8AEF980AB40187EF93E01C
:101FC0000E944B040CED15E006191709E1CF809033
:101FD0000002909001020CED15E008191909B801F2
:101FE00087EF93E00E944B04B80184EF93E00E94D6
:101FF0004B0494E2891A9AEF990AB40181EF93E0B5
:102000000E944B04B4018EEE93E00E944B0464E600
:1020100070E080E090E00E94E502B80187EF93E075
:102020000E944B04B80184EF93E00E944B04B80176
:1020300081EF93E00E944B04B80163CF6DE275E03D
:1020400087EF93E00E944B046DE275E084EF93E02C
:102050000E944B046DE275E081EF93E00E944B0417
:102060006DE275E08EEE93E00E944B0464EC79E043
:1020700080E090E00E94E50262E370E080E090E0A2
:10208000F1CE6CED75E087EF93E00E944B046CEDB0
:1020900075E084EF93E00E944B046CED75E081EFF6
:1020A00093E00E944B046CED75E02BCF1092B002D0
:1020B000EDCEE091F7038E2F90E0FC01EE0FFF1FB5
:1020C000E80FF91FEF54FD4F80818F7B8083E091F3
:1020D000F4038E2F90E0FC01EE0FFF1FE80FF91FB5
:1020E000EF54FD4F80818F7B8083E091F1038E2F31
:1020F00090E0FC01EE0FFF1FE80FF91FEF54FD4FBA
:1021000080818F7B8083E091EE038E2F90E0FC0135
:10211000EE0FFF1FE80FF91FEF54FD4F80818F7BFB
:10212000808360E08EE20E94740260E08FE20E9491
:10213000740260E082E30E94740260E083E30E9424
:102140007402BECE0530110509F032CED0939E0246
:10215000C0939D02D0929C02C0929B028AE590E0BF
:102160000E94820461E08DE20E9446020E94E00823
:102170008230910509F022CED093A202C093A10231
:1021800085E090E09093A00280939F02A090AB0224
:10219000B090AC0291E0A916B10409F03DCE809157
:1021A000A9029091AA029093A8028093A70280911D
:1021B000A5029091A602019759F48091A3029091F3
:1021C000A4029093A8028093A702F2E0AF2EB12C54
:1021D0008091A1029091A202019759F480919F02EF
:1021E0009091A0029093A8028093A702E3E0AE2E04
:1021F000B12C80919D0290919E02019759F480919B
:102200009B0290919C029093A8028093A70274E095
:10221000A72EB12CE091A702F091A802E930F105B8
:1022200008F022CE8827E85EFE4E8F4F0C949D1159
:102230000F0F650F860FA30FB80FD40FE70F1E10F7
:1022400041100530110509F0B3CDD0939E02C09323
:102250009D02D0929C02C0929B0284CF052E97FBD8
:102260001EF400940E94451157FD07D00E94601192
:1022700007FC03D04EF40C944511509540953095D1
:1022800021953F4F4F4F5F4F0895909580957095E2
:1022900061957F4F8F4F9F4F08950E948211A59F98
:1022A000900DB49F900DA49F800D911D1124089551
:1022B000B7FF0C944D110E944D11821B930B089592
:1022C000A1E21A2EAA1BBB1BFD010DC0AA1FBB1F3A
:1022D000EE1FFF1FA217B307E407F50720F0A21BAC
:1022E000B30BE40BF50B661F771F881F991F1A9419
:1022F00069F760957095809590959B01AC01BD0143
:10230000CF010895A29FB001B39FC001A39F700D9C
:10231000811D1124911DB29F700D811D1124911DED
:102320000895991B79E004C0991F961708F0961B31
:10233000881F7A95C9F780950895EE0FFF1F881FB3
:102340008BBF0790F691E02D19945058BB27AA2710
:102350000E94BD110C9401130E94F31238F00E94E8
:10236000FA1220F039F49F3F19F426F40C94F0127D
:102370000EF4E095E7FB0C94EA12E92F0E94121389
:1023800058F3BA17620773078407950720F079F4AA
:10239000A6F50C9434130EF4E0950B2EBA2FA02D55
:1023A0000B01B90190010C01CA01A0011124FF2702
:1023B000591B99F0593F50F4503E68F11A16F040FD
:1023C000A22F232F342F4427585FF3CF46953795FC
:1023D0002795A795F0405395C9F77EF41F16BA0BC1
:1023E000620B730B840BBAF09150A1F0FF0FBB1F6F
:1023F000661F771F881FC2F70EC0BA0F621F731FB8
:10240000841F48F4879577956795B795F7959E3F14
:1024100008F0B0CF9395880F08F09927EE0F9795A5
:10242000879508950E94C61208F481E008950E94DD
:102430002B120C9401130E94FA1258F00E94F3120E
:1024400040F029F45F3F29F00C94EA1251110C94EA
:1024500035130C94F0120E94121368F39923B1F310
:10246000552391F3951B550BBB27AA2762177307BA
:10247000840738F09F5F5F4F220F331F441FAA1F4E
:10248000A9F335D00E2E3AF0E0E832D0915050400A
:10249000E695001CCAF72BD0FE2F29D0660F771FB8
:1024A000881FBB1F261737074807AB07B0E809F09E
:1024B000BB0B802DBF01FF2793585F4F3AF09E3F23
:1024C000510578F00C94EA120C9435135F3FE4F355
:1024D000983ED4F3869577956795B795F7959F5F66
:1024E000C9F7880F911D9695879597F90895E1E0B2
:1024F000660F771F881FBB1F621773078407BA0711
:1025000020F0621B730B840BBA0BEE1F88F7E0956B
:102510000895E89409C097FB3EF4909580957095D6
:1025200061957F4F8F4F9F4F9923A9F0F92F96E91F
:10253000BB279395F695879577956795B795F11194
:10254000F8CFFAF4BB0F11F460FF1BC06F5F7F4F31
:102550008F4F9F4F16C0882311F096E911C0772343
:1025600021F09EE8872F762F05C0662371F096E84C
:10257000862F70E060E02AF09A95660F771F881F1B
:10258000DAF7880F9695879597F90895990F0008BF
:10259000550FAA0BE0E8FEEF16161706E807F90735
:1025A000C0F012161306E407F50798F0621B730BD0
:1025B000840B950B39F40A2661F0232B242B252B51
:1025C00021F408950A2609F4A140A6958FEF811DF4
:1025D000811D089597F99F6780E870E060E0089595
:1025E0009FEF80EC089500240A941616170618062B
:1025F0000906089500240A94121613061406050607
:102600000895092E0394000C11F4882352F0BB0F97
:1026100040F4BF2B11F460FF04C06F5F7F4F8F4FFA
:102620009F4F089557FD9058440F551F59F05F3F35
:1026300071F04795880F97FB991F61F09F3F79F0E4
:1026400087950895121613061406551FF2CF469566
:10265000F1DF08C0161617061806991FF1CF8695E8
:102660007105610508940895E894BB2766277727CC
:10267000CB0197F908950E944E130C9401130E9408
:10268000F31238F00E94FA1220F0952311F00C9406
:10269000EA120C94F01211240C9435130E941213B8
:1026A00070F3959FC1F3950F50E0551F629FF001A5
:1026B000729FBB27F00DB11D639FAA27F00DB11DBE
:1026C000AA1F649F6627B00DA11D661F829F222747
:1026D000B00DA11D621F739FB00DA11D621F839FCE
:1026E000A00D611D221F749F3327A00D611D231FA4
:1026F000849F600D211D822F762F6A2F11249F57F2
:1027000050409AF0F1F088234AF0EE0FFF1FBB1FF4
:10271000661F771F881F91505040A9F79E3F5105B3
:1027200080F00C94EA120C9435135F3FE4F3983E6A
:10273000D4F3869577956795B795F795E7959F5F5D
:10274000C1F7FE2B880F911D9695879597F90895EF
:10275000FA01EE0FFF1F309621053105A1F1611539
:10276000710561F48038BFE39B0749F168949038A4
:10277000810561F08038BFEF9B0741F099234AF54E
:10278000FF3FE1053105210519F1E8940894E7952B
:10279000D901AA2329F4AB2FBE2FF85FD0F310C0C4
:1027A000FF5F70F4A695E0F7F73950F019F0FF3AA3
:1027B00038F49F779F930DD00F9007FC90580895A1
:1027C00046F00C94F01260E070E080E89FE308951A
:1027D0004FE79F775F934F933F932F930E94A314EC
:1027E0002F913F914F915F910E943B130C940014E5
:1027F00029F416F00C94EA120C9434130C94F01291
:102800000E941A13A8F39638A0F707F80F92E894DD
:102810002BE33AEA48EB5FE70E9451130F920F92C5
:102820000F924DB75EB70F920E94EB14E4EEF0E00A
:102830000E9432144F915F91EF91FF91E595EE1F49
:10284000FF1F49F0FE57E0684427EE0F441FFA953A
:10285000E1F74195550B0E9465140F9007FE0C940B
:1028600059140895DF93CF931F930F93FF92EF9224
:10287000DF927B018C01689406C0DA2EEF010E9482
:102880004E13FE01E894A5912591359145915591FE
:10289000A6F3EF010E94BD11FE019701A801DA9491
:1028A00069F7DF90EF90FF900F911F91CF91DF912B
:1028B00008959B01AC0160E070E080E89FE30C9418
:1028C00017120C94EA120C941F150E941A13D8F3D5
:1028D0009923C9F3940F511DA3F39150504094F0E4
:1028E00059F0882332F0660F771F881F91505040AF
:1028F000C1F79E3F51052CF7880F911D969587953E
:1029000097F908955F3FACF0983E9CF0BB27869501
:1029100077956795B79508F4B1609395C1F7BB0FAC
:1029200058F711F460FFE8CF6F5F7F4F8F4F9F4FD5
:10293000E3CF0C94351316F00C941F150C94F01281
:1029400068940C94EA120E941A13A8F39923C1F315
:10295000AEF3DF93CF931F930F93FF92C92FDD2721
:1029600088232AF02197660F771F881FDAF720E067
:1029700030E040E85FEB9FE3883920F0803E38F09C
:1029800021968F770E94A611ECE0F1E004C00E942E
:10299000A611E9E3F1E00E9432148B01BE01EC01C3
:1029A000FB2E6F5771097595771F880B990B0E9445
:1029B0008B1228E132E741E35FE30E944E13AF2D13
:1029C0009801AE01FF900F911F91CF91DF910E946E
:1029D000BD110C940113FA01DC01AA0FBB1F9B016E
:1029E000AC01BF5728F4222733274427507820C052
:1029F000B75190F4AB2F0024469537952795011CCD
:102A0000A395D2F3002071F0220F331F441FB3951A
:102A1000DAF30ED00C94A51161307105A0E88A0795
:102A2000B94630F49B01AC01662777278827907858
:102A3000309621F0208331834283538308959F3F52
:102A400031F0915020F4879577956795B795880F69
:0E2A5000911D9695879597F90895F894FFCFFC
:102A5E00A50000000000AD0317034403FA0375033D
:102A6E00530367030D0A005374617274002D2D2DEC
:102A7E002D2D2D2D2D2D2D2D2D2D2D2D2D2D2D2D78
:102A8E002D2D2D2D2D2D2D2D2D2D2D2D2D2D2D2D68
:102A9E002D0072696768745F66726F6E745F505452
:102AAE002069733A20006C6566745F66726F6E748F
:102ABE005F50542069733A20006261636B20697322
:102ACE003A200066726F6E742069733A2000466970
:102ADE00726520436F756E74732069733A2000001F
:00000001FF
