:100000000C9486010C94B7010C94B7010C94B701C1
:100010000C94B7010C94B7010C94B7010C94B70180
:100020000C94B7010C94B7010C94B7010C94B70170
:100030000C94B7010C94B7010C94B7010C94B70160
:100040000C94B7010C94D2070C94B7010C94B7012F
:100050000C94B7010C94B7010C94B7010C949E0654
:100060000C94B7010C94B7010C94B7010C94B70130
:100070000C94B7010C94B7010C94B7010C94B70120
:100080000C94A4070C94B7010C94B7010C94B7011D
:100090000C9412070C94E8060C94B7010C94B70169
:1000A0000C94B7010C94B7010C9476070C94B7012B
:1000B0000C94B7010C94B7010C94B7010C94480749
:1000C0000C94B7010C94B7010C94B7010C94B701D0
:1000D0000C94B7010C94B7010C94B7010C94B701C0
:1000E0000C94B70107634236B79BD8A71A396856F4
:1000F00018AEBAAB558C1D3CB7CC5763BD6DEDFD4A
:10010000753EF6177231BF000000803F0800000006
:10011000BE922449123EABAAAA2ABECDCCCC4C3EFC
:1001200000000080BEABAAAAAA3E00000000BF00EB
:100130000000803F0000000000084178D3BB4387E7
:10014000D1133D190E3CC3BD4282AD2B3E68EC82FB
:1001500076BED98FE1A93E4C80EFFFBE01C4FF7F80
:100160003F00000000000C945A0D0C94A10C0C945C
:1001700017020C94920D0C9404020C9412020C942D
:10018000440D0C9442030C94AB030C9451030C9457
:10019000E1010C94D7010C94EC010C94170D0C9414
:1001A00073030C9465030C94E5010C94F2010C9418
:1001B000E10C0C940E020C94F8030C941B080C94A4
:1001C000E9010C94DD010C940A020C941C020C94BD
:1001D00000020C94F6010C94FC010C94C70C0C94D6
:1001E000020D0C9415030C94180200002100240049
:1001F00027002A002D003000330001010000040117
:1002000007010A0100002200250028002B002E0013
:100210003100340002010000050108010B0100005B
:1002200020002300260029002C002F0032000001AE
:100230000000030106010901050505050705080879
:100240000808020202020A0A080804040404010160
:100250000101010101010303030303030303040775
:1002600007070C0C0C0C0C0C0C0C0202020206060C
:100270000606060606060B0B0B0B0B0B0B0B0102FF
:1002800010202008081020401020408002010201A8
:100290000804020101020408102040808040201060
:1002A00008040201800402018040201008040201B9
:1002B0000804020101020408102040800102040821
:1002C0001020408000000A0B02090C0D0E080703E5
:1002D0000401000000000000000000000000000019
:1002E000000000000000000000000000000000000E
:1002F00012111000000000000000000000000000CB
:10030000000000000000000000001B0811241FBEB8
:10031000CFEFD1E2DEBFCDBF00E00CBF12E0A0E026
:10032000B2E0E8EBF2E200E00BBF02C007900D92F2
:10033000AE31B107D9F723E0AEE1B2E001C01D92C2
:10034000AE37B207E1F711E0C6E8D1E000E006C041
:1003500021970109802FFE010E94CA0DC538D107DF
:1003600080E00807A9F70E945B080C945A110C94CE
:1003700000008150823108F05AC0E82FF0E0882751
:10038000EB53FE4F8F4F0C94CA0DE501E901D701E5
:10039000DD01E1011702EC01F201F601FC010002AE
:1003A00004020A020E021702120218021C028091B5
:1003B00080008F77809380000895809180008F7DEA
:1003C000F9CF80918000877FF5CF84B58F7784BD8A
:1003D000089584B58F7DFBCF8091B0008F77809397
:1003E000B00008958091B0008F7DF9CF809190008A
:1003F0008F77809390000895809190008F7DF9CF42
:1004000080919000877FF5CF8091A0008F778093B7
:10041000A00008958091A0008F7DF9CF8091A00069
:10042000877FF5CF809120018F77809320010895F9
:10043000809120018F7DF9CF80912001877FF5CFBA
:10044000CF93DF93E5EFF2E08491EFEAF2E0D4910D
:10045000E9E6F2E0C491CC23A1F081110E94B90138
:10046000EC2FF0E0EE0FFF1FE25EFD4FA591B4917F
:10047000EC91ED2381E090E009F480E0DF91CF91F1
:10048000089580E090E0FACF1F93CF93DF93282F59
:1004900030E0F901EC53FD4F8491F901E258FD4F32
:1004A000D491F901E85CFD4FC491CC23A9F0162F3B
:1004B00081110E94B901EC2FF0E0EE0FFF1FEC5FFD
:1004C000FD4FA591B4918FB7F894EC91111108C02C
:1004D000D095DE23DC938FBFDF91CF911F910895DC
:1004E000DE2BF8CFCF93DF9390E0FC01E258FD4F75
:1004F0002491885C9D4FFC0184918823D1F090E089
:10050000880F991FFC01E651FE4FA591B491FC01A3
:10051000EC5FFD4FC591D49161110EC09FB7F89467
:100520008C91E22FE0958E238C932881E223E8833F
:100530009FBFDF91CF9108958FB7F894EC91E22B94
:10054000EC938FBFF6CF865320917B00982F987F36
:10055000277F922B90937B008770806480937C0030
:1005600080917A00806480937A0080917A0086FD81
:10057000FCCF809178009091790008953FB7F8946E
:100580008091CE029091CF02A091D002B091D10281
:1005900026B5A89B05C02F3F19F00196A11DB11DDE
:1005A0003FBFBA2FA92F982F8827BC01CD01620F1A
:1005B000711D811D911D42E0660F771F881F991FD5
:1005C0004A95D1F708958F929F92AF92BF92CF92A2
:1005D000DF92EF92FF924B015C010E94BE026B0121
:1005E0007C010E94BE026C197D098E099F09683E3C
:1005F000734081059105A8F321E0821A9108A108B2
:10060000B10888EEC80E83E0D81EE11CF11C8114ED
:100610009104A104B10429F7FF90EF90DF90CF90EF
:10062000BF90AF909F908F900895AF92BF92CF925E
:10063000DF92EF92FF920F931F93CF93DF936C01A2
:100640007B018B01040F151FEB015E01AE18BF0883
:10065000C017D10759F06991D601ED91FC91019035
:10066000F081E02DC6011995892B79F7C501DF913D
:10067000CF911F910F91FF90EF90DF90CF90BF909F
:10068000AF900895FC01538D448D252F30E0842FC9
:1006900090E0821B930B541710F0CF9608950197AA
:1006A0000895FC01918D828D981761F0A28DAE0F97
:1006B000BF2FB11D5D968C91928D9F5F9F73928F1E
:1006C00090E008958FEF9FEF0895FC01918D828D4A
:1006D000981731F0828DE80FF11D858D90E0089517
:1006E0008FEF9FEF0895FC01918D228D892F90E06F
:1006F000805C9F4F821B91098F739927089582ED2B
:1007000092E00E94730321E0892B09F420E0822FFC
:100710000895FC01A48DA80FB92FB11DA35ABF4F96
:100720002C91848D90E001968F739927848FA689F0
:10073000B7892C93A089B1898C91837080648C9344
:10074000938D848D981306C00288F389E02D8081F3
:100750008F7D80830895EF92FF920F931F93CF9325
:10076000DF93EC0181E0888F9B8D8C8D98131AC0EC
:10077000E889F989808185FF15C09FB7F894EE89D3
:10078000FF896083E889F989808183708064808330
:100790009FBF81E090E0DF91CF911F910F91FF907B
:1007A000EF900895F62E0B8D10E00F5F1F4F0F7323
:1007B0001127E02E8C8D8E110CC00FB607FCFACFDE
:1007C000E889F989808185FFF5CFCE010E948903F0
:1007D000F1CFEB8DEC0FFD2FF11DE35AFF4FF082AF
:1007E0009FB7F8940B8FEA89FB8980818062CFCF15
:1007F000CF93DF93EC01888D8823B9F0AA89BB8958
:10080000E889F9898C9185FD03C0808186FD0DC042
:100810000FB607FCF7CF8C9185FFF2CF808185FF63
:10082000EDCFCE010E948903E9CFDF91CF910895EA
:1008300080E090E0892B49F080E090E0892B29F05E
:100840000E94000081110E94000080E090E0892B4E
:1008500029F00E947F0381110E94000080E090E057
:10086000892B49F080E090E0892B29F00E9400005C
:1008700081110E94000080E090E0892B49F080E027
:1008800090E0892B29F00E94000081110C94000057
:100890000895DC01EC91E03390F511968C9111975D
:1008A00028E830E0281B310987FD3395220F331FDC
:1008B000220F331F6217730784F012968C9128E57C
:1008C00032E0281B310987FD3395220F331F220F99
:1008D000331F621773070CF49B0122503109220F5A
:1008E000331F4FB7F8948E2F90E0FC01EE0FFF1FDF
:1008F000E80FF91FE95DFD4F328321834FBF089553
:100900001F93CF93DF93EC01162F8881803308F07B
:100910004EC061E0812F0E9472028881282F30E052
:10092000F901EE0FFF1FE20FF31FE95DFD4F1F738B
:100930006081607C612B608319821A822CE0622FB7
:100940000E94BE0D829FB001112430E020E0AB0177
:10095000420F531FFA01EE0FFF1FE40FF51FE95D71
:10096000FD4F908196FD16C02F5F3F4F2C30310513
:1009700071F7813009F51092800082E08093810048
:100980001092850010928400B19A80916F0082606D
:1009900080936F00E8818E2F90E0FC01EE0FFF1F27
:1009A000E80FF91FE95DFD4F8081806480838881B5
:1009B000DF91CF911F910895823061F410929000E1
:1009C00080939100109295001092940088BB8093C0
:1009D0007100E0CF833069F41092A00082E0809330
:1009E000A1001092A5001092A40089BB8093720010
:1009F000D1CF8111CFCF1092200182E080932101CD
:100A000010922501109224018ABB80937300C2CFFB
:100A1000AF92BF92CF92DF92EF92FF920F931F930C
:100A2000CF93DF936B017A01EC01CE5DDD4F28811E
:100A30003CE0389F8001399F100D1124A0902602C0
:100A4000B12C27FF1FC0FB011182108288818F5FAC
:100A5000888388819801280F311D87FD3A95F6011A
:100A60002A153B051CF488818C30C4F1808191816A
:100A7000049680349C4908F473C0F601808191810A
:100A8000049670C088819801280F311D87FD3A9522
:100A90002A153B05DCF68881A801480F511D87FD0A
:100AA0005A95FA01EE0FFF1FE40FF51FE95DFD4FA8
:100AB000808186FFCBCF8881F801E80FF11D87FD8B
:100AC000FA95CF01EE0FFF1FE80FF91FE95DFD4F0B
:100AD000808160E08F730E944402B8CF8081918151
:100AE0002881A801420F511D27FD5A959A01FA014C
:100AF000EE0FFF1FE20FF31FE95DFD4F21813281F1
:100B0000820F931FF7019183808388819801280FBA
:100B1000311D87FD3A95F901EE0FFF1FE20FF31F1C
:100B2000E95DFD4F808186FF22C08881080F111D7D
:100B300087FD1A95F801EE0FFF1FE00FF11FE95D29
:100B4000FD4F808161E08F73DF91CF911F910F91F5
:100B5000FF90EF90DF90CF90BF90AF900C94440245
:100B600080E49CE9F701918380838FEF8883DF9194
:100B7000CF911F910F91FF90EF90DF90CF90BF909A
:100B8000AF9008954F925F926F927F928F929F9253
:100B9000AF92BF92CF92DF92EF92FF920F931F938B
:100BA000CF93DF93412C512C3201812C912C540195
:100BB00003E010E0C3E2D0E060E080E30E94440282
:100BC000C8010197F1F761E080E30E944402CE0181
:100BD0000197F1F760E080E30E9444020E94200246
:100BE000892B29F40E94BE024B015C01F7CF0E94C1
:100BF0002002019729F40E94BE022B013C01F7CF8D
:100C0000C301B201681979098A099B090E94B80ECB
:100C10002AE939E949EB50E40E94440E6B017C015A
:100C2000C0921E02D0921F02E0922002F092210296
:100C300020E030E0A9010E943F0E87FDBDCF61E0BA
:100C400070E080E090E00E94E302C701B601DF910E
:100C5000CF911F910F91FF90EF90DF90CF90BF90B9
:100C6000AF909F908F907F906F905F904F9008957E
:100C7000CF92DF92EF92FF920F931F93CF93DF9368
:100C800082E40E94A3028C0185E40E94A3026C010D
:100C900084E40E94A302EC0183E40E94A3027C018D
:100CA0000E94C20523E3C216D10474F443E3E416A0
:100CB000F10454F4E3972CF4D0E0C0E003331105C1
:100CC0002CF0C2E0D0E002C0C1E0D0E09701201BD0
:100CD000310B29533F4F2F38314028F4033311058E
:100CE00014F0C3E0D0E020E030E040EF52E40E9496
:100CF0003F0E87FF0AC081E9E81681E0F8061CF480
:100D00000139114014F0C4E0D0E0CE01DF91CF9161
:100D10001F910F91FF90EF90DF90CF900895FB010E
:100D200001900020E9F73197AF01461B570BDC011A
:100D3000ED91FC910280F381E02D19941F920F92A6
:100D40000FB60F9211242F933F938F939F93AF93DE
:100D5000BF938091CA029091CB02A091CC02B09136
:100D6000CD023091C90223E0230F2D3758F50196AB
:100D7000A11DB11D2093C9028093CA029093CB029A
:100D8000A093CC02B093CD028091CE029091CF027D
:100D9000A091D002B091D1020196A11DB11D809306
:100DA000CE029093CF02A093D002B093D102BF9114
:100DB000AF919F918F913F912F910F900FBE0F9008
:100DC0001F90189526E8230F0296A11DB11DD2CFC2
:100DD0001F920F920FB60F9211240BB60F922F9302
:100DE0003F934F935F936F937F938F939F93AF93B3
:100DF000BF93EF93FF9382ED92E00E948903FF91EE
:100E0000EF91BF91AF919F918F917F916F915F9182
:100E10004F913F912F910F900BBE0F900FBE0F90EF
:100E20001F9018951F920F920FB60F9211240BB6B8
:100E30000F922F938F939F93EF93FF93E091E20292
:100E4000F091E3028081E091E802F091E90282FDF5
:100E50001DC090818091EB028F5F8F732091EC0217
:100E6000821741F0E091EB02F0E0EE52FD4F958FDA
:100E70008093EB02FF91EF919F918F912F910F90B3
:100E80000BBE0F900FBE0F901F9018958081F2CF70
:100E90001F920F920FB60F9211240BB60F922F9341
:100EA0003F934F935F936F937F938F939F93AF93F2
:100EB000BF93EF93FF9348E251E064E271E090E06A
:100EC00080E00E940805FF91EF91BF91AF919F9143
:100ED0008F917F916F915F914F913F912F910F90E3
:100EE0000BBE0F900FBE0F901F9018951F920F9280
:100EF0000FB60F9211240BB60F922F933F934F937F
:100F00005F936F937F938F939F93AF93BF93EF9371
:100F1000FF9348EA50E064EA70E083E090E00E94CA
:100F20000805FF91EF91BF91AF919F918F917F91B4
:100F30006F915F914F913F912F910F900BBE0F904A
:100F40000FBE0F901F9018951F920F920FB60F9221
:100F500011240BB60F922F933F934F935F936F9390
:100F60007F938F939F93AF93BF93EF93FF9348E942
:100F700050E064E970E082E090E00E940805FF9193
:100F8000EF91BF91AF919F918F917F916F915F9101
:100F90004F913F912F910F900BBE0F900FBE0F906E
:100FA0001F9018951F920F920FB60F9211240BB637
:100FB0000F922F933F934F935F936F937F938F93F2
:100FC0009F93AF93BF93EF93FF9348E850E064E89B
:100FD00070E081E090E00E940805FF91EF91BF91E1
:100FE000AF919F918F917F916F915F914F913F91C1
:100FF0002F910F900BBE0F900FBE0F901F90189562
:10100000FC0190912602903398F481E0890F80933F
:1010100026029083892F90E0FC01EE0FFF1FE80F5E
:10102000F91FE95DFD4F88EB9BE092838183089572
:101030008FEF80830895E2EDF2E01382128288EE52
:1010400093E0A0E0B0E084839583A683B78386E035
:1010500092E0918380838DEC90E0958784878CEC7F
:1010600090E09787868788EC90E0918B808B89EC65
:1010700090E0938B828B8AEC90E0958B848B8EEC46
:1010800090E0978B868B118E128E138E148E8BE7C9
:1010900093E00E94000888E793E00E94000885E73B
:1010A00093E00E94000882E793E00E9400088FE628
:1010B00093E00C940008CF93DF93CDB7DEB762972F
:1010C0000FB6F894DEBF0FBECDBF789484B58260B2
:1010D00084BD84B5816084BD85B5826085BD85B5DC
:1010E000816085BD80916E00816080936E0010925A
:1010F00081008091810082608093810080918100D5
:101100008160809381008091800081608093800065
:101110008091B10084608093B1008091B0008160C3
:101120008093B000809191008260809391008091C3
:101130009100816080939100809190008160809304
:1011400090008091A10082608093A1008091A10015
:1011500081608093A1008091A00081608093A000B5
:101160008091210182608093210180912101816021
:1011700080932101809120018160809320018091E2
:101180007A00846080937A0080917A0082608093F4
:101190007A0080917A00816080937A0080917A0051
:1011A000806880937A001092C10068E873E180E063
:1011B00090E00E94E30282ED92E09093B802809367
:1011C000B702E091E202F091E30282E08083E091D5
:1011D000DE02F091DF021082E091E002F091E10284
:1011E00080E180831092EA02E091E602F091E7024A
:1011F00086E08083E091E402F091E50280818061E5
:101200008083E091E402F091E50280818860808330
:10121000E091E402F091E502808180688083E091B2
:10122000E402F091E50280818F7D808360E081E3BC
:101230000E94720261E080E30E94720260E08AE331
:101240000E94720260E08BE30E94720260E08CE315
:101250000E94720260E08DE30E9472026EE270E012
:101260008BE793E00E9480046FE270E088E793E0F0
:101270000E94800462E370E085E793E00E948004AE
:1012800063E370E082E793E00E9480046BE070E02B
:101290008FE693E00E94800460E085E40E94720281
:1012A00024E630E03A83298385E40E94A30265E0C6
:1012B00070E080E090E00E94E30249815A81415051
:1012C00051095A834983452B79F764E172E082ED35
:1012D00092E00E948F066AE172E082ED92E00E9445
:1012E0008F0601E010E024E0222E312C80910002D4
:1012F000909101022091B9023091BA02820F931F9E
:10130000853F51E095070CF0B1C2909301028093A4
:1013100000021092BA021092B9020E94380681307F
:10132000910509F0A6C29093C6028093C502A2E07F
:10133000B0E0B093C402A093C3020E9438060497A1
:1013400051F41093BE020093BD0247E050E0509369
:10135000BC024093BB0284E690E09A8389831D829D
:101360001E821F821886C12CD12C76018DE30E942B
:10137000A302BC01990F880B990B0E94B80E2CE9AF
:1013800034EC40E85FEB0E94D50F2B013C012AE0D2
:1013900037ED43EA5BE3C701B6010E94D30D6B0151
:1013A0007C0120E030E040E85FE30E94D30D9B0128
:1013B000AC01C701B6010E94440E4B015C0120E064
:1013C00033E445E457E4C301B2010E94680F2D8164
:1013D0003E814F8158850E94D20DA50194010E9443
:1013E000680F9B01AC016D817E818F8198850E9481
:1013F000D30D6D837E838F839887A981BA811197DE
:10140000BA83A983A5019401C701B6010E94680FA0
:101410009B01AC0160E070E080E89FE30E94D20D88
:101420006B017C0129813A81232B09F09FCF2D810B
:101430003E814F815885CA01B9010E943F0E882321
:1014400041F080E09CE3ACE1B6E48D839E83AF8302
:10145000B887ACE3B0E0BA87A98719821A821B82E9
:101460001C82C12CD12C76018BE30E94A302BC010B
:10147000990F880B990B0E94B80E23E333E343E5E1
:101480005FEB0E94D50F2B013C012AE037ED43E2D0
:101490005CE3C701B6010E94D30D6B017C0120E023
:1014A00030E040E85FE30E94D30D9B01AC01C7012F
:1014B000B6010E94440E4B015C012DEC3CE04EE075
:1014C00056E4C301B2010E94680F29813A814B8121
:1014D0005C810E94D20DA50194010E94680F9B01BE
:1014E000AC0169817A818B819C810E94D30D6983D3
:1014F0007A838B839C8329853A85215031093A87E9
:101500002987A5019401C701B6010E94680F9B01BC
:10151000AC0160E070E080E89FE30E94D20D6B01B7
:101520007C0149855A85452B09F09ECF29813A8156
:101530004B815C81CA01B9010E943F0E882341F0B2
:1015400080E09CE3ACE1B6E489839A83AB83BC83FF
:10155000ACE3B0E0BE87AD87412C512C3201730162
:1015600062018AE30E94A302BC01990F880B990BC8
:101570000E94B80E2EEF34ED48E55FEB0E94D50FC8
:1015800069877A878B879C872AE037ED43E25CE3A3
:10159000C701B6010E94D30D6B017C0120E030E051
:1015A00040E85FE30E94D30D9B01AC01C701B60187
:1015B0000E94440E4B015C0120E03CE041E256E415
:1015C00069857A858B859C850E94680FA3019201AD
:1015D0000E94D20DA50194010E94680F9B01AC01ED
:1015E000C301B2010E94D30D2B013C012D853E8524
:1015F000215031093E872D87A5019401C701B6010D
:101600000E94680F9B01AC0160E070E080E89FE3FE
:101610000E94D20D6B017C014D855E85452B09F042
:10162000A0CFA3019201C301B2010E943F0E882303
:1016300039F0412C9CE3592E9CE1692E96E4792ED9
:1016400084E690E09A8B898B812C912C5401750152
:1016500064018CE30E94A302BC01990F880B990BD3
:101660000E94B80E20EA3AE14FE65FEB0E94D50FE8
:101670006D877E878F87988B2AE037ED43E25CE3A6
:10168000C701B6010E94D30D6B017C0120E030E060
:1016900040E85FE30E94D30D9B01AC01C701B60196
:1016A0000E94440E69877A878B879C8720E033E10C
:1016B00048E257E46D857E858F8598890E94680F82
:1016C000A50194010E94D20D29853A854B855C8540
:1016D0000E94680F9B01AC01C501B4010E94D30DAB
:1016E0004B015C01A989BA891197BA8BA98B29850D
:1016F0003A854B855C85C701B6010E94680F9B0146
:10170000AC0160E070E080E89FE30E94D20D6B01C5
:101710007C0129893A89232B09F09BCF20E030E016
:1017200048E452E4C501B4010E94D20D6B017C0172
:10173000AC019B010E943F0E882339F0C12C8CE341
:10174000D82E8CE1E82E86E4F82E0E94C2054B01CB
:101750005C0120E030E04CED52E469817A818B81BC
:101760009C810E943F0E87FF0EC031E0398720E048
:101770003CE34CE156E469817A818B819C810E9433
:101780003F0E811101C0198620E030E04CED52E49B
:101790006D817E818F8198850E943F0E87FF0EC0EC
:1017A00020E03CE34CE156E46D817E818F81988599
:1017B0000E943F0E882311F041E0498720E030E08D
:1017C0004CED52E4C301B2010E943F0E87FF0CC0F2
:1017D00051E05D8320E03CE34CE156E4C301B201FB
:1017E0000E943F0E811101C01D8220E030E04CEDCF
:1017F00052E4C701B6010E943F0E87FF0CC020E0F3
:101800003CE34CE156E4C701B6010E943F0E882339
:1018100011F081E08D8320E030E04AE753E46981F4
:101820007A818B819C810E943F0E87FF0AC020E055
:1018300030E04AE753E4C301B2010E943F0E87FD46
:1018400036C020E030E04CED52E4C501B4010E9406
:101850003F0E87FD2CC09985911184C1AD81A111E6
:1018600084C11092C2021092C1022BC084EF91E099
:101870004CCD8230910559F41093C6020093C502F5
:1018800023E030E03093C4022093C30256CD039787
:1018900049F41093C6020093C5021092C40210923C
:1018A000C3024BCD1092C6021092C50246CD1093D2
:1018B000C2020093C102A6E0B0E0B093C002A093C0
:1018C000BF028091C5029091C602019741F48091B8
:1018D000C3029091C4029093C8028093C702809182
:1018E000C1029091C202019741F48091BF02909190
:1018F000C0029093C8028093C7028091BD0290916C
:10190000BE02019741F48091BB029091BC0290937A
:10191000C8028093C702E091C702F091C802E83084
:10192000F10508F06CC08827E756F34F8F4F0C94F1
:10193000CA0DA10CC70CE10C020D170D440D5A0D78
:10194000920D20910002309101023A83298379019E
:1019500034E2E31A3AEFF30AB7018BE793E00E940F
:101960004904B70188E793E00E9449048CED95E0B3
:10197000AC01A981BA814A1B5B0B5A834983BA0126
:1019800085E793E00E94490469817A8174C02091BF
:101990000002309101023A8329838CED95E07C01AD
:1019A000E21AF30AB7018BE793E00E944904B701FA
:1019B00088E793E00E94490449815A8144525A4F72
:1019C000DCCF68E775E08BE793E00E94490468E7A5
:1019D00075E088E793E00E94490468E775E085E7D1
:1019E00093E00E94490468E775E082E793E00E9473
:1019F000490462E370E080E090E00E94E3020E940C
:101A0000180474CC60E476E08BE793E00E9449040C
:101A100060E476E088E793E00E94490460E476E0C1
:101A200085E793E00E94490460E476E0DECF809190
:101A30000002909101029A8389838CED95E07C01EC
:101A4000A981BA81EA1AFB0AB7018BE793E00E94E9
:101A5000490429813A8124523A4F3A832983B901B2
:101A600088E793E00E94490469817A8185E793E0E1
:101A70000E944904B70182E793E00E94490466E9A5
:101A800070E080E090E0B9CFC0900002D0900102F9
:101A9000760134E2E31A3AEFF30AB7018BE793E0F9
:101AA0000E9449044CED55E04C195D095A83498365
:101AB000BA01D6CFE0900002F09001028CED95E0E3
:101AC0008E199F099A838983BC018BE793E00E945A
:101AD000490469817A8188E793E00E94490494E28D
:101AE000E91A9AEFF90AB70185E793E00E944904E1
:101AF000B70182E793E00E94490464EF71E080E05F
:101B000090E00E94E30269817A818BE793E00E9472
:101B1000490469817A8188E793E00E9449046981D8
:101B20007A812ECF6CED75E08BE793E00E9449043B
:101B30006CED75E088E793E00E9449046CED75E078
:101B400085E793E00E9449046CED75E094CF109313
:101B5000C2020093C10225E030E03093C00220931E
:101B6000BF02AFCE3D81332391F31093C2020093A5
:101B7000C1023092C0022092BF02A3CE991B79E02D
:101B800004C0991F961708F0961B881F7A95C9F70D
:101B900080950895EE0FFF1F881F8BBF0790F69169
:101BA000E02D19945058BB27AA270E94EA0D0C94E7
:101BB0002E0F0E94200F38F00E94270F20F039F4DA
:101BC0009F3F19F426F40C941D0F0EF4E095E7FBEB
:101BD0000C94170FE92F0E943F0F58F3BA176207B2
:101BE00073078407950720F079F4A6F50C94610F2C
:101BF0000EF4E0950B2EBA2FA02D0B01B901900128
:101C00000C01CA01A0011124FF27591B99F0593F6B
:101C100050F4503E68F11A16F040A22F232F342FB3
:101C20004427585FF3CF469537952795A795F04001
:101C30005395C9F77EF41F16BA0B620B730B840B16
:101C4000BAF09150A1F0FF0FBB1F661F771F881FCE
:101C5000C2F70EC0BA0F621F731F841F48F4879526
:101C600077956795B795F7959E3F08F0B0CF939518
:101C7000880F08F09927EE0F9795879508950E9491
:101C8000F30E08F481E008950E94580E0C942E0F74
:101C90000E94270F58F00E94200F40F029F45F3F68
:101CA00029F00C94170F51110C94620F0C941D0F16
:101CB0000E943F0F68F39923B1F3552391F3951BCD
:101CC000550BBB27AA2762177307840738F09F5F5D
:101CD0005F4F220F331F441FAA1FA9F335D00E2ECA
:101CE0003AF0E0E832D091505040E695001CCAF737
:101CF0002BD0FE2F29D0660F771F881FBB1F2617FA
:101D000037074807AB07B0E809F0BB0B802DBF01D0
:101D1000FF2793585F4F3AF09E3F510578F00C949F
:101D2000170F0C94620F5F3FE4F3983ED4F386954F
:101D300077956795B795F7959F5FC9F7880F911DC0
:101D40009695879597F90895E1E0660F771F881FAC
:101D5000BB1F621773078407BA0720F0621B730B5F
:101D6000840BBA0BEE1F88F7E0950895E89409C03C
:101D700097FB3EF490958095709561957F4F8F4FBE
:101D80009F4F9923A9F0F92F96E9BB279395F695D4
:101D9000879577956795B795F111F8CFFAF4BB0F52
:101DA00011F460FF1BC06F5F7F4F8F4F9F4F16C0B6
:101DB000882311F096E911C0772321F09EE8872F40
:101DC000762F05C0662371F096E8862F70E060E0FC
:101DD0002AF09A95660F771F881FDAF7880F969575
:101DE000879597F90895990F0008550FAA0BE0E819
:101DF000FEEF16161706E807F907C0F012161306CD
:101E0000E407F50798F0621B730B840B950B39F40C
:101E10000A2661F0232B242B252B21F408950A2672
:101E200009F4A140A6958FEF811D811D089597F9B2
:101E30009F6780E870E060E008959FEF80EC089570
:101E400000240A9416161706180609060895002499
:101E50000A9412161306140605060895092E039413
:101E6000000C11F4882352F0BB0F40F4BF2B11F487
:101E700060FF04C06F5F7F4F8F4F9F4F089557FDE6
:101E80009058440F551F59F05F3F71F04795880FE8
:101E900097FB991F61F09F3F79F08795089512167F
:101EA00013061406551FF2CF4695F1DF08C016162B
:101EB00017061806991FF1CF8695710561050894DC
:101EC0000895E894BB2766277727CB0197F90895F3
:101ED0000E947B0F0C942E0F0E94200F38F00E945E
:101EE000270F20F0952311F00C94170F0C941D0F61
:101EF00011240C94620F0E943F0F70F3959FC1F361
:101F0000950F50E0551F629FF001729FBB27F00DA7
:101F1000B11D639FAA27F00DB11DAA1F649F6627FC
:101F2000B00DA11D661F829F2227B00DA11D621F4B
:101F3000739FB00DA11D621F839FA00D611D221F05
:101F4000749F3327A00D611D231F849F600D211DE9
:101F5000822F762F6A2F11249F5750409AF0F1F06C
:101F600088234AF0EE0FFF1FBB1F661F771F881FD5
:101F700091505040A9F79E3F510580F00C94170FE7
:101F80000C94620F5F3FE4F3983ED4F38695779507
:101F90006795B795F795E7959F5FC1F7FE2B880F7B
:101FA000911D9695879597F90895FA01EE0FFF1FF9
:101FB000309621053105A1F16115710561F4803874
:101FC000BFE39B0749F168949038810561F0803840
:101FD000BFEF9B0741F099234AF5FF3FE10531052B
:101FE000210519F1E8940894E795D901AA2329F469
:101FF000AB2FBE2FF85FD0F310C0FF5F70F4A69533
:10200000E0F7F73950F019F0FF3A38F49F779F93D3
:102010000DD00F9007FC9058089546F00C941D0FBA
:1020200060E070E080E89FE308954FE79F775F935B
:102030004F933F932F930E94D0102F913F914F9138
:102040005F910E94680F0C942D1029F416F00C94E7
:10205000170F0C94610F0C941D0F0E94470FA8F3EB
:102060009638A0F707F80F92E8942BE33AEA48EB8A
:102070005FE70E947E0F0F920F920F924DB75EB7EF
:102080000F920E941811E4EEF0E00E945F104F9151
:102090005F91EF91FF91E595EE1FFF1F49F0FE570D
:1020A000E0684427EE0F441FFA95E1F74195550B80
:1020B0000E9492100F9007FE0C9486100895DF93F3
:1020C000CF931F930F93FF92EF92DF927B018C01CE
:1020D000689406C0DA2EEF010E947B0FFE01E8949F
:1020E000A5912591359145915591A6F3EF010E9457
:1020F000EA0DFE019701A801DA9469F7DF90EF90ED
:10210000FF900F911F91CF91DF9108959B01AC013A
:1021100060E070E080E89FE30C94440E0C94170F8D
:102120000C944C110E94470FD8F39923C9F3940FD4
:10213000511DA3F39150504094F059F0882332F090
:10214000660F771F881F91505040C1F79E3F510581
:102150002CF7880F911D9695879597F908955F3F05
:10216000ACF0983E9CF0BB27869577956795B79520
:1021700008F4B1609395C1F7BB0F58F711F460FFF5
:10218000E8CF6F5F7F4F8F4F9F4FE3CF0C94620F6D
:1021900016F00C944C110C941D0F68940C94170FAE
:1021A0000E94470FA8F39923C1F3AEF3DF93CF93B7
:1021B0001F930F93FF92C92FDD2788232AF02197C1
:1021C000660F771F881FDAF720E030E040E85FEB0A
:1021D0009FE3883920F0803E38F021968F770E9467
:1021E000D30DECE0F1E004C00E94D30DE9E3F1E08F
:1021F0000E945F108B01BE01EC01FB2E6F5771092D
:102200007595771F880B990B0E94B80E28E132E76D
:1022100041E35FE30E947B0FAF2D9801AE01FF9079
:102220000F911F91CF91DF910E94EA0D0C942E0F18
:10223000FA01DC01AA0FBB1F9B01AC01BF5728F4B8
:10224000222733274427507820C0B75190F4AB2F72
:102250000024469537952795011CA395D2F30020BD
:1022600071F0220F331F441FB395DAF30ED00C9494
:10227000D20D61307105A0E88A07B94630F49B01A0
:10228000AC016627772788279078309621F0208345
:1022900031834283538308959F3F31F0915020F45E
:1022A000879577956795B795880F911D9695879532
:0822B00097F90895F894FFCF9F
:1022B800C80000000000AB0315034203F8037303D2
:0E22C800510365035374617274000D0A000027
:00000001FF
