:100000000C9488010C94B9010C94B9010C94B901B9
:100010000C94B9010C94B9010C94B9010C94B90178
:100020000C94B9010C94B9010C94B9010C94B90168
:100030000C94B9010C94B9010C94B9010C94B90158
:100040000C94B9010C944D0B0C94B9010C94B901AA
:100050000C94B9010C94B9010C94B9010C94190ACF
:100060000C94B9010C94B9010C94B9010C94B90128
:100070000C94B9010C94B9010C94B9010C94B90118
:100080000C941F0B0C94B9010C94B9010C94B90198
:100090000C948D0A0C94630A0C94B9010C94B90168
:1000A0000C94B9010C94B9010C94F10A0C94B901A7
:1000B0000C94B9010C94B9010C94B9010C94C30AC5
:1000C0000C94B9010C94B9010C94B9010C94B901C8
:1000D0000C94B9010C94B9010C94B9010C94B901B8
:1000E0000C94B90107634236B79BD8A71A396856F2
:1000F00018AEBAAB558C1D3CB7CC5763BD6DEDFD4A
:10010000753EF6177231BF000000803F0800000006
:10011000BE922449123EABAAAA2ABECDCCCC4C3EFC
:1001200000000080BEABAAAAAA3E00000000BF00EB
:100130000000803F0000000000084178D3BB4387E7
:10014000D1133D190E3CC3BD4282AD2B3E68EC82FB
:1001500076BED98FE1A93E4C80EFFFBE01C4FF7F80
:100160003F00000000000C9414020C9453030C9404
:10017000AD030C943D0F0C94970F0C94FA030C9460
:10018000E7010C941A020C9444030C94D9010C94CA
:1001900017030C94290F0C94F20E0C9467030C9423
:1001A0000C020C94BF0E0C94960B0C9475030C94DB
:1001B00002020C946F0F0C94F4010C9406020C9440
:1001C000070F0C946F0E0C94DD0E0C9410020C941F
:1001D000EE010C94F8010C9419020C941E020C947C
:1001E000FE010C94E3010C94EB010C94DF01000080
:1001F0002100240027002A002D00300033000101D7
:100200000000040107010A01000022002500280067
:100210002B002E003100340002010000050108010E
:100220000B01000020002300260029002C002F00D5
:100230003200000100000301060109010505050562
:10024000070508080808020202020A0A080804044E
:10025000040401010101010101010303030303037C
:100260000303040707070C0C0C0C0C0C0C0C02020B
:10027000020206060606060606060B0B0B0B0B0B08
:100280000B0B010210202008081020401020408095
:10029000020102010804020101020408102040804A
:1002A00080402010080402018004020180402010D8
:1002B0000804020108040201010204081020408021
:1002C000010204081020408000000A0B02090C0DF6
:1002D0000E080703040100000000000000000000F9
:1002E000000000000000000000000000000000000E
:1002F00000000000121110000000000000000000CB
:100300000000000000000000000000000000960B4C
:1003100011241FBECFEFD1E2DEBFCDBF00E00CBF86
:1003200012E0A0E0B2E0EEE2F9E200E00BBF02C0B2
:1003300007900D92A832B107D9F723E0A8E2B2E006
:1003400001C01D92A139B207E1F711E0C8E8D1E080
:1003500000E006C021970109802FFE010E940511CF
:10036000C738D10780E00807A9F70E94D60B0C9484
:1003700095140C9400008150823108F05AC0E82F87
:10038000F0E08827E953FE4F8F4F0C940511E701E9
:10039000EB01D901DF01E3011902EE01F401F801DB
:1003A000FE01020206020C021002190214021A02D5
:1003B0001E02809180008F77809380000895809145
:1003C00080008F7DF9CF80918000877FF5CF84B545
:1003D0008F7784BD089584B58F7DFBCF8091B00069
:1003E0008F778093B00008958091B0008F7DF9CF12
:1003F000809190008F778093900008958091900075
:100400008F7DF9CF80919000877FF5CF8091A000FC
:100410008F778093A00008958091A0008F7DF9CF01
:100420008091A000877FF5CF809120018F77809306
:1004300020010895809120018F7DF9CF80912001C6
:10044000877FF5CFCF93DF93E9EFF2E08491E3EB81
:10045000F2E0D491EDE6F2E0C491CC23A1F0811159
:100460000E94BB01EC2FF0E0EE0FFF1FEE5DFD4F91
:10047000A591B491EC91ED2381E090E009F480E046
:10048000DF91CF91089580E090E0FACF1F93CF9352
:10049000DF93282F30E0F901E853FD4F8491F901F3
:1004A000EE57FD4FD491F901E45CFD4FC491CC238C
:1004B000A9F0162F81110E94BB01EC2FF0E0EE0F86
:1004C000FF1FE85FFD4FA591B4918FB7F894EC91B1
:1004D000111108C0D095DE23DC938FBFDF91CF913F
:1004E0001F910895DE2BF8CFCF93DF9390E0FC01AE
:1004F000EE57FD4F2491845C9D4FFC01849188232D
:10050000D1F090E0880F991FFC01E251FE4FA591B8
:10051000B491FC01E85FFD4FC591D49161110EC00B
:100520009FB7F8948C91E22FE0958E238C932881CD
:10053000E223E8839FBFDF91CF9108958FB7F894AE
:10054000EC91E22BEC938FBFF6CF865320917B008A
:10055000982F987F277F922B90937B0087708064E1
:1005600080937C0080917A00806480937A008091EF
:100570007A0086FDFCCF80917800909179000895F3
:100580003FB7F8948091E1029091E202A091E302DA
:10059000B091E40226B5A89B05C02F3F19F0019643
:1005A000A11DB11D3FBFBA2FA92F982F8827BC01CD
:1005B000CD01620F711D811D911D42E0660F771FF5
:1005C000881F991F4A95D1F708958F929F92AF92F5
:1005D000BF92CF92DF92EF92FF924B015C010E949B
:1005E000C0026B017C010E94C0026C197D098E095A
:1005F0009F09683E734081059105A8F321E0821AA6
:100600009108A108B10888EEC80E83E0D81EE11C4D
:10061000F11C81149104A104B10429F7FF90EF901B
:10062000DF90CF90BF90AF909F908F900895AF9242
:10063000BF92CF92DF92EF92FF920F931F93CF93CF
:10064000DF936C017B018B01040F151FEB015E0131
:10065000AE18BF08C017D10759F06991D601ED91C6
:10066000FC910190F081E02DC6011995892B79F755
:10067000C501DF91CF911F910F91FF90EF90DF9017
:10068000CF90BF90AF900895FC01538D448D252FDE
:1006900030E0842F90E0821B930B541710F0CF961C
:1006A000089501970895FC01918D828D981761F04E
:1006B000A28DAE0FBF2FB11D5D968C91928D9F5F65
:1006C0009F73928F90E008958FEF9FEF0895FC0144
:1006D000918D828D981731F0828DE80FF11D858DF7
:1006E00090E008958FEF9FEF0895FC01918D228D8A
:1006F000892F90E0805C9F4F821B91098F7399270F
:10070000089585EE92E00E94750321E0892B09F49B
:1007100020E0822F0895FC01A48DA80FB92FB11DF0
:10072000A35ABF4F2C91848D90E001968F73992727
:10073000848FA689B7892C93A089B1898C91837005
:1007400080648C93938D848D981306C00288F389FE
:10075000E02D80818F7D80830895EF92FF920F932B
:100760001F93CF93DF93EC0181E0888F9B8D8C8D5D
:1007700098131AC0E889F989808185FF15C09FB751
:10078000F894EE89FF896083E889F9898081837014
:10079000806480839FBF81E090E0DF91CF911F91C3
:1007A0000F91FF90EF900895F62E0B8D10E00F5FE4
:1007B0001F4F0F731127E02E8C8D8E110CC00FB6BA
:1007C00007FCFACFE889F989808185FFF5CFCE0152
:1007D0000E948B03F1CFEB8DEC0FFD2FF11DE35A3F
:1007E000FF4FF0829FB7F8940B8FEA89FB898081D5
:1007F0008062CFCFCF93DF93EC01888D8823B9F04F
:10080000AA89BB89E889F9898C9185FD03C080811B
:1008100086FD0DC00FB607FCF7CF8C9185FFF2CF98
:10082000808185FFEDCFCE010E948B03E9CFDF9160
:10083000CF91089580E090E0892B49F080E090E02E
:10084000892B29F00E94000081110E94000080E0A5
:1008500090E0892B29F00E94810381110E94000001
:1008600080E090E0892B49F080E090E0892B29F02E
:100870000E94000081110E94000080E090E0892B1E
:1008800049F080E090E0892B29F00E94000081115E
:100890000C9400000895DC01EC91E03390F5119682
:1008A0008C91119728E830E0281B310987FD33959A
:1008B000220F331F220F331F6217730784F0129623
:1008C0008C9128E532E0281B310987FD3395220FF2
:1008D000331F220F331F621773070CF49B01225042
:1008E0003109220F331F4FB7F8948E2F90E0FC018F
:1008F000EE0FFF1FE80FF91FE85BFD4F32832183E6
:100900004FBF0895CF92DF92EF92FF92E2E8F3E0BB
:10091000218138E8C32ED12CC21AD10827FDD394E7
:10092000CC0CDD1CCC0CDD1C0D2C000CEE08FF08E3
:10093000428128E532E0241B310947FD3395220F1F
:10094000331F220F331F032E000C440B550B2C19A1
:100950003D094E095F09DC010E94C01024EB30E024
:1009600040E050E00E949610CA01B9016C0D7D1D57
:100970008E1D9F1D82E893E0FF90EF90DF90CF9057
:100980000C944B041F93CF93DF93EC01162F8881B7
:10099000803308F04EC061E0812F0E94740288818C
:1009A000282F30E0F901EE0FFF1FE20FF31FE85B85
:1009B000FD4F1F736081607C612B608319821A82F6
:1009C0002CE0622F0E94F910829FB001112430E0C8
:1009D00020E0AB01420F531FFA01EE0FFF1FE40F9F
:1009E000F51FE85BFD4F908196FD16C02F5F3F4FCE
:1009F0002C30310571F7813009F51092800082E0CA
:100A0000809381001092850010928400B19A8091A9
:100A10006F00826080936F00E8818E2F90E0FC0170
:100A2000EE0FFF1FE80FF91FE85BFD4F8081806428
:100A300080838881DF91CF911F910895823061F486
:100A40001092900080939100109295001092940063
:100A500088BB80937100E0CF833069F41092A000CE
:100A600082E08093A1001092A5001092A40089BB9F
:100A700080937200D1CF8111CFCF1092200182E0FC
:100A80008093210110922501109224018ABB80934A
:100A90007300C2CFAF92BF92CF92DF92EF92FF92DC
:100AA0000F931F93CF93DF936B017A01EC01C45D29
:100AB000DD4F28813CE0389F8001399F100D1124C3
:100AC000A0903002B12C27FF1FC0FB0111821082C1
:100AD00088818F5F888388819801280F311D87FD69
:100AE0003A95F6012A153B051CF488818C30C4F137
:100AF00080819181049680349C4908F473C0F6018A
:100B000080819181049670C088819801280F311DE1
:100B100087FD3A952A153B05DCF68881A801480F28
:100B2000511D87FD5A95FA01EE0FFF1FE40FF51FC7
:100B3000E85BFD4F808186FFCBCF8881F801E80F0D
:100B4000F11D87FDFA95CF01EE0FFF1FE80FF91F8A
:100B5000E85BFD4F808160E08F730E944602B8CF52
:100B6000808191812881A801420F511D27FD5A954E
:100B70009A01FA01EE0FFF1FE20FF31FE85BFD4F32
:100B800021813281820F931FF701918380838881B5
:100B90009801280F311D87FD3A95F901EE0FFF1FCF
:100BA000E20FF31FE85BFD4F808186FF22C0888142
:100BB000080F111D87FD1A95F801EE0FFF1FE00FBA
:100BC000F11FE85BFD4F808161E08F73DF91CF9172
:100BD0001F910F91FF90EF90DF90CF90BF90AF905B
:100BE0000C94460280E49CE9F701918380838FEFA7
:100BF0008883DF91CF911F910F91FF90EF90DF904D
:100C0000CF90BF90AF9008954F925F926F927F9276
:100C10008F929F92AF92BF92CF92DF92EF92FF920C
:100C20000F931F93CF93DF93412C512C3201812CD2
:100C3000912C540103E010E0C3E2D0E060E080E3D7
:100C40000E944602C8010197F1F761E080E30E942B
:100C50004602CE010197F1F760E080E30E94460270
:100C60000E942202892B29F40E94C0024B015C01E0
:100C7000F7CF0E942202019729F40E94C0022B01A3
:100C80003C01F7CFC301B201681979098A099B09B0
:100C90000E94F3112AE939E949EB50E40E947F11DF
:100CA0006B017C01C0922802D0922902E0922A02B4
:100CB000F0922B0220E030E0A9010E947A1187FD1A
:100CC000BDCF61E070E080E090E00E94E502C701E6
:100CD000B601DF91CF911F910F91FF90EF90DF90C0
:100CE000CF90BF90AF909F908F907F906F905F90CC
:100CF0004F900895CF92DF92EF92FF920F931F9340
:100D0000CF93DF9384E40E94A502EC0182E40E9469
:100D1000A5027C0183E40E94A5028C0185E40E9467
:100D2000A5026C010E940406C83E23E0D20744F0ED
:100D300020E030E046E153E40E947A1187FD2FC0A5
:100D4000CE15DF055CF0C017D107A4F183E090E079
:100D5000CC15DD0534F5EC16FD0684F1E016F10640
:100D60005CF082E090E0EC14FD04DCF40C171D074D
:100D700044F00E151F052CF081E090E00C151D05C8
:100D800084F4CC16DD0644F0CE14DF042CF084E0AD
:100D900090E0C016D1062CF490E080E002C085E01F
:100DA00090E0DF91CF911F910F91FF90EF90DF9036
:100DB000CF900895EC16FD06E4F2D0CF0C171D0776
:100DC0001CF3D7CFFB0101900020E9F73197AF0169
:100DD000461B570BDC01ED91FC910280F381E02D65
:100DE00019944F925F926F927F928F929F92AF92DF
:100DF000BF92CF92DF92EF92FF92CF93DF9300D01A
:100E000000D0CDB7DEB78CE390E09E838D83812C3C
:100E1000912C5401750164018BE30E94A502BC0171
:100E2000990F880B990B0E94F31123E333E343E5F9
:100E30005FEB0E94101369837A838B839C832AE083
:100E400037ED43E25CE3C501B4010E940E114B0192
:100E50005C0120E030E040E85FE30E940E119B015E
:100E6000AC01C501B4010E947F112B013C012DECA6
:100E70003CE04EE056E469817A818B819C810E943E
:100E8000A312A70196010E940D11A30192010E94D5
:100E9000A3129B01AC01C701B6010E940E116B01A8
:100EA0007C018D819E8101979E838D83A301920198
:100EB000C501B4010E94A3129B01AC0160E070E087
:100EC00080E89FE30E940D114B015C018D819E81A2
:100ED000892B09F0A1CFA7019601C701B6010E9495
:100EE0007A11882339F0C12C8CE3D82E8CE1E82EBE
:100EF00086E4F82EC701B60126960FB6F894DEBF39
:100F00000FBECDBFDF91CF91FF90EF90DF90CF90DC
:100F1000BF90AF909F908F907F906F905F904F9019
:100F200008954F925F926F927F928F929F92AF92AD
:100F3000BF92CF92DF92EF92FF92CF93DF9300D0D8
:100F400000D0CDB7DEB78CE390E09E838D83812CFB
:100F5000912C5401750164018AE30E94A502BC0131
:100F6000990F880B990B0E94F3112EEF34ED48E591
:100F70005FEB0E94101369837A838B839C832AE042
:100F800037ED43E25CE3C501B4010E940E114B0151
:100F90005C0120E030E040E85FE30E940E119B011D
:100FA000AC01C501B4010E947F112B013C0120E07E
:100FB0003CE041E256E469817A818B819C810E9408
:100FC000A312A70196010E940D11A30192010E9494
:100FD000A3129B01AC01C701B6010E940E116B0167
:100FE0007C018D819E8101979E838D83A301920157
:100FF000C501B4010E94A3129B01AC0160E070E046
:1010000080E89FE30E940D114B015C018D819E8160
:10101000892B09F0A1CFA7019601C701B6010E9453
:101020007A11882339F0C12C8CE3D82E8CE1E82E7C
:1010300086E4F82EC701B60126960FB6F894DEBFF7
:101040000FBECDBFDF91CF91FF90EF90DF90CF909B
:10105000BF90AF909F908F907F906F905F904F90D8
:1010600008952F923F924F925F926F927F928F924C
:101070009F92AF92BF92CF92DF92EF92FF920F9327
:101080001F93CF93DF93CDB7DEB762970FB6F89477
:10109000DEBF0FBECDBF84E690E09E838D83812CA2
:1010A000912C5401750164018DE30E94A502BC01DD
:1010B000990F880B990B0E94F3112CE934EC40E84E
:1010C0005FEB0E94101369837A838B839C832AE0F1
:1010D00037ED43EA5BE3C701B6010E940E116B01D5
:1010E0007C0120E030E040E85FE30E940E119B01AC
:1010F000AC01C701B6010E947F112B013C0120E029
:1011000033E445E457E469817A818B819C810E94B4
:10111000A312A50194010E940D11A30192010E9446
:10112000A3129B01AC01C501B4010E940E114B0139
:101130005C018D819E8101979E838D83A301920125
:10114000C701B6010E94A3129B01AC0160E070E0F0
:1011500080E89FE30E940D116B017C018D819E81CF
:10116000892B09F0A1CFA5019401C501B4010E940A
:101170007A11882339F0812C9CE3992E9CE1A92EC9
:1011800096E4B92E0E94F10669837A838B839C834F
:101190000E9491076D837E838F83988784E690E019
:1011A0009A8B898B412C512C3201730162018CE3A3
:1011B0000E94A502BC01990F880B990B0E94F311A4
:1011C00020EA3AE14FE65FEB0E9410136D877E87BD
:1011D0008F87988B2AE037ED43E25CE3C701B601C5
:1011E0000E940E116B017C0120E030E040E85FE3DB
:1011F0000E940E119B01AC01C701B6010E947F1134
:1012000069877A878B879C8720E033E148E257E43F
:101210006D857E858F8598890E94A312A301920116
:101220000E940D1129853A854B855C850E94A31289
:101230009B01AC01C301B2010E940E112B013C01C4
:1012400089899A8901979A8B898B29853A854B855B
:101250005C85C701B6010E94A3129B01AC0160E04E
:1012600070E080E89FE30E940D116B017C01898989
:101270009A89892B09F09BCF20E030E048E452E4C2
:10128000C301B2010E940D116B017C01AC019B01F5
:101290000E947A11882339F0C12C8CE3D82E8CE17E
:1012A000E82E86E4F82E0E9404061B012C0184E43B
:1012B0000E94A5023C0120E030E046E952E4698149
:1012C0007A818B819C810E947A1187FF0EC091E008
:1012D0009D8720E03CE34CE156E469817A818B8173
:1012E0009C810E947A11811101C01D8620E030E0AE
:1012F00046E952E4C501B4010E947A1187FF0CC08F
:1013000020E03CE34CE156E4C501B4010E947A11AF
:10131000882311F081E08D8720E030E046E952E437
:101320006D817E818F8198850E947A1187FF0EC022
:1013300091E0998720E03CE34CE156E46D817E81A9
:101340008F8198850E947A11811101C0198620E051
:1013500030E046E952E4C701B6010E947A1187FFE6
:101360000CC020E03CE34CE156E4C701B6010E940A
:101370007A11882311F081E0898720E030E048EC81
:1013800052E469817A818B819C810E947A1187FF66
:101390000CC020E030E048EC52E46D817E818F810A
:1013A00098850E947A1187FD17C020E030E048EC54
:1013B00052E4C201B1010E947A1187FD0DC09D85E2
:1013C00002E010E0911102C010E000E0998599233D
:1013D00029F003E010E002C004E010E088EE681697
:1013E00083E0780664F020E030E046E153E4C20197
:1013F000B1010E947A1187FF02C007E010E0C80126
:1014000062960FB6F894DEBF0FBECDBFDF91CF91CD
:101410001F910F91FF90EF90DF90CF90BF90AF9012
:101420009F908F907F906F905F904F903F902F9004
:1014300008951F920F920FB60F9211242F933F938E
:101440008F939F93AF93BF938091DD029091DE02C3
:10145000A091DF02B091E0023091DC0223E0230F83
:101460002D3758F50196A11DB11D2093DC02809304
:10147000DD029093DE02A093DF02B093E002809140
:10148000E1029091E202A091E302B091E4020196A0
:10149000A11DB11D8093E1029093E202A093E302AB
:1014A000B093E402BF91AF919F918F913F912F91A3
:1014B0000F900FBE0F901F90189526E8230F0296ED
:1014C000A11DB11DD2CF1F920F920FB60F92112402
:1014D0000BB60F922F933F934F935F936F937F932E
:1014E0008F939F93AF93BF93EF93FF9385EE92E01B
:1014F0000E948B03FF91EF91BF91AF919F918F91CC
:101500007F916F915F914F913F912F910F900BBE03
:101510000F900FBE0F901F9018951F920F920FB64D
:101520000F9211240BB60F922F938F939F93EF93EB
:10153000FF93E091F502F091F6028081E091FB02C9
:10154000F091FC0282FD1DC090818091FE028F5FB0
:101550008F732091FF02821741F0E091FE02F0E0CC
:10156000EB51FD4F958F8093FE02FF91EF919F917C
:101570008F912F910F900BBE0F900FBE0F901F9069
:1015800018958081F2CF1F920F920FB60F921124FF
:101590000BB60F922F933F934F935F936F937F936D
:1015A0008F939F93AF93BF93EF93FF9348E251E0E4
:1015B00064E271E090E080E00E944A05FF91EF91C3
:1015C000BF91AF919F918F917F916F915F914F915B
:1015D0003F912F910F900BBE0F900FBE0F901F9059
:1015E00018951F920F920FB60F9211240BB60F92FF
:1015F0002F933F934F935F936F937F938F939F931B
:10160000AF93BF93EF93FF9348EA50E064EA70E032
:1016100083E090E00E944A05FF91EF91BF91AF9166
:101620009F918F917F916F915F914F913F912F91FA
:101630000F900BBE0F900FBE0F901F9018951F922A
:101640000F920FB60F9211240BB60F922F933F9368
:101650004F935F936F937F938F939F93AF93BF93BA
:10166000EF93FF9348E950E064E970E082E090E096
:101670000E944A05FF91EF91BF91AF919F918F9189
:101680007F916F915F914F913F912F910F900BBE82
:101690000F900FBE0F901F9018951F920F920FB6CC
:1016A0000F9211240BB60F922F933F934F935F939A
:1016B0006F937F938F939F93AF93BF93EF93FF931A
:1016C00048E850E064E870E081E090E00E944A055C
:1016D000FF91EF91BF91AF919F918F917F916F910A
:1016E0005F914F913F912F910F900BBE0F900FBEC6
:1016F0000F901F901895FC0190913002903398F450
:1017000081E0890F809330029083892F90E0FC0163
:10171000EE0FFF1FE80FF91FE85BFD4F88EB9BE022
:101720009283818308958FEF80830895E5EEF2E040
:101730001382128288EE93E0A0E0B0E08483958368
:10174000A683B78386E092E0918380838DEC90E05E
:10175000958784878CEC90E09787868788EC90E06B
:10176000918B808B89EC90E0938B828B8AEC90E05C
:10177000958B848B8EEC90E0978B868B118E128EDE
:10178000138E148E8EE893E00E947B0B8BE893E01F
:101790000E947B0B88E893E00E947B0B85E893E036
:1017A0000E947B0B82E893E00C947B0BCF93DF933A
:1017B000CDB7DEB7A1970FB6F894DEBF0FBECDBF91
:1017C000789484B5826084BD84B5816084BD85B51C
:1017D000826085BD85B5816085BD80916E00816028
:1017E00080936E00109281008091810082608093CE
:1017F00081008091810081608093810080918000D0
:101800008160809380008091B10084608093B100FA
:101810008091B00081608093B000809191008260DF
:1018200080939100809191008160809391008091DC
:1018300090008160809390008091A10082608093ED
:10184000A1008091A10081608093A1008091A000FF
:1018500081608093A00080912101826080932101AA
:10186000809121018160809321018091200181601C
:101870008093200180917A00846080937A00809127
:101880007A00826080937A0080917A0081608093F0
:101890007A0080917A00806880937A001092C1006B
:1018A00061E08DE20E94740260E08DE20E944602D7
:1018B00068EB7BE080E090E00E94E50285EE92E03C
:1018C0009093DB028093DA02E091F502F091F60248
:1018D00082E08083E091F102F091F2021082E091C7
:1018E000F302F091F40280E180831092FD02E09116
:1018F000F902F091FA0286E08083E091F702F0911C
:10190000F802808180618083E091F702F091F80213
:10191000808188608083E091F702F091F8028081F5
:1019200080688083E091F702F091F80280818F7DDA
:10193000808360E081E30E94740261E080E30E94A2
:10194000740260E08AE30E94740260E08BE30E940C
:10195000740260E08CE30E94740260E08DE30E94F8
:1019600074026EE270E08EE893E00E94C2046FE2BF
:1019700070E08BE893E00E94C20462E370E088E8C4
:1019800093E00E94C20463E370E085E893E00E9464
:10199000C2046BE070E082E893E00E94C20460E061
:1019A00085E40E94740204E610E085E40E94A5022A
:1019B00065E070E080E090E00E94E50201501109CE
:1019C000A1F764E172E085EE92E00E94E2066AE12E
:1019D00072E085EE92E00E94E206A2E02A2E312C0F
:1019E00001E010E0B8E04B2E512C0E9431080E941B
:1019F0007A064C0182E40E94A50284E40E94A502BA
:101A000085E40E94A50283E40E94A5020E940406C8
:101A10000E94F1060E9491076DE172E08091DA0266
:101A20009091DB020E94E206C090DA02D090DB02C5
:101A3000092C000CAA08BB08B7FE50C0D601ED91D6
:101A4000FC910190F081E02D6DE2C60119952227ED
:101A50003327A901281939094A095B0919A2FE018E
:101A6000B1965F01CA01B9012AE030E040E050E0E0
:101A70000E94C810605DD5016E935D01211531058E
:101A80004105510579F7A114B10421F0B501C60152
:101A90000E94E2066AE172E0C6010E94E206E0905E
:101AA000DA02F090DB0266E272E0C7010E94E20611
:101AB0006AE172E0C7010E94E206C090D802D090AD
:101AC000D902B1E0CB16D104F1F100F1F2E0CF166A
:101AD000D10409F444C20E941A0487CFA5019401DD
:101AE00019A2FE01B1965F01CA01B9012AE030E0F6
:101AF00040E050E00E94C810605DD5016E935D012A
:101B0000211531054105510579F7BDCF6EE270E031
:101B10008EE893E00E94C2046FE270E08BE893E0ED
:101B20000E94C20462E370E088E893E00E94C2046D
:101B300063E370E085E893E00E94C2041093D90249
:101B40000093D802C8CF80910002909101022091A9
:101B5000310230913202820F931F853F21E09207BC
:101B60000CF04AC09093010280930002109232025E
:101B700010923102309242022092410210934402AC
:101B8000009343020E947A0681309105C1F590933B
:101B90003E0280933D0230923C0220923B020E9422
:101BA0007A067C0184E40E94A5024C0182E40E9432
:101BB000A5025C0183E40E94A5028A149B0444F000
:101BC000881699060CF024C2A814B9040CF443C07A
:101BD000A816B9060CF40CC2F5E0EF16F10409F0F2
:101BE00043C0109336020093350250923402409263
:101BF00033028CE390E01BC284EF91E0B3CF8230DC
:101C0000910559F410933E0200933D02A3E0B0E029
:101C1000B0933C02A0933B02C2CF8330910549F4BC
:101C200010933E0200933D0210923C0210923B0240
:101C3000B6CF049759F410933E0200933D02E7E0BB
:101C4000F0E0F0933C02E0933B02A9CF10923E02F9
:101C500010923D02A4CF8A159B050CF459C225E0D1
:101C6000E216F10409F4C9C110923602109235024D
:101C700060E0E0C18330910559F410933A0200937B
:101C8000390284E090E09093380280933702E5C1F6
:101C90008130910529F490933A0280933902F3CF71
:101CA0008430910549F410933A020093390230923E
:101CB000380220923702D1C1079749F410933A02B3
:101CC000009339025092380240923702C6C11092F6
:101CD0003A0210923902C1C1B12CA12CCFC1E090BF
:101CE0000002F09001024701A4E28A1AAAEF9A0AC0
:101CF000B4018EE893E00E944B04B4018BE893E0BA
:101D00000E944B048CED95E0FC01EE19FF097F0168
:101D1000BF0188E893E00E944B04B70185E893E097
:101D20000E944B0469E170E080E090E00E94E502CF
:101D30008091470294E0A916B10409F00DC1A1E019
:101D4000A09347029091470291110BC0882349F05C
:101D500080914502909146020196909346028093AD
:101D600045028091450290914602029719F462E083
:101D7000C62ED12CD092D902C092D802ACCEE0901F
:101D80000002F09001028CED95E04C018E189F0846
:101D9000B4018EE893E00E944B04B4018BE893E019
:101DA0000E944B04F4E2EF1AFAEFFF0AB70188E849
:101DB00093E00E944B04B70147C067E875E08EE8E6
:101DC00093E00E944B0467E875E08BE893E00E9483
:101DD0004B0467E875E088E893E00E944B0467E8ED
:101DE00075E09CCF61E376E08EE893E00E944B04BF
:101DF00061E376E08BE893E00E944B0461E376E0D8
:101E000088E893E00E944B0461E376E087CFE0909E
:101E10000002F09001028CED95E04C018E189F08B5
:101E2000B4018EE893E00E944B0424E2E21A2AEF08
:101E3000F20AB7018BE893E00E944B04B70188E8EF
:101E400093E00E944B04B40185E893E00E944B04A8
:101E500069C06090000270900102430134E2831A6D
:101E60003AEF930AB4018EE893E00E944B048CEDA4
:101E700095E07C01E618F708DCCF80900002909096
:101E800001028CED95E07C01E818F908B7018EE8B5
:101E900093E00E944B04B7018BE893E00E944B044F
:101EA00084E2881A8AEF980AB40188E893E00E94D5
:101EB0004B04B40185E893E00E944B0464E670E0B3
:101EC00080E090E00E94E502B7018EE893E00E9476
:101ED0004B04B7018BE893E00E944B0467CF8091DD
:101EE0000002909101022CED35E07901E81AF90A1F
:101EF000B7018EE893E00E944B04B7018BE893E0B2
:101F00000E944B04B70188E893E00E944B04B7019C
:101F100085E893E00E944B0464EC79E080E090E077
:101F20000E94E50262E370E080E090E0FFCE6CED9D
:101F300075E08EE893E00E944B046CED75E08BE851
:101F400093E00E944B046CED75E088E893E00E94FA
:101F50004B046CED75E078CF10924702F3CEE09120
:101F60008E038E2F90E0FC01EE0FFF1FE80FF91F8C
:101F7000E85BFD4F80818F7B8083E0918B038E2F08
:101F800090E0FC01EE0FFF1FE80FF91FE85BFD4F2B
:101F900080818F7B8083E09188038E2F90E0FC010D
:101FA000EE0FFF1FE80FF91FE85BFD4F80818F7B6D
:101FB0008083E09185038E2F90E0FC01EE0FFF1FE0
:101FC000E80FF91FE85BFD4F80818F7B808360E025
:101FD0008EE20E94740260E08FE20E94740260E070
:101FE00082E30E94740260E083E30E947402C2CE26
:101FF000B5E0EB16F10409F037CE109336020093EA
:102000003502509234024092330288E790E00FC0CC
:10201000E5E0EE16F10409F027CE109336020093A6
:10202000350250923402409233028AE590E00E94D9
:10203000820461E08DE20E9446020E9431088230F3
:10204000910509F017CE10933A020093390225E06A
:1020500030E03093380220933702A0904302B090D2
:10206000440291E0A916B10409F036CE80914102F4
:10207000909142029093400280933F0280913D02F2
:1020800090913E02019759F480913B0290913C025D
:102090009093400280933F02F2E0AF2EB12C8091EA
:1020A000390290913A02019759F480913702909148
:1020B00038029093400280933F02E3E0AE2EB12CB1
:1020C0008091350290913602019759F48091330244
:1020D000909134029093400280933F0274E0A72EC7
:1020E000B12CE0913F02F0914002E930F10508F097
:1020F0001FCE8827E158FF4E8F4F0C9405116F0EAD
:10210000BF0EDD0EF20E070F290F3D0F6F0F970F59
:1021100035E0E316F10409F0A7CD109336020093E1
:102120003502509234024092330283CF052E97FB42
:102130001EF400940E94AD1057FD07D00E94C810F5
:1021400007FC03D04EF40C94AD105095409530959B
:1021500021953F4F4F4F5F4F089590958095709513
:1021600061957F4F8F4F9F4F08950E94EA10A59F62
:10217000900DB49F900DA49F800D911D1124089582
:10218000B7FF0C94B5100E94B510821B930B0895F5
:10219000A1E21A2EAA1BBB1BFD010DC0AA1FBB1F6B
:1021A000EE1FFF1FA217B307E407F50720F0A21BDD
:1021B000B30BE40BF50B661F771F881F991F1A944A
:1021C00069F760957095809590959B01AC01BD0174
:1021D000CF010895A29FB001B39FC001A39F700DCE
:1021E000811D1124911DB29F700D811D1124911D1F
:1021F0000895991B79E004C0991F961708F0961B63
:10220000881F7A95C9F780950895EE0FFF1F881FE4
:102210008BBF0790F691E02D19945058BB27AA2741
:102220000E9425110C9469120E945B1238F00E94E2
:10223000621220F039F49F3F19F426F40C945812DE
:102240000EF4E095E7FB0C945212E92F0E947A12EB
:1022500058F3BA17620773078407950720F079F4DB
:10226000A6F50C949C120EF4E0950B2EBA2FA02D1F
:102270000B01B90190010C01CA01A0011124FF2733
:10228000591B99F0593F50F4503E68F11A16F0402E
:10229000A22F232F342F4427585FF3CF469537952D
:1022A0002795A795F0405395C9F77EF41F16BA0BF2
:1022B000620B730B840BBAF09150A1F0FF0FBB1FA0
:1022C000661F771F881FC2F70EC0BA0F621F731FE9
:1022D000841F48F4879577956795B795F7959E3F46
:1022E00008F0B0CF9395880F08F09927EE0F9795D7
:1022F000879508950E942E1208F481E008950E94A7
:1023000093110C9469120E94621258F00E945B12A1
:1023100040F029F45F3F29F00C94521251110C94B3
:102320009D120C9458120E947A1268F39923B1F30B
:10233000552391F3951B550BBB27AA2762177307EB
:10234000840738F09F5F5F4F220F331F441FAA1F7F
:10235000A9F335D00E2E3AF0E0E832D0915050403B
:10236000E695001CCAF72BD0FE2F29D0660F771FE9
:10237000881FBB1F261737074807AB07B0E809F0CF
:10238000BB0B802DBF01FF2793585F4F3AF09E3F54
:10239000510578F00C9452120C949D125F3FE4F3B7
:1023A000983ED4F3869577956795B795F7959F5F97
:1023B000C9F7880F911D9695879597F90895E1E0E3
:1023C000660F771F881FBB1F621773078407BA0742
:1023D00020F0621B730B840BBA0BEE1F88F7E0959D
:1023E0000895E89409C097FB3EF490958095709508
:1023F00061957F4F8F4F9F4F9923A9F0F92F96E951
:10240000BB279395F695879577956795B795F111C5
:10241000F8CFFAF4BB0F11F460FF1BC06F5F7F4F62
:102420008F4F9F4F16C0882311F096E911C0772374
:1024300021F09EE8872F762F05C0662371F096E87D
:10244000862F70E060E02AF09A95660F771F881F4C
:10245000DAF7880F9695879597F90895990F0008F0
:10246000550FAA0BE0E8FEEF16161706E807F90766
:10247000C0F012161306E407F50798F0621B730B01
:10248000840B950B39F40A2661F0232B242B252B82
:1024900021F408950A2609F4A140A6958FEF811D25
:1024A000811D089597F99F6780E870E060E00895C6
:1024B0009FEF80EC089500240A941616170618065C
:1024C0000906089500240A94121613061406050638
:1024D0000895092E0394000C11F4882352F0BB0FC9
:1024E00040F4BF2B11F460FF04C06F5F7F4F8F4F2C
:1024F0009F4F089557FD9058440F551F59F05F3F67
:1025000071F04795880F97FB991F61F09F3F79F015
:1025100087950895121613061406551FF2CF469597
:10252000F1DF08C0161617061806991FF1CF869519
:102530007105610508940895E894BB2766277727FD
:10254000CB0197F908950E94B6120C9469120E946B
:102550005B1238F00E94621220F0952311F00C9467
:1025600052120C94581211240C949D120E947A124B
:1025700070F3959FC1F3950F50E0551F629FF001D6
:10258000729FBB27F00DB11D639FAA27F00DB11DEF
:10259000AA1F649F6627B00DA11D661F829F222778
:1025A000B00DA11D621F739FB00DA11D621F839FFF
:1025B000A00D611D221F749F3327A00D611D231FD5
:1025C000849F600D211D822F762F6A2F11249F5723
:1025D00050409AF0F1F088234AF0EE0FFF1FBB1F26
:1025E000661F771F881F91505040A9F79E3F5105E5
:1025F00080F00C9452120C949D125F3FE4F3983ECD
:10260000D4F3869577956795B795F795E7959F5F8E
:10261000C1F7FE2B880F911D9695879597F9089520
:10262000FA01EE0FFF1F309621053105A1F161156A
:10263000710561F48038BFE39B0749F168949038D5
:10264000810561F08038BFEF9B0741F099234AF57F
:10265000FF3FE1053105210519F1E8940894E7955C
:10266000D901AA2329F4AB2FBE2FF85FD0F310C0F5
:10267000FF5F70F4A695E0F7F73950F019F0FF3AD4
:1026800038F49F779F930DD00F9007FC90580895D2
:1026900046F00C94581260E070E080E89FE30895E3
:1026A0004FE79F775F934F933F932F930E940B14B5
:1026B0002F913F914F915F910E94A3120C94681348
:1026C00029F416F00C9452120C949C120C9458128B
:1026D0000E948212A8F39638A0F707F80F92E894A8
:1026E0002BE33AEA48EB5FE70E94B9120F920F9290
:1026F0000F924DB75EB70F920E945314E4EEF0E0D4
:102700000E949A134F915F91EF91FF91E595EE1F13
:10271000FF1F49F0FE57E0684427EE0F441FFA956B
:10272000E1F74195550B0E94CD130F9007FE0C94D5
:10273000C1130895DF93CF931F930F93FF92EF92EE
:10274000DF927B018C01689406C0DA2EEF010E94B3
:10275000B612FE01E894A5912591359145915591C8
:10276000A6F3EF010E942511FE019701A801DA945A
:1027700069F7DF90EF90FF900F911F91CF91DF915C
:1027800008959B01AC0160E070E080E89FE30C9449
:102790007F110C9452120C9487140E948212D8F369
:1027A0009923C9F3940F511DA3F39150504094F015
:1027B00059F0882332F0660F771F881F91505040E0
:1027C000C1F79E3F51052CF7880F911D969587956F
:1027D00097F908955F3FACF0983E9CF0BB27869533
:1027E00077956795B79508F4B1609395C1F7BB0FDE
:1027F00058F711F460FFE8CF6F5F7F4F8F4F9F4F07
:10280000E3CF0C949D1216F00C9487140C9458127C
:1028100068940C9452120E948212A8F39923C1F377
:10282000AEF3DF93CF931F930F93FF92C92FDD2752
:1028300088232AF02197660F771F881FDAF720E098
:1028400030E040E85FEB9FE3883920F0803E38F0CD
:1028500021968F770E940E11ECE0F1E004C00E94F7
:102860000E11E9E3F1E00E949A138B01BE01EC0125
:10287000FB2E6F5771097595771F880B990B0E9476
:10288000F31128E132E741E35FE30E94B612AF2D76
:102890009801AE01FF900F911F91CF91DF910E949F
:1028A00025110C946912FA01DC01AA0FBB1F9B01D0
:1028B000AC01BF5728F4222733274427507820C083
:1028C000B75190F4AB2F0024469537952795011CFE
:1028D000A395D2F3002071F0220F331F441FB3954C
:1028E000DAF30ED00C940D1161307105A0E88A075F
:1028F000B94630F49B01AC0166277727882790788A
:10290000309621F0208331834283538308959F3F83
:1029100031F0915020F4879577956795B795880F9A
:0E292000911D9695879597F90895F894FFCF2D
:10292E00AF0000000000AD0317034403FA03750364
:10293E00530367035374617274000D0A0046696E87
:08294E0064466972653A20003D
:00000001FF
