:100000000C9488010C94B9010C94B9010C94B901B9
:100010000C94B9010C94B9010C94B9010C94B90178
:100020000C94B9010C94B9010C94B9010C94B90168
:100030000C94B9010C94B9010C94B9010C94B90158
:100040000C94B9010C94830A0C94B9010C94B90175
:100050000C94B9010C94B9010C94B9010C944F099A
:100060000C94B9010C94B9010C94B9010C94B90128
:100070000C94B9010C94B9010C94B9010C94B90118
:100080000C94550A0C94B9010C94B9010C94B90163
:100090000C94C3090C9499090C94B9010C94B901FE
:1000A0000C94B9010C94B9010C94270A0C94B90171
:1000B0000C94B9010C94B9010C94B9010C94F90990
:1000C0000C94B9010C94B9010C94B9010C94B901C8
:1000D0000C94B9010C94B9010C94B9010C94B901B8
:1000E0000C94B90107634236B79BD8A71A396856F2
:1000F00018AEBAAB558C1D3CB7CC5763BD6DEDFD4A
:10010000753EF6177231BF000000803F0800000006
:10011000BE922449123EABAAAA2ABECDCCCC4C3EFC
:1001200000000080BEABAAAAAA3E00000000BF00EB
:100130000000803F0000000000084178D3BB4387E7
:10014000D1133D190E3CC3BD4282AD2B3E68EC82FB
:1001500076BED98FE1A93E4C80EFFFBE01C4FF7F80
:100160003F00000000000C94F4010C946E030C940A
:10017000CC0A0C94890E0C94B20F0C94B4030C941A
:100180007C030C947C0F0C94F8010C9414100C94C8
:10019000EB010C9419020C9406020C94D9010C94F6
:1001A0001E020C9402020C941E030C94B10E0C94CB
:1001B000FE010C949E0F0C9401040C944B030C94C0
:1001C0001A020C94E80F0C9414020C94E3010C94A2
:1001D0000C020C94DF010C94E7010C9410020C94B7
:1001E000CD0E0C945A030C94EE010C94670F000092
:1001F0002100240027002A002D00300033000101D7
:100200000000040107010A01000022002500280067
:100210002B002E003100340002010000050108010E
:100220000B01000020002300260029002C002F00D5
:100230003200000100000301060109010505050562
:10024000070508080808020202020A0A080804044E
:10025000040401010101010101010303030303037C
:100260000303040707070C0C0C0C0C0C0C0C02020B
:10027000020206060606060606060B0B0B0B0B0B08
:100280000B0B010210202008081020401020408095
:10029000020102010804020101020408102040804A
:1002A00080402010080402018004020180402010D8
:1002B0000804020108040201010204081020408021
:1002C000010204081020408000000A0B02090C0DF6
:1002D0000E080703040100000000000000000000F9
:1002E000000000000000000000000000000000000E
:1002F00000000000121110000000000000000000CB
:100300000000000000000000000000000000CC0A17
:1003100011241FBECFEFD1E2DEBFCDBF00E00CBF86
:1003200012E0A0E0B2E0E6E7F8E200E00BBF02C0B6
:1003300007900D92A437B107D9F723E0A4E7B2E004
:1003400001C01D92A83DB207E1F711E0C8E8D1E075
:1003500000E006C021970109802FFE010E94701065
:10036000C738D10780E00807A9F70E940C0B0C944E
:1003700039140C9400008150823108F05AC0E82FE3
:10038000F0E08827E953FE4F8F4F0C947010E7017F
:10039000EB01D901DF01E3011902EE01F401F801DB
:1003A000FE01020206020C021002190214021A02D5
:1003B0001E02809180008F77809380000895809145
:1003C00080008F7DF9CF80918000877FF5CF84B545
:1003D0008F7784BD089584B58F7DFBCF8091B00069
:1003E0008F778093B00008958091B0008F7DF9CF12
:1003F000809190008F778093900008958091900075
:100400008F7DF9CF80919000877FF5CF8091A000FC
:100410008F778093A00008958091A0008F7DF9CF01
:100420008091A000877FF5CF809120018F77809306
:1004300020010895809120018F7DF9CF80912001C6
:10044000877FF5CFCF93DF93E9EFF2E08491E3EB81
:10045000F2E0D491EDE6F2E0C491CC23A1F0811159
:100460000E94BB01EC2FF0E0EE0FFF1FEE5DFD4F91
:10047000A591B491EC91ED2381E090E009F480E046
:10048000DF91CF91089580E090E0FACF1F93CF9352
:10049000DF93282F30E0F901E853FD4F8491F901F3
:1004A000EE57FD4FD491F901E45CFD4FC491CC238C
:1004B000A9F0162F81110E94BB01EC2FF0E0EE0F86
:1004C000FF1FE85FFD4FA591B4918FB7F894EC91B1
:1004D000111108C0D095DE23DC938FBFDF91CF913F
:1004E0001F910895DE2BF8CFCF93DF9390E0FC01AE
:1004F000EE57FD4F2491845C9D4FFC01849188232D
:10050000D1F090E0880F991FFC01E251FE4FA591B8
:10051000B491FC01E85FFD4FC591D49161110EC00B
:100520009FB7F8948C91E22FE0958E238C932881CD
:10053000E223E8839FBFDF91CF9108958FB7F894AE
:10054000EC91E22BEC938FBFF6CF865320917B008A
:10055000982F987F277F922B90937B0087708064E1
:1005600080937C0080917A00806480937A008091EF
:100570007A0086FDFCCF80917800909179000895F3
:100580003FB7F8948091280390912903A0912A0302
:10059000B0912B0326B5A89B05C02F3F19F00196FB
:1005A000A11DB11D3FBFBA2FA92F982F8827BC01CD
:1005B000CD01620F711D811D911D42E0660F771FF5
:1005C000881F991F4A95D1F708958F929F92AF92F5
:1005D000BF92CF92DF92EF92FF924B015C010E949B
:1005E000C0026B017C010E94C0026C197D098E095A
:1005F0009F09683E734081059105A8F321E0821AA6
:100600009108A108B10888EEC80E83E0D81EE11C4D
:10061000F11C81149104A104B10429F7FF90EF901B
:10062000DF90CF90BF90AF909F908F900895DC01A6
:10063000ED91FC910190F081E02D1994AF92BF9261
:10064000CF92DF92EF92FF920F931F93CF93DF939E
:100650006C017B018B01040F151FEB015E01AE18CD
:10066000BF08C017D10759F06991D601ED91FC91EF
:100670000190F081E02DC6011995892B79F7C5010C
:10068000DF91CF911F910F91FF90EF90DF90CF906E
:10069000BF90AF900895FC01538D448D252F30E01D
:1006A000842F90E0821B930B541710F0CF9608957F
:1006B00001970895FC01918D828D981761F0A28DAC
:1006C000AE0FBF2FB11D5D968C91928D9F5F9F7372
:1006D000928F90E008958FEF9FEF0895FC01918D28
:1006E000828D981731F0828DE80FF11D858D90E095
:1006F00008958FEF9FEF0895FC01918D228D892F32
:1007000090E0805C9F4F821B91098F739927089519
:100710008CE293E00E947C0321E0892B09F420E025
:10072000822F0895FC01A48DA80FB92FB11DA35AE3
:10073000BF4F2C91848D90E001968F739927848F01
:10074000A689B7892C93A089B1898C918370806424
:100750008C93938D848D981306C00288F389E02DC5
:1007600080818F7D80830895EF92FF920F931F9376
:10077000CF93DF93EC0181E0888F9B8D8C8D981354
:100780001AC0E889F989808185FF15C09FB7F89460
:10079000EE89FF896083E889F989808183708064AC
:1007A00080839FBF81E090E0DF91CF911F910F91F7
:1007B000FF90EF900895F62E0B8D10E00F5F1F4F06
:1007C0000F731127E02E8C8D8E110CC00FB607FC15
:1007D000FACFE889F989808185FFF5CFCE010E94A3
:1007E0009203F1CFEB8DEC0FFD2FF11DE35AFF4F7C
:1007F000F0829FB7F8940B8FEA89FB898081806231
:10080000CFCFCF93DF93EC01888D8823B9F0AA89ED
:10081000BB89E889F9898C9185FD03C0808186FDBB
:100820000DC00FB607FCF7CF8C9185FFF2CF80810A
:1008300085FFEDCFCE010E949203E9CFDF91CF91EA
:10084000089580E090E0892B49F080E090E0892BCA
:1008500029F00E94000081110E94000080E090E0D9
:10086000892B29F00E94880381110E94000080E0FA
:1008700090E0892B49F080E090E0892B29F00E94DC
:10088000000081110E94000080E090E0892B49F077
:1008900080E090E0892B29F00E94000081110C94E7
:1008A00000000895DC01EC91E03390F511968C91F5
:1008B000119728E830E0281B310987FD3395220F76
:1008C000331F220F331F6217730784F012968C9127
:1008D00028E532E0281B310987FD3395220F331FAD
:1008E000220F331F621773070CF49B01225031094A
:1008F000220F331F4FB7F8948E2F90E0FC01EE0FBC
:10090000FF1FE80FF91FE358FD4F328321834FBFCC
:1009100008951F93CF93DF93EC01162F88818033C6
:1009200008F04EC061E0812F0E9474028881282F58
:1009300030E0F901EE0FFF1FE20FF31FE358FD4F08
:100940001F736081607C612B608319821A822CE0A6
:10095000622F0E946410829FB001112430E020E0D9
:10096000AB01420F531FFA01EE0FFF1FE40FF51FFB
:10097000E358FD4F908196FD16C02F5F3F4F2C30FE
:10098000310571F7813009F51092800082E0809383
:1009900081001092850010928400B19A80916F00BE
:1009A000826080936F00E8818E2F90E0FC01EE0F53
:1009B000FF1FE80FF91FE358FD4F8081806480839B
:1009C0008881DF91CF911F910895823061F4109258
:1009D000900080939100109295001092940088BB33
:1009E00080937100E0CF833069F41092A00082E020
:1009F0008093A1001092A5001092A40089BB80935F
:100A00007200D1CF8111CFCF1092200182E080936C
:100A1000210110922501109224018ABB809373005A
:100A2000C2CFAF92BF92CF92DF92EF92FF920F931D
:100A30001F93CF93DF936B017A01EC01C858DD4F10
:100A400028813CE0389F8001399F100D1124A0902F
:100A50007C02B12C27FF1FC0FB011182108288810C
:100A60008F5F888388819801280F311D87FD3A9513
:100A7000F6012A153B051CF488818C30C4F1808175
:100A80009181049680349C4908F473C0F6018081FA
:100A90009181049670C088819801280F311D87FDCF
:100AA0003A952A153B05DCF68881A801480F511DAF
:100AB00087FD5A95FA01EE0FFF1FE40FF51FE3586B
:100AC000FD4F808186FFCBCF8881F801E80FF11DB3
:100AD00087FDFA95CF01EE0FFF1FE80FF91FE358CE
:100AE000FD4F808160E08F730E944602B8CF808105
:100AF00091812881A801420F511D27FD5A959A0125
:100B0000FA01EE0FFF1FE20FF31FE358FD4F2181A3
:100B10003281820F931FF70191838083888198012E
:100B2000280F311D87FD3A95F901EE0FFF1FE20FE7
:100B3000F31FE358FD4F808186FF22C08881080F94
:100B4000111D87FD1A95F801EE0FFF1FE00FF11F31
:100B5000E358FD4F808161E08F73DF91CF911F914A
:100B60000F91FF90EF90DF90CF90BF90AF900C94DB
:100B7000460280E49CE9F701918380838FEF8883AC
:100B8000DF91CF911F910F91FF90EF90DF90CF9069
:100B9000BF90AF9008954F925F926F927F928F9225
:100BA0009F92AF92BF92CF92DF92EF92FF920F93FC
:100BB0001F93CF93DF93412C512C3201812C912C28
:100BC000540103E010E0C3E2D0E060E080E30E9463
:100BD0004602C8010197F1F761E080E30E944602F6
:100BE000CE010197F1F760E080E30E9446020E9487
:100BF0002202892B29F40E94C0024B015C01F7CF2D
:100C00000E942202019729F40E94C0022B013C019C
:100C1000F7CFC301B201681979098A099B090E94BB
:100C20008D112AE939E949EB50E40E94EA106B0181
:100C30007C01C0927402D0927502E0927602F0922A
:100C4000770220E030E0A9010E94E51087FDBDCFCA
:100C500061E070E080E090E00E94E502C701B6012B
:100C6000DF91CF911F910F91FF90EF90DF90CF9088
:100C7000BF90AF909F908F907F906F905F904F90BC
:100C80000895CF92DF92EF92FF920F931F93CF932D
:100C9000DF9384E40E94A502EC0182E40E94A50295
:100CA0007C0183E40E94A5028C0185E40E94A502D8
:100CB0006C010E94CB05C83E23E0D20744F020E03F
:100CC00030E048EC52E40E94E51087FD2FC0CE15BD
:100CD000DF055CF0C017D107A4F183E090E0CC15EC
:100CE000DD0534F5EC16FD0684F1E016F1065CF046
:100CF00082E090E0EC14FD04DCF40C171D0744F0D6
:100D00000E151F052CF081E090E00C151D0584F4F4
:100D1000CC16DD0644F0CE14DF042CF084E090E025
:100D2000C016D1062CF490E080E002C085E090E08F
:100D3000DF91CF911F910F91FF90EF90DF90CF90B7
:100D40000895EC16FD06E4F2D0CF0C171D071CF336
:100D5000D7CF4F925F926F927F928F929F92AF9276
:100D6000BF92CF92DF92EF92FF92CF93DF9300D0AA
:100D700000D0CDB7DEB78CE390E09E838D83812CCD
:100D8000912C5401750164018BE30E94A502BC0102
:100D9000990F880B990B0E948D1123E333E343E5F0
:100DA0005FEB0E94AF1269837A838B839C832AE076
:100DB00037ED43E25CE3C501B4010E9479104B01B9
:100DC0005C0120E030E040E85FE30E9479109B0185
:100DD000AC01C501B4010E94EA102B013C012DECCD
:100DE0003CE04EE056E469817A818B819C810E94CF
:100DF0004212A70196010E947810A30192010E945D
:100E000042129B01AC01C701B6010E9479106B012F
:100E10007C018D819E8101979E838D83A301920128
:100E2000C501B4010E9442129B01AC0160E070E078
:100E300080E89FE30E9478104B015C018D819E81C8
:100E4000892B09F0A1CFA7019601C701B6010E9425
:100E5000E510882339F0C12C8CE3D82E8CE1E82EE4
:100E600086E4F82EC701B60126960FB6F894DEBFC9
:100E70000FBECDBFDF91CF91FF90EF90DF90CF906D
:100E8000BF90AF909F908F907F906F905F904F90AA
:100E900008954F925F926F927F928F929F92AF923E
:100EA000BF92CF92DF92EF92FF92CF93DF9300D069
:100EB00000D0CDB7DEB78CE390E09E838D83812C8C
:100EC000912C5401750164018AE30E94A502BC01C2
:100ED000990F880B990B0E948D112EEF34ED48E588
:100EE0005FEB0E94AF1269837A838B839C832AE035
:100EF00037ED43E25CE3C501B4010E9479104B0178
:100F00005C0120E030E040E85FE30E9479109B0143
:100F1000AC01C501B4010E94EA102B013C0120E0A4
:100F20003CE041E256E469817A818B819C810E9498
:100F30004212A70196010E947810A30192010E941B
:100F400042129B01AC01C701B6010E9479106B01EE
:100F50007C018D819E8101979E838D83A3019201E7
:100F6000C501B4010E9442129B01AC0160E070E037
:100F700080E89FE30E9478104B015C018D819E8187
:100F8000892B09F0A1CFA7019601C701B6010E94E4
:100F9000E510882339F0C12C8CE3D82E8CE1E82EA3
:100FA00086E4F82EC701B60126960FB6F894DEBF88
:100FB0000FBECDBFDF91CF91FF90EF90DF90CF902C
:100FC000BF90AF909F908F907F906F905F904F9069
:100FD0000895FB0101900020E9F73197AF01461B0E
:100FE000570BDC01ED91FC910280F381E02D199407
:100FF0008F929F92AF92BF92EF92FF920F931F93A7
:10100000CF93DF93CDB7DEB7A1970FB6F894DEBFCD
:101010000FBECDBF7C01FA01CB0119A2223008F42A
:101020002AE08E010F5D1F4F822E912CB12CA12C36
:10103000BF01A50194010E944210F901CA016A3062
:101040000CF5605DD8016E938D01232B242B252B8D
:1010500079F790E080E0109721F0BD01C7010E9470
:10106000E907A1960FB6F894DEBF0FBECDBFDF91A2
:10107000CF911F910F91FF90EF90BF90AF909F90F5
:101080008F900895695CDECF4F925F926F927F924E
:101090008F929F92AF92BF92CF92DF92EF92FF9288
:1010A000CF93DF93EC016A017B01AB019601CB0189
:1010B000B6010E94FF1264E172E081111AC046017C
:1010C0005701E894B7F82FEF3FEF4FE75FE7C5010F
:1010D000B4010E94FF12811126C02FEF3FEF4FE7AE
:1010E0005FE7C501B4010E94E5101816E4F468E159
:1010F00072E0CE010E94E9077C0160E272E0CE015D
:101100000E94E9078E0D9F1DDF91CF91FF90EF9018
:10111000DF90CF90BF90AF909F908F907F906F9017
:101120005F904F9008952FEF3FEF4FE75FE4C701C7
:10113000B6010E943D1218161CF46CE172E0D9CF82
:101140002FEF3FEF4FE75FECC701B6010E94E510BC
:1011500087FDF3CF20E030E0A901C701B6010E946E
:10116000E510B12CA12C87FF09C06DE2CE010E94D1
:1011700017035C01F7FAF094F7F8F0942AE037EDE2
:1011800043EA5BE3C701B6010E9479102B013C01E1
:101190000E945C116B017C010E948B119B01AC01D0
:1011A000C301B2010E9478102B013C012AE0B70173
:1011B000A601CE010E94F8077C01EA0CFB1C6EE23E
:1011C000CE010E941703E80EF91E20E030E040E255
:1011D00051E4C301B2010E9442122B013C010E9462
:1011E0005C114B01B12CA12C2AE0B501A401CE0168
:1011F0000E94F807E80EF91EC501B4010E948B1188
:101200009B01AC01C301B2010E94781020E030E0E4
:1012100040E251E40E9442120E945C11AB0170E076
:1012200060E02AE0CE010E94F807E80EF91E65CFC3
:10123000CF92DF92EF92FF920F931F93CF93DF93A2
:101240008C016B01770FEE08FF08F7FE21C06DE2FD
:101250000E941703EC0144275527BA014C195D0978
:101260006E097F092AE0C8010E94F807C80FD91F3C
:1012700060E272E0C8010E94E9078C0F9D1FDF91B8
:10128000CF911F910F91FF90EF90DF90CF90089535
:101290002AE0B701A6010E94F807EC01E9CF1F92EE
:1012A0000F920FB60F9211242F933F938F939F931A
:1012B000AF93BF938091240390912503A0912603BF
:1012C000B09127033091230323E0230F2D3758F5E6
:1012D0000196A11DB11D20932303809324039093B5
:1012E0002503A0932603B0932703809128039091B0
:1012F0002903A0912A03B0912B030196A11DB11DD2
:101300008093280390932903A0932A03B0932B037F
:10131000BF91AF919F918F913F912F910F900FBEF1
:101320000F901F90189526E8230F0296A11DB11D5E
:10133000D2CF1F920F920FB60F9211240BB60F92BD
:101340002F933F934F935F936F937F938F939F93CD
:10135000AF93BF93EF93FF938CE293E00E949203CD
:10136000FF91EF91BF91AF919F918F917F916F917D
:101370005F914F913F912F910F900BBE0F900FBE39
:101380000F901F9018951F920F920FB60F92112475
:101390000BB60F922F938F939F93EF93FF93E09150
:1013A0003C03F0913D038081E0914203F0914303BF
:1013B00082FD1DC09081809145038F5F8F732091C6
:1013C0004603821741F0E0914503F0E0E45DFC4FF5
:1013D000958F80934503FF91EF919F918F912F916E
:1013E0000F900BBE0F900FBE0F901F90189580812D
:1013F000F2CF1F920F920FB60F9211240BB60F92DD
:101400002F933F934F935F936F937F938F939F930C
:10141000AF93BF93EF93FF9348E251E064E271E032
:1014200090E080E00E941105FF91EF91BF91AF9194
:101430009F918F917F916F915F914F913F912F91EC
:101440000F900BBE0F900FBE0F901F9018951F921C
:101450000F920FB60F9211240BB60F922F933F935A
:101460004F935F936F937F938F939F93AF93BF93AC
:10147000EF93FF9348EA50E064EA70E083E090E085
:101480000E941105FF91EF91BF91AF919F918F91B4
:101490007F916F915F914F913F912F910F900BBE74
:1014A0000F900FBE0F901F9018951F920F920FB6BE
:1014B0000F9211240BB60F922F933F934F935F938C
:1014C0006F937F938F939F93AF93BF93EF93FF930C
:1014D00048E950E064E970E082E090E00E94110584
:1014E000FF91EF91BF91AF919F918F917F916F91FC
:1014F0005F914F913F912F910F900BBE0F900FBEB8
:101500000F901F9018951F920F920FB60F921124F3
:101510000BB60F922F933F934F935F936F937F93ED
:101520008F939F93AF93BF93EF93FF9348E850E05F
:1015300064E870E081E090E00E941105FF91EF9176
:10154000BF91AF919F918F917F916F915F914F91DB
:101550003F912F910F900BBE0F900FBE0F901F90D9
:101560001895FC0190917C02903398F481E0890FEA
:1015700080937C029083892F90E0FC01EE0FFF1F87
:10158000E80FF91FE358FD4F88EB9BE092838183BE
:1015900008958FEF80830895ECE2F3E013821282C6
:1015A00088EE93E0A0E0B0E084839583A683B783C0
:1015B00086E092E0918380838DEC90E0958784872C
:1015C0008CEC90E09787868788EC90E0918B808BFD
:1015D00089EC90E0938B828B8AEC90E0958B848BE6
:1015E0008EEC90E0978B868B118E128E138E148E5C
:1015F00085ED93E00E94B10A82ED93E00E94B10A6A
:101600008FEC93E00E94B10A8CEC93E00E94B10A47
:1016100089EC93E00C94B10ACF93DF93CDB7DEB79A
:1016200062970FB6F894DEBF0FBECDBF789484B535
:10163000826084BD84B5816084BD85B5826085BDCE
:1016400085B5816085BD80916E00816080936E005C
:10165000109281008091810082608093810080914E
:1016600081008160809381008091800081608093FF
:1016700080008091B10084608093B1008091B000BF
:1016800081608093B000809191008260809391008E
:1016900080919100816080939100809190008160A1
:1016A000809390008091A10082608093A10080913E
:1016B000A10081608093A1008091A000816080934F
:1016C000A0008091210182608093210180912101FD
:1016D00081608093210180912001816080932001AD
:1016E00080917A00846080937A0080917A00826091
:1016F00080937A0080917A00816080937A00809153
:101700007A00806880937A001092C10068E873E1E3
:1017100080E090E00E94E5028CE293E09093220347
:1017200080932103E0913C03F0913D0382E08083AC
:10173000E0913803F09139031082E0913A03F0917F
:101740003B0380E1808310924403E0914003F091D9
:10175000410386E08083E0913E03F0913F03808166
:1017600080618083E0913E03F0913F038081886037
:101770008083E0913E03F0913F0380818068808305
:10178000E0913E03F0913F0380818F7D808360E094
:1017900081E30E94740261E080E30E94740260E0D1
:1017A0008AE30E94740260E08BE30E94740260E0AE
:1017B0008CE30E94740260E08DE30E9474026EE28A
:1017C00070E085ED93E00E9489046FE270E082EDA5
:1017D00093E00E94890462E370E08FEC93E00E9442
:1017E000890463E370E08CEC93E00E9489046BE071
:1017F00070E089EC93E00E94890460E085E40E9437
:10180000740224E630E03A83298385E40E94A5022D
:1018100065E070E080E090E00E94E50249815A8135
:10182000415051095A834983452B79F763E272E0AD
:101830008CE293E00E94E90760E272E08CE293E0C0
:101840000E94E90722242394312C80910002909178
:10185000010220910D0330910E03820F931F853FEB
:1018600051E095070CF0CDC19093010280930002E6
:1018700010920E0310920D0322E030E030931E030D
:1018800020931D033092200320921F030E944106E3
:101890008130910509F0B8C190931A038093190320
:1018A00042E050E050931803409317030E94410612
:1018B000059751F4309212032092110348E050E052
:1018C0005093100340930F0384E690E09E838D8332
:1018D000412C512C3201730162018DE30E94A5025B
:1018E000BC01990F880B990B0E948D112CE934ECE7
:1018F00040E85FEB0E94AF1269837A838B839C83FD
:101900002AE037ED43EA5BE3C701B6010E94791094
:101910006B017C0120E030E040E85FE30E94791039
:101920009B01AC01C701B6010E94EA104B015C01AA
:1019300020E033E445E457E469817A818B819C811E
:101940000E944212A30192010E947810A501940105
:101950000E9442129B01AC01C301B2010E947910A6
:101960002B013C012D813E81215031093E832D8385
:10197000A5019401C701B6010E9442129B01AC016E
:1019800060E070E080E89FE30E9478106B017C01CA
:101990004D815E81452B09F0A0CFA3019201C301C7
:1019A000B2010E94E510882339F0412C9CE3592EA6
:1019B0009CE1692E96E4792E0E94A90669837A83B8
:1019C0008B839C830E9449076D837E838F839887D6
:1019D00084E690E09A8B898B812C912C54017501BF
:1019E00064018CE30E94A502BC01990F880B990B3E
:1019F0000E948D1120EA3AE14FE65FEB0E94AF12A0
:101A00006D877E878F87988B2AE037ED43E25CE312
:101A1000C701B6010E9479106B017C0120E030E023
:101A200040E85FE30E9479109B01AC01C701B60159
:101A30000E94EA1069877A878B879C8720E033E1D0
:101A400048E257E46D857E858F8598890E94421211
:101A5000A50194010E94781029853A854B855C8503
:101A60000E9442129B01AC01C501B4010E94791091
:101A70004B015C0129893A89215031093A8B298B24
:101A800029853A854B855C85C701B6010E944212C3
:101A90009B01AC0160E070E080E89FE30E94781059
:101AA0006B017C0149895A89452B09F09ACF20E0C6
:101AB00030E048E452E4C501B4010E9478106B01A3
:101AC0007C01AC019B010E94E510882339F0C12CF8
:101AD0008CE3D82E8CE1E82E86E4F82E0E94CB050C
:101AE0004B015C0120E030E048EC52E469817A81EE
:101AF0008B819C810E94E51087FF0EC051E05D87BD
:101B000020E03CE34CE156E469817A818B819C8141
:101B10000E94E510811101C01D8620E030E048ECF4
:101B200052E4C301B2010E94E51087FF0CC020E01F
:101B30003CE34CE156E4C301B2010E94E510882366
:101B400011F081E08D8720E030E048EC52E46D81B7
:101B50007E818F8198850E94E51087FF0EC091E0FD
:101B6000998720E03CE34CE156E46D817E818F81D2
:101B700098850E94E510811101C0198620E030E0AF
:101B800048EC52E4C701B6010E94E51087FF0CC083
:101B900020E03CE34CE156E4C701B6010E94E510A9
:101BA000882311F021E0298720E030E046E153E46A
:101BB00069817A818B819C810E94E51087FF0CC02E
:101BC00020E030E046E153E46D817E818F8198858D
:101BD0000E94E51087FD44C020E030E048EC52E46C
:101BE000C501B4010E94E51087FD3AC03D85311161
:101BF0003BC2998591113BC21092160310921503B6
:101C000039C084EF91E030CE8230910559F43092A2
:101C10001A032092190383E090E0909318038093B5
:101C2000170344CE8330910549F430921A03209271
:101C30001903109218031092170338CE049759F421
:101C400030921A032092190327E030E030931803F2
:101C5000209317032BCE10921A031092190326CE4D
:101C6000309216032092150346E050E0509314037F
:101C70004093130380911F0390912003019741F437
:101C800080911D0390911E0390931C0380931B036E
:101C90008091190390911A03019741F480911703E1
:101CA0009091180390931C0380931B03809115035C
:101CB00090911603019741F48091130390911403BE
:101CC00090931C0380931B03809111039091120346
:101CD000019741F480910F039091100390931C039E
:101CE00080931B03E0911B03F0911C03E930F10585
:101CF00008F071C08827E058F14F8F4F0C94701096
:101D0000890EB10ECD0E670F7C0F9E0FB20FE80F3C
:101D1000141020910002309101023A832983890135
:101D200004521A4FB80185ED93E00E945204B801A5
:101D300082ED93E00E9452048CED95E0AC01298184
:101D40003A81421B530B5A834983BA018FEC93E0CB
:101D50000E94520469817A818CEC93E00E945204C3
:101D60005EC140910002509101025A8349830CEDFB
:101D700015E0041B150BB80185ED93E00E94520499
:101D8000B80182ED93E00E94520489819A818452C5
:101D90009A4F9A838983BC01D9CF68E775E085EDB6
:101DA00093E00E94520468E775E082ED93E00E94A0
:101DB000520468E775E08FEC93E00E94520468E7F4
:101DC00075E08CEC93E00E94520469E170E080E0E1
:101DD00090E00E94E5020E9441069A83898384E490
:101DE0000E94A5028C010E94CB052B013C010E94A0
:101DF000A9064B015C010E9449076B017C0169E265
:101E000072E080912103909122030E94E907698189
:101E10007A8180912103909122030E9418096FE238
:101E200072E080912103909122030E94E907B8019A
:101E300080912103909122030E9418096AE372E0C5
:101E400080912103909122030E94E907B301A2012E
:101E500080912103909122030E9444086AE472E079
:101E600080912103909122030E94E907B501A4010A
:101E700080912103909122030E9444086EE572E054
:101E800080912103909122030E94E907B701A601E6
:101E900080912103909122030E94440880912103A4
:101EA000909122039A8389836DE272E00E94E90790
:101EB00060E272E089819A810E94E90762E370E042
:101EC00080E090E00E94E5020E942104BECC60E424
:101ED00076E085ED93E00E94520460E476E082EDC6
:101EE00093E00E94520460E476E08FEC93E00E945D
:101EF000520460E476E065CF209100023091010247
:101F00003A8329830CED15E0021B130BB80185ED14
:101F100093E00E94520449815A8144525A4F5A8395
:101F20004983BA0182ED93E00E94520469817A816B
:101F30008FEC93E00E945204B8010ECFE0900002B3
:101F4000F0900102870104521A4FB80185ED93E029
:101F50000E9452048CED95E08E199F099A83898323
:101F6000BC01E0CF00910002109101022CED35E0A0
:101F7000201B310B3A832983B90185ED93E00E9440
:101F8000520469817A8182ED93E00E9452040452E6
:101F90001A4FB8018FEC93E00E945204B8018CEC08
:101FA00093E00E94520464E670E080E090E00E94BA
:101FB000E50269817A8185ED93E00E94520469818E
:101FC0007A8182ED93E00E94520469817A81BECECB
:101FD00080910002909101024CED55E0481B590B95
:101FE0005A834983BA0185ED93E00E9452046981C6
:101FF0007A8182ED93E00E94520469817A818FECAC
:1020000093E00E94520469817A818CEC93E00E94F3
:10201000520468EE73E080E090E00E94E50262E323
:1020200070E080E090E0D5CE6CED75E085ED93E05A
:102030000E9452046CED75E082ED93E00E94520420
:102040006CED75E08FEC93E00E9452046CED75E04E
:1020500083CE309216032092150325E030E03093B2
:1020600014032093130306CE3985332391F3309262
:1020700016032092150384E090E09093140380935C
:102080001303F8CDA1E21A2EAA1BBB1BFD010DC044
:10209000AA1FBB1FEE1FFF1FA217B307E407F50718
:1020A00020F0A21BB30BE40BF50B661F771F881FF4
:1020B000991F1A9469F760957095809590959B018A
:1020C000AC01BD01CF010895991B79E004C0991FAF
:1020D000961708F0961B881F7A95C9F78095089582
:1020E000EE0FFF1F881F8BBF0790F691E02D19940C
:1020F0005058BB27AA270E9490100C9403120E94EC
:10210000F51138F00E94FC1120F039F49F3F19F4CA
:1021100026F40C94F2110EF4E095E7FB0C94EC110C
:10212000E92F0E94141258F3BA1762077307840745
:10213000950720F079F4A6F50C9436120EF4E0958C
:102140000B2EBA2FA02D0B01B90190010C01CA0171
:10215000A0011124FF27591B99F0593F50F4503E1C
:1021600068F11A16F040A22F232F342F4427585F0E
:10217000F3CF469537952795A795F0405395C9F726
:102180007EF41F16BA0B620B730B840BBAF09150DE
:10219000A1F0FF0FBB1F661F771F881FC2F70EC07D
:1021A000BA0F621F731F841F48F487957795679550
:1021B000B795F7959E3F08F0B0CF9395880F08F03C
:1021C0009927EE0F9795879508950E94C81108F4F6
:1021D00081E008950E94FE100C9403120E94FC11ED
:1021E00058F00E94F51140F029F45F3F29F00C945B
:1021F000EC1151110C9437120C94F2110E9414122C
:1022000068F39923B1F3552391F3951B550BBB2725
:10221000AA2762177307840738F09F5F5F4F220F6A
:10222000331F441FAA1FA9F335D00E2E3AF0E0E861
:1022300032D091505040E695001CCAF72BD0FE2FAB
:1022400029D0660F771F881FBB1F2617370748073F
:10225000AB07B0E809F0BB0B802DBF01FF279358F7
:102260005F4F3AF09E3F510578F00C94EC110C94BE
:1022700037125F3FE4F3983ED4F3869577956795E0
:10228000B795F7959F5FC9F7880F911D969587952C
:1022900097F90895E1E0660F771F881FBB1F62174B
:1022A00073078407BA0720F0621B730B840BBA0B09
:1022B000EE1F88F7E09508950E941C1288F09F5742
:1022C00098F0B92F9927B751B0F0E1F0660F771F5A
:1022D000881F991F1AF0BA95C9F714C0B13091F050
:1022E0000E943612B1E008950C943612672F782FB1
:1022F0008827B85F39F0B93FCCF386957795679515
:10230000B395D9F73EF490958095709561957F4F80
:102310008F4F9F4F0895E89409C097FB3EF4909526
:102320008095709561957F4F8F4F9F4F9923A9F0AE
:10233000F92F96E9BB279395F6958795779567953D
:10234000B795F111F8CFFAF4BB0F11F460FF1BC081
:102350006F5F7F4F8F4F9F4F16C0882311F096E914
:1023600011C0772321F09EE8872F762F05C06623C2
:1023700071F096E8862F70E060E02AF09A95660F7B
:10238000771F881FDAF7880F9695879597F9089534
:10239000990F0008550FAA0BE0E8FEEF1616170676
:1023A000E807F907C0F012161306E407F50798F0DE
:1023B000621B730B840B950B39F40A2661F0232BF7
:1023C000242B252B21F408950A2609F4A140A69573
:1023D0008FEF811D811D089597F99F6780E870E058
:1023E00060E008959FEF80EC089500240A9416168B
:1023F000170618060906089500240A9412161306F3
:10240000140605060895092E0394000C11F4882380
:1024100052F0BB0F40F4BF2B11F460FF04C06F5F9C
:102420007F4F8F4F9F4F089557FD9058440F551F72
:1024300059F05F3F71F04795880F97FB991F61F046
:102440009F3F79F087950895121613061406551FBD
:10245000F2CF4695F1DF08C0161617061806991F29
:10246000F1CF86957105610508940895E894BB271E
:1024700066277727CB0197F908950E94C81108F4C1
:102480008FEF08950E9455120C9403120E94F511CB
:1024900038F00E94FC1120F0952311F00C94EC11FF
:1024A0000C94F21111240C9437120E94141270F340
:1024B000959FC1F3950F50E0551F629FF001729FE9
:1024C000BB27F00DB11D639FAA27F00DB11DAA1FF8
:1024D000649F6627B00DA11D661F829F2227B00D45
:1024E000A11D621F739FB00DA11D621F839FA00DD0
:1024F000611D221F749F3327A00D611D231F849F20
:10250000600D211D822F762F6A2F11249F57504076
:102510009AF0F1F088234AF0EE0FFF1FBB1F661FF1
:10252000771F881F91505040A9F79E3F510580F0BA
:102530000C94EC110C9437125F3FE4F3983ED4F303
:10254000869577956795B795F795E7959F5FC1F75E
:10255000FE2B880F911D9695879597F90895FA019E
:10256000EE0FFF1F309621053105A1F161157105B0
:1025700061F48038BFE39B0749F168949038810586
:1025800061F08038BFEF9B0741F099234AF5FF3F88
:10259000E1053105210519F1E8940894E795D90181
:1025A000AA2329F4AB2FBE2FF85FD0F310C0FF5F32
:1025B00070F4A695E0F7F73950F019F0FF3A38F4C7
:1025C0009F779F930DD00F9007FC9058089546F089
:1025D0000C94F21160E070E080E89FE308954FE70B
:1025E0009F775F934F933F932F930E94AF132F9149
:1025F0003F914F915F910E9442120C940C130E94E4
:10260000C811880B990B089529F416F00C94EC115D
:102610000C9436120C94F2110E941C12A8F39638F6
:10262000A0F707F80F92E8942BE33AEA48EB5FE74C
:102630000E9458120F920F920F924DB75EB70F92F1
:102640000E94F713E4EEF0E00E943E134F915F9179
:10265000EF91FF91E595EE1FFF1F49F0FE57E068EF
:102660004427EE0F441FFA95E1F74195550B0E9460
:1026700071130F9007FE0C9465130895DF93CF93A9
:102680001F930F93FF92EF92DF927B018C0168946E
:1026900006C0DA2EEF010E945512FE01E894A591C2
:1026A0002591359145915591A6F3EF010E94901027
:1026B000FE019701A801DA9469F7DF90EF90FF908F
:1026C0000F911F91CF91DF9108959B01AC0160E0C4
:1026D00070E080E89FE30C94EA100C94EC110C94E9
:1026E0002B140E941C12D8F39923C9F3940F511D87
:1026F000A3F39150504094F059F0882332F0660FC4
:10270000771F881F91505040C1F79E3F51052CF70D
:10271000880F911D9695879597F908955F3FACF0C6
:10272000983E9CF0BB27869577956795B79508F4FA
:10273000B1609395C1F7BB0F58F711F460FFE8CF74
:102740006F5F7F4F8F4F9F4FE3CF0C94371216F080
:102750000C942B140C94F21168940C94EC110E94BC
:102760001C12A8F39923C1F3AEF3DF93CF931F9309
:102770000F93FF92C92FDD2788232AF02197660F38
:10278000771F881FDAF720E030E040E85FEB9FE337
:10279000883920F0803E38F021968F770E9479109A
:1027A000ECE0F1E004C00E947910E9E3F1E00E945E
:1027B0003E138B01BE01EC01FB2E6F57710975951D
:1027C000771F880B990B0E948D1128E132E741E3B6
:1027D0005FE30E945512AF2D9801AE01FF900F915B
:1027E0001F91CF91DF910E9490100C940312FA0177
:1027F000DC01AA0FBB1F9B01AC01BF5728F42227A5
:1028000033274427507820C0B75190F4AB2F0024D1
:10281000469537952795011CA395D2F3002071F0BA
:10282000220F331F441FB395DAF30ED00C947810A7
:1028300061307105A0E88A07B94630F49B01AC010C
:102840006627772788279078309621F02083318378
:102850004283538308959F3F31F0915020F4879530
:1028600077956795B795880F911D9695879597F9F8
:062870000895F894FFCF6B
:10287600AF0000000000B4031E034B0301047C03F9
:102886005A036E036E616E00696E66006F766600AF
:102896000D0A0053746172740056616C3A2000662A
:1028A600726F6E742069733A200066726F6E7420C0
:1028B600646973742069733A20006C6566742064D9
:1028C60069616720646973742069733A20007269CC
:1028D600676874206469616720646973742069732A
:0428E6003A20000094
:00000001FF
