:100000000C9486010C94B7010C94B7010C94B701C1
:100010000C94B7010C94B7010C94B7010C94B70180
:100020000C94B7010C94B7010C94B7010C94B70170
:100030000C94B7010C94B7010C94B7010C94B70160
:100040000C94B7010C941D0D0C94B7010C94B701DE
:100050000C94B7010C94B7010C94B7010C94E90B04
:100060000C94B7010C94B7010C94B7010C94B70130
:100070000C94B7010C94B7010C94B7010C94B70120
:100080000C94EF0C0C94B7010C94B7010C94B701CD
:100090000C945D0C0C94330C0C94B7010C94B701C8
:1000A0000C94B7010C94B7010C94C10C0C94B701DB
:1000B0000C94B7010C94B7010C94B7010C94930CF9
:1000C0000C94B7010C94B7010C94B7010C94B701D0
:1000D0000C94B7010C94B7010C94B7010C94B701C0
:1000E0000C94B70107634236B79BD8A71A396856F4
:1000F00018AEBAAB558C1D3CB7CC5763BD6DEDFD4A
:10010000753EF6177231BF000000803F0800000006
:10011000BE922449123EABAAAA2ABECDCCCC4C3EFC
:1001200000000080BEABAAAAAA3E00000000BF00EB
:100130000000803F0000000000084178D3BB4387E7
:10014000D1133D190E3CC3BD4282AD2B3E68EC82FB
:1001500076BED98FE1A93E4C80EFFFBE01C4FF7F80
:100160003F00000000000C9418020C9418040C943A
:10017000FC010C946E0B0C94D7010C9400020C94AF
:1001800012020C9470030C940C0B0C94980B0C94AE
:10019000F6010C94E1010C9465040C9420030C947A
:1001A000E5010C94160B0C945A0B0C94F2010C9470
:1001B00017020C9404020C94A70D0C94EC010C94FF
:1001C0000A020C94D80A0C947E030C940E020C9430
:1001D0005C030C94F40A0C94DD010C944D030C9414
:1001E000E9010C94B60A0C941C02000021002400C2
:1001F00027002A002D003000330001010000040117
:1002000007010A0100002200250028002B002E0013
:100210003100340002010000050108010B0100005B
:1002200020002300260029002C002F0032000001AE
:100230000000030106010901050505050705080879
:100240000808020202020A0A080804040404010160
:100250000101010101010303030303030303040775
:1002600007070C0C0C0C0C0C0C0C0202020206060C
:100270000606060606060B0B0B0B0B0B0B0B0102FF
:1002800010202008081020401020408002010201A8
:100290000804020101020408102040808040201060
:1002A00008040201800402018040201008040201B9
:1002B0000804020101020408102040800102040821
:1002C0001020408000000A0B02090C0D0E080703E5
:1002D0000401000000000000000000000000000019
:1002E000000000000000000000000000000000000E
:1002F00012111000000000000000000000000000CB
:1003000000000000000000000000A70D11241FBE27
:10031000CFEFD1E2DEBFCDBF00E00CBF12E0A0E026
:10032000B2E0EEECF3E200E00BBF02C007900D92EA
:10033000AE31B107D9F723E0AEE1B2E001C01D92C2
:10034000AE37B207E1F711E0C6E8D1E000E006C041
:1003500021970109802FFE010E94500EC538D10758
:1003600080E00807A9F70E94AB0D0C94E5110C94EE
:1003700000008150823108F05AC0E82FF0E0882751
:10038000EB53FE4F8F4F0C94500EE501E901D7015E
:10039000DD01E1011702EC01F201F601FC010002AE
:1003A00004020A020E021702120218021C028091B5
:1003B00080008F77809380000895809180008F7DEA
:1003C000F9CF80918000877FF5CF84B58F7784BD8A
:1003D000089584B58F7DFBCF8091B0008F77809397
:1003E000B00008958091B0008F7DF9CF809190008A
:1003F0008F77809390000895809190008F7DF9CF42
:1004000080919000877FF5CF8091A0008F778093B7
:10041000A00008958091A0008F7DF9CF8091A00069
:10042000877FF5CF809120018F77809320010895F9
:10043000809120018F7DF9CF80912001877FF5CFBA
:10044000CF93DF93E5EFF2E08491EFEAF2E0D4910D
:10045000E9E6F2E0C491CC23A1F081110E94B90138
:10046000EC2FF0E0EE0FFF1FE25EFD4FA591B4917F
:10047000EC91ED2381E090E009F480E0DF91CF91F1
:10048000089580E090E0FACF1F93CF93DF93282F59
:1004900030E0F901EC53FD4F8491F901E258FD4F32
:1004A000D491F901E85CFD4FC491CC23A9F0162F3B
:1004B00081110E94B901EC2FF0E0EE0FFF1FEC5FFD
:1004C000FD4FA591B4918FB7F894EC91111108C02C
:1004D000D095DE23DC938FBFDF91CF911F910895DC
:1004E000DE2BF8CFCF93DF9390E0FC01E258FD4F75
:1004F0002491885C9D4FFC0184918823C9F090E091
:10050000880F991FFC01E651FE4FA591B491FC01A3
:10051000EC5FFD4FC591D49161110DC09FB7F89468
:100520008C91209582238C938881282328839FBFD8
:10053000DF91CF910895623051F49FB7F8943C91C8
:10054000822F809583238C93E8812E2BEFCF8FB75A
:10055000F894EC912E2B2C938FBFEACF86532091E9
:100560007B00982F987F277F922B90937B0087703A
:10057000806480937C0080917A00806480937A000C
:1005800080917A0086FDFCCF80917800909179006F
:1005900008953FB7F89480917A0390917B03A091DE
:1005A0007C03B0917D0326B5A89B05C02F3F19F0B1
:1005B0000196A11DB11D3FBFBA2FA92F982F8827E3
:1005C000BC01CD01620F711D811D911D42E0660FBE
:1005D000771F881F991F4A95D1F708958F929F9290
:1005E000AF92BF92CF92DF92EF92FF924B015C01EC
:1005F0000E94C9026B017C010E94C9026C197D092D
:100600008E099F09683E734081059105A8F321E09A
:10061000821A9108A108B10888EEC80E83E0D81E9E
:10062000E11CF11C81149104A104B10429F7FF908D
:10063000EF90DF90CF90BF90AF909F908F900895F4
:10064000AF92BF92CF92DF92EF92FF920F931F93E0
:10065000CF93DF936C017B018B01040F151FEB011E
:100660005E01AE18BF08C017D10759F06991D601D5
:10067000ED91FC910190F081E02DC6011995892B37
:1006800079F7C501DF91CF911F910F91FF90EF9006
:10069000DF90CF90BF90AF900895FC01538D448DB3
:1006A000252F30E0842F90E0821B930B541710F01D
:1006B000CF96089501970895FC01918D828D98172A
:1006C00061F0A28DAE0FBF2FB11D5D968C91928D02
:1006D0009F5F9F73928F90E008958FEF9FEF089533
:1006E000FC01918D828D981731F0828DE80FF11DFC
:1006F000858D90E008958FEF9FEF0895FC01918D17
:10070000228D892F90E0805C9F4F821B91098F730F
:100710009927089588ED92E00E947E0321E0892BBD
:1007200009F420E0822F0895CF92DF92EF92FF929A
:100730001F93CF93DF93EC016A017B01122FE889AD
:10074000F98982E08083C11481EED806E104F104C6
:10075000A1F060E079E08DE390E0A70196010E94AE
:10076000220E215031094109510956954795379577
:100770002795211580E1380798F0E889F9891082DA
:1007800060E874E88EE190E0A70196010E94220ED5
:1007900021503109410951095695479537952795BB
:1007A000EC85FD853083EE85FF852083188EEC89EE
:1007B000FD891083EA89FB89808180618083EA89D1
:1007C000FB89808188608083EA89FB8980818068D9
:1007D0008083EA89FB8980818F7D8083DF91CF913F
:1007E0001F91FF90EF90DF90CF900895FC01A48DB2
:1007F000A80FB92FB11DA35ABF4F2C91848D90E043
:1008000001968F739927848FA689B7892C93A08925
:10081000B1898C91837080648C93938D848D9813AF
:1008200006C00288F389E02D80818F7D8083089542
:10083000EF92FF920F931F93CF93DF93EC0181E030
:10084000888F9B8D8C8D98131AC0E889F9898081D7
:1008500085FF15C09FB7F894EE89FF896083E8890A
:10086000F98980818370806480839FBF81E090E0FC
:10087000DF91CF911F910F91FF90EF900895F62E89
:100880000B8D10E00F5F1F4F0F731127E02E8C8D23
:100890008E110CC00FB607FCFACFE889F989808168
:1008A00085FFF5CFCE010E94F603F1CFEB8DEC0F63
:1008B000FD2FF11DE35AFF4FF0829FB7F8940B8F85
:1008C000EA89FB8980818062CFCFCF93DF93EC01EF
:1008D000888D8823B9F0AA89BB89E889F9898C9128
:1008E00085FD03C0808186FD0DC00FB607FCF7CFE4
:1008F0008C9185FFF2CF808185FFEDCFCE010E94E4
:10090000F603E9CFDF91CF91089580E090E0892B45
:1009100049F080E090E0892B29F00E9400008111CD
:100920000E94000080E090E0892B29F00E948A0359
:1009300081110E94000080E090E0892B49F080E066
:1009400090E0892B29F00E94000081110E94000094
:1009500080E090E0892B49F080E090E0892B29F03D
:100960000E94000081110C9400000895DC01EC91BC
:10097000E03390F511968C91119728E830E0281B10
:10098000310987FD3395220F331F220F331F621762
:10099000730784F012968C9128E532E0281B310908
:1009A00087FD3395220F331F220F331F6217730702
:1009B0000CF49B0122503109220F331F4FB7F894DA
:1009C0008E2F90E0FC01EE0FFF1FE80FF91FE85B90
:1009D000FD4F328321834FBF08951F93CF93DF9341
:1009E000EC01162F8881803308F04EC061E0812F22
:1009F0000E9472028881282F30E0F901EE0FFF1F5C
:100A0000E20FF31FE85BFD4F1F736081607C612B79
:100A1000608319821A822CE0622F0E94440E829F0A
:100A2000B001112430E020E0AB01420F531FFA0166
:100A3000EE0FFF1FE40FF51FE85BFD4F908196FD61
:100A400016C02F5F3F4F2C30310571F7813009F50B
:100A50001092800082E080938100109285001092B5
:100A60008400B19A80916F00826080936F00E8816A
:100A70008E2F90E0FC01EE0FFF1FE80FF91FE85BDF
:100A8000FD4F8081806480838881DF91CF911F91A9
:100A90000895823061F4109290008093910010923A
:100AA00095001092940088BB80937100E0CF833052
:100AB00069F41092A00082E08093A1001092A5003A
:100AC0001092A40089BB80937200D1CF8111CFCF47
:100AD0001092200182E08093210110922501109252
:100AE00024018ABB80937300C2CFAF92BF92CF9292
:100AF000DF92EF92FF920F931F93CF93DF936B01DF
:100B00007A01EC01CD5BDD4F28813CE0389F80010C
:100B1000399F100D1124A0904702B12C27FF1FC050
:100B2000FB011182108288818F5F88838881980100
:100B3000280F311D87FD3A95F6012A153B051CF457
:100B400088818C30C4F180819181049680349C49E5
:100B500008F473C0F60180819181049670C0888189
:100B60009801280F311D87FD3A952A153B05DCF6C3
:100B70008881A801480F511D87FD5A95FA01EE0F93
:100B8000FF1FE40FF51FE85BFD4F808186FFCBCF91
:100B90008881F801E80FF11D87FDFA95CF01EE0F6E
:100BA000FF1FE80FF91FE85BFD4F808160E08F7346
:100BB0000E944402B8CF808191812881A801420F10
:100BC000511D27FD5A959A01FA01EE0FFF1FE20F02
:100BD000F31FE85BFD4F21813281820F931FF701E4
:100BE0009183808388819801280F311D87FD3A9574
:100BF000F901EE0FFF1FE20FF31FE85BFD4F80814D
:100C000086FF22C08881080F111D87FD1A95F80103
:100C1000EE0FFF1FE00FF11FE85BFD4F808161E0E9
:100C20008F73DF91CF911F910F91FF90EF90DF9025
:100C3000CF90BF90AF900C94440280E49CE9F70100
:100C4000918380838FEF8883DF91CF911F910F91E4
:100C5000FF90EF90DF90CF90BF90AF90089560E04D
:100C600081E30E94720261E080E30C9472026EE202
:100C700070E08CE392E00E94ED046FE270E089E3A3
:100C800092E00E94ED0462E370E086E392E00E944D
:100C9000ED0463E370E083E392E00E94ED046BE017
:100CA00070E080E392E00C94ED04E0913C028E2F22
:100CB00090E0FC01EE0FFF1FE80FF91FE85BFD4F0E
:100CC00080818F7B8083E09139028E2F90E0FC0140
:100CD000EE0FFF1FE80FF91FE85BFD4F80818F7B50
:100CE0008083E09136028E2F90E0FC01EE0FFF1F13
:100CF000E80FF91FE85BFD4F80818F7B8083E091D7
:100D000033028E2F90E0FC01EE0FFF1FE80FF91F5A
:100D1000E85BFD4F80818F7B808360E08EE20E94E4
:100D2000720260E08FE20E94720260E082E30E9441
:100D3000720260E083E30E94720282E090E0089514
:100D40006EE270E08CE392E00E94ED046FE270E0EE
:100D500089E392E00E94ED0462E370E086E392E0B2
:100D60000E94ED0463E370E083E392E00E94ED04EF
:100D700081E090E0089560E08AE30E94720260E002
:100D80008BE30E94720260E08CE30E94720260E0DA
:100D90008DE30C947202CF92DF92EF92FF92CF9389
:100DA000DF93C4E6D0E0C12CD12C760185E40E940B
:100DB000AE02BC01990F880B990B0E943E0F9B015C
:100DC000AC01C701B6010E94590E6B017C0165E0C0
:100DD00070E080E090E00E94EE02219739F720E079
:100DE00030E048EC52E4C701B6010E94CA0EDF9120
:100DF000CF91FF90EF90DF90CF900895FB0101908D
:100E00000020E9F73197AF01461B570BDC01ED914C
:100E1000FC910280F381E02D19940F931F93CF93DF
:100E2000DF938C01D0E0C0E06115710519F00E94DC
:100E3000FE06EC0164E172E0C8010E94FE068C0F20
:100E40009D1FDF91CF911F910F910895CF93DF9355
:100E5000CFE3D2E088ED92E09983888326E040E0FA
:100E600052EC61E070E00E9494030E942F060E9401
:100E7000BB060E94370660E085E40E9472020E9471
:100E8000CB0667E172E0888199810E940D07DF91AE
:100E9000CF9108954F925F926F927F928F929F921F
:100EA000AF92BF92CF92DF92EF92FF920F931F9378
:100EB000CF93DF93CDB7DEB762970FB6F894DEBF5E
:100EC0000FBECDBF809100029091010220911E02C1
:100ED00030911F02820F931F853F21E092070CF093
:100EE00037C2909301028093000210921F02109269
:100EF0001E0210922D0210922C0281E090E090933D
:100F00002F0280932E0287E090E090932902809335
:100F1000280244E650E05A8349831D821E821F82C4
:100F20001886C12CD12C76018DE30E94AE02BC0143
:100F3000990F880B990B0E943E0F2CE934EC40E886
:100F40005FEB0E9460102B013C012AE037ED43EA81
:100F50005BE3C701B6010E94590E6B017C0120E0E2
:100F600030E040E85FE30E94590E9B01AC01C701ED
:100F7000B6010E94CA0E4B015C0120E033E445E457
:100F800057E4C301B2010E94F30F2D813E814F81CE
:100F900058850E94580EA50194010E94F30F9B01F1
:100FA000AC016D817E818F8198850E94590E6D8381
:100FB0007E838F83988789819A8101979A83898319
:100FC000A5019401C701B6010E94F30F9B01AC017A
:100FD00060E070E080E89FE30E94580E6B017C01A6
:100FE000A981BA81AB2B09F09FCF2D813E814F8122
:100FF0005885CA01B9010E94C50E882341F020E03E
:1010000030E04AEF54E42D833E834F8358874CE30E
:1010100050E05A87498719821A821B821C82C12C90
:10102000D12C76018BE30E94AE02BC01990F880B94
:10103000990B0E943E0F23E333E343E55FEB0E94ED
:1010400060102B013C012AE037ED43E25CE3C7016D
:10105000B6010E94590E6B017C0120E030E040E8AF
:101060005FE30E94590E9B01AC01C701B6010E94CB
:10107000CA0E4B015C012DEC3CE04EE056E4C3018E
:10108000B2010E94F30F29813A814B815C810E9459
:10109000580EA50194010E94F30F9B01AC016981D8
:1010A0007A818B819C810E94590E69837A838B831C
:1010B0009C8389859A8501979A878987A5019401E0
:1010C000C701B6010E94F30F9B01AC0160E070E024
:1010D00080E89FE30E94580E6B017C01A985BA85C8
:1010E000AB2B09F09FCF29813A814B815C81CA01EA
:1010F000B9010E94C50E882341F020E030E04AEF9C
:1011000054E429833A834B835C834CE350E05E874D
:101110004D87412C512C3201730162018AE30E94F8
:10112000AE02BC01990F880B990B0E943E0F2EEF67
:1011300034ED48E55FEB0E94601069877A878B8702
:101140009C872AE037ED43E25CE3C701B6010E94C9
:10115000590E6B017C0120E030E040E85FE30E9423
:10116000590E9B01AC01C701B6010E94CA0E4B018A
:101170005C0120E03CE041E256E469857A858B859C
:101180009C850E94F30FA30192010E94580EA501B5
:1011900094010E94F30F9B01AC01C301B2010E94B4
:1011A000590E2B013C018D859E8501979E878D8769
:1011B000A5019401C701B6010E94F30F9B01AC0188
:1011C00060E070E080E89FE30E94580E6B017C01B4
:1011D000AD85BE85AB2B09F0A1CFA3019201C30160
:1011E000B2010E94C50E882331F0412C512C9AEF98
:1011F000692E94E4792E24E630E03A8B298BC12CB9
:10120000D12C7601460157018CE30E94AE02BC014D
:10121000990F880B990B0E943E0F20EA3AE14FE6A6
:101220005FEB0E9460106D877E878F87988B2AE026
:1012300037ED43E25CE3C501B4010E94590E4B0156
:101240005C0120E030E040E85FE30E94590E9B0122
:10125000AC01C501B4010E94CA0E69877A878B87E9
:101260009C8720E033E148E257E46D857E858F85D9
:1012700098890E94F30FA70196010E94580E2985B4
:101280003A854B855C850E94F30F9B01AC01C70139
:10129000B6010E94590E6B017C0149895A8941505F
:1012A00051095A8B498B29853A854B855C85C50147
:1012B000B4010E94F30F9B01AC0160E070E080E894
:1012C0009FE30E94580E4B015C0189899A89892B02
:1012D00009F09ACF20E030E048E452E4C701B601BB
:1012E0000E94580E6B017C01AC019B010E94C50E4F
:1012F000882331F0C12CD12C8AEFE82E84E4F82E1B
:101300001D861E861F86188A19861A861B861C86CD
:1013100003E010E060E080E30E944402C80101970E
:10132000F1F761E080E30E94440283E290E00197DC
:10133000F1F760E080E30E9444020E942002892BC2
:1013400051F40E94C90269877A878B879C87F5CF01
:1013500084EF91E0C6CD0E942002019739F40E94EB
:10136000C9026D877E878F87988BF5CF6D857E85C7
:101370008F85988929853A854B855C85621B730B1F
:10138000840B950B0E943E0F2AE939E949EB50E4A2
:101390000E94CA0E4B015C018092200290922102B1
:1013A000A0922202B092230220E030E0A9010E9424
:1013B000C50E87FDAFCF61E070E080E090E00E9455
:1013C000EE0220E030E046E153E46D817E818F81C2
:1013D00098850E94C50E10E087FF0CC020E030E029
:1013E00046E153E4C701B6010E94C50E182F111F34
:1013F0001127111F20E030E046E153E4C501B4019C
:101400000E94C50E87FF1DC02D813E814F815885EA
:10141000C701B6010E94C50E87FD9FC11A861986B5
:1014200020E030E046E153E469817A818B819C8140
:101430000E94C50E87FF1FC082E090E09A878987CF
:101440001AC020E030E046E153E469817A818B8163
:101450009C810E94C50E87FF3AC042E050E05A8747
:10146000498720E030E046E153E4C501B4010E9421
:10147000C50E87FF2FC02D813E814F815885C70142
:10148000B6010E94EE0F18160CF46CC120E030E09B
:1014900046E153E4C301B2010E94C50E87FF24C098
:1014A00020E030E046E153E469817A818B819C81C0
:1014B0000E94C50E87FF02C0111164C181E090E057
:1014C000909327028093260284E090E01AC01A8647
:1014D0001986C7CF20E030E046E153E4C301B201F2
:1014E0000E94C50E87FDEACF89859A85029709F08B
:1014F00044C181E090E0909327028093260285E02A
:1015000090E0909325028093240280912C02909188
:101510002D0290932B0280932A02809126029091B3
:101520002702019741F48091240290912502909323
:101530002B0280932A02E0912A02F0912B02E830DC
:10154000F10508F09EC08827E755F54F8F4F0C94A2
:10155000500EB60AD80AF40A0C0B160B5A0B6E0B77
:10156000980B1092270210922602CFCF0091000212
:1015700010910102D801A452BA4FBA83A983BD01C8
:101580008CE392E00E94B60469817A8189E392E05B
:101590000E94B6042CED35E0201B310B3A832983E1
:1015A000B90186E392E00E94B60469817A815FC046
:1015B00040910002509101025A8349830CED15E0DD
:1015C000041B150BB8018CE392E00E94B604B8012D
:1015D00089E392E00E94B60489819A8184529A4FED
:1015E0009A838983BC01DDCF809100029091010232
:1015F000ACEDB5E0A81BB90BBA83A983BD018CE3A0
:1016000092E00E94B60469817A8189E392E00E94A7
:10161000B60469817A81C5CF209100023091010220
:1016200024523A4F3A832983B901E9CF409100020D
:10163000509101025A8349830CED15E0041B150BF0
:10164000B8018CE392E00E94B60489819A818452A9
:101650009A4F9A838983BC0189E392E00E94B60481
:1016600069817A8186E392E00E94B604B80183E33F
:1016700092E00E94B60468EE73E080E090E00E9481
:10168000EE0281E090E062960FB6F894DEBF0FBEE6
:10169000CDBFDF91CF911F910F91FF90EF90DF9021
:1016A000CF90BF90AF909F908F907F906F905F9002
:1016B0004F900895E0900002F090010287010452DB
:1016C0001A4FB8018CE392E00E94B604ACEDB5E08D
:1016D000AE19BF09BA83A983BD01BECF0091000234
:1016E000109101022CED35E0201B310B3A83298348
:1016F000B9018CE392E00E94B60469817A8189E3A2
:1017000092E00E94B60404521A4FB80186E392E0B8
:101710000E94B604B80183E392E00E94B60464EF2D
:1017200071E080E090E00E94EE0269817A8167CFEB
:101730006CED75E08CE392E00E94B6046CED75E010
:1017400089E392E00E94B6046CED75E086E392E0D6
:101750000E94B6046CED75E08ACF42E050E05A87F3
:1017600049875ECE20E030E046E153E4C301B20198
:101770000E94C50E87FD94CEA1CEA985BA8511978A
:1017800009F0EFCE81E090E090932702809326024B
:10179000B8CE80914102909142028130910559F07A
:1017A00018F0029779F008950E94A00690934202E3
:1017B0008093410208950E944A07909342028093C9
:1017C000410208950E94550690934202809341027F
:1017D00008951F920F920FB60F9211242F933F93EB
:1017E0008F939F93AF93BF938091760390917703EC
:1017F000A0917803B09179033091750323E0230F12
:101800002D3758F50196A11DB11D209375038093C6
:10181000760390937703A0937803B0937903809134
:101820007A0390917B03A0917C03B0917D03019694
:10183000A11DB11D80937A0390937B03A0937C0339
:10184000B0937D03BF91AF919F918F913F912F9165
:101850000F900FBE0F901F90189526E8230F029649
:10186000A11DB11DD2CF1F920F920FB60F9211245E
:101870000BB60F922F933F934F935F936F937F938A
:101880008F939F93AF93BF93EF93FF9388ED92E075
:101890000E94F603FF91EF91BF91AF919F918F91BD
:1018A0007F916F915F914F913F912F910F900BBE60
:1018B0000F900FBE0F901F9018951F920F920FB6AA
:1018C0000F9211240BB60F922F938F939F93EF9348
:1018D000FF93E091E802F091E9028081E091EE024D
:1018E000F091EF0282FD1DC090818091F1028F5F27
:1018F0008F732091F202821741F0E091F102F0E043
:10190000E852FD4F958F8093F102FF91EF919F91E7
:101910008F912F910F900BBE0F900FBE0F901F90C5
:1019200018958081F2CF1F920F920FB60F9211245B
:101930000BB60F922F933F934F935F936F937F93C9
:101940008F939F93AF93BF93EF93FF9348E251E040
:1019500064E271E090E080E00E947505FF91EF91F4
:10196000BF91AF919F918F917F916F915F914F91B7
:101970003F912F910F900BBE0F900FBE0F901F90B5
:1019800018951F920F920FB60F9211240BB60F925B
:101990002F933F934F935F936F937F938F939F9377
:1019A000AF93BF93EF93FF9348EA50E064EA70E08F
:1019B00083E090E00E947505FF91EF91BF91AF9198
:1019C0009F918F917F916F915F914F913F912F9157
:1019D0000F900BBE0F900FBE0F901F9018951F9287
:1019E0000F920FB60F9211240BB60F922F933F93C5
:1019F0004F935F936F937F938F939F93AF93BF9317
:101A0000EF93FF9348E950E064E970E082E090E0F2
:101A10000E947505FF91EF91BF91AF919F918F91BA
:101A20007F916F915F914F913F912F910F900BBEDE
:101A30000F900FBE0F901F9018951F920F920FB628
:101A40000F9211240BB60F922F933F934F935F93F6
:101A50006F937F938F939F93AF93BF93EF93FF9376
:101A600048E850E064E870E081E090E00E9475058D
:101A7000FF91EF91BF91AF919F918F917F916F9166
:101A80005F914F913F912F910F900BBE0F900FBE22
:101A90000F901F901895E8EDF2E01382128288EE05
:101AA00093E0A0E0B0E084839583A683B78386E0CB
:101AB00092E0918380838DEC90E0958784878CEC15
:101AC00090E09787868788EC90E0918B808B89ECFB
:101AD00090E0938B828B8AEC90E0958B848B8EECDC
:101AE00090E0978B868B118E128E138E148E089534
:101AF000FC0190914702903398F481E0890F809324
:101B000047029083892F90E0FC01EE0FFF1FE80F42
:101B1000F91FE85BFD4F88EB9BE09283818308957A
:101B20008FEF808308958CE392E00E94780D89E323
:101B300092E00E94780D86E392E00E94780D83E3A4
:101B400092E00E94780D80E392E00C94780D0E9460
:101B50004B0D0C94930D789484B5826084BD84B54C
:101B6000816084BD85B5826085BD85B5816085BD98
:101B700080916E00816080936E0010928100809150
:101B800081008260809381008091810081608093D8
:101B90008100809180008160809380008091B100FD
:101BA00084608093B1008091B00081608093B00028
:101BB000809191008260809391008091910081607A
:101BC000809391008091900081608093900080913B
:101BD000A10082608093A1008091A1008160809328
:101BE000A1008091A00081608093A00080912101DC
:101BF0008260809321018091210181608093210185
:101C00008091200181608093200180917A0084601E
:101C100080937A0080917A00826080937A0080912C
:101C20007A00816080937A0080917A008068809346
:101C30007A001092C1000E9426070E94C90B0E94E0
:101C40008504FBCFA1E21A2EAA1BBB1BFD010DC010
:101C5000AA1FBB1FEE1FFF1FA217B307E407F5075C
:101C600020F0A21BB30BE40BF50B661F771F881F38
:101C7000991F1A9469F760957095809590959B01CE
:101C8000AC01BD01CF010895991B79E004C0991FF3
:101C9000961708F0961B881F7A95C9F780950895C6
:101CA000EE0FFF1F881F8BBF0790F691E02D199450
:101CB0005058BB27AA270E94700E0C94B40F0E94A4
:101CC000A60F38F00E94AD0F20F039F49F3F19F4B1
:101CD00026F40C94A30F0EF4E095E7FB0C949D0FF3
:101CE000E92F0E94C50F58F3BA17620773078407DC
:101CF000950720F079F4A6F50C94E70F0EF4E09523
:101D00000B2EBA2FA02D0B01B90190010C01CA01B5
:101D1000A0011124FF27591B99F0593F50F4503E60
:101D200068F11A16F040A22F232F342F4427585F52
:101D3000F3CF469537952795A795F0405395C9F76A
:101D40007EF41F16BA0B620B730B840BBAF0915022
:101D5000A1F0FF0FBB1F661F771F881FC2F70EC0C1
:101D6000BA0F621F731F841F48F487957795679594
:101D7000B795F7959E3F08F0B0CF9395880F08F080
:101D80009927EE0F9795879508950E94790F08F48B
:101D900081E008950E94DE0E0C94B40F0E94AD0FF6
:101DA00058F00E94A60F40F029F45F3F29F00C94F0
:101DB0009D0F51110C94E80F0C94A30F0E94C50FB6
:101DC00068F39923B1F3552391F3951B550BBB276A
:101DD000AA2762177307840738F09F5F5F4F220FAF
:101DE000331F441FAA1FA9F335D00E2E3AF0E0E8A6
:101DF00032D091505040E695001CCAF72BD0FE2FF0
:101E000029D0660F771F881FBB1F26173707480783
:101E1000AB07B0E809F0BB0B802DBF01FF2793583B
:101E20005F4F3AF09E3F510578F00C949D0F0C9453
:101E3000E80F5F3FE4F3983ED4F386957795679576
:101E4000B795F7959F5FC9F7880F911D9695879570
:101E500097F90895E1E0660F771F881FBB1F62178F
:101E600073078407BA0720F0621B730B840BBA0B4D
:101E7000EE1F88F7E0950895E89409C097FB3EF4BB
:101E800090958095709561957F4F8F4F9F4F9923C7
:101E9000A9F0F92F96E9BB279395F6958795779545
:101EA0006795B795F111F8CFFAF4BB0F11F460FF05
:101EB0001BC06F5F7F4F8F4F9F4F16C0882311F05D
:101EC00096E911C0772321F09EE8872F762F05C071
:101ED000662371F096E8862F70E060E02AF09A950C
:101EE000660F771F881FDAF7880F9695879597F901
:101EF0000895990F0008550FAA0BE0E8FEEF16169B
:101F00001706E807F907C0F012161306E407F507ED
:101F100098F0621B730B840B950B39F40A2661F061
:101F2000232B242B252B21F408950A2609F4A14004
:101F3000A6958FEF811D811D089597F99F6780E811
:101F400070E060E008959FEF80EC089500240A940B
:101F50001616170618060906089500240A94121684
:101F60001306140605060895092E0394000C11F4B7
:101F7000882352F0BB0F40F4BF2B11F460FF04C064
:101F80006F5F7F4F8F4F9F4F089557FD9058440FBD
:101F9000551F59F05F3F71F04795880F97FB991FC8
:101FA00061F09F3F79F08795089512161306140685
:101FB000551FF2CF4695F1DF08C016161706180612
:101FC000991FF1CF86957105610508940895E894ED
:101FD000BB2766277727CB0197F908950E94790FD1
:101FE00008F48FEF08950E9406100C94B40F0E941D
:101FF000A60F38F00E94AD0F20F0952311F00C943D
:102000009D0F0C94A30F11240C94E80F0E94C50F90
:1020100070F3959FC1F3950F50E0551F629FF0013B
:10202000729FBB27F00DB11D639FAA27F00DB11D54
:10203000AA1F649F6627B00DA11D661F829F2227DD
:10204000B00DA11D621F739FB00DA11D621F839F64
:10205000A00D611D221F749F3327A00D611D231F3A
:10206000849F600D211D822F762F6A2F11249F5788
:1020700050409AF0F1F088234AF0EE0FFF1FBB1F8B
:10208000661F771F881F91505040A9F79E3F51054A
:1020900080F00C949D0F0C94E80F5F3FE4F3983EA2
:1020A000D4F3869577956795B795F795E7959F5FF4
:1020B000C1F7FE2B880F911D9695879597F9089586
:1020C000FA01EE0FFF1F309621053105A1F16115D0
:1020D000710561F48038BFE39B0749F1689490383B
:1020E000810561F08038BFEF9B0741F099234AF5E5
:1020F000FF3FE1053105210519F1E8940894E795C2
:10210000D901AA2329F4AB2FBE2FF85FD0F310C05A
:10211000FF5F70F4A695E0F7F73950F019F0FF3A39
:1021200038F49F779F930DD00F9007FC9058089537
:1021300046F00C94A30F60E070E080E89FE3089500
:102140004FE79F775F934F933F932F930E945B11CD
:102150002F913F914F915F910E94F30F0C94B81013
:1021600029F416F00C949D0F0C94E70F0C94A30F18
:102170000E94CD0FA8F39638A0F707F80F92E894C5
:102180002BE33AEA48EB5FE70E9409100F920F92A7
:102190000F924DB75EB70F920E94A311E4EEF0E0EC
:1021A0000E94EA104F915F91EF91FF91E595EE1F2C
:1021B000FF1F49F0FE57E0684427EE0F441FFA95D1
:1021C000E1F74195550B0E941D110F9007FE0C94ED
:1021D00011110895DF93CF931F930F93FF92EF9206
:1021E000DF927B018C01689406C0DA2EEF010E9419
:1021F0000610FE01E894A5912591359145915591E0
:10220000A6F3EF010E94700EFE019701A801DA9477
:1022100069F7DF90EF90FF900F911F91CF91DF91C1
:1022200008959B01AC0160E070E080E89FE30C94AE
:10223000CA0E0C949D0F0C94D7110E94CD0FD8F3A9
:102240009923C9F3940F511DA3F39150504094F07A
:1022500059F0882332F0660F771F881F9150504045
:10226000C1F79E3F51052CF7880F911D96958795D4
:1022700097F908955F3FACF0983E9CF0BB27869598
:1022800077956795B79508F4B1609395C1F7BB0F43
:1022900058F711F460FFE8CF6F5F7F4F8F4F9F4F6C
:1022A000E3CF0C94E80F16F00C94D7110C94A30F05
:1022B00068940C949D0F0E94CD0FA8F39923C1F34D
:1022C000AEF3DF93CF931F930F93FF92C92FDD27B8
:1022D00088232AF02197660F771F881FDAF720E0FE
:1022E00030E040E85FEB9FE3883920F0803E38F033
:1022F00021968F770E94590EECE0F1E004C00E9415
:10230000590EE9E3F1E00E94EA108B01BE01EC01F5
:10231000FB2E6F5771097595771F880B990B0E94DB
:102320003E0F28E132E741E35FE30E940610AF2D44
:102330009801AE01FF900F911F91CF91DF910E9404
:10234000700E0C94B40FFA01DC01AA0FBB1F9B01A5
:10235000AC01BF5728F4222733274427507820C0E8
:10236000B75190F4AB2F0024469537952795011C63
:10237000A395D2F3002071F0220F331F441FB395B1
:10238000DAF30ED00C94580E61307105A0E88A077C
:10239000B94630F49B01AC016627772788279078EF
:1023A000309621F0208331834283538308959F3FE9
:1023B00031F0915020F4879577956795B795880F00
:0E23C000911D9695879597F90895F894FFCF93
:1023CE006E0000000000180420034D0365047E0318
:0E23DE005C0370030D0A0053746172740000FA
:00000001FF
